{
  "contractName": "FlightSuretyApp",
  "abi": [
    {
      "inputs": [
        {
          "internalType": "address",
          "name": "_flightSuretyData",
          "type": "address"
        }
      ],
      "stateMutability": "nonpayable",
      "type": "constructor"
    },
    {
      "anonymous": false,
      "inputs": [
        {
          "indexed": true,
          "internalType": "bytes32",
          "name": "id",
          "type": "bytes32"
        },
        {
          "indexed": false,
          "internalType": "string",
          "name": "Flight",
          "type": "string"
        },
        {
          "indexed": false,
          "internalType": "uint256",
          "name": "UpdatedTimestamp",
          "type": "uint256"
        },
        {
          "indexed": false,
          "internalType": "address",
          "name": "Airline",
          "type": "address"
        }
      ],
      "name": "FlightRegistration",
      "type": "event"
    },
    {
      "anonymous": false,
      "inputs": [
        {
          "indexed": false,
          "internalType": "address",
          "name": "airline",
          "type": "address"
        },
        {
          "indexed": false,
          "internalType": "string",
          "name": "flight",
          "type": "string"
        },
        {
          "indexed": false,
          "internalType": "uint256",
          "name": "timestamp",
          "type": "uint256"
        },
        {
          "indexed": false,
          "internalType": "uint8",
          "name": "status",
          "type": "uint8"
        }
      ],
      "name": "FlightStatusInfo",
      "type": "event"
    },
    {
      "anonymous": false,
      "inputs": [
        {
          "indexed": false,
          "internalType": "address",
          "name": "airline",
          "type": "address"
        },
        {
          "indexed": false,
          "internalType": "string",
          "name": "flight",
          "type": "string"
        },
        {
          "indexed": false,
          "internalType": "uint256",
          "name": "timestamp",
          "type": "uint256"
        },
        {
          "indexed": false,
          "internalType": "uint8",
          "name": "status",
          "type": "uint8"
        }
      ],
      "name": "OracleReport",
      "type": "event"
    },
    {
      "anonymous": false,
      "inputs": [
        {
          "indexed": false,
          "internalType": "uint8",
          "name": "index",
          "type": "uint8"
        },
        {
          "indexed": false,
          "internalType": "address",
          "name": "airline",
          "type": "address"
        },
        {
          "indexed": false,
          "internalType": "string",
          "name": "flight",
          "type": "string"
        },
        {
          "indexed": false,
          "internalType": "uint256",
          "name": "timestamp",
          "type": "uint256"
        }
      ],
      "name": "OracleRequest",
      "type": "event"
    },
    {
      "inputs": [],
      "name": "REGISTRATION_FEE",
      "outputs": [
        {
          "internalType": "uint256",
          "name": "",
          "type": "uint256"
        }
      ],
      "stateMutability": "view",
      "type": "function"
    },
    {
      "inputs": [],
      "name": "isOperational",
      "outputs": [
        {
          "internalType": "bool",
          "name": "",
          "type": "bool"
        }
      ],
      "stateMutability": "view",
      "type": "function"
    },
    {
      "inputs": [
        {
          "internalType": "address",
          "name": "_address",
          "type": "address"
        },
        {
          "internalType": "string",
          "name": "name",
          "type": "string"
        }
      ],
      "name": "registerAirline",
      "outputs": [
        {
          "internalType": "bool",
          "name": "success",
          "type": "bool"
        },
        {
          "internalType": "uint256",
          "name": "votes",
          "type": "uint256"
        }
      ],
      "stateMutability": "nonpayable",
      "type": "function"
    },
    {
      "inputs": [],
      "name": "airlineFund",
      "outputs": [],
      "stateMutability": "payable",
      "type": "function"
    },
    {
      "inputs": [
        {
          "internalType": "address",
          "name": "_address",
          "type": "address"
        },
        {
          "internalType": "bool",
          "name": "_approval",
          "type": "bool"
        }
      ],
      "name": "approveAirlineRegistration",
      "outputs": [
        {
          "internalType": "bool",
          "name": "success",
          "type": "bool"
        },
        {
          "internalType": "uint8",
          "name": "votes",
          "type": "uint8"
        }
      ],
      "stateMutability": "nonpayable",
      "type": "function"
    },
    {
      "inputs": [
        {
          "internalType": "address",
          "name": "_address",
          "type": "address"
        }
      ],
      "name": "getAirline",
      "outputs": [
        {
          "internalType": "string",
          "name": "name",
          "type": "string"
        },
        {
          "internalType": "uint8",
          "name": "status",
          "type": "uint8"
        },
        {
          "internalType": "uint256",
          "name": "funds",
          "type": "uint256"
        },
        {
          "internalType": "uint8",
          "name": "votes",
          "type": "uint8"
        }
      ],
      "stateMutability": "view",
      "type": "function"
    },
    {
      "inputs": [],
      "name": "getTotalAirlines",
      "outputs": [
        {
          "internalType": "uint8",
          "name": "",
          "type": "uint8"
        }
      ],
      "stateMutability": "view",
      "type": "function"
    },
    {
      "inputs": [
        {
          "internalType": "string",
          "name": "_flight",
          "type": "string"
        },
        {
          "internalType": "uint256",
          "name": "_updatedTimestamp",
          "type": "uint256"
        },
        {
          "internalType": "address",
          "name": "_airline",
          "type": "address"
        }
      ],
      "name": "registerFlight",
      "outputs": [
        {
          "internalType": "bytes32",
          "name": "",
          "type": "bytes32"
        }
      ],
      "stateMutability": "nonpayable",
      "type": "function"
    },
    {
      "inputs": [
        {
          "internalType": "string",
          "name": "_flight",
          "type": "string"
        },
        {
          "internalType": "uint256",
          "name": "_updatedTimestamp",
          "type": "uint256"
        },
        {
          "internalType": "address",
          "name": "_airline",
          "type": "address"
        }
      ],
      "name": "getFlight",
      "outputs": [
        {
          "internalType": "bytes32",
          "name": "",
          "type": "bytes32"
        },
        {
          "internalType": "address",
          "name": "",
          "type": "address"
        },
        {
          "internalType": "string",
          "name": "",
          "type": "string"
        },
        {
          "internalType": "uint256",
          "name": "",
          "type": "uint256"
        },
        {
          "internalType": "bool",
          "name": "",
          "type": "bool"
        },
        {
          "internalType": "uint256",
          "name": "",
          "type": "uint256"
        }
      ],
      "stateMutability": "view",
      "type": "function"
    },
    {
      "inputs": [
        {
          "internalType": "string",
          "name": "_flight",
          "type": "string"
        },
        {
          "internalType": "uint256",
          "name": "_updatedTimestamp",
          "type": "uint256"
        },
        {
          "internalType": "address",
          "name": "_airline",
          "type": "address"
        }
      ],
      "name": "buyInsurance",
      "outputs": [
        {
          "internalType": "bool",
          "name": "",
          "type": "bool"
        }
      ],
      "stateMutability": "payable",
      "type": "function"
    },
    {
      "inputs": [
        {
          "internalType": "address",
          "name": "_customer",
          "type": "address"
        }
      ],
      "name": "getCustomerInsurances",
      "outputs": [
        {
          "components": [
            {
              "internalType": "uint256",
              "name": "fund",
              "type": "uint256"
            },
            {
              "internalType": "bytes32",
              "name": "flight",
              "type": "bytes32"
            }
          ],
          "internalType": "struct IFlightSuretyData.CustomerInfo[]",
          "name": "",
          "type": "tuple[]"
        }
      ],
      "stateMutability": "view",
      "type": "function"
    },
    {
      "inputs": [
        {
          "internalType": "address",
          "name": "airline",
          "type": "address"
        },
        {
          "internalType": "string",
          "name": "flight",
          "type": "string"
        },
        {
          "internalType": "uint256",
          "name": "timestamp",
          "type": "uint256"
        }
      ],
      "name": "fetchFlightStatus",
      "outputs": [],
      "stateMutability": "nonpayable",
      "type": "function"
    },
    {
      "inputs": [],
      "name": "registerOracle",
      "outputs": [],
      "stateMutability": "payable",
      "type": "function"
    },
    {
      "inputs": [],
      "name": "getMyIndexes",
      "outputs": [
        {
          "internalType": "uint8[3]",
          "name": "",
          "type": "uint8[3]"
        }
      ],
      "stateMutability": "view",
      "type": "function"
    },
    {
      "inputs": [
        {
          "internalType": "uint8",
          "name": "index",
          "type": "uint8"
        },
        {
          "internalType": "address",
          "name": "airline",
          "type": "address"
        },
        {
          "internalType": "string",
          "name": "flight",
          "type": "string"
        },
        {
          "internalType": "uint256",
          "name": "timestamp",
          "type": "uint256"
        },
        {
          "internalType": "uint8",
          "name": "statusCode",
          "type": "uint8"
        }
      ],
      "name": "submitOracleResponse",
      "outputs": [],
      "stateMutability": "nonpayable",
      "type": "function"
    }
  ],
  "bytecode": "0x608060405264e8d4a510006002556000600360006101000a81548160ff021916908360ff1602179055503480156200003657600080fd5b5060405162002d1a38038062002d1a83398181016040528101906200005c91906200014e565b336000806101000a81548173ffffffffffffffffffffffffffffffffffffffff021916908373ffffffffffffffffffffffffffffffffffffffff16021790555080600160006101000a81548173ffffffffffffffffffffffffffffffffffffffff021916908373ffffffffffffffffffffffffffffffffffffffff1602179055505062000180565b600080fd5b600073ffffffffffffffffffffffffffffffffffffffff82169050919050565b60006200011682620000e9565b9050919050565b620001288162000109565b81146200013457600080fd5b50565b60008151905062000148816200011d565b92915050565b600060208284031215620001675762000166620000e4565b5b6000620001778482850162000137565b91505092915050565b612b8a80620001906000396000f3fe6080604052600436106100e85760003560e01c8063c10f27001161008a578063ee38a74911610059578063ee38a749146102ce578063f2cd81921461030c578063f555e2d71461033c578063f83f11c01461037e576100e8565b8063c10f27001461020f578063cd905dff14610238578063d53a57b514610263578063e1de04891461028e576100e8565b80635f746a85116100c65780635f746a851461015f57806364b4f7511461016957806365c152f71461019457806367efbf15146101d1576100e8565b8063071a71a1146100ed578063339d25901461012a5780635f1cc0e614610134575b600080fd5b3480156100f957600080fd5b50610114600480360381019061010f9190611729565b6103a7565b6040516101219190611866565b60405180910390f35b610132610451565b005b34801561014057600080fd5b506101496105d4565b6040516101569190611940565b60405180910390f35b610167610714565b005b34801561017557600080fd5b5061017e6107a4565b60405161018b919061196a565b60405180910390f35b3480156101a057600080fd5b506101bb60048036038101906101b69190611a16565b6107b0565b6040516101c89190611a99565b60405180910390f35b3480156101dd57600080fd5b506101f860048036038101906101f39190611aec565b6108a3565b604051610206929190611b4a565b60405180910390f35b34801561021b57600080fd5b5061023660048036038101906102319190611b9f565b610952565b005b34801561024457600080fd5b5061024d610ce9565b60405161025a9190611c39565b60405180910390f35b34801561026f57600080fd5b50610278610d81565b6040516102859190611c54565b60405180910390f35b34801561029a57600080fd5b506102b560048036038101906102b09190611729565b610e19565b6040516102c59493929190611d08565b60405180910390f35b3480156102da57600080fd5b506102f560048036038101906102f09190611d54565b610ed0565b604051610303929190611db4565b60405180910390f35b61032660048036038101906103219190611a16565b610f80565b6040516103339190611c39565b60405180910390f35b34801561034857600080fd5b50610363600480360381019061035e9190611a16565b61107d565b60405161037596959493929190611dec565b60405180910390f35b34801561038a57600080fd5b506103a560048036038101906103a09190611e54565b61114c565b005b6060600160009054906101000a900473ffffffffffffffffffffffffffffffffffffffff1673ffffffffffffffffffffffffffffffffffffffff1663071a71a1836040518263ffffffff1660e01b81526004016104049190611ec8565b600060405180830381865afa158015610421573d6000803e3d6000fd5b505050506040513d6000823e3d601f19601f8201168201806040525081019061044a91906120b7565b9050919050565b670de0b6b3a764000034101561049c576040517f08c379a00000000000000000000000000000000000000000000000000000000081526004016104939061214c565b60405180910390fd5b60011515600460003373ffffffffffffffffffffffffffffffffffffffff1673ffffffffffffffffffffffffffffffffffffffff16815260200190815260200160002060000160009054906101000a900460ff16151514610532576040517f08c379a0000000000000000000000000000000000000000000000000000000008152600401610529906121b8565b60405180910390fd5b600061053d33611257565b9050604051806040016040528060011515815260200182815250600460003373ffffffffffffffffffffffffffffffffffffffff1673ffffffffffffffffffffffffffffffffffffffff16815260200190815260200160002060008201518160000160006101000a81548160ff0219169083151502179055506020820151816001019060036105cd9291906115de565b5090505050565b6105dc611678565b600460003373ffffffffffffffffffffffffffffffffffffffff1673ffffffffffffffffffffffffffffffffffffffff16815260200190815260200160002060000160009054906101000a900460ff1661066b576040517f08c379a000000000000000000000000000000000000000000000000000000000815260040161066290612224565b60405180910390fd5b600460003373ffffffffffffffffffffffffffffffffffffffff1673ffffffffffffffffffffffffffffffffffffffff16815260200190815260200160002060010160038060200260405190810160405280929190826003801561070a576020028201916000905b82829054906101000a900460ff1660ff16815260200190600101906020826000010492830192600103820291508084116106d35790505b5050505050905090565b600160009054906101000a900473ffffffffffffffffffffffffffffffffffffffff1673ffffffffffffffffffffffffffffffffffffffff16632302440834336040518363ffffffff1660e01b81526004016107709190611ec8565b6000604051808303818588803b15801561078957600080fd5b505af115801561079d573d6000803e3d6000fd5b5050505050565b670de0b6b3a764000081565b600080600160009054906101000a900473ffffffffffffffffffffffffffffffffffffffff1673ffffffffffffffffffffffffffffffffffffffff166365c152f7878787876040518563ffffffff1660e01b81526004016108149493929190612280565b6020604051808303816000875af1158015610833573d6000803e3d6000fd5b505050506040513d601f19601f8201168201806040525081019061085791906122c0565b9050807f02f7de4aa689c7e16ea48f1d4c296283a1be60fbccb7b097a91d52b94f84e49e8787878760405161088f9493929190612280565b60405180910390a280915050949350505050565b600080600160009054906101000a900473ffffffffffffffffffffffffffffffffffffffff1673ffffffffffffffffffffffffffffffffffffffff16633e2e41178533866040518463ffffffff1660e01b8152600401610905939291906122ed565b60408051808303816000875af1158015610923573d6000803e3d6000fd5b505050506040513d601f19601f82011682018060405250810190610947919061234e565b915091509250929050565b8560ff16600460003373ffffffffffffffffffffffffffffffffffffffff1673ffffffffffffffffffffffffffffffffffffffff1681526020019081526020016000206001016000600381106109ab576109aa61238e565b5b602091828204019190069054906101000a900460ff1660ff161480610a3f57508560ff16600460003373ffffffffffffffffffffffffffffffffffffffff1673ffffffffffffffffffffffffffffffffffffffff168152602001908152602001600020600101600160038110610a2457610a2361238e565b5b602091828204019190069054906101000a900460ff1660ff16145b80610ab957508560ff16600460003373ffffffffffffffffffffffffffffffffffffffff1673ffffffffffffffffffffffffffffffffffffffff168152602001908152602001600020600101600260038110610a9e57610a9d61238e565b5b602091828204019190069054906101000a900460ff1660ff16145b610af8576040517f08c379a0000000000000000000000000000000000000000000000000000000008152600401610aef9061242f565b60405180910390fd5b60008686868686604051602001610b1395949392919061251e565b6040516020818303038152906040528051906020012090506005600082815260200190815260200160002060000160149054906101000a900460ff16610b8e576040517f08c379a0000000000000000000000000000000000000000000000000000000008152600401610b85906125dc565b60405180910390fd5b6005600082815260200190815260200160002060010160008360ff1660ff168152602001908152602001600020339080600181540180825580915050600190039060005260206000200160009091909190916101000a81548173ffffffffffffffffffffffffffffffffffffffff021916908373ffffffffffffffffffffffffffffffffffffffff1602179055507f43c853095c2752648493c88b4baac4d580d2594ffb00c6f1d4242d844514f7838686868686604051610c539594939291906125fc565b60405180910390a160036005600083815260200190815260200160002060010160008460ff1660ff1681526020019081526020016000208054905010610ce0577fe23f5229de535c091e3b7bec2665f5d698192d3b31393066e8987b7a05076b6c8686868686604051610cca9594939291906125fc565b60405180910390a1610cdf868686868661143d565b5b50505050505050565b6000600160009054906101000a900473ffffffffffffffffffffffffffffffffffffffff1673ffffffffffffffffffffffffffffffffffffffff1663cd905dff6040518163ffffffff1660e01b8152600401602060405180830381865afa158015610d58573d6000803e3d6000fd5b505050506040513d601f19601f82011682018060405250810190610d7c919061264a565b905090565b6000600160009054906101000a900473ffffffffffffffffffffffffffffffffffffffff1673ffffffffffffffffffffffffffffffffffffffff1663d53a57b56040518163ffffffff1660e01b8152600401602060405180830381865afa158015610df0573d6000803e3d6000fd5b505050506040513d601f19601f82011682018060405250810190610e149190612677565b905090565b60606000806000600160009054906101000a900473ffffffffffffffffffffffffffffffffffffffff1673ffffffffffffffffffffffffffffffffffffffff1663e1de0489866040518263ffffffff1660e01b8152600401610e7b9190611ec8565b600060405180830381865afa158015610e98573d6000803e3d6000fd5b505050506040513d6000823e3d601f19601f82011682018060405250810190610ec1919061274a565b93509350935093509193509193565b600080600160009054906101000a900473ffffffffffffffffffffffffffffffffffffffff1673ffffffffffffffffffffffffffffffffffffffff1663ee38a7498686866040518463ffffffff1660e01b8152600401610f32939291906127cd565b60408051808303816000875af1158015610f50573d6000803e3d6000fd5b505050506040513d601f19601f82011682018060405250810190610f7491906127ff565b91509150935093915050565b6000600254341015610fc7576040517f08c379a0000000000000000000000000000000000000000000000000000000008152600401610fbe9061288b565b60405180910390fd5b600160009054906101000a900473ffffffffffffffffffffffffffffffffffffffff1673ffffffffffffffffffffffffffffffffffffffff1663c049604a34611012858989896114d9565b336040518463ffffffff1660e01b81526004016110309291906128ab565b60206040518083038185885af115801561104e573d6000803e3d6000fd5b50505050506040513d601f19601f82011682018060405250810190611073919061264a565b9050949350505050565b60008060606000806000600160009054906101000a900473ffffffffffffffffffffffffffffffffffffffff1673ffffffffffffffffffffffffffffffffffffffff1663cac8f2926110d1898d8d8d6114d9565b6040518263ffffffff1660e01b81526004016110ed9190611a99565b600060405180830381865afa15801561110a573d6000803e3d6000fd5b505050506040513d6000823e3d601f19601f8201168201806040525081019061113391906128e9565b9550955095509550955095509499939850945094509450565b600061115733611512565b90506000818686868660405160200161117495949392919061251e565b604051602081830303815290604052805190602001209050336005600083815260200190815260200160002060000160006101000a81548173ffffffffffffffffffffffffffffffffffffffff021916908373ffffffffffffffffffffffffffffffffffffffff16021790555060016005600083815260200190815260200160002060000160146101000a81548160ff0219169083151502179055507f3ed01f2c3fc24c6b329d931e35b03e390d23497d22b3f90e15b600343e93df118287878787604051611247959493929190612992565b60405180910390a1505050505050565b61125f611678565b611267611678565b61127083611512565b816000600381106112845761128361238e565b5b602002019060ff16908160ff1681525050806000600381106112a9576112a861238e565b5b6020020151816001600381106112c2576112c161238e565b5b602002019060ff16908160ff16815250505b806000600381106112e8576112e761238e565b5b602002015160ff16816001600381106113045761130361238e565b5b602002015160ff16036113445761131a83611512565b8160016003811061132e5761132d61238e565b5b602002019060ff16908160ff16815250506112d4565b806001600381106113585761135761238e565b5b6020020151816002600381106113715761137061238e565b5b602002019060ff16908160ff16815250505b806000600381106113975761139661238e565b5b602002015160ff16816002600381106113b3576113b261238e565b5b602002015160ff1614806113fc5750806001600381106113d6576113d561238e565b5b602002015160ff16816002600381106113f2576113f161238e565b5b602002015160ff16145b156114345761140a83611512565b8160026003811061141e5761141d61238e565b5b602002019060ff16908160ff1681525050611383565b80915050919050565b600160009054906101000a900473ffffffffffffffffffffffffffffffffffffffff1673ffffffffffffffffffffffffffffffffffffffff1663e7bdde3b86868686866040518663ffffffff1660e01b81526004016114a09594939291906125fc565b600060405180830381600087803b1580156114ba57600080fd5b505af11580156114ce573d6000803e3d6000fd5b505050505050505050565b6000848484846040516020016114f294939291906129e0565b604051602081830303815290604052805190602001209050949350505050565b600080600a905060008160ff166003600081819054906101000a900460ff168092919061153e90612a4a565b91906101000a81548160ff021916908360ff16021790555060ff16436115649190612a73565b4085604051602001611577929190612ac8565b6040516020818303038152906040528051906020012060001c61159a9190612b23565b905060fa600360009054906101000a900460ff1660ff1611156115d4576000600360006101000a81548160ff021916908360ff1602179055505b8092505050919050565b826003601f016020900481019282156116675791602002820160005b8382111561163857835183826101000a81548160ff021916908360ff16021790555092602001926001016020816000010492830192600103026115fa565b80156116655782816101000a81549060ff0219169055600101602081600001049283019260010302611638565b505b509050611674919061169a565b5090565b6040518060600160405280600390602082028036833780820191505090505090565b5b808211156116b357600081600090555060010161169b565b5090565b6000604051905090565b600080fd5b600080fd5b600073ffffffffffffffffffffffffffffffffffffffff82169050919050565b60006116f6826116cb565b9050919050565b611706816116eb565b811461171157600080fd5b50565b600081359050611723816116fd565b92915050565b60006020828403121561173f5761173e6116c1565b5b600061174d84828501611714565b91505092915050565b600081519050919050565b600082825260208201905092915050565b6000819050602082019050919050565b6000819050919050565b61179581611782565b82525050565b6000819050919050565b6117ae8161179b565b82525050565b6040820160008201516117ca600085018261178c565b5060208201516117dd60208501826117a5565b50505050565b60006117ef83836117b4565b60408301905092915050565b6000602082019050919050565b600061181382611756565b61181d8185611761565b935061182883611772565b8060005b8381101561185957815161184088826117e3565b975061184b836117fb565b92505060018101905061182c565b5085935050505092915050565b600060208201905081810360008301526118808184611808565b905092915050565b600060039050919050565b600081905092915050565b6000819050919050565b600060ff82169050919050565b6118be816118a8565b82525050565b60006118d083836118b5565b60208301905092915050565b6000602082019050919050565b6118f281611888565b6118fc8184611893565b92506119078261189e565b8060005b8381101561193857815161191f87826118c4565b965061192a836118dc565b92505060018101905061190b565b505050505050565b600060608201905061195560008301846118e9565b92915050565b61196481611782565b82525050565b600060208201905061197f600083018461195b565b92915050565b600080fd5b600080fd5b600080fd5b60008083601f8401126119aa576119a9611985565b5b8235905067ffffffffffffffff8111156119c7576119c661198a565b5b6020830191508360018202830111156119e3576119e261198f565b5b9250929050565b6119f381611782565b81146119fe57600080fd5b50565b600081359050611a10816119ea565b92915050565b60008060008060608587031215611a3057611a2f6116c1565b5b600085013567ffffffffffffffff811115611a4e57611a4d6116c6565b5b611a5a87828801611994565b94509450506020611a6d87828801611a01565b9250506040611a7e87828801611714565b91505092959194509250565b611a938161179b565b82525050565b6000602082019050611aae6000830184611a8a565b92915050565b60008115159050919050565b611ac981611ab4565b8114611ad457600080fd5b50565b600081359050611ae681611ac0565b92915050565b60008060408385031215611b0357611b026116c1565b5b6000611b1185828601611714565b9250506020611b2285828601611ad7565b9150509250929050565b611b3581611ab4565b82525050565b611b44816118a8565b82525050565b6000604082019050611b5f6000830185611b2c565b611b6c6020830184611b3b565b9392505050565b611b7c816118a8565b8114611b8757600080fd5b50565b600081359050611b9981611b73565b92915050565b60008060008060008060a08789031215611bbc57611bbb6116c1565b5b6000611bca89828a01611b8a565b9650506020611bdb89828a01611714565b955050604087013567ffffffffffffffff811115611bfc57611bfb6116c6565b5b611c0889828a01611994565b94509450506060611c1b89828a01611a01565b9250506080611c2c89828a01611b8a565b9150509295509295509295565b6000602082019050611c4e6000830184611b2c565b92915050565b6000602082019050611c696000830184611b3b565b92915050565b600081519050919050565b600082825260208201905092915050565b60005b83811015611ca9578082015181840152602081019050611c8e565b83811115611cb8576000848401525b50505050565b6000601f19601f8301169050919050565b6000611cda82611c6f565b611ce48185611c7a565b9350611cf4818560208601611c8b565b611cfd81611cbe565b840191505092915050565b60006080820190508181036000830152611d228187611ccf565b9050611d316020830186611b3b565b611d3e604083018561195b565b611d4b6060830184611b3b565b95945050505050565b600080600060408486031215611d6d57611d6c6116c1565b5b6000611d7b86828701611714565b935050602084013567ffffffffffffffff811115611d9c57611d9b6116c6565b5b611da886828701611994565b92509250509250925092565b6000604082019050611dc96000830185611b2c565b611dd6602083018461195b565b9392505050565b611de6816116eb565b82525050565b600060c082019050611e016000830189611a8a565b611e0e6020830188611ddd565b8181036040830152611e208187611ccf565b9050611e2f606083018661195b565b611e3c6080830185611b2c565b611e4960a083018461195b565b979650505050505050565b60008060008060608587031215611e6e57611e6d6116c1565b5b6000611e7c87828801611714565b945050602085013567ffffffffffffffff811115611e9d57611e9c6116c6565b5b611ea987828801611994565b93509350506040611ebc87828801611a01565b91505092959194509250565b6000602082019050611edd6000830184611ddd565b92915050565b7f4e487b7100000000000000000000000000000000000000000000000000000000600052604160045260246000fd5b611f1b82611cbe565b810181811067ffffffffffffffff82111715611f3a57611f39611ee3565b5b80604052505050565b6000611f4d6116b7565b9050611f598282611f12565b919050565b600067ffffffffffffffff821115611f7957611f78611ee3565b5b602082029050602081019050919050565b600080fd5b600081519050611f9e816119ea565b92915050565b611fad8161179b565b8114611fb857600080fd5b50565b600081519050611fca81611fa4565b92915050565b600060408284031215611fe657611fe5611f8a565b5b611ff06040611f43565b9050600061200084828501611f8f565b600083015250602061201484828501611fbb565b60208301525092915050565b600061203361202e84611f5e565b611f43565b905080838252602082019050604084028301858111156120565761205561198f565b5b835b8181101561207f578061206b8882611fd0565b845260208401935050604081019050612058565b5050509392505050565b600082601f83011261209e5761209d611985565b5b81516120ae848260208601612020565b91505092915050565b6000602082840312156120cd576120cc6116c1565b5b600082015167ffffffffffffffff8111156120eb576120ea6116c6565b5b6120f784828501612089565b91505092915050565b7f526567697374726174696f6e2066656520697320726571756972656400000000600082015250565b6000612136601c83611c7a565b915061214182612100565b602082019050919050565b6000602082019050818103600083015261216581612129565b9050919050565b7f4f7261636c6520616c7265616479207265676973746572656400000000000000600082015250565b60006121a2601983611c7a565b91506121ad8261216c565b602082019050919050565b600060208201905081810360008301526121d181612195565b9050919050565b7f4e6f74207265676973746572656420617320616e206f7261636c650000000000600082015250565b600061220e601b83611c7a565b9150612219826121d8565b602082019050919050565b6000602082019050818103600083015261223d81612201565b9050919050565b82818337600083830152505050565b600061225f8385611c7a565b935061226c838584612244565b61227583611cbe565b840190509392505050565b6000606082019050818103600083015261229b818688612253565b90506122aa602083018561195b565b6122b76040830184611ddd565b95945050505050565b6000602082840312156122d6576122d56116c1565b5b60006122e484828501611fbb565b91505092915050565b60006060820190506123026000830186611ddd565b61230f6020830185611ddd565b61231c6040830184611b2c565b949350505050565b60008151905061233381611ac0565b92915050565b60008151905061234881611b73565b92915050565b60008060408385031215612365576123646116c1565b5b600061237385828601612324565b925050602061238485828601612339565b9150509250929050565b7f4e487b7100000000000000000000000000000000000000000000000000000000600052603260045260246000fd5b7f496e64657820646f6573206e6f74206d61746368206f7261636c65207265717560008201527f6573740000000000000000000000000000000000000000000000000000000000602082015250565b6000612419602383611c7a565b9150612424826123bd565b604082019050919050565b600060208201905081810360008301526124488161240c565b9050919050565b60008160f81b9050919050565b60006124678261244f565b9050919050565b61247f61247a826118a8565b61245c565b82525050565b60008160601b9050919050565b600061249d82612485565b9050919050565b60006124af82612492565b9050919050565b6124c76124c2826116eb565b6124a4565b82525050565b600081905092915050565b60006124e483856124cd565b93506124f1838584612244565b82840190509392505050565b6000819050919050565b61251861251382611782565b6124fd565b82525050565b600061252a828861246e565b60018201915061253a82876124b6565b60148201915061254b8285876124d8565b91506125578284612507565b6020820191508190509695505050505050565b7f466c69676874206f722074696d657374616d7020646f206e6f74206d6174636860008201527f206f7261636c6520726571756573740000000000000000000000000000000000602082015250565b60006125c6602f83611c7a565b91506125d18261256a565b604082019050919050565b600060208201905081810360008301526125f5816125b9565b9050919050565b60006080820190506126116000830188611ddd565b8181036020830152612624818688612253565b9050612633604083018561195b565b6126406060830184611b3b565b9695505050505050565b6000602082840312156126605761265f6116c1565b5b600061266e84828501612324565b91505092915050565b60006020828403121561268d5761268c6116c1565b5b600061269b84828501612339565b91505092915050565b600080fd5b600067ffffffffffffffff8211156126c4576126c3611ee3565b5b6126cd82611cbe565b9050602081019050919050565b60006126ed6126e8846126a9565b611f43565b905082815260208101848484011115612709576127086126a4565b5b612714848285611c8b565b509392505050565b600082601f83011261273157612730611985565b5b81516127418482602086016126da565b91505092915050565b60008060008060808587031215612764576127636116c1565b5b600085015167ffffffffffffffff811115612782576127816116c6565b5b61278e8782880161271c565b945050602061279f87828801612339565b93505060406127b087828801611f8f565b92505060606127c187828801612339565b91505092959194509250565b60006040820190506127e26000830186611ddd565b81810360208301526127f5818486612253565b9050949350505050565b60008060408385031215612816576128156116c1565b5b600061282485828601612324565b925050602061283585828601611f8f565b9150509250929050565b7f4d696e696d756d2066756e64206e6f742070726f766964656400000000000000600082015250565b6000612875601983611c7a565b91506128808261283f565b602082019050919050565b600060208201905081810360008301526128a481612868565b9050919050565b60006040820190506128c06000830185611a8a565b6128cd6020830184611ddd565b9392505050565b6000815190506128e3816116fd565b92915050565b60008060008060008060c08789031215612906576129056116c1565b5b600061291489828a01611fbb565b965050602061292589828a016128d4565b955050604087015167ffffffffffffffff811115612946576129456116c6565b5b61295289828a0161271c565b945050606061296389828a01611f8f565b935050608061297489828a01612324565b92505060a061298589828a01611f8f565b9150509295509295509295565b60006080820190506129a76000830188611b3b565b6129b46020830187611ddd565b81810360408301526129c7818587612253565b90506129d6606083018461195b565b9695505050505050565b60006129ec82876124b6565b6014820191506129fd8285876124d8565b9150612a098284612507565b60208201915081905095945050505050565b7f4e487b7100000000000000000000000000000000000000000000000000000000600052601160045260246000fd5b6000612a55826118a8565b915060ff8203612a6857612a67612a1b565b5b600182019050919050565b6000612a7e82611782565b9150612a8983611782565b925082821015612a9c57612a9b612a1b565b5b828203905092915050565b6000819050919050565b612ac2612abd8261179b565b612aa7565b82525050565b6000612ad48285612ab1565b602082019150612ae482846124b6565b6014820191508190509392505050565b7f4e487b7100000000000000000000000000000000000000000000000000000000600052601260045260246000fd5b6000612b2e82611782565b9150612b3983611782565b925082612b4957612b48612af4565b5b82820690509291505056fea26469706673582212203f92e27684c730385a7d8d17abdc7cf4171379d63052a85371f027bc8572a65164736f6c634300080e0033",
  "immutableReferences": {},
  "source": "// SPDX-License-Identifier: MIT\npragma solidity ^0.8.14;\n\n//Define Contract Data Interface\n\ninterface IFlightSuretyData {\n    struct CustomerInfo {\n        uint256 fund;\n        bytes32 flight;\n    }\n\n    function isOperational() external view returns (bool);\n\n    function setOperatingStatus(bool mode) external;\n\n    function registerAirline(address _address, string calldata name)\n        external\n        returns (bool success, uint256 votes);\n\n    function getAirline(address _address)\n        external\n        view\n        returns (\n            string memory name,\n            uint8 status,\n            uint256 funds,\n            uint8 votes\n        );\n\n    function fund(address _address) external payable;\n\n    function approveAirlineRegistration(\n        address _address,\n        address _from,\n        bool _approval\n    ) external returns (bool success, uint8 votes);\n\n    function getTotalAirlines() external view returns (uint8);\n\n    function registerFlight(\n        string memory _flight,\n        uint256 _updatedTimestamp,\n        address _airline\n    ) external returns (bytes32);\n\n    function getFlight(bytes32)\n        external\n        view\n        returns (\n            bytes32,\n            address,\n            string memory,\n            uint256,\n            bool,\n            uint256\n        );\n\n    function buy(bytes32 _flight, address _customer)\n        external\n        payable\n        returns (bool);\n\n    function getCustomerInsurances(address _customer)\n        external\n        view\n        returns (CustomerInfo[] memory);\n\n    function processFlightStatus(\n        address airline,\n        string calldata flight,\n        uint256 timestamp,\n        uint8 statusCode\n    ) external;\n}\n\n/************************************************** */\n/* FlightSurety Smart Contract                      */\n/************************************************** */\ncontract FlightSuretyApp {\n    /********************************************************************************************/\n    /*                                       DATA VARIABLES                                     */\n    /********************************************************************************************/\n\n    address private contractOwner; // Account used to deploy contract\n    IFlightSuretyData private flightSuretyData;\n\n    uint256 minInsuranceFund = 0.000001 ether;\n\n    struct CustomerInfo {\n        uint256 fund;\n        bytes32 flight;\n    }\n\n    // Events\n\n    event FlightRegistration(\n        bytes32 indexed id,\n        string Flight,\n        uint256 UpdatedTimestamp,\n        address Airline\n    );\n\n    /********************************************************************************************/\n    /*                                       FUNCTION MODIFIERS                                 */\n    /********************************************************************************************/\n\n    /**\n     * @dev Modifier that requires the \"operational\" boolean variable to be \"true\"\n     *      This is used on all state changing functions to pause the contract in\n     *      the event there is an issue that needs to be fixed\n     */\n    modifier requireIsOperational() {\n        // Modify to call data contract's status\n        require(\n            flightSuretyData.isOperational() == true,\n            \"Contract is currently not operational\"\n        );\n        _;\n    }\n\n    /**\n     * @dev Modifier that requires the \"ContractOwner\" account to be the function caller\n     */\n    modifier requireContractOwner() {\n        require(\n            msg.sender == contractOwner,\n            \"Caller is not contract owner - APP\"\n        );\n        _;\n    }\n\n    /********************************************************************************************/\n    /*                                       CONSTRUCTOR                                        */\n    /********************************************************************************************/\n\n    /**\n     * @dev Contract constructor\n     *\n     */\n    constructor(address _flightSuretyData) {\n        contractOwner = msg.sender;\n        flightSuretyData = IFlightSuretyData(payable(_flightSuretyData));\n    }\n\n    /********************************************************************************************/\n    /*                                       UTILITY FUNCTIONS                                  */\n    /********************************************************************************************/\n\n    function isOperational() public view returns (bool) {\n        return flightSuretyData.isOperational(); // Modify to call data contract's status\n    }\n\n    /********************************************************************************************/\n    /*                                     SMART CONTRACT FUNCTIONS                             */\n    /********************************************************************************************/\n\n    /**\n     * @dev Add an airline to the registration queue\n     *\n     */\n    function registerAirline(address _address, string calldata name)\n        external\n        returns (bool success, uint256 votes)\n    {\n        return flightSuretyData.registerAirline(_address, name);\n    }\n\n    /**\n     * @dev Airline should be able to fund it, before register is approved\n     *\n     */\n\n    function airlineFund() external payable {\n        flightSuretyData.fund{value: msg.value}(msg.sender);\n    }\n\n    /**\n     * @dev Airline Approval function\n     *\n     */\n\n    function approveAirlineRegistration(address _address, bool _approval)\n        external\n        returns (bool success, uint8 votes)\n    {\n        return\n            flightSuretyData.approveAirlineRegistration(\n                _address,\n                msg.sender,\n                _approval\n            );\n    }\n\n    function getAirline(address _address)\n        external\n        view\n        returns (\n            string memory name,\n            uint8 status,\n            uint256 funds,\n            uint8 votes\n        )\n    {\n        return flightSuretyData.getAirline(_address);\n    }\n\n    function getTotalAirlines() external view returns (uint8) {\n        return flightSuretyData.getTotalAirlines();\n    }\n\n    /**\n     * @dev Register a future flight for insuring.\n     *\n     */\n    function registerFlight(\n        string calldata _flight,\n        uint256 _updatedTimestamp,\n        address _airline\n    ) external returns (bytes32) {\n        bytes32 id = flightSuretyData.registerFlight(\n            _flight,\n            _updatedTimestamp,\n            _airline\n        );\n\n        emit FlightRegistration(id, _flight, _updatedTimestamp, _airline);\n\n        return id;\n    }\n\n    function getFlight(\n        string calldata _flight,\n        uint256 _updatedTimestamp,\n        address _airline\n    )\n        external\n        view\n        returns (\n            bytes32,\n            address,\n            string memory,\n            uint256,\n            bool,\n            uint256\n        )\n    {\n        return\n            flightSuretyData.getFlight(\n                getFlightKey(_airline, _flight, _updatedTimestamp)\n            );\n    }\n\n    // customer can buy insurance\n    function buyInsurance(\n        string calldata _flight,\n        uint256 _updatedTimestamp,\n        address _airline\n    ) external payable returns (bool) {\n        require(msg.value >= minInsuranceFund, \"Minimum fund not provided\");\n\n        return\n            flightSuretyData.buy{value: msg.value}(\n                getFlightKey(_airline, _flight, _updatedTimestamp),\n                msg.sender\n            );\n    }\n\n    //get customers insurance\n    function getCustomerInsurances(address _customer)\n        external\n        view\n        returns (IFlightSuretyData.CustomerInfo[] memory)\n    {\n        return flightSuretyData.getCustomerInsurances(_customer);\n    }\n\n    /**\n     * @dev Called after oracle has updated flight status\n     *\n     */\n    function processFlightStatus(\n        address airline,\n        string calldata flight,\n        uint256 timestamp,\n        uint8 statusCode\n    ) internal {\n        flightSuretyData.processFlightStatus(\n            airline,\n            flight,\n            timestamp,\n            statusCode\n        );\n    }\n\n    // Generate a request for oracles to fetch flight information\n    function fetchFlightStatus(\n        address airline,\n        string calldata flight,\n        uint256 timestamp\n    ) external {\n        uint8 index = getRandomIndex(msg.sender);\n\n        // Generate a unique key for storing the request\n        bytes32 key = keccak256(\n            abi.encodePacked(index, airline, flight, timestamp)\n        );\n\n        oracleResponses[key].requester = msg.sender;\n        oracleResponses[key].isOpen = true;\n\n        emit OracleRequest(index, airline, flight, timestamp);\n    }\n\n    /********************************************************************************************/\n    /*                               region ORACLE MANAGEMENT\n    /********************************************************************************************/\n\n    // Incremented to add pseudo-randomness at various points\n    uint8 private nonce = 0;\n\n    // Fee to be paid when registering oracle\n    uint256 public constant REGISTRATION_FEE = 1 ether;\n\n    // Number of oracles that must respond for valid status\n    uint256 private constant MIN_RESPONSES = 3;\n\n    struct Oracle {\n        bool isRegistered;\n        uint8[3] indexes;\n    }\n\n    // Track all registered oracles\n    mapping(address => Oracle) private oracles;\n\n    // Model for responses from oracles\n    struct ResponseInfo {\n        address requester; // Account that requested status\n        bool isOpen; // If open, oracle responses are accepted\n        mapping(uint8 => address[]) responses; // Mapping key is the status code reported\n        // This lets us group responses and identify\n        // the response that majority of the oracles\n    }\n\n    // Track all oracle responses\n    // Key = hash(index, flight, timestamp)\n    mapping(bytes32 => ResponseInfo) private oracleResponses;\n\n    // Event fired each time an oracle submits a response\n    event FlightStatusInfo(\n        address airline,\n        string flight,\n        uint256 timestamp,\n        uint8 status\n    );\n\n    event OracleReport(\n        address airline,\n        string flight,\n        uint256 timestamp,\n        uint8 status\n    );\n\n    // Event fired when flight status request is submitted\n    // Oracles track this and if they have a matching index\n    // they fetch data and submit a response\n    event OracleRequest(\n        uint8 index,\n        address airline,\n        string flight,\n        uint256 timestamp\n    );\n\n    // Register an oracle with the contract\n    function registerOracle() external payable {\n        // Require registration fee\n        require(msg.value >= REGISTRATION_FEE, \"Registration fee is required\");\n        require(\n            oracles[msg.sender].isRegistered == true,\n            \"Oracle already registered\"\n        );\n\n        uint8[3] memory indexes = generateIndexes(msg.sender);\n\n        oracles[msg.sender] = Oracle({isRegistered: true, indexes: indexes});\n    }\n\n    function getMyIndexes() external view returns (uint8[3] memory) {\n        require(\n            oracles[msg.sender].isRegistered,\n            \"Not registered as an oracle\"\n        );\n\n        return oracles[msg.sender].indexes;\n    }\n\n    // Called by oracle when a response is available to an outstanding request\n    // For the response to be accepted, there must be a pending request that is open\n    // and matches one of the three Indexes randomly assigned to the oracle at the\n    // time of registration (i.e. uninvited oracles are not welcome)\n    function submitOracleResponse(\n        uint8 index,\n        address airline,\n        string calldata flight,\n        uint256 timestamp,\n        uint8 statusCode\n    ) external {\n        require(\n            (oracles[msg.sender].indexes[0] == index) ||\n                (oracles[msg.sender].indexes[1] == index) ||\n                (oracles[msg.sender].indexes[2] == index),\n            \"Index does not match oracle request\"\n        );\n\n        bytes32 key = keccak256(\n            abi.encodePacked(index, airline, flight, timestamp)\n        );\n        require(\n            oracleResponses[key].isOpen,\n            \"Flight or timestamp do not match oracle request\"\n        );\n\n        oracleResponses[key].responses[statusCode].push(msg.sender);\n\n        // Information isn't considered verified until at least MIN_RESPONSES\n        // oracles respond with the *** same *** information\n        emit OracleReport(airline, flight, timestamp, statusCode);\n        if (\n            oracleResponses[key].responses[statusCode].length >= MIN_RESPONSES\n        ) {\n            emit FlightStatusInfo(airline, flight, timestamp, statusCode);\n\n            // Handle flight status as appropriate\n            processFlightStatus(airline, flight, timestamp, statusCode);\n        }\n    }\n\n    function getFlightKey(\n        address airline,\n        string calldata flight,\n        uint256 timestamp\n    ) internal pure returns (bytes32) {\n        return keccak256(abi.encodePacked(airline, flight, timestamp));\n    }\n\n    // Returns array of three non-duplicating integers from 0-9\n    function generateIndexes(address account)\n        internal\n        returns (uint8[3] memory)\n    {\n        uint8[3] memory indexes;\n        indexes[0] = getRandomIndex(account);\n\n        indexes[1] = indexes[0];\n        while (indexes[1] == indexes[0]) {\n            indexes[1] = getRandomIndex(account);\n        }\n\n        indexes[2] = indexes[1];\n        while ((indexes[2] == indexes[0]) || (indexes[2] == indexes[1])) {\n            indexes[2] = getRandomIndex(account);\n        }\n\n        return indexes;\n    }\n\n    // Returns array of three non-duplicating integers from 0-9\n    function getRandomIndex(address account) internal returns (uint8) {\n        uint8 maxValue = 10;\n\n        // Pseudo random number...the incrementing nonce adds variation\n        uint8 random = uint8(\n            uint256(\n                keccak256(\n                    abi.encodePacked(blockhash(block.number - nonce++), account)\n                )\n            ) % maxValue\n        );\n\n        if (nonce > 250) {\n            nonce = 0; // Can only fetch blockhashes for last 256 blocks so we adapt\n        }\n\n        return random;\n    }\n\n    // endregion\n}\n",
  "sourcePath": "/home/rafamessias/Documents/udacity/Ethereum/flight-surety/truffle/contracts/FlightSuretyApp.sol",
  "compiler": {
    "name": "solc",
    "version": "0.8.14+commit.80d49f37.Emscripten.clang"
  },
  "schemaVersion": "3.4.8",
  "updatedAt": "2022-09-15T01:00:53.202Z",
  "devdoc": {
    "kind": "dev",
    "methods": {
      "airlineFund()": {
        "details": "Airline should be able to fund it, before register is approved"
      },
      "approveAirlineRegistration(address,bool)": {
        "details": "Airline Approval function"
      },
      "constructor": {
        "details": "Contract constructor"
      },
      "registerAirline(address,string)": {
        "details": "Add an airline to the registration queue"
      },
      "registerFlight(string,uint256,address)": {
        "details": "Register a future flight for insuring."
      }
    },
    "version": 1
  },
  "userdoc": {
    "kind": "user",
    "methods": {},
    "version": 1
  }
}