{
  "contractName": "FlightSuretyApp",
  "abi": [
    {
      "inputs": [
        {
          "internalType": "address",
          "name": "_flightSuretyData",
          "type": "address"
        }
      ],
      "stateMutability": "nonpayable",
      "type": "constructor"
    },
    {
      "anonymous": false,
      "inputs": [
        {
          "indexed": true,
          "internalType": "bytes32",
          "name": "id",
          "type": "bytes32"
        },
        {
          "indexed": false,
          "internalType": "string",
          "name": "Flight",
          "type": "string"
        },
        {
          "indexed": false,
          "internalType": "uint256",
          "name": "UpdatedTimestamp",
          "type": "uint256"
        },
        {
          "indexed": false,
          "internalType": "address",
          "name": "Airline",
          "type": "address"
        }
      ],
      "name": "FlightRegistration",
      "type": "event"
    },
    {
      "anonymous": false,
      "inputs": [
        {
          "indexed": false,
          "internalType": "address",
          "name": "airline",
          "type": "address"
        },
        {
          "indexed": false,
          "internalType": "string",
          "name": "flight",
          "type": "string"
        },
        {
          "indexed": false,
          "internalType": "uint256",
          "name": "timestamp",
          "type": "uint256"
        },
        {
          "indexed": false,
          "internalType": "uint8",
          "name": "status",
          "type": "uint8"
        }
      ],
      "name": "FlightStatusInfo",
      "type": "event"
    },
    {
      "anonymous": false,
      "inputs": [
        {
          "indexed": false,
          "internalType": "address",
          "name": "airline",
          "type": "address"
        },
        {
          "indexed": false,
          "internalType": "string",
          "name": "flight",
          "type": "string"
        },
        {
          "indexed": false,
          "internalType": "uint256",
          "name": "timestamp",
          "type": "uint256"
        },
        {
          "indexed": false,
          "internalType": "uint8",
          "name": "status",
          "type": "uint8"
        }
      ],
      "name": "OracleReport",
      "type": "event"
    },
    {
      "anonymous": false,
      "inputs": [
        {
          "indexed": false,
          "internalType": "uint8",
          "name": "index",
          "type": "uint8"
        },
        {
          "indexed": false,
          "internalType": "address",
          "name": "airline",
          "type": "address"
        },
        {
          "indexed": false,
          "internalType": "string",
          "name": "flight",
          "type": "string"
        },
        {
          "indexed": false,
          "internalType": "uint256",
          "name": "timestamp",
          "type": "uint256"
        }
      ],
      "name": "OracleRequest",
      "type": "event"
    },
    {
      "inputs": [],
      "name": "REGISTRATION_FEE",
      "outputs": [
        {
          "internalType": "uint256",
          "name": "",
          "type": "uint256"
        }
      ],
      "stateMutability": "view",
      "type": "function",
      "constant": true
    },
    {
      "inputs": [],
      "name": "isOperational",
      "outputs": [
        {
          "internalType": "bool",
          "name": "",
          "type": "bool"
        }
      ],
      "stateMutability": "view",
      "type": "function",
      "constant": true
    },
    {
      "inputs": [
        {
          "internalType": "address",
          "name": "_address",
          "type": "address"
        },
        {
          "internalType": "string",
          "name": "name",
          "type": "string"
        }
      ],
      "name": "registerAirline",
      "outputs": [
        {
          "internalType": "bool",
          "name": "success",
          "type": "bool"
        },
        {
          "internalType": "uint256",
          "name": "votes",
          "type": "uint256"
        }
      ],
      "stateMutability": "nonpayable",
      "type": "function"
    },
    {
      "inputs": [],
      "name": "airlineFund",
      "outputs": [],
      "stateMutability": "payable",
      "type": "function",
      "payable": true
    },
    {
      "inputs": [
        {
          "internalType": "address",
          "name": "_address",
          "type": "address"
        },
        {
          "internalType": "bool",
          "name": "_approval",
          "type": "bool"
        }
      ],
      "name": "approveAirlineRegistration",
      "outputs": [
        {
          "internalType": "bool",
          "name": "success",
          "type": "bool"
        },
        {
          "internalType": "uint8",
          "name": "votes",
          "type": "uint8"
        }
      ],
      "stateMutability": "nonpayable",
      "type": "function"
    },
    {
      "inputs": [
        {
          "internalType": "address",
          "name": "_address",
          "type": "address"
        }
      ],
      "name": "getAirline",
      "outputs": [
        {
          "internalType": "string",
          "name": "name",
          "type": "string"
        },
        {
          "internalType": "uint8",
          "name": "status",
          "type": "uint8"
        },
        {
          "internalType": "uint256",
          "name": "funds",
          "type": "uint256"
        },
        {
          "internalType": "uint8",
          "name": "votes",
          "type": "uint8"
        }
      ],
      "stateMutability": "view",
      "type": "function",
      "constant": true
    },
    {
      "inputs": [],
      "name": "getTotalAirlines",
      "outputs": [
        {
          "internalType": "uint8",
          "name": "",
          "type": "uint8"
        }
      ],
      "stateMutability": "view",
      "type": "function",
      "constant": true
    },
    {
      "inputs": [
        {
          "internalType": "string",
          "name": "_flight",
          "type": "string"
        },
        {
          "internalType": "uint256",
          "name": "_updatedTimestamp",
          "type": "uint256"
        },
        {
          "internalType": "address",
          "name": "_airline",
          "type": "address"
        }
      ],
      "name": "registerFlight",
      "outputs": [
        {
          "internalType": "bytes32",
          "name": "",
          "type": "bytes32"
        }
      ],
      "stateMutability": "nonpayable",
      "type": "function"
    },
    {
      "inputs": [
        {
          "internalType": "string",
          "name": "_flight",
          "type": "string"
        },
        {
          "internalType": "uint256",
          "name": "_updatedTimestamp",
          "type": "uint256"
        },
        {
          "internalType": "address",
          "name": "_airline",
          "type": "address"
        }
      ],
      "name": "getFlight",
      "outputs": [
        {
          "internalType": "bytes32",
          "name": "",
          "type": "bytes32"
        },
        {
          "internalType": "address",
          "name": "",
          "type": "address"
        },
        {
          "internalType": "string",
          "name": "",
          "type": "string"
        },
        {
          "internalType": "uint256",
          "name": "",
          "type": "uint256"
        },
        {
          "internalType": "bool",
          "name": "",
          "type": "bool"
        },
        {
          "internalType": "uint256",
          "name": "",
          "type": "uint256"
        }
      ],
      "stateMutability": "view",
      "type": "function",
      "constant": true
    },
    {
      "inputs": [
        {
          "internalType": "string",
          "name": "_flight",
          "type": "string"
        },
        {
          "internalType": "uint256",
          "name": "_updatedTimestamp",
          "type": "uint256"
        },
        {
          "internalType": "address",
          "name": "_airline",
          "type": "address"
        }
      ],
      "name": "buyInsurance",
      "outputs": [
        {
          "internalType": "bool",
          "name": "",
          "type": "bool"
        }
      ],
      "stateMutability": "payable",
      "type": "function",
      "payable": true
    },
    {
      "inputs": [
        {
          "internalType": "address",
          "name": "_customer",
          "type": "address"
        }
      ],
      "name": "getCustomerInsurances",
      "outputs": [
        {
          "components": [
            {
              "internalType": "uint256",
              "name": "fund",
              "type": "uint256"
            },
            {
              "internalType": "bytes32",
              "name": "flight",
              "type": "bytes32"
            }
          ],
          "internalType": "struct IFlightSuretyData.CustomerInfo[]",
          "name": "",
          "type": "tuple[]"
        }
      ],
      "stateMutability": "view",
      "type": "function",
      "constant": true
    },
    {
      "inputs": [
        {
          "internalType": "address",
          "name": "airline",
          "type": "address"
        },
        {
          "internalType": "string",
          "name": "flight",
          "type": "string"
        },
        {
          "internalType": "uint256",
          "name": "timestamp",
          "type": "uint256"
        }
      ],
      "name": "fetchFlightStatus",
      "outputs": [],
      "stateMutability": "nonpayable",
      "type": "function"
    },
    {
      "inputs": [
        {
          "internalType": "bytes32",
          "name": "_flight",
          "type": "bytes32"
        }
      ],
      "name": "withdraw",
      "outputs": [],
      "stateMutability": "nonpayable",
      "type": "function"
    },
    {
      "inputs": [],
      "name": "registerOracle",
      "outputs": [],
      "stateMutability": "payable",
      "type": "function",
      "payable": true
    },
    {
      "inputs": [],
      "name": "getMyIndexes",
      "outputs": [
        {
          "internalType": "uint8[3]",
          "name": "",
          "type": "uint8[3]"
        }
      ],
      "stateMutability": "view",
      "type": "function",
      "constant": true
    },
    {
      "inputs": [
        {
          "internalType": "uint8",
          "name": "index",
          "type": "uint8"
        },
        {
          "internalType": "address",
          "name": "airline",
          "type": "address"
        },
        {
          "internalType": "string",
          "name": "flight",
          "type": "string"
        },
        {
          "internalType": "uint256",
          "name": "timestamp",
          "type": "uint256"
        },
        {
          "internalType": "uint8",
          "name": "statusCode",
          "type": "uint8"
        }
      ],
      "name": "submitOracleResponse",
      "outputs": [],
      "stateMutability": "nonpayable",
      "type": "function"
    }
  ],
  "bytecode": "0x608060405264e8d4a510006002556000600360006101000a81548160ff021916908360ff1602179055503480156200003657600080fd5b5060405162002d2038038062002d2083398181016040528101906200005c91906200014e565b336000806101000a81548173ffffffffffffffffffffffffffffffffffffffff021916908373ffffffffffffffffffffffffffffffffffffffff16021790555080600160006101000a81548173ffffffffffffffffffffffffffffffffffffffff021916908373ffffffffffffffffffffffffffffffffffffffff1602179055505062000180565b600080fd5b600073ffffffffffffffffffffffffffffffffffffffff82169050919050565b60006200011682620000e9565b9050919050565b620001288162000109565b81146200013457600080fd5b50565b60008151905062000148816200011d565b92915050565b600060208284031215620001675762000166620000e4565b5b6000620001778482850162000137565b91505092915050565b612b9080620001906000396000f3fe6080604052600436106100f35760003560e01c8063c10f27001161008a578063ee38a74911610059578063ee38a74914610302578063f2cd819214610340578063f555e2d714610370578063f83f11c0146103b2576100f3565b8063c10f270014610243578063cd905dff1461026c578063d53a57b514610297578063e1de0489146102c2576100f3565b806364b4f751116100c657806364b4f7511461017457806365c152f71461019f57806367efbf15146101dc5780638e19899e1461021a576100f3565b8063071a71a1146100f8578063339d2590146101355780635f1cc0e61461013f5780635f746a851461016a575b600080fd5b34801561010457600080fd5b5061011f600480360381019061011a9190611759565b6103db565b60405161012c9190611896565b60405180910390f35b61013d610485565b005b34801561014b57600080fd5b50610154610572565b6040516101619190611970565b60405180910390f35b6101726106b2565b005b34801561018057600080fd5b50610189610742565b604051610196919061199a565b60405180910390f35b3480156101ab57600080fd5b506101c660048036038101906101c19190611a46565b61074e565b6040516101d39190611ac9565b60405180910390f35b3480156101e857600080fd5b5061020360048036038101906101fe9190611b1c565b610841565b604051610211929190611b7a565b60405180910390f35b34801561022657600080fd5b50610241600480360381019061023c9190611bcf565b6108f0565b005b34801561024f57600080fd5b5061026a60048036038101906102659190611c28565b610982565b005b34801561027857600080fd5b50610281610d19565b60405161028e9190611cc2565b60405180910390f35b3480156102a357600080fd5b506102ac610db1565b6040516102b99190611cdd565b60405180910390f35b3480156102ce57600080fd5b506102e960048036038101906102e49190611759565b610e49565b6040516102f99493929190611d91565b60405180910390f35b34801561030e57600080fd5b5061032960048036038101906103249190611ddd565b610f00565b604051610337929190611e3d565b60405180910390f35b61035a60048036038101906103559190611a46565b610fb0565b6040516103679190611cc2565b60405180910390f35b34801561037c57600080fd5b5061039760048036038101906103929190611a46565b6110ad565b6040516103a996959493929190611e75565b60405180910390f35b3480156103be57600080fd5b506103d960048036038101906103d49190611edd565b61117c565b005b6060600160009054906101000a900473ffffffffffffffffffffffffffffffffffffffff1673ffffffffffffffffffffffffffffffffffffffff1663071a71a1836040518263ffffffff1660e01b81526004016104389190611f51565b600060405180830381865afa158015610455573d6000803e3d6000fd5b505050506040513d6000823e3d601f19601f8201168201806040525081019061047e9190612129565b9050919050565b670de0b6b3a76400003410156104d0576040517f08c379a00000000000000000000000000000000000000000000000000000000081526004016104c7906121be565b60405180910390fd5b60006104db33611287565b9050604051806040016040528060011515815260200182815250600460003373ffffffffffffffffffffffffffffffffffffffff1673ffffffffffffffffffffffffffffffffffffffff16815260200190815260200160002060008201518160000160006101000a81548160ff02191690831515021790555060208201518160010190600361056b92919061160e565b5090505050565b61057a6116a8565b600460003373ffffffffffffffffffffffffffffffffffffffff1673ffffffffffffffffffffffffffffffffffffffff16815260200190815260200160002060000160009054906101000a900460ff16610609576040517f08c379a00000000000000000000000000000000000000000000000000000000081526004016106009061222a565b60405180910390fd5b600460003373ffffffffffffffffffffffffffffffffffffffff1673ffffffffffffffffffffffffffffffffffffffff1681526020019081526020016000206001016003806020026040519081016040528092919082600380156106a8576020028201916000905b82829054906101000a900460ff1660ff16815260200190600101906020826000010492830192600103820291508084116106715790505b5050505050905090565b600160009054906101000a900473ffffffffffffffffffffffffffffffffffffffff1673ffffffffffffffffffffffffffffffffffffffff16632302440834336040518363ffffffff1660e01b815260040161070e9190611f51565b6000604051808303818588803b15801561072757600080fd5b505af115801561073b573d6000803e3d6000fd5b5050505050565b670de0b6b3a764000081565b600080600160009054906101000a900473ffffffffffffffffffffffffffffffffffffffff1673ffffffffffffffffffffffffffffffffffffffff166365c152f7878787876040518563ffffffff1660e01b81526004016107b29493929190612286565b6020604051808303816000875af11580156107d1573d6000803e3d6000fd5b505050506040513d601f19601f820116820180604052508101906107f591906122c6565b9050807f02f7de4aa689c7e16ea48f1d4c296283a1be60fbccb7b097a91d52b94f84e49e8787878760405161082d9493929190612286565b60405180910390a280915050949350505050565b600080600160009054906101000a900473ffffffffffffffffffffffffffffffffffffffff1673ffffffffffffffffffffffffffffffffffffffff16633e2e41178533866040518463ffffffff1660e01b81526004016108a3939291906122f3565b60408051808303816000875af11580156108c1573d6000803e3d6000fd5b505050506040513d601f19601f820116820180604052508101906108e59190612354565b915091509250929050565b600160009054906101000a900473ffffffffffffffffffffffffffffffffffffffff1673ffffffffffffffffffffffffffffffffffffffff166362ee873b82336040518363ffffffff1660e01b815260040161094d929190612394565b600060405180830381600087803b15801561096757600080fd5b505af115801561097b573d6000803e3d6000fd5b5050505050565b8560ff16600460003373ffffffffffffffffffffffffffffffffffffffff1673ffffffffffffffffffffffffffffffffffffffff1681526020019081526020016000206001016000600381106109db576109da6123bd565b5b602091828204019190069054906101000a900460ff1660ff161480610a6f57508560ff16600460003373ffffffffffffffffffffffffffffffffffffffff1673ffffffffffffffffffffffffffffffffffffffff168152602001908152602001600020600101600160038110610a5457610a536123bd565b5b602091828204019190069054906101000a900460ff1660ff16145b80610ae957508560ff16600460003373ffffffffffffffffffffffffffffffffffffffff1673ffffffffffffffffffffffffffffffffffffffff168152602001908152602001600020600101600260038110610ace57610acd6123bd565b5b602091828204019190069054906101000a900460ff1660ff16145b610b28576040517f08c379a0000000000000000000000000000000000000000000000000000000008152600401610b1f9061245e565b60405180910390fd5b60008686868686604051602001610b4395949392919061254d565b6040516020818303038152906040528051906020012090506005600082815260200190815260200160002060000160149054906101000a900460ff16610bbe576040517f08c379a0000000000000000000000000000000000000000000000000000000008152600401610bb59061260b565b60405180910390fd5b6005600082815260200190815260200160002060010160008360ff1660ff168152602001908152602001600020339080600181540180825580915050600190039060005260206000200160009091909190916101000a81548173ffffffffffffffffffffffffffffffffffffffff021916908373ffffffffffffffffffffffffffffffffffffffff1602179055507f43c853095c2752648493c88b4baac4d580d2594ffb00c6f1d4242d844514f7838686868686604051610c8395949392919061262b565b60405180910390a160016005600083815260200190815260200160002060010160008460ff1660ff1681526020019081526020016000208054905010610d10577fe23f5229de535c091e3b7bec2665f5d698192d3b31393066e8987b7a05076b6c8686868686604051610cfa95949392919061262b565b60405180910390a1610d0f868686868661146d565b5b50505050505050565b6000600160009054906101000a900473ffffffffffffffffffffffffffffffffffffffff1673ffffffffffffffffffffffffffffffffffffffff1663cd905dff6040518163ffffffff1660e01b8152600401602060405180830381865afa158015610d88573d6000803e3d6000fd5b505050506040513d601f19601f82011682018060405250810190610dac9190612679565b905090565b6000600160009054906101000a900473ffffffffffffffffffffffffffffffffffffffff1673ffffffffffffffffffffffffffffffffffffffff1663d53a57b56040518163ffffffff1660e01b8152600401602060405180830381865afa158015610e20573d6000803e3d6000fd5b505050506040513d601f19601f82011682018060405250810190610e4491906126a6565b905090565b60606000806000600160009054906101000a900473ffffffffffffffffffffffffffffffffffffffff1673ffffffffffffffffffffffffffffffffffffffff1663e1de0489866040518263ffffffff1660e01b8152600401610eab9190611f51565b600060405180830381865afa158015610ec8573d6000803e3d6000fd5b505050506040513d6000823e3d601f19601f82011682018060405250810190610ef19190612779565b93509350935093509193509193565b600080600160009054906101000a900473ffffffffffffffffffffffffffffffffffffffff1673ffffffffffffffffffffffffffffffffffffffff1663ee38a7498686866040518463ffffffff1660e01b8152600401610f62939291906127fc565b60408051808303816000875af1158015610f80573d6000803e3d6000fd5b505050506040513d601f19601f82011682018060405250810190610fa4919061282e565b91509150935093915050565b6000600254341015610ff7576040517f08c379a0000000000000000000000000000000000000000000000000000000008152600401610fee906128ba565b60405180910390fd5b600160009054906101000a900473ffffffffffffffffffffffffffffffffffffffff1673ffffffffffffffffffffffffffffffffffffffff1663c049604a3461104285898989611509565b336040518463ffffffff1660e01b8152600401611060929190612394565b60206040518083038185885af115801561107e573d6000803e3d6000fd5b50505050506040513d601f19601f820116820180604052508101906110a39190612679565b9050949350505050565b60008060606000806000600160009054906101000a900473ffffffffffffffffffffffffffffffffffffffff1673ffffffffffffffffffffffffffffffffffffffff1663cac8f292611101898d8d8d611509565b6040518263ffffffff1660e01b815260040161111d9190611ac9565b600060405180830381865afa15801561113a573d6000803e3d6000fd5b505050506040513d6000823e3d601f19601f8201168201806040525081019061116391906128ef565b9550955095509550955095509499939850945094509450565b600061118733611542565b9050600081868686866040516020016111a495949392919061254d565b604051602081830303815290604052805190602001209050336005600083815260200190815260200160002060000160006101000a81548173ffffffffffffffffffffffffffffffffffffffff021916908373ffffffffffffffffffffffffffffffffffffffff16021790555060016005600083815260200190815260200160002060000160146101000a81548160ff0219169083151502179055507f3ed01f2c3fc24c6b329d931e35b03e390d23497d22b3f90e15b600343e93df118287878787604051611277959493929190612998565b60405180910390a1505050505050565b61128f6116a8565b6112976116a8565b6112a083611542565b816000600381106112b4576112b36123bd565b5b602002019060ff16908160ff1681525050806000600381106112d9576112d86123bd565b5b6020020151816001600381106112f2576112f16123bd565b5b602002019060ff16908160ff16815250505b80600060038110611318576113176123bd565b5b602002015160ff1681600160038110611334576113336123bd565b5b602002015160ff16036113745761134a83611542565b8160016003811061135e5761135d6123bd565b5b602002019060ff16908160ff1681525050611304565b80600160038110611388576113876123bd565b5b6020020151816002600381106113a1576113a06123bd565b5b602002019060ff16908160ff16815250505b806000600381106113c7576113c66123bd565b5b602002015160ff16816002600381106113e3576113e26123bd565b5b602002015160ff16148061142c575080600160038110611406576114056123bd565b5b602002015160ff1681600260038110611422576114216123bd565b5b602002015160ff16145b156114645761143a83611542565b8160026003811061144e5761144d6123bd565b5b602002019060ff16908160ff16815250506113b3565b80915050919050565b600160009054906101000a900473ffffffffffffffffffffffffffffffffffffffff1673ffffffffffffffffffffffffffffffffffffffff1663e7bdde3b86868686866040518663ffffffff1660e01b81526004016114d095949392919061262b565b600060405180830381600087803b1580156114ea57600080fd5b505af11580156114fe573d6000803e3d6000fd5b505050505050505050565b60008484848460405160200161152294939291906129e6565b604051602081830303815290604052805190602001209050949350505050565b600080600a905060008160ff166003600081819054906101000a900460ff168092919061156e90612a50565b91906101000a81548160ff021916908360ff16021790555060ff16436115949190612a79565b40856040516020016115a7929190612ace565b6040516020818303038152906040528051906020012060001c6115ca9190612b29565b905060fa600360009054906101000a900460ff1660ff161115611604576000600360006101000a81548160ff021916908360ff1602179055505b8092505050919050565b826003601f016020900481019282156116975791602002820160005b8382111561166857835183826101000a81548160ff021916908360ff160217905550926020019260010160208160000104928301926001030261162a565b80156116955782816101000a81549060ff0219169055600101602081600001049283019260010302611668565b505b5090506116a491906116ca565b5090565b6040518060600160405280600390602082028036833780820191505090505090565b5b808211156116e35760008160009055506001016116cb565b5090565b6000604051905090565b600080fd5b600080fd5b600073ffffffffffffffffffffffffffffffffffffffff82169050919050565b6000611726826116fb565b9050919050565b6117368161171b565b811461174157600080fd5b50565b6000813590506117538161172d565b92915050565b60006020828403121561176f5761176e6116f1565b5b600061177d84828501611744565b91505092915050565b600081519050919050565b600082825260208201905092915050565b6000819050602082019050919050565b6000819050919050565b6117c5816117b2565b82525050565b6000819050919050565b6117de816117cb565b82525050565b6040820160008201516117fa60008501826117bc565b50602082015161180d60208501826117d5565b50505050565b600061181f83836117e4565b60408301905092915050565b6000602082019050919050565b600061184382611786565b61184d8185611791565b9350611858836117a2565b8060005b838110156118895781516118708882611813565b975061187b8361182b565b92505060018101905061185c565b5085935050505092915050565b600060208201905081810360008301526118b08184611838565b905092915050565b600060039050919050565b600081905092915050565b6000819050919050565b600060ff82169050919050565b6118ee816118d8565b82525050565b600061190083836118e5565b60208301905092915050565b6000602082019050919050565b611922816118b8565b61192c81846118c3565b9250611937826118ce565b8060005b8381101561196857815161194f87826118f4565b965061195a8361190c565b92505060018101905061193b565b505050505050565b60006060820190506119856000830184611919565b92915050565b611994816117b2565b82525050565b60006020820190506119af600083018461198b565b92915050565b600080fd5b600080fd5b600080fd5b60008083601f8401126119da576119d96119b5565b5b8235905067ffffffffffffffff8111156119f7576119f66119ba565b5b602083019150836001820283011115611a1357611a126119bf565b5b9250929050565b611a23816117b2565b8114611a2e57600080fd5b50565b600081359050611a4081611a1a565b92915050565b60008060008060608587031215611a6057611a5f6116f1565b5b600085013567ffffffffffffffff811115611a7e57611a7d6116f6565b5b611a8a878288016119c4565b94509450506020611a9d87828801611a31565b9250506040611aae87828801611744565b91505092959194509250565b611ac3816117cb565b82525050565b6000602082019050611ade6000830184611aba565b92915050565b60008115159050919050565b611af981611ae4565b8114611b0457600080fd5b50565b600081359050611b1681611af0565b92915050565b60008060408385031215611b3357611b326116f1565b5b6000611b4185828601611744565b9250506020611b5285828601611b07565b9150509250929050565b611b6581611ae4565b82525050565b611b74816118d8565b82525050565b6000604082019050611b8f6000830185611b5c565b611b9c6020830184611b6b565b9392505050565b611bac816117cb565b8114611bb757600080fd5b50565b600081359050611bc981611ba3565b92915050565b600060208284031215611be557611be46116f1565b5b6000611bf384828501611bba565b91505092915050565b611c05816118d8565b8114611c1057600080fd5b50565b600081359050611c2281611bfc565b92915050565b60008060008060008060a08789031215611c4557611c446116f1565b5b6000611c5389828a01611c13565b9650506020611c6489828a01611744565b955050604087013567ffffffffffffffff811115611c8557611c846116f6565b5b611c9189828a016119c4565b94509450506060611ca489828a01611a31565b9250506080611cb589828a01611c13565b9150509295509295509295565b6000602082019050611cd76000830184611b5c565b92915050565b6000602082019050611cf26000830184611b6b565b92915050565b600081519050919050565b600082825260208201905092915050565b60005b83811015611d32578082015181840152602081019050611d17565b83811115611d41576000848401525b50505050565b6000601f19601f8301169050919050565b6000611d6382611cf8565b611d6d8185611d03565b9350611d7d818560208601611d14565b611d8681611d47565b840191505092915050565b60006080820190508181036000830152611dab8187611d58565b9050611dba6020830186611b6b565b611dc7604083018561198b565b611dd46060830184611b6b565b95945050505050565b600080600060408486031215611df657611df56116f1565b5b6000611e0486828701611744565b935050602084013567ffffffffffffffff811115611e2557611e246116f6565b5b611e31868287016119c4565b92509250509250925092565b6000604082019050611e526000830185611b5c565b611e5f602083018461198b565b9392505050565b611e6f8161171b565b82525050565b600060c082019050611e8a6000830189611aba565b611e976020830188611e66565b8181036040830152611ea98187611d58565b9050611eb8606083018661198b565b611ec56080830185611b5c565b611ed260a083018461198b565b979650505050505050565b60008060008060608587031215611ef757611ef66116f1565b5b6000611f0587828801611744565b945050602085013567ffffffffffffffff811115611f2657611f256116f6565b5b611f32878288016119c4565b93509350506040611f4587828801611a31565b91505092959194509250565b6000602082019050611f666000830184611e66565b92915050565b7f4e487b7100000000000000000000000000000000000000000000000000000000600052604160045260246000fd5b611fa482611d47565b810181811067ffffffffffffffff82111715611fc357611fc2611f6c565b5b80604052505050565b6000611fd66116e7565b9050611fe28282611f9b565b919050565b600067ffffffffffffffff82111561200257612001611f6c565b5b602082029050602081019050919050565b600080fd5b60008151905061202781611a1a565b92915050565b60008151905061203c81611ba3565b92915050565b60006040828403121561205857612057612013565b5b6120626040611fcc565b9050600061207284828501612018565b60008301525060206120868482850161202d565b60208301525092915050565b60006120a56120a084611fe7565b611fcc565b905080838252602082019050604084028301858111156120c8576120c76119bf565b5b835b818110156120f157806120dd8882612042565b8452602084019350506040810190506120ca565b5050509392505050565b600082601f8301126121105761210f6119b5565b5b8151612120848260208601612092565b91505092915050565b60006020828403121561213f5761213e6116f1565b5b600082015167ffffffffffffffff81111561215d5761215c6116f6565b5b612169848285016120fb565b91505092915050565b7f526567697374726174696f6e2066656520697320726571756972656400000000600082015250565b60006121a8601c83611d03565b91506121b382612172565b602082019050919050565b600060208201905081810360008301526121d78161219b565b9050919050565b7f4e6f74207265676973746572656420617320616e206f7261636c650000000000600082015250565b6000612214601b83611d03565b915061221f826121de565b602082019050919050565b6000602082019050818103600083015261224381612207565b9050919050565b82818337600083830152505050565b60006122658385611d03565b935061227283858461224a565b61227b83611d47565b840190509392505050565b600060608201905081810360008301526122a1818688612259565b90506122b0602083018561198b565b6122bd6040830184611e66565b95945050505050565b6000602082840312156122dc576122db6116f1565b5b60006122ea8482850161202d565b91505092915050565b60006060820190506123086000830186611e66565b6123156020830185611e66565b6123226040830184611b5c565b949350505050565b60008151905061233981611af0565b92915050565b60008151905061234e81611bfc565b92915050565b6000806040838503121561236b5761236a6116f1565b5b60006123798582860161232a565b925050602061238a8582860161233f565b9150509250929050565b60006040820190506123a96000830185611aba565b6123b66020830184611e66565b9392505050565b7f4e487b7100000000000000000000000000000000000000000000000000000000600052603260045260246000fd5b7f496e64657820646f6573206e6f74206d61746368206f7261636c65207265717560008201527f6573740000000000000000000000000000000000000000000000000000000000602082015250565b6000612448602383611d03565b9150612453826123ec565b604082019050919050565b600060208201905081810360008301526124778161243b565b9050919050565b60008160f81b9050919050565b60006124968261247e565b9050919050565b6124ae6124a9826118d8565b61248b565b82525050565b60008160601b9050919050565b60006124cc826124b4565b9050919050565b60006124de826124c1565b9050919050565b6124f66124f18261171b565b6124d3565b82525050565b600081905092915050565b600061251383856124fc565b935061252083858461224a565b82840190509392505050565b6000819050919050565b612547612542826117b2565b61252c565b82525050565b6000612559828861249d565b60018201915061256982876124e5565b60148201915061257a828587612507565b91506125868284612536565b6020820191508190509695505050505050565b7f466c69676874206f722074696d657374616d7020646f206e6f74206d6174636860008201527f206f7261636c6520726571756573740000000000000000000000000000000000602082015250565b60006125f5602f83611d03565b915061260082612599565b604082019050919050565b60006020820190508181036000830152612624816125e8565b9050919050565b60006080820190506126406000830188611e66565b8181036020830152612653818688612259565b9050612662604083018561198b565b61266f6060830184611b6b565b9695505050505050565b60006020828403121561268f5761268e6116f1565b5b600061269d8482850161232a565b91505092915050565b6000602082840312156126bc576126bb6116f1565b5b60006126ca8482850161233f565b91505092915050565b600080fd5b600067ffffffffffffffff8211156126f3576126f2611f6c565b5b6126fc82611d47565b9050602081019050919050565b600061271c612717846126d8565b611fcc565b905082815260208101848484011115612738576127376126d3565b5b612743848285611d14565b509392505050565b600082601f8301126127605761275f6119b5565b5b8151612770848260208601612709565b91505092915050565b60008060008060808587031215612793576127926116f1565b5b600085015167ffffffffffffffff8111156127b1576127b06116f6565b5b6127bd8782880161274b565b94505060206127ce8782880161233f565b93505060406127df87828801612018565b92505060606127f08782880161233f565b91505092959194509250565b60006040820190506128116000830186611e66565b8181036020830152612824818486612259565b9050949350505050565b60008060408385031215612845576128446116f1565b5b60006128538582860161232a565b925050602061286485828601612018565b9150509250929050565b7f4d696e696d756d2066756e64206e6f742070726f766964656400000000000000600082015250565b60006128a4601983611d03565b91506128af8261286e565b602082019050919050565b600060208201905081810360008301526128d381612897565b9050919050565b6000815190506128e98161172d565b92915050565b60008060008060008060c0878903121561290c5761290b6116f1565b5b600061291a89828a0161202d565b965050602061292b89828a016128da565b955050604087015167ffffffffffffffff81111561294c5761294b6116f6565b5b61295889828a0161274b565b945050606061296989828a01612018565b935050608061297a89828a0161232a565b92505060a061298b89828a01612018565b9150509295509295509295565b60006080820190506129ad6000830188611b6b565b6129ba6020830187611e66565b81810360408301526129cd818587612259565b90506129dc606083018461198b565b9695505050505050565b60006129f282876124e5565b601482019150612a03828587612507565b9150612a0f8284612536565b60208201915081905095945050505050565b7f4e487b7100000000000000000000000000000000000000000000000000000000600052601160045260246000fd5b6000612a5b826118d8565b915060ff8203612a6e57612a6d612a21565b5b600182019050919050565b6000612a84826117b2565b9150612a8f836117b2565b925082821015612aa257612aa1612a21565b5b828203905092915050565b6000819050919050565b612ac8612ac3826117cb565b612aad565b82525050565b6000612ada8285612ab7565b602082019150612aea82846124e5565b6014820191508190509392505050565b7f4e487b7100000000000000000000000000000000000000000000000000000000600052601260045260246000fd5b6000612b34826117b2565b9150612b3f836117b2565b925082612b4f57612b4e612afa565b5b82820690509291505056fea2646970667358221220ba0ac088736ffc94038f8076bd839e87acaff9b8fee7fec163a4f505239b734e64736f6c634300080e0033",
  "immutableReferences": {},
  "source": "// SPDX-License-Identifier: MIT\npragma solidity ^0.8.14;\n\n//Define Contract Data Interface\n\ninterface IFlightSuretyData {\n    struct CustomerInfo {\n        uint256 fund;\n        bytes32 flight;\n    }\n\n    function isOperational() external view returns (bool);\n\n    function setOperatingStatus(bool mode) external;\n\n    function registerAirline(address _address, string calldata name)\n        external\n        returns (bool success, uint256 votes);\n\n    function getAirline(address _address)\n        external\n        view\n        returns (\n            string memory name,\n            uint8 status,\n            uint256 funds,\n            uint8 votes\n        );\n\n    function fund(address _address) external payable;\n\n    function approveAirlineRegistration(\n        address _address,\n        address _from,\n        bool _approval\n    ) external returns (bool success, uint8 votes);\n\n    function getTotalAirlines() external view returns (uint8);\n\n    function registerFlight(\n        string memory _flight,\n        uint256 _updatedTimestamp,\n        address _airline\n    ) external returns (bytes32);\n\n    function getFlight(bytes32)\n        external\n        view\n        returns (\n            bytes32,\n            address,\n            string memory,\n            uint256,\n            bool,\n            uint256\n        );\n\n    function buy(bytes32 _flight, address _customer)\n        external\n        payable\n        returns (bool);\n\n    function getCustomerInsurances(address _customer)\n        external\n        view\n        returns (CustomerInfo[] memory);\n\n    function processFlightStatus(\n        address airline,\n        string calldata flight,\n        uint256 timestamp,\n        uint8 statusCode\n    ) external;\n\n    function pay(bytes32 _flight, address _customer) external;\n}\n\n/************************************************** */\n/* FlightSurety Smart Contract                      */\n/************************************************** */\ncontract FlightSuretyApp {\n    /********************************************************************************************/\n    /*                                       DATA VARIABLES                                     */\n    /********************************************************************************************/\n\n    address private contractOwner; // Account used to deploy contract\n    IFlightSuretyData private flightSuretyData;\n\n    uint256 minInsuranceFund = 0.000001 ether;\n\n    struct CustomerInfo {\n        uint256 fund;\n        bytes32 flight;\n    }\n\n    // Events\n\n    event FlightRegistration(\n        bytes32 indexed id,\n        string Flight,\n        uint256 UpdatedTimestamp,\n        address Airline\n    );\n\n    /********************************************************************************************/\n    /*                                       FUNCTION MODIFIERS                                 */\n    /********************************************************************************************/\n\n    /**\n     * @dev Modifier that requires the \"operational\" boolean variable to be \"true\"\n     *      This is used on all state changing functions to pause the contract in\n     *      the event there is an issue that needs to be fixed\n     */\n    modifier requireIsOperational() {\n        // Modify to call data contract's status\n        require(\n            flightSuretyData.isOperational() == true,\n            \"Contract is currently not operational\"\n        );\n        _;\n    }\n\n    /**\n     * @dev Modifier that requires the \"ContractOwner\" account to be the function caller\n     */\n    modifier requireContractOwner() {\n        require(\n            msg.sender == contractOwner,\n            \"Caller is not contract owner - APP\"\n        );\n        _;\n    }\n\n    /********************************************************************************************/\n    /*                                       CONSTRUCTOR                                        */\n    /********************************************************************************************/\n\n    /**\n     * @dev Contract constructor\n     *\n     */\n    constructor(address _flightSuretyData) {\n        contractOwner = msg.sender;\n        flightSuretyData = IFlightSuretyData(payable(_flightSuretyData));\n    }\n\n    /********************************************************************************************/\n    /*                                       UTILITY FUNCTIONS                                  */\n    /********************************************************************************************/\n\n    function isOperational() public view returns (bool) {\n        return flightSuretyData.isOperational(); // Modify to call data contract's status\n    }\n\n    /********************************************************************************************/\n    /*                                     SMART CONTRACT FUNCTIONS                             */\n    /********************************************************************************************/\n\n    /**\n     * @dev Add an airline to the registration queue\n     *\n     */\n    function registerAirline(address _address, string calldata name)\n        external\n        returns (bool success, uint256 votes)\n    {\n        return flightSuretyData.registerAirline(_address, name);\n    }\n\n    /**\n     * @dev Airline should be able to fund it, before register is approved\n     *\n     */\n\n    function airlineFund() external payable {\n        flightSuretyData.fund{value: msg.value}(msg.sender);\n    }\n\n    /**\n     * @dev Airline Approval function\n     *\n     */\n\n    function approveAirlineRegistration(address _address, bool _approval)\n        external\n        returns (bool success, uint8 votes)\n    {\n        return\n            flightSuretyData.approveAirlineRegistration(\n                _address,\n                msg.sender,\n                _approval\n            );\n    }\n\n    function getAirline(address _address)\n        external\n        view\n        returns (\n            string memory name,\n            uint8 status,\n            uint256 funds,\n            uint8 votes\n        )\n    {\n        return flightSuretyData.getAirline(_address);\n    }\n\n    function getTotalAirlines() external view returns (uint8) {\n        return flightSuretyData.getTotalAirlines();\n    }\n\n    /**\n     * @dev Register a future flight for insuring.\n     *\n     */\n    function registerFlight(\n        string calldata _flight,\n        uint256 _updatedTimestamp,\n        address _airline\n    ) external returns (bytes32) {\n        bytes32 id = flightSuretyData.registerFlight(\n            _flight,\n            _updatedTimestamp,\n            _airline\n        );\n\n        emit FlightRegistration(id, _flight, _updatedTimestamp, _airline);\n\n        return id;\n    }\n\n    function getFlight(\n        string calldata _flight,\n        uint256 _updatedTimestamp,\n        address _airline\n    )\n        external\n        view\n        returns (\n            bytes32,\n            address,\n            string memory,\n            uint256,\n            bool,\n            uint256\n        )\n    {\n        return\n            flightSuretyData.getFlight(\n                getFlightKey(_airline, _flight, _updatedTimestamp)\n            );\n    }\n\n    // customer can buy insurance\n    function buyInsurance(\n        string calldata _flight,\n        uint256 _updatedTimestamp,\n        address _airline\n    ) external payable returns (bool) {\n        require(msg.value >= minInsuranceFund, \"Minimum fund not provided\");\n\n        return\n            flightSuretyData.buy{value: msg.value}(\n                getFlightKey(_airline, _flight, _updatedTimestamp),\n                msg.sender\n            );\n    }\n\n    //get customers insurance\n    function getCustomerInsurances(address _customer)\n        external\n        view\n        returns (IFlightSuretyData.CustomerInfo[] memory)\n    {\n        return flightSuretyData.getCustomerInsurances(_customer);\n    }\n\n    /**\n     * @dev Called after oracle has updated flight status\n     *\n     */\n    function processFlightStatus(\n        address airline,\n        string calldata flight,\n        uint256 timestamp,\n        uint8 statusCode\n    ) internal {\n        flightSuretyData.processFlightStatus(\n            airline,\n            flight,\n            timestamp,\n            statusCode\n        );\n    }\n\n    // Generate a request for oracles to fetch flight information\n    function fetchFlightStatus(\n        address airline,\n        string calldata flight,\n        uint256 timestamp\n    ) external {\n        uint8 index = getRandomIndex(msg.sender);\n\n        // Generate a unique key for storing the request\n        bytes32 key = keccak256(\n            abi.encodePacked(index, airline, flight, timestamp)\n        );\n\n        oracleResponses[key].requester = msg.sender;\n        oracleResponses[key].isOpen = true;\n\n        emit OracleRequest(index, airline, flight, timestamp);\n    }\n\n    //withdraw insurance\n    function withdraw(bytes32 _flight) external {\n        flightSuretyData.pay(_flight, msg.sender);\n    }\n\n    /********************************************************************************************/\n    /*                               region ORACLE MANAGEMENT\n    /********************************************************************************************/\n\n    // Incremented to add pseudo-randomness at various points\n    uint8 private nonce = 0;\n\n    // Fee to be paid when registering oracle\n    uint256 public constant REGISTRATION_FEE = 1 ether;\n\n    // Number of oracles that must respond for valid status\n    uint256 private constant MIN_RESPONSES = 1;\n\n    struct Oracle {\n        bool isRegistered;\n        uint8[3] indexes;\n    }\n\n    // Track all registered oracles\n    mapping(address => Oracle) private oracles;\n\n    // Model for responses from oracles\n    struct ResponseInfo {\n        address requester; // Account that requested status\n        bool isOpen; // If open, oracle responses are accepted\n        mapping(uint8 => address[]) responses; // Mapping key is the status code reported\n        // This lets us group responses and identify\n        // the response that majority of the oracles\n    }\n\n    // Track all oracle responses\n    // Key = hash(index, flight, timestamp)\n    mapping(bytes32 => ResponseInfo) private oracleResponses;\n\n    // Event fired each time an oracle submits a response\n    event FlightStatusInfo(\n        address airline,\n        string flight,\n        uint256 timestamp,\n        uint8 status\n    );\n\n    event OracleReport(\n        address airline,\n        string flight,\n        uint256 timestamp,\n        uint8 status\n    );\n\n    // Event fired when flight status request is submitted\n    // Oracles track this and if they have a matching index\n    // they fetch data and submit a response\n    event OracleRequest(\n        uint8 index,\n        address airline,\n        string flight,\n        uint256 timestamp\n    );\n\n    // Register an oracle with the contract\n    function registerOracle() external payable {\n        // Require registration fee\n        require(msg.value >= REGISTRATION_FEE, \"Registration fee is required\");\n\n        uint8[3] memory indexes = generateIndexes(msg.sender);\n\n        oracles[msg.sender] = Oracle({isRegistered: true, indexes: indexes});\n    }\n\n    function getMyIndexes() external view returns (uint8[3] memory) {\n        require(\n            oracles[msg.sender].isRegistered,\n            \"Not registered as an oracle\"\n        );\n\n        return oracles[msg.sender].indexes;\n    }\n\n    // Called by oracle when a response is available to an outstanding request\n    // For the response to be accepted, there must be a pending request that is open\n    // and matches one of the three Indexes randomly assigned to the oracle at the\n    // time of registration (i.e. uninvited oracles are not welcome)\n    function submitOracleResponse(\n        uint8 index,\n        address airline,\n        string calldata flight,\n        uint256 timestamp,\n        uint8 statusCode\n    ) external {\n        require(\n            (oracles[msg.sender].indexes[0] == index) ||\n                (oracles[msg.sender].indexes[1] == index) ||\n                (oracles[msg.sender].indexes[2] == index),\n            \"Index does not match oracle request\"\n        );\n\n        bytes32 key = keccak256(\n            abi.encodePacked(index, airline, flight, timestamp)\n        );\n        require(\n            oracleResponses[key].isOpen,\n            \"Flight or timestamp do not match oracle request\"\n        );\n\n        oracleResponses[key].responses[statusCode].push(msg.sender);\n\n        // Information isn't considered verified until at least MIN_RESPONSES\n        // oracles respond with the *** same *** information\n        emit OracleReport(airline, flight, timestamp, statusCode);\n        if (\n            oracleResponses[key].responses[statusCode].length >= MIN_RESPONSES\n        ) {\n            emit FlightStatusInfo(airline, flight, timestamp, statusCode);\n\n            // Handle flight status as appropriate\n            processFlightStatus(airline, flight, timestamp, statusCode);\n        }\n    }\n\n    function getFlightKey(\n        address airline,\n        string calldata flight,\n        uint256 timestamp\n    ) internal pure returns (bytes32) {\n        return keccak256(abi.encodePacked(airline, flight, timestamp));\n    }\n\n    // Returns array of three non-duplicating integers from 0-9\n    function generateIndexes(address account)\n        internal\n        returns (uint8[3] memory)\n    {\n        uint8[3] memory indexes;\n        indexes[0] = getRandomIndex(account);\n\n        indexes[1] = indexes[0];\n        while (indexes[1] == indexes[0]) {\n            indexes[1] = getRandomIndex(account);\n        }\n\n        indexes[2] = indexes[1];\n        while ((indexes[2] == indexes[0]) || (indexes[2] == indexes[1])) {\n            indexes[2] = getRandomIndex(account);\n        }\n\n        return indexes;\n    }\n\n    // Returns array of three non-duplicating integers from 0-9\n    function getRandomIndex(address account) internal returns (uint8) {\n        uint8 maxValue = 10;\n\n        // Pseudo random number...the incrementing nonce adds variation\n        uint8 random = uint8(\n            uint256(\n                keccak256(\n                    abi.encodePacked(blockhash(block.number - nonce++), account)\n                )\n            ) % maxValue\n        );\n\n        if (nonce > 250) {\n            nonce = 0; // Can only fetch blockhashes for last 256 blocks so we adapt\n        }\n\n        return random;\n    }\n\n    // endregion\n}\n",
  "sourcePath": "/home/rafamessias/Documents/udacity/Ethereum/flight-surety/truffle/contracts/FlightSuretyApp.sol",
  "compiler": {
    "name": "solc",
    "version": "0.8.14+commit.80d49f37.Emscripten.clang"
  },
  "schemaVersion": "3.4.8",
  "updatedAt": "2022-09-15T20:05:13.057Z",
  "networkType": "ethereum",
  "devdoc": {
    "kind": "dev",
    "methods": {
      "airlineFund()": {
        "details": "Airline should be able to fund it, before register is approved"
      },
      "approveAirlineRegistration(address,bool)": {
        "details": "Airline Approval function"
      },
      "constructor": {
        "details": "Contract constructor"
      },
      "registerAirline(address,string)": {
        "details": "Add an airline to the registration queue"
      },
      "registerFlight(string,uint256,address)": {
        "details": "Register a future flight for insuring."
      }
    },
    "version": 1
  },
  "userdoc": {
    "kind": "user",
    "methods": {},
    "version": 1
  }
}