{
  "contractName": "FlightSuretyApp",
  "abi": [
    {
      "inputs": [
        {
          "internalType": "address",
          "name": "_flightSuretyData",
          "type": "address"
        }
      ],
      "stateMutability": "nonpayable",
      "type": "constructor"
    },
    {
      "anonymous": false,
      "inputs": [
        {
          "indexed": false,
          "internalType": "address",
          "name": "airline",
          "type": "address"
        },
        {
          "indexed": false,
          "internalType": "string",
          "name": "flight",
          "type": "string"
        },
        {
          "indexed": false,
          "internalType": "uint256",
          "name": "timestamp",
          "type": "uint256"
        },
        {
          "indexed": false,
          "internalType": "uint8",
          "name": "status",
          "type": "uint8"
        }
      ],
      "name": "FlightStatusInfo",
      "type": "event"
    },
    {
      "anonymous": false,
      "inputs": [
        {
          "indexed": false,
          "internalType": "address",
          "name": "airline",
          "type": "address"
        },
        {
          "indexed": false,
          "internalType": "string",
          "name": "flight",
          "type": "string"
        },
        {
          "indexed": false,
          "internalType": "uint256",
          "name": "timestamp",
          "type": "uint256"
        },
        {
          "indexed": false,
          "internalType": "uint8",
          "name": "status",
          "type": "uint8"
        }
      ],
      "name": "OracleReport",
      "type": "event"
    },
    {
      "anonymous": false,
      "inputs": [
        {
          "indexed": false,
          "internalType": "uint8",
          "name": "index",
          "type": "uint8"
        },
        {
          "indexed": false,
          "internalType": "address",
          "name": "airline",
          "type": "address"
        },
        {
          "indexed": false,
          "internalType": "string",
          "name": "flight",
          "type": "string"
        },
        {
          "indexed": false,
          "internalType": "uint256",
          "name": "timestamp",
          "type": "uint256"
        }
      ],
      "name": "OracleRequest",
      "type": "event"
    },
    {
      "inputs": [],
      "name": "REGISTRATION_FEE",
      "outputs": [
        {
          "internalType": "uint256",
          "name": "",
          "type": "uint256"
        }
      ],
      "stateMutability": "view",
      "type": "function",
      "constant": true
    },
    {
      "inputs": [],
      "name": "isOperational",
      "outputs": [
        {
          "internalType": "bool",
          "name": "",
          "type": "bool"
        }
      ],
      "stateMutability": "view",
      "type": "function",
      "constant": true
    },
    {
      "inputs": [
        {
          "internalType": "address",
          "name": "_address",
          "type": "address"
        },
        {
          "internalType": "string",
          "name": "name",
          "type": "string"
        }
      ],
      "name": "registerAirline",
      "outputs": [
        {
          "internalType": "bool",
          "name": "success",
          "type": "bool"
        },
        {
          "internalType": "uint256",
          "name": "votes",
          "type": "uint256"
        }
      ],
      "stateMutability": "payable",
      "type": "function",
      "payable": true
    },
    {
      "inputs": [],
      "name": "airlineFund",
      "outputs": [],
      "stateMutability": "payable",
      "type": "function",
      "payable": true
    },
    {
      "inputs": [
        {
          "internalType": "address",
          "name": "_address",
          "type": "address"
        },
        {
          "internalType": "bool",
          "name": "_approval",
          "type": "bool"
        }
      ],
      "name": "approveAirlineRegistration",
      "outputs": [
        {
          "internalType": "bool",
          "name": "success",
          "type": "bool"
        },
        {
          "internalType": "uint8",
          "name": "votes",
          "type": "uint8"
        }
      ],
      "stateMutability": "nonpayable",
      "type": "function"
    },
    {
      "inputs": [
        {
          "internalType": "address",
          "name": "_address",
          "type": "address"
        }
      ],
      "name": "getAirline",
      "outputs": [
        {
          "internalType": "string",
          "name": "name",
          "type": "string"
        },
        {
          "internalType": "uint8",
          "name": "status",
          "type": "uint8"
        },
        {
          "internalType": "uint256",
          "name": "funds",
          "type": "uint256"
        },
        {
          "internalType": "uint8",
          "name": "votes",
          "type": "uint8"
        }
      ],
      "stateMutability": "view",
      "type": "function",
      "constant": true
    },
    {
      "inputs": [],
      "name": "getTotalAirlines",
      "outputs": [
        {
          "internalType": "uint8",
          "name": "",
          "type": "uint8"
        }
      ],
      "stateMutability": "view",
      "type": "function",
      "constant": true
    },
    {
      "inputs": [
        {
          "internalType": "string",
          "name": "_flight",
          "type": "string"
        },
        {
          "internalType": "uint256",
          "name": "_updatedTimestamp",
          "type": "uint256"
        },
        {
          "internalType": "address",
          "name": "_airline",
          "type": "address"
        }
      ],
      "name": "registerFlight",
      "outputs": [
        {
          "internalType": "bytes32",
          "name": "",
          "type": "bytes32"
        }
      ],
      "stateMutability": "nonpayable",
      "type": "function"
    },
    {
      "inputs": [
        {
          "internalType": "string",
          "name": "_flight",
          "type": "string"
        },
        {
          "internalType": "uint256",
          "name": "_updatedTimestamp",
          "type": "uint256"
        },
        {
          "internalType": "address",
          "name": "_airline",
          "type": "address"
        }
      ],
      "name": "getFlight",
      "outputs": [
        {
          "internalType": "bytes32",
          "name": "",
          "type": "bytes32"
        },
        {
          "internalType": "address",
          "name": "",
          "type": "address"
        },
        {
          "internalType": "string",
          "name": "",
          "type": "string"
        },
        {
          "internalType": "uint256",
          "name": "",
          "type": "uint256"
        },
        {
          "internalType": "bool",
          "name": "",
          "type": "bool"
        },
        {
          "internalType": "uint256",
          "name": "",
          "type": "uint256"
        }
      ],
      "stateMutability": "view",
      "type": "function",
      "constant": true
    },
    {
      "inputs": [
        {
          "internalType": "string",
          "name": "_flight",
          "type": "string"
        },
        {
          "internalType": "uint256",
          "name": "_updatedTimestamp",
          "type": "uint256"
        },
        {
          "internalType": "address",
          "name": "_airline",
          "type": "address"
        }
      ],
      "name": "buyInsurance",
      "outputs": [
        {
          "internalType": "bool",
          "name": "",
          "type": "bool"
        }
      ],
      "stateMutability": "payable",
      "type": "function",
      "payable": true
    },
    {
      "inputs": [
        {
          "internalType": "address",
          "name": "_customer",
          "type": "address"
        }
      ],
      "name": "getCustomerInsurances",
      "outputs": [
        {
          "components": [
            {
              "internalType": "uint256",
              "name": "fund",
              "type": "uint256"
            },
            {
              "internalType": "bytes32",
              "name": "flight",
              "type": "bytes32"
            }
          ],
          "internalType": "struct IFlightSuretyData.CustomerInfo[]",
          "name": "",
          "type": "tuple[]"
        }
      ],
      "stateMutability": "view",
      "type": "function",
      "constant": true
    },
    {
      "inputs": [
        {
          "internalType": "address",
          "name": "airline",
          "type": "address"
        },
        {
          "internalType": "string",
          "name": "flight",
          "type": "string"
        },
        {
          "internalType": "uint256",
          "name": "timestamp",
          "type": "uint256"
        }
      ],
      "name": "fetchFlightStatus",
      "outputs": [],
      "stateMutability": "nonpayable",
      "type": "function"
    },
    {
      "inputs": [],
      "name": "registerOracle",
      "outputs": [],
      "stateMutability": "payable",
      "type": "function",
      "payable": true
    },
    {
      "inputs": [],
      "name": "getMyIndexes",
      "outputs": [
        {
          "internalType": "uint8[3]",
          "name": "",
          "type": "uint8[3]"
        }
      ],
      "stateMutability": "view",
      "type": "function",
      "constant": true
    },
    {
      "inputs": [
        {
          "internalType": "uint8",
          "name": "index",
          "type": "uint8"
        },
        {
          "internalType": "address",
          "name": "airline",
          "type": "address"
        },
        {
          "internalType": "string",
          "name": "flight",
          "type": "string"
        },
        {
          "internalType": "uint256",
          "name": "timestamp",
          "type": "uint256"
        },
        {
          "internalType": "uint8",
          "name": "statusCode",
          "type": "uint8"
        }
      ],
      "name": "submitOracleResponse",
      "outputs": [],
      "stateMutability": "nonpayable",
      "type": "function"
    }
  ],
  "bytecode": "0x608060405264e8d4a510006002556000600360006101000a81548160ff021916908360ff1602179055503480156200003657600080fd5b5060405162002b3338038062002b3383398181016040528101906200005c91906200014e565b336000806101000a81548173ffffffffffffffffffffffffffffffffffffffff021916908373ffffffffffffffffffffffffffffffffffffffff16021790555080600160006101000a81548173ffffffffffffffffffffffffffffffffffffffff021916908373ffffffffffffffffffffffffffffffffffffffff1602179055505062000180565b600080fd5b600073ffffffffffffffffffffffffffffffffffffffff82169050919050565b60006200011682620000e9565b9050919050565b620001288162000109565b81146200013457600080fd5b50565b60008151905062000148816200011d565b92915050565b600060208284031215620001675762000166620000e4565b5b6000620001778482850162000137565b91505092915050565b6129a380620001906000396000f3fe6080604052600436106100e85760003560e01c8063c10f27001161008a578063ee38a74911610059578063ee38a749146102ce578063f2cd8192146102ff578063f555e2d71461032f578063f83f11c014610371576100e8565b8063c10f27001461020f578063cd905dff14610238578063d53a57b514610263578063e1de04891461028e576100e8565b80635f746a85116100c65780635f746a851461015f57806364b4f7511461016957806365c152f71461019457806367efbf15146101d1576100e8565b8063071a71a1146100ed578063339d25901461012a5780635f1cc0e614610134575b600080fd5b3480156100f957600080fd5b50610114600480360381019061010f91906115ae565b61039a565b60405161012191906116eb565b60405180910390f35b610132610444565b005b34801561014057600080fd5b50610149610531565b60405161015691906117c5565b60405180910390f35b610167610671565b005b34801561017557600080fd5b5061017e610701565b60405161018b91906117ef565b60405180910390f35b3480156101a057600080fd5b506101bb60048036038101906101b6919061189b565b61070d565b6040516101c8919061191e565b60405180910390f35b3480156101dd57600080fd5b506101f860048036038101906101f39190611971565b6107bd565b6040516102069291906119cf565b60405180910390f35b34801561021b57600080fd5b5061023660048036038101906102319190611a24565b61086c565b005b34801561024457600080fd5b5061024d610c03565b60405161025a9190611abe565b60405180910390f35b34801561026f57600080fd5b50610278610c9b565b6040516102859190611ad9565b60405180910390f35b34801561029a57600080fd5b506102b560048036038101906102b091906115ae565b610d33565b6040516102c59493929190611b8d565b60405180910390f35b6102e860048036038101906102e39190611bd9565b610dea565b6040516102f6929190611c39565b60405180910390f35b6103196004803603810190610314919061189b565b610e9a565b6040516103269190611abe565b60405180910390f35b34801561033b57600080fd5b506103566004803603810190610351919061189b565b610f97565b60405161036896959493929190611c71565b60405180910390f35b34801561037d57600080fd5b5061039860048036038101906103939190611cd9565b611066565b005b6060600160009054906101000a900473ffffffffffffffffffffffffffffffffffffffff1673ffffffffffffffffffffffffffffffffffffffff1663071a71a1836040518263ffffffff1660e01b81526004016103f79190611d4d565b600060405180830381865afa158015610414573d6000803e3d6000fd5b505050506040513d6000823e3d601f19601f8201168201806040525081019061043d9190611f3c565b9050919050565b670de0b6b3a764000034101561048f576040517f08c379a000000000000000000000000000000000000000000000000000000000815260040161048690611fd1565b60405180910390fd5b600061049a33611171565b9050604051806040016040528060011515815260200182815250600460003373ffffffffffffffffffffffffffffffffffffffff1673ffffffffffffffffffffffffffffffffffffffff16815260200190815260200160002060008201518160000160006101000a81548160ff02191690831515021790555060208201518160010190600361052a929190611463565b5090505050565b6105396114fd565b600460003373ffffffffffffffffffffffffffffffffffffffff1673ffffffffffffffffffffffffffffffffffffffff16815260200190815260200160002060000160009054906101000a900460ff166105c8576040517f08c379a00000000000000000000000000000000000000000000000000000000081526004016105bf9061203d565b60405180910390fd5b600460003373ffffffffffffffffffffffffffffffffffffffff1673ffffffffffffffffffffffffffffffffffffffff168152602001908152602001600020600101600380602002604051908101604052809291908260038015610667576020028201916000905b82829054906101000a900460ff1660ff16815260200190600101906020826000010492830192600103820291508084116106305790505b5050505050905090565b600160009054906101000a900473ffffffffffffffffffffffffffffffffffffffff1673ffffffffffffffffffffffffffffffffffffffff16632302440834336040518363ffffffff1660e01b81526004016106cd9190611d4d565b6000604051808303818588803b1580156106e657600080fd5b505af11580156106fa573d6000803e3d6000fd5b5050505050565b670de0b6b3a764000081565b6000600160009054906101000a900473ffffffffffffffffffffffffffffffffffffffff1673ffffffffffffffffffffffffffffffffffffffff166365c152f7868686866040518563ffffffff1660e01b81526004016107709493929190612099565b6020604051808303816000875af115801561078f573d6000803e3d6000fd5b505050506040513d601f19601f820116820180604052508101906107b391906120d9565b9050949350505050565b600080600160009054906101000a900473ffffffffffffffffffffffffffffffffffffffff1673ffffffffffffffffffffffffffffffffffffffff16633e2e41178533866040518463ffffffff1660e01b815260040161081f93929190612106565b60408051808303816000875af115801561083d573d6000803e3d6000fd5b505050506040513d601f19601f820116820180604052508101906108619190612167565b915091509250929050565b8560ff16600460003373ffffffffffffffffffffffffffffffffffffffff1673ffffffffffffffffffffffffffffffffffffffff1681526020019081526020016000206001016000600381106108c5576108c46121a7565b5b602091828204019190069054906101000a900460ff1660ff16148061095957508560ff16600460003373ffffffffffffffffffffffffffffffffffffffff1673ffffffffffffffffffffffffffffffffffffffff16815260200190815260200160002060010160016003811061093e5761093d6121a7565b5b602091828204019190069054906101000a900460ff1660ff16145b806109d357508560ff16600460003373ffffffffffffffffffffffffffffffffffffffff1673ffffffffffffffffffffffffffffffffffffffff1681526020019081526020016000206001016002600381106109b8576109b76121a7565b5b602091828204019190069054906101000a900460ff1660ff16145b610a12576040517f08c379a0000000000000000000000000000000000000000000000000000000008152600401610a0990612248565b60405180910390fd5b60008686868686604051602001610a2d959493929190612337565b6040516020818303038152906040528051906020012090506005600082815260200190815260200160002060000160149054906101000a900460ff16610aa8576040517f08c379a0000000000000000000000000000000000000000000000000000000008152600401610a9f906123f5565b60405180910390fd5b6005600082815260200190815260200160002060010160008360ff1660ff168152602001908152602001600020339080600181540180825580915050600190039060005260206000200160009091909190916101000a81548173ffffffffffffffffffffffffffffffffffffffff021916908373ffffffffffffffffffffffffffffffffffffffff1602179055507f43c853095c2752648493c88b4baac4d580d2594ffb00c6f1d4242d844514f7838686868686604051610b6d959493929190612415565b60405180910390a160036005600083815260200190815260200160002060010160008460ff1660ff1681526020019081526020016000208054905010610bfa577fe23f5229de535c091e3b7bec2665f5d698192d3b31393066e8987b7a05076b6c8686868686604051610be4959493929190612415565b60405180910390a1610bf98686868686611357565b5b50505050505050565b6000600160009054906101000a900473ffffffffffffffffffffffffffffffffffffffff1673ffffffffffffffffffffffffffffffffffffffff1663cd905dff6040518163ffffffff1660e01b8152600401602060405180830381865afa158015610c72573d6000803e3d6000fd5b505050506040513d601f19601f82011682018060405250810190610c969190612463565b905090565b6000600160009054906101000a900473ffffffffffffffffffffffffffffffffffffffff1673ffffffffffffffffffffffffffffffffffffffff1663d53a57b56040518163ffffffff1660e01b8152600401602060405180830381865afa158015610d0a573d6000803e3d6000fd5b505050506040513d601f19601f82011682018060405250810190610d2e9190612490565b905090565b60606000806000600160009054906101000a900473ffffffffffffffffffffffffffffffffffffffff1673ffffffffffffffffffffffffffffffffffffffff1663e1de0489866040518263ffffffff1660e01b8152600401610d959190611d4d565b600060405180830381865afa158015610db2573d6000803e3d6000fd5b505050506040513d6000823e3d601f19601f82011682018060405250810190610ddb9190612563565b93509350935093509193509193565b600080600160009054906101000a900473ffffffffffffffffffffffffffffffffffffffff1673ffffffffffffffffffffffffffffffffffffffff1663ee38a7498686866040518463ffffffff1660e01b8152600401610e4c939291906125e6565b60408051808303816000875af1158015610e6a573d6000803e3d6000fd5b505050506040513d601f19601f82011682018060405250810190610e8e9190612618565b91509150935093915050565b6000600254341015610ee1576040517f08c379a0000000000000000000000000000000000000000000000000000000008152600401610ed8906126a4565b60405180910390fd5b600160009054906101000a900473ffffffffffffffffffffffffffffffffffffffff1673ffffffffffffffffffffffffffffffffffffffff1663c049604a34610f2c8589898961135e565b336040518463ffffffff1660e01b8152600401610f4a9291906126c4565b60206040518083038185885af1158015610f68573d6000803e3d6000fd5b50505050506040513d601f19601f82011682018060405250810190610f8d9190612463565b9050949350505050565b60008060606000806000600160009054906101000a900473ffffffffffffffffffffffffffffffffffffffff1673ffffffffffffffffffffffffffffffffffffffff1663cac8f292610feb898d8d8d61135e565b6040518263ffffffff1660e01b8152600401611007919061191e565b600060405180830381865afa158015611024573d6000803e3d6000fd5b505050506040513d6000823e3d601f19601f8201168201806040525081019061104d9190612702565b9550955095509550955095509499939850945094509450565b600061107133611397565b90506000818686868660405160200161108e959493929190612337565b604051602081830303815290604052805190602001209050336005600083815260200190815260200160002060000160006101000a81548173ffffffffffffffffffffffffffffffffffffffff021916908373ffffffffffffffffffffffffffffffffffffffff16021790555060016005600083815260200190815260200160002060000160146101000a81548160ff0219169083151502179055507f3ed01f2c3fc24c6b329d931e35b03e390d23497d22b3f90e15b600343e93df1182878787876040516111619594939291906127ab565b60405180910390a1505050505050565b6111796114fd565b6111816114fd565b61118a83611397565b8160006003811061119e5761119d6121a7565b5b602002019060ff16908160ff1681525050806000600381106111c3576111c26121a7565b5b6020020151816001600381106111dc576111db6121a7565b5b602002019060ff16908160ff16815250505b80600060038110611202576112016121a7565b5b602002015160ff168160016003811061121e5761121d6121a7565b5b602002015160ff160361125e5761123483611397565b81600160038110611248576112476121a7565b5b602002019060ff16908160ff16815250506111ee565b80600160038110611272576112716121a7565b5b60200201518160026003811061128b5761128a6121a7565b5b602002019060ff16908160ff16815250505b806000600381106112b1576112b06121a7565b5b602002015160ff16816002600381106112cd576112cc6121a7565b5b602002015160ff1614806113165750806001600381106112f0576112ef6121a7565b5b602002015160ff168160026003811061130c5761130b6121a7565b5b602002015160ff16145b1561134e5761132483611397565b81600260038110611338576113376121a7565b5b602002019060ff16908160ff168152505061129d565b80915050919050565b5050505050565b60008484848460405160200161137794939291906127f9565b604051602081830303815290604052805190602001209050949350505050565b600080600a905060008160ff166003600081819054906101000a900460ff16809291906113c390612863565b91906101000a81548160ff021916908360ff16021790555060ff16436113e9919061288c565b40856040516020016113fc9291906128e1565b6040516020818303038152906040528051906020012060001c61141f919061293c565b905060fa600360009054906101000a900460ff1660ff161115611459576000600360006101000a81548160ff021916908360ff1602179055505b8092505050919050565b826003601f016020900481019282156114ec5791602002820160005b838211156114bd57835183826101000a81548160ff021916908360ff160217905550926020019260010160208160000104928301926001030261147f565b80156114ea5782816101000a81549060ff02191690556001016020816000010492830192600103026114bd565b505b5090506114f9919061151f565b5090565b6040518060600160405280600390602082028036833780820191505090505090565b5b80821115611538576000816000905550600101611520565b5090565b6000604051905090565b600080fd5b600080fd5b600073ffffffffffffffffffffffffffffffffffffffff82169050919050565b600061157b82611550565b9050919050565b61158b81611570565b811461159657600080fd5b50565b6000813590506115a881611582565b92915050565b6000602082840312156115c4576115c3611546565b5b60006115d284828501611599565b91505092915050565b600081519050919050565b600082825260208201905092915050565b6000819050602082019050919050565b6000819050919050565b61161a81611607565b82525050565b6000819050919050565b61163381611620565b82525050565b60408201600082015161164f6000850182611611565b506020820151611662602085018261162a565b50505050565b60006116748383611639565b60408301905092915050565b6000602082019050919050565b6000611698826115db565b6116a281856115e6565b93506116ad836115f7565b8060005b838110156116de5781516116c58882611668565b97506116d083611680565b9250506001810190506116b1565b5085935050505092915050565b60006020820190508181036000830152611705818461168d565b905092915050565b600060039050919050565b600081905092915050565b6000819050919050565b600060ff82169050919050565b6117438161172d565b82525050565b6000611755838361173a565b60208301905092915050565b6000602082019050919050565b6117778161170d565b6117818184611718565b925061178c82611723565b8060005b838110156117bd5781516117a48782611749565b96506117af83611761565b925050600181019050611790565b505050505050565b60006060820190506117da600083018461176e565b92915050565b6117e981611607565b82525050565b600060208201905061180460008301846117e0565b92915050565b600080fd5b600080fd5b600080fd5b60008083601f84011261182f5761182e61180a565b5b8235905067ffffffffffffffff81111561184c5761184b61180f565b5b60208301915083600182028301111561186857611867611814565b5b9250929050565b61187881611607565b811461188357600080fd5b50565b6000813590506118958161186f565b92915050565b600080600080606085870312156118b5576118b4611546565b5b600085013567ffffffffffffffff8111156118d3576118d261154b565b5b6118df87828801611819565b945094505060206118f287828801611886565b925050604061190387828801611599565b91505092959194509250565b61191881611620565b82525050565b6000602082019050611933600083018461190f565b92915050565b60008115159050919050565b61194e81611939565b811461195957600080fd5b50565b60008135905061196b81611945565b92915050565b6000806040838503121561198857611987611546565b5b600061199685828601611599565b92505060206119a78582860161195c565b9150509250929050565b6119ba81611939565b82525050565b6119c98161172d565b82525050565b60006040820190506119e460008301856119b1565b6119f160208301846119c0565b9392505050565b611a018161172d565b8114611a0c57600080fd5b50565b600081359050611a1e816119f8565b92915050565b60008060008060008060a08789031215611a4157611a40611546565b5b6000611a4f89828a01611a0f565b9650506020611a6089828a01611599565b955050604087013567ffffffffffffffff811115611a8157611a8061154b565b5b611a8d89828a01611819565b94509450506060611aa089828a01611886565b9250506080611ab189828a01611a0f565b9150509295509295509295565b6000602082019050611ad360008301846119b1565b92915050565b6000602082019050611aee60008301846119c0565b92915050565b600081519050919050565b600082825260208201905092915050565b60005b83811015611b2e578082015181840152602081019050611b13565b83811115611b3d576000848401525b50505050565b6000601f19601f8301169050919050565b6000611b5f82611af4565b611b698185611aff565b9350611b79818560208601611b10565b611b8281611b43565b840191505092915050565b60006080820190508181036000830152611ba78187611b54565b9050611bb660208301866119c0565b611bc360408301856117e0565b611bd060608301846119c0565b95945050505050565b600080600060408486031215611bf257611bf1611546565b5b6000611c0086828701611599565b935050602084013567ffffffffffffffff811115611c2157611c2061154b565b5b611c2d86828701611819565b92509250509250925092565b6000604082019050611c4e60008301856119b1565b611c5b60208301846117e0565b9392505050565b611c6b81611570565b82525050565b600060c082019050611c86600083018961190f565b611c936020830188611c62565b8181036040830152611ca58187611b54565b9050611cb460608301866117e0565b611cc160808301856119b1565b611cce60a08301846117e0565b979650505050505050565b60008060008060608587031215611cf357611cf2611546565b5b6000611d0187828801611599565b945050602085013567ffffffffffffffff811115611d2257611d2161154b565b5b611d2e87828801611819565b93509350506040611d4187828801611886565b91505092959194509250565b6000602082019050611d626000830184611c62565b92915050565b7f4e487b7100000000000000000000000000000000000000000000000000000000600052604160045260246000fd5b611da082611b43565b810181811067ffffffffffffffff82111715611dbf57611dbe611d68565b5b80604052505050565b6000611dd261153c565b9050611dde8282611d97565b919050565b600067ffffffffffffffff821115611dfe57611dfd611d68565b5b602082029050602081019050919050565b600080fd5b600081519050611e238161186f565b92915050565b611e3281611620565b8114611e3d57600080fd5b50565b600081519050611e4f81611e29565b92915050565b600060408284031215611e6b57611e6a611e0f565b5b611e756040611dc8565b90506000611e8584828501611e14565b6000830152506020611e9984828501611e40565b60208301525092915050565b6000611eb8611eb384611de3565b611dc8565b90508083825260208201905060408402830185811115611edb57611eda611814565b5b835b81811015611f045780611ef08882611e55565b845260208401935050604081019050611edd565b5050509392505050565b600082601f830112611f2357611f2261180a565b5b8151611f33848260208601611ea5565b91505092915050565b600060208284031215611f5257611f51611546565b5b600082015167ffffffffffffffff811115611f7057611f6f61154b565b5b611f7c84828501611f0e565b91505092915050565b7f526567697374726174696f6e2066656520697320726571756972656400000000600082015250565b6000611fbb601c83611aff565b9150611fc682611f85565b602082019050919050565b60006020820190508181036000830152611fea81611fae565b9050919050565b7f4e6f74207265676973746572656420617320616e206f7261636c650000000000600082015250565b6000612027601b83611aff565b915061203282611ff1565b602082019050919050565b600060208201905081810360008301526120568161201a565b9050919050565b82818337600083830152505050565b60006120788385611aff565b935061208583858461205d565b61208e83611b43565b840190509392505050565b600060608201905081810360008301526120b481868861206c565b90506120c360208301856117e0565b6120d06040830184611c62565b95945050505050565b6000602082840312156120ef576120ee611546565b5b60006120fd84828501611e40565b91505092915050565b600060608201905061211b6000830186611c62565b6121286020830185611c62565b61213560408301846119b1565b949350505050565b60008151905061214c81611945565b92915050565b600081519050612161816119f8565b92915050565b6000806040838503121561217e5761217d611546565b5b600061218c8582860161213d565b925050602061219d85828601612152565b9150509250929050565b7f4e487b7100000000000000000000000000000000000000000000000000000000600052603260045260246000fd5b7f496e64657820646f6573206e6f74206d61746368206f7261636c65207265717560008201527f6573740000000000000000000000000000000000000000000000000000000000602082015250565b6000612232602383611aff565b915061223d826121d6565b604082019050919050565b6000602082019050818103600083015261226181612225565b9050919050565b60008160f81b9050919050565b600061228082612268565b9050919050565b6122986122938261172d565b612275565b82525050565b60008160601b9050919050565b60006122b68261229e565b9050919050565b60006122c8826122ab565b9050919050565b6122e06122db82611570565b6122bd565b82525050565b600081905092915050565b60006122fd83856122e6565b935061230a83858461205d565b82840190509392505050565b6000819050919050565b61233161232c82611607565b612316565b82525050565b60006123438288612287565b60018201915061235382876122cf565b6014820191506123648285876122f1565b91506123708284612320565b6020820191508190509695505050505050565b7f466c69676874206f722074696d657374616d7020646f206e6f74206d6174636860008201527f206f7261636c6520726571756573740000000000000000000000000000000000602082015250565b60006123df602f83611aff565b91506123ea82612383565b604082019050919050565b6000602082019050818103600083015261240e816123d2565b9050919050565b600060808201905061242a6000830188611c62565b818103602083015261243d81868861206c565b905061244c60408301856117e0565b61245960608301846119c0565b9695505050505050565b60006020828403121561247957612478611546565b5b60006124878482850161213d565b91505092915050565b6000602082840312156124a6576124a5611546565b5b60006124b484828501612152565b91505092915050565b600080fd5b600067ffffffffffffffff8211156124dd576124dc611d68565b5b6124e682611b43565b9050602081019050919050565b6000612506612501846124c2565b611dc8565b905082815260208101848484011115612522576125216124bd565b5b61252d848285611b10565b509392505050565b600082601f83011261254a5761254961180a565b5b815161255a8482602086016124f3565b91505092915050565b6000806000806080858703121561257d5761257c611546565b5b600085015167ffffffffffffffff81111561259b5761259a61154b565b5b6125a787828801612535565b94505060206125b887828801612152565b93505060406125c987828801611e14565b92505060606125da87828801612152565b91505092959194509250565b60006040820190506125fb6000830186611c62565b818103602083015261260e81848661206c565b9050949350505050565b6000806040838503121561262f5761262e611546565b5b600061263d8582860161213d565b925050602061264e85828601611e14565b9150509250929050565b7f4d696e696d756d2066756e64206e6f742070726f766964656400000000000000600082015250565b600061268e601983611aff565b915061269982612658565b602082019050919050565b600060208201905081810360008301526126bd81612681565b9050919050565b60006040820190506126d9600083018561190f565b6126e66020830184611c62565b9392505050565b6000815190506126fc81611582565b92915050565b60008060008060008060c0878903121561271f5761271e611546565b5b600061272d89828a01611e40565b965050602061273e89828a016126ed565b955050604087015167ffffffffffffffff81111561275f5761275e61154b565b5b61276b89828a01612535565b945050606061277c89828a01611e14565b935050608061278d89828a0161213d565b92505060a061279e89828a01611e14565b9150509295509295509295565b60006080820190506127c060008301886119c0565b6127cd6020830187611c62565b81810360408301526127e081858761206c565b90506127ef60608301846117e0565b9695505050505050565b600061280582876122cf565b6014820191506128168285876122f1565b91506128228284612320565b60208201915081905095945050505050565b7f4e487b7100000000000000000000000000000000000000000000000000000000600052601160045260246000fd5b600061286e8261172d565b915060ff820361288157612880612834565b5b600182019050919050565b600061289782611607565b91506128a283611607565b9250828210156128b5576128b4612834565b5b828203905092915050565b6000819050919050565b6128db6128d682611620565b6128c0565b82525050565b60006128ed82856128ca565b6020820191506128fd82846122cf565b6014820191508190509392505050565b7f4e487b7100000000000000000000000000000000000000000000000000000000600052601260045260246000fd5b600061294782611607565b915061295283611607565b9250826129625761296161290d565b5b82820690509291505056fea26469706673582212201fb092d770339cd39daf766aae50bea704037cde2bf16a9bcb606187977dc68b64736f6c634300080e0033",
  "immutableReferences": {},
  "source": "// SPDX-License-Identifier: MIT\npragma solidity ^0.8.14;\n\n//Define Contract Data Interface\n\ninterface IFlightSuretyData {\n    struct CustomerInfo {\n        uint256 fund;\n        bytes32 flight;\n    }\n\n    function isOperational() external view returns (bool);\n\n    function registerAirline(address _address, string calldata name)\n        external\n        payable\n        returns (bool success, uint256 votes);\n\n    function getAirline(address _address)\n        external\n        view\n        returns (\n            string memory name,\n            uint8 status,\n            uint256 funds,\n            uint8 votes\n        );\n\n    function fund(address _address) external payable;\n\n    function approveAirlineRegistration(\n        address _address,\n        address _from,\n        bool _approval\n    ) external returns (bool success, uint8 votes);\n\n    function getTotalAirlines() external view returns (uint8);\n\n    function registerFlight(\n        string memory _flight,\n        uint256 _updatedTimestamp,\n        address _airline\n    ) external returns (bytes32);\n\n    function getFlight(bytes32)\n        external\n        view\n        returns (\n            bytes32,\n            address,\n            string memory,\n            uint256,\n            bool,\n            uint256\n        );\n\n    function buy(bytes32 _flight, address _customer)\n        external\n        payable\n        returns (bool);\n\n    function getCustomerInsurances(address _customer)\n        external\n        view\n        returns (CustomerInfo[] memory);\n}\n\n/************************************************** */\n/* FlightSurety Smart Contract                      */\n/************************************************** */\ncontract FlightSuretyApp {\n    /********************************************************************************************/\n    /*                                       DATA VARIABLES                                     */\n    /********************************************************************************************/\n\n    address private contractOwner; // Account used to deploy contract\n    IFlightSuretyData private flightSuretyData;\n\n    uint256 minInsuranceFund = 0.000001 ether;\n\n    struct CustomerInfo {\n        uint256 fund;\n        bytes32 flight;\n    }\n\n    /********************************************************************************************/\n    /*                                       FUNCTION MODIFIERS                                 */\n    /********************************************************************************************/\n\n    /**\n     * @dev Modifier that requires the \"operational\" boolean variable to be \"true\"\n     *      This is used on all state changing functions to pause the contract in\n     *      the event there is an issue that needs to be fixed\n     */\n    modifier requireIsOperational() {\n        // Modify to call data contract's status\n        require(\n            flightSuretyData.isOperational() == true,\n            \"Contract is currently not operational\"\n        );\n        _;\n    }\n\n    /**\n     * @dev Modifier that requires the \"ContractOwner\" account to be the function caller\n     */\n    modifier requireContractOwner() {\n        require(msg.sender == contractOwner, \"Caller is not contract owner\");\n        _;\n    }\n\n    /********************************************************************************************/\n    /*                                       CONSTRUCTOR                                        */\n    /********************************************************************************************/\n\n    /**\n     * @dev Contract constructor\n     *\n     */\n    constructor(address _flightSuretyData) {\n        contractOwner = msg.sender;\n        flightSuretyData = IFlightSuretyData(payable(_flightSuretyData));\n    }\n\n    /********************************************************************************************/\n    /*                                       UTILITY FUNCTIONS                                  */\n    /********************************************************************************************/\n\n    function isOperational() public view returns (bool) {\n        return flightSuretyData.isOperational(); // Modify to call data contract's status\n    }\n\n    /********************************************************************************************/\n    /*                                     SMART CONTRACT FUNCTIONS                             */\n    /********************************************************************************************/\n\n    /**\n     * @dev Add an airline to the registration queue\n     *\n     */\n    function registerAirline(address _address, string calldata name)\n        external\n        payable\n        returns (bool success, uint256 votes)\n    {\n        return flightSuretyData.registerAirline(_address, name);\n    }\n\n    /**\n     * @dev Airline should be able to fund it, before register is approved\n     *\n     */\n\n    function airlineFund() external payable {\n        flightSuretyData.fund{value: msg.value}(msg.sender);\n    }\n\n    /**\n     * @dev Airline Approval function\n     *\n     */\n\n    function approveAirlineRegistration(address _address, bool _approval)\n        external\n        returns (bool success, uint8 votes)\n    {\n        return\n            flightSuretyData.approveAirlineRegistration(\n                _address,\n                msg.sender,\n                _approval\n            );\n    }\n\n    function getAirline(address _address)\n        external\n        view\n        returns (\n            string memory name,\n            uint8 status,\n            uint256 funds,\n            uint8 votes\n        )\n    {\n        return flightSuretyData.getAirline(_address);\n    }\n\n    function getTotalAirlines() external view returns (uint8) {\n        return flightSuretyData.getTotalAirlines();\n    }\n\n    /**\n     * @dev Register a future flight for insuring.\n     *\n     */\n    function registerFlight(\n        string calldata _flight,\n        uint256 _updatedTimestamp,\n        address _airline\n    ) external returns (bytes32) {\n        return\n            flightSuretyData.registerFlight(\n                _flight,\n                _updatedTimestamp,\n                _airline\n            );\n    }\n\n    function getFlight(\n        string calldata _flight,\n        uint256 _updatedTimestamp,\n        address _airline\n    )\n        external\n        view\n        returns (\n            bytes32,\n            address,\n            string memory,\n            uint256,\n            bool,\n            uint256\n        )\n    {\n        return\n            flightSuretyData.getFlight(\n                getFlightKey(_airline, _flight, _updatedTimestamp)\n            );\n    }\n\n    // customer can buy insurance\n    function buyInsurance(\n        string calldata _flight,\n        uint256 _updatedTimestamp,\n        address _airline\n    ) external payable returns (bool) {\n        require(msg.value >= minInsuranceFund, \"Minimum fund not provided\");\n\n        return\n            flightSuretyData.buy{value: msg.value}(\n                getFlightKey(_airline, _flight, _updatedTimestamp),\n                msg.sender\n            );\n    }\n\n    //get customers insurance\n    function getCustomerInsurances(address _customer)\n        external\n        view\n        returns (IFlightSuretyData.CustomerInfo[] memory)\n    {\n        return flightSuretyData.getCustomerInsurances(_customer);\n    }\n\n    /**\n     * @dev Called after oracle has updated flight status\n     *\n     */\n    function processFlightStatus(\n        address airline,\n        string calldata flight,\n        uint256 timestamp,\n        uint8 statusCode\n    ) internal pure {}\n\n    // Generate a request for oracles to fetch flight information\n    function fetchFlightStatus(\n        address airline,\n        string calldata flight,\n        uint256 timestamp\n    ) external {\n        uint8 index = getRandomIndex(msg.sender);\n\n        // Generate a unique key for storing the request\n        bytes32 key = keccak256(\n            abi.encodePacked(index, airline, flight, timestamp)\n        );\n\n        oracleResponses[key].requester = msg.sender;\n        oracleResponses[key].isOpen = true;\n\n        emit OracleRequest(index, airline, flight, timestamp);\n    }\n\n    /********************************************************************************************/\n    /*                               region ORACLE MANAGEMENT\n    /********************************************************************************************/\n\n    // Incremented to add pseudo-randomness at various points\n    uint8 private nonce = 0;\n\n    // Fee to be paid when registering oracle\n    uint256 public constant REGISTRATION_FEE = 1 ether;\n\n    // Number of oracles that must respond for valid status\n    uint256 private constant MIN_RESPONSES = 3;\n\n    struct Oracle {\n        bool isRegistered;\n        uint8[3] indexes;\n    }\n\n    // Track all registered oracles\n    mapping(address => Oracle) private oracles;\n\n    // Model for responses from oracles\n    struct ResponseInfo {\n        address requester; // Account that requested status\n        bool isOpen; // If open, oracle responses are accepted\n        mapping(uint8 => address[]) responses; // Mapping key is the status code reported\n        // This lets us group responses and identify\n        // the response that majority of the oracles\n    }\n\n    // Track all oracle responses\n    // Key = hash(index, flight, timestamp)\n    mapping(bytes32 => ResponseInfo) private oracleResponses;\n\n    // Event fired each time an oracle submits a response\n    event FlightStatusInfo(\n        address airline,\n        string flight,\n        uint256 timestamp,\n        uint8 status\n    );\n\n    event OracleReport(\n        address airline,\n        string flight,\n        uint256 timestamp,\n        uint8 status\n    );\n\n    // Event fired when flight status request is submitted\n    // Oracles track this and if they have a matching index\n    // they fetch data and submit a response\n    event OracleRequest(\n        uint8 index,\n        address airline,\n        string flight,\n        uint256 timestamp\n    );\n\n    // Register an oracle with the contract\n    function registerOracle() external payable {\n        // Require registration fee\n        require(msg.value >= REGISTRATION_FEE, \"Registration fee is required\");\n\n        uint8[3] memory indexes = generateIndexes(msg.sender);\n\n        oracles[msg.sender] = Oracle({isRegistered: true, indexes: indexes});\n    }\n\n    function getMyIndexes() external view returns (uint8[3] memory) {\n        require(\n            oracles[msg.sender].isRegistered,\n            \"Not registered as an oracle\"\n        );\n\n        return oracles[msg.sender].indexes;\n    }\n\n    // Called by oracle when a response is available to an outstanding request\n    // For the response to be accepted, there must be a pending request that is open\n    // and matches one of the three Indexes randomly assigned to the oracle at the\n    // time of registration (i.e. uninvited oracles are not welcome)\n    function submitOracleResponse(\n        uint8 index,\n        address airline,\n        string calldata flight,\n        uint256 timestamp,\n        uint8 statusCode\n    ) external {\n        require(\n            (oracles[msg.sender].indexes[0] == index) ||\n                (oracles[msg.sender].indexes[1] == index) ||\n                (oracles[msg.sender].indexes[2] == index),\n            \"Index does not match oracle request\"\n        );\n\n        bytes32 key = keccak256(\n            abi.encodePacked(index, airline, flight, timestamp)\n        );\n        require(\n            oracleResponses[key].isOpen,\n            \"Flight or timestamp do not match oracle request\"\n        );\n\n        oracleResponses[key].responses[statusCode].push(msg.sender);\n\n        // Information isn't considered verified until at least MIN_RESPONSES\n        // oracles respond with the *** same *** information\n        emit OracleReport(airline, flight, timestamp, statusCode);\n        if (\n            oracleResponses[key].responses[statusCode].length >= MIN_RESPONSES\n        ) {\n            emit FlightStatusInfo(airline, flight, timestamp, statusCode);\n\n            // Handle flight status as appropriate\n            processFlightStatus(airline, flight, timestamp, statusCode);\n        }\n    }\n\n    function getFlightKey(\n        address airline,\n        string calldata flight,\n        uint256 timestamp\n    ) internal pure returns (bytes32) {\n        return keccak256(abi.encodePacked(airline, flight, timestamp));\n    }\n\n    // Returns array of three non-duplicating integers from 0-9\n    function generateIndexes(address account)\n        internal\n        returns (uint8[3] memory)\n    {\n        uint8[3] memory indexes;\n        indexes[0] = getRandomIndex(account);\n\n        indexes[1] = indexes[0];\n        while (indexes[1] == indexes[0]) {\n            indexes[1] = getRandomIndex(account);\n        }\n\n        indexes[2] = indexes[1];\n        while ((indexes[2] == indexes[0]) || (indexes[2] == indexes[1])) {\n            indexes[2] = getRandomIndex(account);\n        }\n\n        return indexes;\n    }\n\n    // Returns array of three non-duplicating integers from 0-9\n    function getRandomIndex(address account) internal returns (uint8) {\n        uint8 maxValue = 10;\n\n        // Pseudo random number...the incrementing nonce adds variation\n        uint8 random = uint8(\n            uint256(\n                keccak256(\n                    abi.encodePacked(blockhash(block.number - nonce++), account)\n                )\n            ) % maxValue\n        );\n\n        if (nonce > 250) {\n            nonce = 0; // Can only fetch blockhashes for last 256 blocks so we adapt\n        }\n\n        return random;\n    }\n\n    // endregion\n}\n",
  "sourcePath": "/home/rafamessias/Documents/udacity/Ethereum/flight-surety/truffle/contracts/FlightSuretyApp.sol",
  "compiler": {
    "name": "solc",
    "version": "0.8.14+commit.80d49f37.Emscripten.clang"
  },
  "schemaVersion": "3.4.8",
  "updatedAt": "2022-09-12T01:11:54.410Z",
  "networkType": "ethereum",
  "devdoc": {
    "kind": "dev",
    "methods": {
      "airlineFund()": {
        "details": "Airline should be able to fund it, before register is approved"
      },
      "approveAirlineRegistration(address,bool)": {
        "details": "Airline Approval function"
      },
      "constructor": {
        "details": "Contract constructor"
      },
      "registerAirline(address,string)": {
        "details": "Add an airline to the registration queue"
      },
      "registerFlight(string,uint256,address)": {
        "details": "Register a future flight for insuring."
      }
    },
    "version": 1
  },
  "userdoc": {
    "kind": "user",
    "methods": {},
    "version": 1
  }
}