{
  "contractName": "FlightSuretyData",
  "abi": [
    {
      "inputs": [],
      "stateMutability": "nonpayable",
      "type": "constructor"
    },
    {
      "inputs": [],
      "name": "isOperational",
      "outputs": [
        {
          "internalType": "bool",
          "name": "",
          "type": "bool"
        }
      ],
      "stateMutability": "view",
      "type": "function",
      "constant": true
    },
    {
      "inputs": [
        {
          "internalType": "bool",
          "name": "mode",
          "type": "bool"
        }
      ],
      "name": "setOperatingStatus",
      "outputs": [],
      "stateMutability": "nonpayable",
      "type": "function"
    },
    {
      "inputs": [],
      "name": "getMultiPartyConsensusThreshold",
      "outputs": [
        {
          "internalType": "uint8",
          "name": "",
          "type": "uint8"
        }
      ],
      "stateMutability": "view",
      "type": "function",
      "constant": true
    },
    {
      "inputs": [
        {
          "internalType": "uint8",
          "name": "_consensusCount",
          "type": "uint8"
        }
      ],
      "name": "setmultiPartyConsensusThreshold",
      "outputs": [],
      "stateMutability": "nonpayable",
      "type": "function"
    },
    {
      "inputs": [
        {
          "internalType": "address",
          "name": "_address",
          "type": "address"
        }
      ],
      "name": "authorizeCaller",
      "outputs": [],
      "stateMutability": "nonpayable",
      "type": "function"
    },
    {
      "inputs": [
        {
          "internalType": "address",
          "name": "_address",
          "type": "address"
        }
      ],
      "name": "denyCaller",
      "outputs": [],
      "stateMutability": "nonpayable",
      "type": "function"
    },
    {
      "inputs": [],
      "name": "getTotalAirlines",
      "outputs": [
        {
          "internalType": "uint8",
          "name": "",
          "type": "uint8"
        }
      ],
      "stateMutability": "view",
      "type": "function",
      "constant": true
    },
    {
      "inputs": [
        {
          "internalType": "address",
          "name": "_address",
          "type": "address"
        },
        {
          "internalType": "string",
          "name": "name",
          "type": "string"
        }
      ],
      "name": "registerAirline",
      "outputs": [
        {
          "internalType": "bool",
          "name": "success",
          "type": "bool"
        },
        {
          "internalType": "uint8",
          "name": "votes",
          "type": "uint8"
        }
      ],
      "stateMutability": "nonpayable",
      "type": "function"
    },
    {
      "inputs": [
        {
          "internalType": "address",
          "name": "_address",
          "type": "address"
        },
        {
          "internalType": "address",
          "name": "_from",
          "type": "address"
        },
        {
          "internalType": "bool",
          "name": "_approval",
          "type": "bool"
        }
      ],
      "name": "approveAirlineRegistration",
      "outputs": [
        {
          "internalType": "bool",
          "name": "success",
          "type": "bool"
        },
        {
          "internalType": "uint8",
          "name": "votes",
          "type": "uint8"
        }
      ],
      "stateMutability": "nonpayable",
      "type": "function"
    },
    {
      "inputs": [
        {
          "internalType": "address",
          "name": "_address",
          "type": "address"
        }
      ],
      "name": "getAirline",
      "outputs": [
        {
          "internalType": "string",
          "name": "name",
          "type": "string"
        },
        {
          "internalType": "uint8",
          "name": "status",
          "type": "uint8"
        },
        {
          "internalType": "uint256",
          "name": "funds",
          "type": "uint256"
        },
        {
          "internalType": "uint8",
          "name": "votes",
          "type": "uint8"
        }
      ],
      "stateMutability": "view",
      "type": "function",
      "constant": true
    },
    {
      "inputs": [
        {
          "internalType": "string",
          "name": "_flight",
          "type": "string"
        },
        {
          "internalType": "uint256",
          "name": "_updatedTimestamp",
          "type": "uint256"
        },
        {
          "internalType": "address",
          "name": "_airline",
          "type": "address"
        }
      ],
      "name": "registerFlight",
      "outputs": [
        {
          "internalType": "bytes32",
          "name": "",
          "type": "bytes32"
        }
      ],
      "stateMutability": "nonpayable",
      "type": "function"
    },
    {
      "inputs": [
        {
          "internalType": "bytes32",
          "name": "flightKey",
          "type": "bytes32"
        }
      ],
      "name": "getFlight",
      "outputs": [
        {
          "internalType": "bytes32",
          "name": "",
          "type": "bytes32"
        },
        {
          "internalType": "address",
          "name": "",
          "type": "address"
        },
        {
          "internalType": "string",
          "name": "",
          "type": "string"
        },
        {
          "internalType": "uint256",
          "name": "",
          "type": "uint256"
        },
        {
          "internalType": "bool",
          "name": "",
          "type": "bool"
        },
        {
          "internalType": "uint256",
          "name": "",
          "type": "uint256"
        }
      ],
      "stateMutability": "view",
      "type": "function",
      "constant": true
    },
    {
      "inputs": [
        {
          "internalType": "bytes32",
          "name": "_flight",
          "type": "bytes32"
        },
        {
          "internalType": "address",
          "name": "_customer",
          "type": "address"
        }
      ],
      "name": "buy",
      "outputs": [
        {
          "internalType": "bool",
          "name": "",
          "type": "bool"
        }
      ],
      "stateMutability": "payable",
      "type": "function",
      "payable": true
    },
    {
      "inputs": [
        {
          "internalType": "address",
          "name": "_customer",
          "type": "address"
        }
      ],
      "name": "getCustomerInsurances",
      "outputs": [
        {
          "components": [
            {
              "internalType": "uint256",
              "name": "fund",
              "type": "uint256"
            },
            {
              "internalType": "bytes32",
              "name": "flight",
              "type": "bytes32"
            }
          ],
          "internalType": "struct FlightSuretyData.CustomerInfo[]",
          "name": "",
          "type": "tuple[]"
        }
      ],
      "stateMutability": "view",
      "type": "function",
      "constant": true
    },
    {
      "inputs": [],
      "name": "creditInsurees",
      "outputs": [],
      "stateMutability": "pure",
      "type": "function",
      "constant": true
    },
    {
      "inputs": [],
      "name": "pay",
      "outputs": [],
      "stateMutability": "pure",
      "type": "function",
      "constant": true
    },
    {
      "inputs": [
        {
          "internalType": "address",
          "name": "_address",
          "type": "address"
        }
      ],
      "name": "fund",
      "outputs": [],
      "stateMutability": "payable",
      "type": "function",
      "payable": true
    }
  ],
  "bytecode": "0x60806040526001600060146101000a81548160ff02191690831515021790555064e8d4a510006001556000600460006101000a81548160ff021916908360ff16021790555060048060016101000a81548160ff021916908360ff16021790555034801561006b57600080fd5b50336000806101000a81548173ffffffffffffffffffffffffffffffffffffffff021916908373ffffffffffffffffffffffffffffffffffffffff160217905550613600806100bb6000396000f3fe6080604052600436106100fe5760003560e01c806365c152f711610095578063cd905dff11610064578063cd905dff1461031d578063d53a57b514610348578063dcf8405514610373578063e1de04891461039c578063ee38a749146103dc576100fe565b806365c152f714610243578063aad451b214610280578063c049604a146102ab578063cac8f292146102db576100fe565b80632c388d5d116100d15780632c388d5d1461019c57806336cee484146101c557806339a32061146101dc5780633e2e411714610205576100fe565b8063071a71a114610103578063110466ed146101405780631b9265b8146101695780632302440814610180575b600080fd5b34801561010f57600080fd5b5061012a6004803603810190610125919061274a565b61041a565b6040516101379190612887565b60405180910390f35b34801561014c57600080fd5b50610167600480360381019061016291906128e1565b6105d0565b005b34801561017557600080fd5b5061017e61067b565b005b61019a6004803603810190610195919061274a565b61067d565b005b3480156101a857600080fd5b506101c360048036038101906101be919061274a565b610980565b005b3480156101d157600080fd5b506101da610b29565b005b3480156101e857600080fd5b5061020360048036038101906101fe9190612947565b610b2b565b005b34801561021157600080fd5b5061022c60048036038101906102279190612974565b610c2c565b60405161023a9291906129e5565b60405180910390f35b34801561024f57600080fd5b5061026a60048036038101906102659190612a9f565b61166e565b6040516102779190612b22565b60405180910390f35b34801561028c57600080fd5b506102956119d6565b6040516102a29190612b3d565b60405180910390f35b6102c560048036038101906102c09190612b84565b611a7c565b6040516102d29190612bc4565b60405180910390f35b3480156102e757600080fd5b5061030260048036038101906102fd9190612bdf565b611cdc565b60405161031496959493929190612cc3565b60405180910390f35b34801561032957600080fd5b50610332611ecd565b60405161033f9190612bc4565b60405180910390f35b34801561035457600080fd5b5061035d611ee3565b60405161036a9190612b3d565b60405180910390f35b34801561037f57600080fd5b5061039a6004803603810190610395919061274a565b611f8d565b005b3480156103a857600080fd5b506103c360048036038101906103be919061274a565b612136565b6040516103d39493929190612d2b565b60405180910390f35b3480156103e857600080fd5b5061040360048036038101906103fe9190612d77565b612409565b6040516104119291906129e5565b60405180910390f35b606081600073ffffffffffffffffffffffffffffffffffffffff168173ffffffffffffffffffffffffffffffffffffffff160361048c576040517f08c379a000000000000000000000000000000000000000000000000000000000815260040161048390612e23565b60405180910390fd5b60011515600260003373ffffffffffffffffffffffffffffffffffffffff1673ffffffffffffffffffffffffffffffffffffffff16815260200190815260200160002060009054906101000a900460ff1615151461051f576040517f08c379a000000000000000000000000000000000000000000000000000000000815260040161051690612eb5565b60405180910390fd5b600660008473ffffffffffffffffffffffffffffffffffffffff1673ffffffffffffffffffffffffffffffffffffffff168152602001908152602001600020805480602002602001604051908101604052809291908181526020016000905b828210156105c45783829060005260206000209060020201604051806040016040529081600082015481526020016001820154815250508152602001906001019061057e565b50505050915050919050565b60008054906101000a900473ffffffffffffffffffffffffffffffffffffffff1673ffffffffffffffffffffffffffffffffffffffff163373ffffffffffffffffffffffffffffffffffffffff161461065e576040517f08c379a000000000000000000000000000000000000000000000000000000000815260040161065590612f47565b60405180910390fd5b80600060146101000a81548160ff02191690831515021790555050565b565b600060149054906101000a900460ff166106cc576040517f08c379a00000000000000000000000000000000000000000000000000000000081526004016106c390612fd9565b60405180910390fd5b80600073ffffffffffffffffffffffffffffffffffffffff168173ffffffffffffffffffffffffffffffffffffffff160361073c576040517f08c379a000000000000000000000000000000000000000000000000000000000815260040161073390612e23565b60405180910390fd5b60011515600260003373ffffffffffffffffffffffffffffffffffffffff1673ffffffffffffffffffffffffffffffffffffffff16815260200190815260200160002060009054906101000a900460ff161515146107cf576040517f08c379a00000000000000000000000000000000000000000000000000000000081526004016107c690612eb5565b60405180910390fd5b600154341015610814576040517f08c379a000000000000000000000000000000000000000000000000000000000815260040161080b90613045565b60405180910390fd5b6000600381111561082857610827613065565b5b600360008473ffffffffffffffffffffffffffffffffffffffff1673ffffffffffffffffffffffffffffffffffffffff16815260200190815260200160002060010160009054906101000a900460ff16600381111561088a57610889613065565b5b146108ca576040517f08c379a00000000000000000000000000000000000000000000000000000000081526004016108c190613106565b60405180910390fd5b34600360008473ffffffffffffffffffffffffffffffffffffffff1673ffffffffffffffffffffffffffffffffffffffff168152602001908152602001600020600201819055506001600360008473ffffffffffffffffffffffffffffffffffffffff1673ffffffffffffffffffffffffffffffffffffffff16815260200190815260200160002060010160006101000a81548160ff0219169083600381111561097757610976613065565b5b02179055505050565b600060149054906101000a900460ff166109cf576040517f08c379a00000000000000000000000000000000000000000000000000000000081526004016109c690612fd9565b60405180910390fd5b60008054906101000a900473ffffffffffffffffffffffffffffffffffffffff1673ffffffffffffffffffffffffffffffffffffffff163373ffffffffffffffffffffffffffffffffffffffff1614610a5d576040517f08c379a0000000000000000000000000000000000000000000000000000000008152600401610a5490612f47565b60405180910390fd5b80600073ffffffffffffffffffffffffffffffffffffffff168173ffffffffffffffffffffffffffffffffffffffff1603610acd576040517f08c379a0000000000000000000000000000000000000000000000000000000008152600401610ac490612e23565b60405180910390fd5b6001600260008473ffffffffffffffffffffffffffffffffffffffff1673ffffffffffffffffffffffffffffffffffffffff16815260200190815260200160002060006101000a81548160ff0219169083151502179055505050565b565b60008054906101000a900473ffffffffffffffffffffffffffffffffffffffff1673ffffffffffffffffffffffffffffffffffffffff163373ffffffffffffffffffffffffffffffffffffffff1614610bb9576040517f08c379a0000000000000000000000000000000000000000000000000000000008152600401610bb090612f47565b60405180910390fd5b60008160ff16118015610bcf5750600a8160ff16105b610c0e576040517f08c379a0000000000000000000000000000000000000000000000000000000008152600401610c0590613198565b60405180910390fd5b80600460016101000a81548160ff021916908360ff16021790555050565b600080600060149054906101000a900460ff16610c7e576040517f08c379a0000000000000000000000000000000000000000000000000000000008152600401610c7590612fd9565b60405180910390fd5b8360026003811115610c9357610c92613065565b5b600360008373ffffffffffffffffffffffffffffffffffffffff1673ffffffffffffffffffffffffffffffffffffffff16815260200190815260200160002060010160009054906101000a900460ff166003811115610cf557610cf4613065565b5b1480610d4c575060008054906101000a900473ffffffffffffffffffffffffffffffffffffffff1673ffffffffffffffffffffffffffffffffffffffff168173ffffffffffffffffffffffffffffffffffffffff16145b610d8b576040517f08c379a0000000000000000000000000000000000000000000000000000000008152600401610d829061322a565b60405180910390fd5b85600073ffffffffffffffffffffffffffffffffffffffff168173ffffffffffffffffffffffffffffffffffffffff1603610dfb576040517f08c379a0000000000000000000000000000000000000000000000000000000008152600401610df290612e23565b60405180910390fd5b8660016003811115610e1057610e0f613065565b5b600360008373ffffffffffffffffffffffffffffffffffffffff1673ffffffffffffffffffffffffffffffffffffffff16815260200190815260200160002060010160009054906101000a900460ff166003811115610e7257610e71613065565b5b14610eb2576040517f08c379a0000000000000000000000000000000000000000000000000000000008152600401610ea9906132bc565b60405180910390fd5b60011515600260003373ffffffffffffffffffffffffffffffffffffffff1673ffffffffffffffffffffffffffffffffffffffff16815260200190815260200160002060009054906101000a900460ff16151514610f45576040517f08c379a0000000000000000000000000000000000000000000000000000000008152600401610f3c90612eb5565b60405180910390fd5b600460019054906101000a900460ff1660ff16600460009054906101000a900460ff1660ff1610611477576000805b600360008b73ffffffffffffffffffffffffffffffffffffffff1673ffffffffffffffffffffffffffffffffffffffff168152602001908152602001600020600301805490508160ff161015611097578873ffffffffffffffffffffffffffffffffffffffff16600360008c73ffffffffffffffffffffffffffffffffffffffff1673ffffffffffffffffffffffffffffffffffffffff1681526020019081526020016000206003018260ff1681548110611032576110316132dc565b5b9060005260206000200160000160009054906101000a900473ffffffffffffffffffffffffffffffffffffffff1673ffffffffffffffffffffffffffffffffffffffff16036110845760019150611097565b808061108f9061333a565b915050610f74565b5080156110d9576040517f08c379a00000000000000000000000000000000000000000000000000000000081526004016110d0906133d5565b60405180910390fd5b600360008a73ffffffffffffffffffffffffffffffffffffffff1673ffffffffffffffffffffffffffffffffffffffff16815260200190815260200160002060030160405180604001604052808a73ffffffffffffffffffffffffffffffffffffffff1681526020018915158152509080600181540180825580915050600190039060005260206000200160009091909190915060008201518160000160006101000a81548173ffffffffffffffffffffffffffffffffffffffff021916908373ffffffffffffffffffffffffffffffffffffffff16021790555060208201518160000160146101000a81548160ff02191690831515021790555050506002600460009054906101000a900460ff166111f29190613424565b60ff16600360008b73ffffffffffffffffffffffffffffffffffffffff1673ffffffffffffffffffffffffffffffffffffffff1681526020019081526020016000206003018054905010611471576000805b600360008c73ffffffffffffffffffffffffffffffffffffffff1673ffffffffffffffffffffffffffffffffffffffff168152602001908152602001600020600301805490508160ff1610156113345760011515600360008d73ffffffffffffffffffffffffffffffffffffffff1673ffffffffffffffffffffffffffffffffffffffff1681526020019081526020016000206003018260ff16815481106112ef576112ee6132dc565b5b9060005260206000200160000160149054906101000a900460ff161515036113215760018261131e9190613455565b91505b808061132c9061333a565b915050611244565b506002600460009054906101000a900460ff166113519190613424565b60ff168160ff1610611404576002600360008c73ffffffffffffffffffffffffffffffffffffffff1673ffffffffffffffffffffffffffffffffffffffff16815260200190815260200160002060010160006101000a81548160ff021916908360038111156113c3576113c2613065565b5b02179055506001600460008282829054906101000a900460ff166113e79190613455565b92506101000a81548160ff021916908360ff16021790555061146f565b60038060008c73ffffffffffffffffffffffffffffffffffffffff1673ffffffffffffffffffffffffffffffffffffffff16815260200190815260200160002060010160006101000a81548160ff0219169083600381111561146957611468613065565b5b02179055505b505b50611617565b600360008973ffffffffffffffffffffffffffffffffffffffff1673ffffffffffffffffffffffffffffffffffffffff16815260200190815260200160002060030160405180604001604052808973ffffffffffffffffffffffffffffffffffffffff1681526020018815158152509080600181540180825580915050600190039060005260206000200160009091909190915060008201518160000160006101000a81548173ffffffffffffffffffffffffffffffffffffffff021916908373ffffffffffffffffffffffffffffffffffffffff16021790555060208201518160000160146101000a81548160ff02191690831515021790555050506002600360008a73ffffffffffffffffffffffffffffffffffffffff1673ffffffffffffffffffffffffffffffffffffffff16815260200190815260200160002060010160006101000a81548160ff021916908360038111156115da576115d9613065565b5b02179055506001600460008282829054906101000a900460ff166115fe9190613455565b92506101000a81548160ff021916908360ff1602179055505b6001600360008a73ffffffffffffffffffffffffffffffffffffffff1673ffffffffffffffffffffffffffffffffffffffff1681526020019081526020016000206003018054905094509450505050935093915050565b600081600073ffffffffffffffffffffffffffffffffffffffff168173ffffffffffffffffffffffffffffffffffffffff16036116e0576040517f08c379a00000000000000000000000000000000000000000000000000000000081526004016116d790612e23565b60405180910390fd5b82600260038111156116f5576116f4613065565b5b600360008373ffffffffffffffffffffffffffffffffffffffff1673ffffffffffffffffffffffffffffffffffffffff16815260200190815260200160002060010160009054906101000a900460ff16600381111561175757611756613065565b5b14806117ae575060008054906101000a900473ffffffffffffffffffffffffffffffffffffffff1673ffffffffffffffffffffffffffffffffffffffff168173ffffffffffffffffffffffffffffffffffffffff16145b6117ed576040517f08c379a00000000000000000000000000000000000000000000000000000000081526004016117e49061322a565b60405180910390fd5b60011515600260003373ffffffffffffffffffffffffffffffffffffffff1673ffffffffffffffffffffffffffffffffffffffff16815260200190815260200160002060009054906101000a900460ff16151514611880576040517f08c379a000000000000000000000000000000000000000000000000000000000815260040161187790612eb5565b60405180910390fd5b60006118d18589898080601f016020809104026020016040519081016040528093929190818152602001838380828437600081840152601f19601f8201169050808301925050505050505088612609565b9050846005600083815260200190815260200160002060020160006101000a81548173ffffffffffffffffffffffffffffffffffffffff021916908373ffffffffffffffffffffffffffffffffffffffff160217905550878760056000848152602001908152602001600020600301919061194d92919061263f565b5085600560008381526020019081526020016000206001018190555060016005600083815260200190815260200160002060000160006101000a81548160ff02191690831515021790555060006005600083815260200190815260200160002060000160016101000a81548160ff021916908360ff160217905550809350505050949350505050565b60008060009054906101000a900473ffffffffffffffffffffffffffffffffffffffff1673ffffffffffffffffffffffffffffffffffffffff163373ffffffffffffffffffffffffffffffffffffffff1614611a67576040517f08c379a0000000000000000000000000000000000000000000000000000000008152600401611a5e90612f47565b60405180910390fd5b600460019054906101000a900460ff16905090565b600081600073ffffffffffffffffffffffffffffffffffffffff168173ffffffffffffffffffffffffffffffffffffffff1603611aee576040517f08c379a0000000000000000000000000000000000000000000000000000000008152600401611ae590612e23565b60405180910390fd5b60011515600260003373ffffffffffffffffffffffffffffffffffffffff1673ffffffffffffffffffffffffffffffffffffffff16815260200190815260200160002060009054906101000a900460ff16151514611b81576040517f08c379a0000000000000000000000000000000000000000000000000000000008152600401611b7890612eb5565b60405180910390fd5b6005600085815260200190815260200160002060040160405180604001604052808573ffffffffffffffffffffffffffffffffffffffff16815260200134815250908060018154018082558091505060019003906000526020600020906002020160009091909190915060008201518160000160006101000a81548173ffffffffffffffffffffffffffffffffffffffff021916908373ffffffffffffffffffffffffffffffffffffffff160217905550602082015181600101555050600660008473ffffffffffffffffffffffffffffffffffffffff1673ffffffffffffffffffffffffffffffffffffffff168152602001908152602001600020604051806040016040528034815260200186815250908060018154018082558091505060019003906000526020600020906002020160009091909190915060008201518160000155602082015181600101555050600191505092915050565b6000806060600080600060011515600260003373ffffffffffffffffffffffffffffffffffffffff1673ffffffffffffffffffffffffffffffffffffffff16815260200190815260200160002060009054906101000a900460ff16151514611d79576040517f08c379a0000000000000000000000000000000000000000000000000000000008152600401611d7090612eb5565b60405180910390fd5b866005600089815260200190815260200160002060020160009054906101000a900473ffffffffffffffffffffffffffffffffffffffff16600560008a8152602001908152602001600020600301600560008b815260200190815260200160002060010154600560008c815260200190815260200160002060000160009054906101000a900460ff16600560008d815260200190815260200160002060000160019054906101000a900460ff16838054611e32906134bb565b80601f0160208091040260200160405190810160405280929190818152602001828054611e5e906134bb565b8015611eab5780601f10611e8057610100808354040283529160200191611eab565b820191906000526020600020905b815481529060010190602001808311611e8e57829003601f168201915b505050505093508060ff16905095509550955095509550955091939550919395565b60008060149054906101000a900460ff16905090565b600060011515600260003373ffffffffffffffffffffffffffffffffffffffff1673ffffffffffffffffffffffffffffffffffffffff16815260200190815260200160002060009054906101000a900460ff16151514611f78576040517f08c379a0000000000000000000000000000000000000000000000000000000008152600401611f6f90612eb5565b60405180910390fd5b600460009054906101000a900460ff16905090565b600060149054906101000a900460ff16611fdc576040517f08c379a0000000000000000000000000000000000000000000000000000000008152600401611fd390612fd9565b60405180910390fd5b60008054906101000a900473ffffffffffffffffffffffffffffffffffffffff1673ffffffffffffffffffffffffffffffffffffffff163373ffffffffffffffffffffffffffffffffffffffff161461206a576040517f08c379a000000000000000000000000000000000000000000000000000000000815260040161206190612f47565b60405180910390fd5b80600073ffffffffffffffffffffffffffffffffffffffff168173ffffffffffffffffffffffffffffffffffffffff16036120da576040517f08c379a00000000000000000000000000000000000000000000000000000000081526004016120d190612e23565b60405180910390fd5b6000600260008473ffffffffffffffffffffffffffffffffffffffff1673ffffffffffffffffffffffffffffffffffffffff16815260200190815260200160002060006101000a81548160ff0219169083151502179055505050565b6060600080600084600073ffffffffffffffffffffffffffffffffffffffff168173ffffffffffffffffffffffffffffffffffffffff16036121ad576040517f08c379a00000000000000000000000000000000000000000000000000000000081526004016121a490612e23565b60405180910390fd5b60011515600260003373ffffffffffffffffffffffffffffffffffffffff1673ffffffffffffffffffffffffffffffffffffffff16815260200190815260200160002060009054906101000a900460ff16151514612240576040517f08c379a000000000000000000000000000000000000000000000000000000000815260040161223790612eb5565b60405180910390fd5b600360008773ffffffffffffffffffffffffffffffffffffffff1673ffffffffffffffffffffffffffffffffffffffff168152602001908152602001600020600001600360008873ffffffffffffffffffffffffffffffffffffffff1673ffffffffffffffffffffffffffffffffffffffff16815260200190815260200160002060010160009054906101000a900460ff1660038111156122e4576122e3613065565b5b600360008973ffffffffffffffffffffffffffffffffffffffff1673ffffffffffffffffffffffffffffffffffffffff16815260200190815260200160002060020154600360008a73ffffffffffffffffffffffffffffffffffffffff1673ffffffffffffffffffffffffffffffffffffffff16815260200190815260200160002060030180549050838054612379906134bb565b80601f01602080910402602001604051908101604052809291908181526020018280546123a5906134bb565b80156123f25780601f106123c7576101008083540402835291602001916123f2565b820191906000526020600020905b8154815290600101906020018083116123d557829003601f168201915b505050505093509450945094509450509193509193565b600080600060149054906101000a900460ff1661245b576040517f08c379a000000000000000000000000000000000000000000000000000000000815260040161245290612fd9565b60405180910390fd5b84600073ffffffffffffffffffffffffffffffffffffffff168173ffffffffffffffffffffffffffffffffffffffff16036124cb576040517f08c379a00000000000000000000000000000000000000000000000000000000081526004016124c290612e23565b60405180910390fd5b60011515600260003373ffffffffffffffffffffffffffffffffffffffff1673ffffffffffffffffffffffffffffffffffffffff16815260200190815260200160002060009054906101000a900460ff1615151461255e576040517f08c379a000000000000000000000000000000000000000000000000000000000815260040161255590612eb5565b60405180910390fd5b8484600360008973ffffffffffffffffffffffffffffffffffffffff1673ffffffffffffffffffffffffffffffffffffffff16815260200190815260200160002060000191906125af92919061263f565b506000600360008873ffffffffffffffffffffffffffffffffffffffff1673ffffffffffffffffffffffffffffffffffffffff16815260200190815260200160002060020181905550600160009250925050935093915050565b600083838360405160200161262093929190613591565b6040516020818303038152906040528051906020012090509392505050565b82805461264b906134bb565b90600052602060002090601f01602090048101928261266d57600085556126b4565b82601f1061268657803560ff19168380011785556126b4565b828001600101855582156126b4579182015b828111156126b3578235825591602001919060010190612698565b5b5090506126c191906126c5565b5090565b5b808211156126de5760008160009055506001016126c6565b5090565b600080fd5b600080fd5b600073ffffffffffffffffffffffffffffffffffffffff82169050919050565b6000612717826126ec565b9050919050565b6127278161270c565b811461273257600080fd5b50565b6000813590506127448161271e565b92915050565b6000602082840312156127605761275f6126e2565b5b600061276e84828501612735565b91505092915050565b600081519050919050565b600082825260208201905092915050565b6000819050602082019050919050565b6000819050919050565b6127b6816127a3565b82525050565b6000819050919050565b6127cf816127bc565b82525050565b6040820160008201516127eb60008501826127ad565b5060208201516127fe60208501826127c6565b50505050565b600061281083836127d5565b60408301905092915050565b6000602082019050919050565b600061283482612777565b61283e8185612782565b935061284983612793565b8060005b8381101561287a5781516128618882612804565b975061286c8361281c565b92505060018101905061284d565b5085935050505092915050565b600060208201905081810360008301526128a18184612829565b905092915050565b60008115159050919050565b6128be816128a9565b81146128c957600080fd5b50565b6000813590506128db816128b5565b92915050565b6000602082840312156128f7576128f66126e2565b5b6000612905848285016128cc565b91505092915050565b600060ff82169050919050565b6129248161290e565b811461292f57600080fd5b50565b6000813590506129418161291b565b92915050565b60006020828403121561295d5761295c6126e2565b5b600061296b84828501612932565b91505092915050565b60008060006060848603121561298d5761298c6126e2565b5b600061299b86828701612735565b93505060206129ac86828701612735565b92505060406129bd868287016128cc565b9150509250925092565b6129d0816128a9565b82525050565b6129df8161290e565b82525050565b60006040820190506129fa60008301856129c7565b612a0760208301846129d6565b9392505050565b600080fd5b600080fd5b600080fd5b60008083601f840112612a3357612a32612a0e565b5b8235905067ffffffffffffffff811115612a5057612a4f612a13565b5b602083019150836001820283011115612a6c57612a6b612a18565b5b9250929050565b612a7c816127a3565b8114612a8757600080fd5b50565b600081359050612a9981612a73565b92915050565b60008060008060608587031215612ab957612ab86126e2565b5b600085013567ffffffffffffffff811115612ad757612ad66126e7565b5b612ae387828801612a1d565b94509450506020612af687828801612a8a565b9250506040612b0787828801612735565b91505092959194509250565b612b1c816127bc565b82525050565b6000602082019050612b376000830184612b13565b92915050565b6000602082019050612b5260008301846129d6565b92915050565b612b61816127bc565b8114612b6c57600080fd5b50565b600081359050612b7e81612b58565b92915050565b60008060408385031215612b9b57612b9a6126e2565b5b6000612ba985828601612b6f565b9250506020612bba85828601612735565b9150509250929050565b6000602082019050612bd960008301846129c7565b92915050565b600060208284031215612bf557612bf46126e2565b5b6000612c0384828501612b6f565b91505092915050565b612c158161270c565b82525050565b600081519050919050565b600082825260208201905092915050565b60005b83811015612c55578082015181840152602081019050612c3a565b83811115612c64576000848401525b50505050565b6000601f19601f8301169050919050565b6000612c8682612c1b565b612c908185612c26565b9350612ca0818560208601612c37565b612ca981612c6a565b840191505092915050565b612cbd816127a3565b82525050565b600060c082019050612cd86000830189612b13565b612ce56020830188612c0c565b8181036040830152612cf78187612c7b565b9050612d066060830186612cb4565b612d1360808301856129c7565b612d2060a0830184612cb4565b979650505050505050565b60006080820190508181036000830152612d458187612c7b565b9050612d5460208301866129d6565b612d616040830185612cb4565b612d6e60608301846129d6565b95945050505050565b600080600060408486031215612d9057612d8f6126e2565b5b6000612d9e86828701612735565b935050602084013567ffffffffffffffff811115612dbf57612dbe6126e7565b5b612dcb86828701612a1d565b92509250509250925092565b7f416464726573732073686f756c6420626520612076616c6964206f6e65000000600082015250565b6000612e0d601d83612c26565b9150612e1882612dd7565b602082019050919050565b60006020820190508181036000830152612e3c81612e00565b9050919050565b7f4f6e6c7920417574686f72697a65642063616c6c6572732063616e20646f207460008201527f68697320616374696f6e00000000000000000000000000000000000000000000602082015250565b6000612e9f602a83612c26565b9150612eaa82612e43565b604082019050919050565b60006020820190508181036000830152612ece81612e92565b9050919050565b7f43616c6c6572206973206e6f7420636f6e7472616374206f776e6572202d204460008201527f4154410000000000000000000000000000000000000000000000000000000000602082015250565b6000612f31602383612c26565b9150612f3c82612ed5565b604082019050919050565b60006020820190508181036000830152612f6081612f24565b9050919050565b7f436f6e74726163742069732063757272656e746c79206e6f74206f706572617460008201527f696f6e616c000000000000000000000000000000000000000000000000000000602082015250565b6000612fc3602583612c26565b9150612fce82612f67565b604082019050919050565b60006020820190508181036000830152612ff281612fb6565b9050919050565b7f4169726c696e652066756e6473206e6f7420656e6f7567680000000000000000600082015250565b600061302f601883612c26565b915061303a82612ff9565b602082019050919050565b6000602082019050818103600083015261305e81613022565b9050919050565b7f4e487b7100000000000000000000000000000000000000000000000000000000600052602160045260246000fd5b7f4169726c696e652073686f756c6420626520696e20726567697374657265642060008201527f73746174757320696e206f7264657220746f20726563656976652066756e6473602082015250565b60006130f0604083612c26565b91506130fb82613094565b604082019050919050565b6000602082019050818103600083015261311f816130e3565b9050919050565b7f41766f696420746f6f206c61726765206e756d626572206f6620636f6e73656e60008201527f7375730000000000000000000000000000000000000000000000000000000000602082015250565b6000613182602383612c26565b915061318d82613126565b604082019050919050565b600060208201905081810360008301526131b181613175565b9050919050565b7f4f6e6c7920617574686f72697a6564206169726c696e652063616e207065726660008201527f6f726d207468697320616374696f6e0000000000000000000000000000000000602082015250565b6000613214602f83612c26565b915061321f826131b8565b604082019050919050565b6000602082019050818103600083015261324381613207565b9050919050565b7f4169726c696e652073686f756c6420626520696e2066756e646564207374617460008201527f7573000000000000000000000000000000000000000000000000000000000000602082015250565b60006132a6602283612c26565b91506132b18261324a565b604082019050919050565b600060208201905081810360008301526132d581613299565b9050919050565b7f4e487b7100000000000000000000000000000000000000000000000000000000600052603260045260246000fd5b7f4e487b7100000000000000000000000000000000000000000000000000000000600052601160045260246000fd5b60006133458261290e565b915060ff82036133585761335761330b565b5b600182019050919050565b7f43616c6c657220616c726561647920766f746520666f7220746869732041697260008201527f6c696e6500000000000000000000000000000000000000000000000000000000602082015250565b60006133bf602483612c26565b91506133ca82613363565b604082019050919050565b600060208201905081810360008301526133ee816133b2565b9050919050565b7f4e487b7100000000000000000000000000000000000000000000000000000000600052601260045260246000fd5b600061342f8261290e565b915061343a8361290e565b92508261344a576134496133f5565b5b828204905092915050565b60006134608261290e565b915061346b8361290e565b92508260ff038211156134815761348061330b565b5b828201905092915050565b7f4e487b7100000000000000000000000000000000000000000000000000000000600052602260045260246000fd5b600060028204905060018216806134d357607f821691505b6020821081036134e6576134e561348c565b5b50919050565b60008160601b9050919050565b6000613504826134ec565b9050919050565b6000613516826134f9565b9050919050565b61352e6135298261270c565b61350b565b82525050565b600081905092915050565b600061354a82612c1b565b6135548185613534565b9350613564818560208601612c37565b80840191505092915050565b6000819050919050565b61358b613586826127a3565b613570565b82525050565b600061359d828661351d565b6014820191506135ad828561353f565b91506135b9828461357a565b60208201915081905094935050505056fea2646970667358221220a1ac17e729f787b905cf2757a7157e9daa7c3c258598e726acdb9328c3728c5364736f6c634300080e0033",
  "immutableReferences": {},
  "source": "// SPDX-License-Identifier: MIT\npragma solidity ^0.8.14;\n\ncontract FlightSuretyData {\n    /********************************************************************************************/\n    /*                                       DATA VARIABLES                                     */\n    /********************************************************************************************/\n\n    address private contractOwner; // Account used to deploy contract\n    bool private operational = true; // Blocks all state changes throughout the contract if false\n\n    uint256 airlineFund = 0.000001 ether;\n\n    mapping(address => bool) private authorizedCallers; //who can call this contract\n\n    enum AirlineStatus {\n        Registered,\n        Funded,\n        Approved,\n        Rejected\n    }\n    AirlineStatus constant defaultChoice = AirlineStatus.Registered;\n\n    struct AirlineApproval {\n        address airline;\n        bool approval;\n    }\n\n    //airline struct\n    struct Airline {\n        string name;\n        AirlineStatus status;\n        uint256 funds;\n        AirlineApproval[] votes;\n    }\n\n    mapping(address => Airline) private airlines;\n    uint8 private airlineCount = 0;\n    uint8 private multiPartyConsensusThreshold = 4;\n\n    // Flights\n\n    struct Flight {\n        bool isRegistered;\n        uint8 statusCode;\n        uint256 updatedTimestamp;\n        address airline;\n        string flight;\n        Customer[] customers;\n    }\n    mapping(bytes32 => Flight) private flights;\n\n    // Flight status codees\n    uint8 private constant STATUS_CODE_UNKNOWN = 0;\n    uint8 private constant STATUS_CODE_ON_TIME = 10;\n    uint8 private constant STATUS_CODE_LATE_AIRLINE = 20;\n    uint8 private constant STATUS_CODE_LATE_WEATHER = 30;\n    uint8 private constant STATUS_CODE_LATE_TECHNICAL = 40;\n    uint8 private constant STATUS_CODE_LATE_OTHER = 50;\n\n    // customers\n    struct Customer {\n        address customer;\n        uint256 fund;\n    }\n\n    struct CustomerInfo {\n        uint256 fund;\n        bytes32 flight;\n    }\n\n    //customers\n    mapping(address => CustomerInfo[]) customers;\n\n    /********************************************************************************************/\n    /*                                       EVENT DEFINITIONS                                  */\n    /********************************************************************************************/\n\n    /**\n     * @dev Constructor\n     *      The deploying account becomes contractOwner\n     */\n    constructor() {\n        contractOwner = msg.sender;\n    }\n\n    /********************************************************************************************/\n    /*                                       FUNCTION MODIFIERS                                 */\n    /********************************************************************************************/\n\n    /**\n     * @dev Modifier that requires the \"operational\" boolean variable to be \"true\"\n     *      This is used on all state changing functions to pause the contract in\n     *      the event there is an issue that needs to be fixed\n     */\n    modifier requireIsOperational() {\n        require(operational, \"Contract is currently not operational\");\n        _;\n    }\n\n    /**\n     * @dev Modifier that requires the \"ContractOwner\" account to be the function caller\n     */\n    modifier requireContractOwner() {\n        require(\n            msg.sender == contractOwner,\n            \"Caller is not contract owner - DATA\"\n        );\n        _;\n    }\n\n    /**\n     * @dev Requires a valid address\n     */\n    modifier requireValidAddress(address _address) {\n        require(_address != address(0), \"Address should be a valid one\");\n        _;\n    }\n\n    /**\n     * @dev require to be an authirized caller\n     */\n    modifier requireAuthorizedCaller() {\n        require(\n            authorizedCallers[msg.sender] == true,\n            \"Only Authorized callers can do this action\"\n        );\n        _;\n    }\n\n    modifier requireAuthorizedAirline(address _airline) {\n        require(\n            airlines[_airline].status == AirlineStatus.Approved ||\n                _airline == contractOwner,\n            \"Only authorized airline can perform this action\"\n        );\n        _;\n    }\n\n    /**\n    @dev verify if the airline is in funded status\n     */\n    modifier requireAirlineFundedStatus(address _address) {\n        require(\n            airlines[_address].status == AirlineStatus.Funded,\n            \"Airline should be in funded status\"\n        );\n        _;\n    }\n\n    /********************************************************************************************/\n    /*                                       UTILITY FUNCTIONS                                  */\n    /********************************************************************************************/\n\n    /**\n     * @dev Get operating status of contract\n     *\n     * @return A bool that is the current operating status\n     */\n    function isOperational() public view returns (bool) {\n        return operational;\n    }\n\n    /**\n     * @dev Sets contract operations on/off\n     *\n     * When operational mode is disabled, all write transactions except for this one will fail\n     */\n    function setOperatingStatus(bool mode) external requireContractOwner {\n        operational = mode;\n    }\n\n    /**\n    Change multi-party consensus parameter\n     */\n    function getMultiPartyConsensusThreshold()\n        public\n        view\n        requireContractOwner\n        returns (uint8)\n    {\n        return multiPartyConsensusThreshold;\n    }\n\n    /**\n    Change multi-party consensus parameter\n     */\n    function setmultiPartyConsensusThreshold(uint8 _consensusCount)\n        external\n        requireContractOwner\n    {\n        require(\n            _consensusCount > 0 && _consensusCount < 10,\n            \"Avoid too large number of consensus\"\n        );\n        multiPartyConsensusThreshold = _consensusCount;\n    }\n\n    /**\n     * @dev sets the authorized callers to this contract\n     *\n     * Calling this function to add authorized callers\n     */\n\n    function authorizeCaller(address _address)\n        external\n        requireIsOperational\n        requireContractOwner\n        requireValidAddress(_address)\n    {\n        authorizedCallers[_address] = true;\n    }\n\n    /**\n     * @dev deny access to a specific caller\n     */\n    function denyCaller(address _address)\n        external\n        requireIsOperational\n        requireContractOwner\n        requireValidAddress(_address)\n    {\n        authorizedCallers[_address] = false;\n    }\n\n    function isAirline(address _address)\n        private\n        view\n        requireContractOwner\n        requireValidAddress(_address)\n        returns (bool)\n    {\n        bytes memory _name = bytes(airlines[_address].name);\n        return _name.length != 0;\n    }\n\n    function getTotalAirlines()\n        external\n        view\n        requireAuthorizedCaller\n        returns (uint8)\n    {\n        return airlineCount;\n    }\n\n    /********************************************************************************************/\n    /*                                     SMART CONTRACT FUNCTIONS                             */\n    /********************************************************************************************/\n\n    /**\n     * @dev Add an airline to the registration queue\n     *      Can only be called from FlightSuretyApp contract\n     *\n     */\n    function registerAirline(address _address, string calldata name)\n        external\n        requireIsOperational\n        requireValidAddress(_address)\n        requireAuthorizedCaller\n        returns (bool success, uint8 votes)\n    {\n        airlines[_address].name = name;\n        airlines[_address].funds = 0;\n\n        return (true, 0);\n    }\n\n    /**\n    @notice Airline approval function\n     */\n\n    function approveAirlineRegistration(\n        address _address,\n        address _from,\n        bool _approval\n    )\n        external\n        requireIsOperational\n        requireAuthorizedAirline(_from)\n        requireValidAddress(_address)\n        requireAirlineFundedStatus(_address)\n        requireAuthorizedCaller\n        returns (bool success, uint8 votes)\n    {\n        //if we have more airlines than the threshold, apply multi-party consensus\n        if (airlineCount >= multiPartyConsensusThreshold) {\n            bool isDuplicatedVote = false;\n\n            for (\n                uint8 vote = 0;\n                vote < airlines[_address].votes.length;\n                vote++\n            ) {\n                if (airlines[_address].votes[vote].airline == _from) {\n                    isDuplicatedVote = true;\n                    break;\n                }\n            }\n\n            require(!isDuplicatedVote, \"Caller already vote for this Airline\");\n\n            airlines[_address].votes.push(\n                AirlineApproval({airline: _from, approval: _approval})\n            );\n\n            // if votes are more than 50% of the airlines, define if it is approved or not\n            if (airlines[_address].votes.length >= (airlineCount / 2)) {\n                uint8 approvedVotes = 0;\n                for (\n                    uint8 vote = 0;\n                    vote < airlines[_address].votes.length;\n                    vote++\n                ) {\n                    if (airlines[_address].votes[vote].approval == true)\n                        approvedVotes += 1;\n                }\n\n                if (approvedVotes >= (airlineCount / 2)) {\n                    airlines[_address].status = AirlineStatus.Approved;\n                    airlineCount += 1;\n                } else {\n                    airlines[_address].status = AirlineStatus.Rejected;\n                }\n            }\n        } else {\n            airlines[_address].votes.push(\n                AirlineApproval({airline: _from, approval: _approval})\n            );\n            airlines[_address].status = AirlineStatus.Approved;\n            airlineCount += 1;\n        }\n\n        return (true, uint8(airlines[_address].votes.length));\n    }\n\n    /**\n    @dev return airline info\n     */\n    function getAirline(address _address)\n        external\n        view\n        requireValidAddress(_address)\n        requireAuthorizedCaller\n        returns (\n            string memory name,\n            uint8 status,\n            uint256 funds,\n            uint8 votes\n        )\n    {\n        return (\n            airlines[_address].name,\n            uint8(airlines[_address].status),\n            airlines[_address].funds,\n            uint8(airlines[_address].votes.length)\n        );\n    }\n\n    function registerFlight(\n        string calldata _flight,\n        uint256 _updatedTimestamp,\n        address _airline\n    )\n        external\n        requireValidAddress(_airline)\n        requireAuthorizedAirline(_airline)\n        requireAuthorizedCaller\n        returns (bytes32)\n    {\n        bytes32 flightKey = getFlightKey(_airline, _flight, _updatedTimestamp);\n\n        flights[flightKey].airline = _airline;\n        flights[flightKey].flight = _flight;\n        flights[flightKey].updatedTimestamp = _updatedTimestamp;\n        flights[flightKey].isRegistered = true;\n        flights[flightKey].statusCode = 0;\n\n        return flightKey;\n    }\n\n    function getFlight(bytes32 flightKey)\n        external\n        view\n        requireAuthorizedCaller\n        returns (\n            bytes32,\n            address,\n            string memory,\n            uint256,\n            bool,\n            uint256\n        )\n    {\n        return (\n            flightKey,\n            flights[flightKey].airline,\n            flights[flightKey].flight,\n            flights[flightKey].updatedTimestamp,\n            flights[flightKey].isRegistered,\n            flights[flightKey].statusCode\n        );\n    }\n\n    /**\n     * @dev Buy insurance for a flight\n     *\n     */\n    function buy(bytes32 _flight, address _customer)\n        external\n        payable\n        requireValidAddress(_customer)\n        requireAuthorizedCaller\n        returns (bool)\n    {\n        flights[_flight].customers.push(\n            Customer({customer: _customer, fund: msg.value})\n        );\n\n        customers[_customer].push(\n            CustomerInfo({flight: _flight, fund: msg.value})\n        );\n\n        return (true);\n    }\n\n    function getCustomerInsurances(address _customer)\n        external\n        view\n        requireValidAddress(_customer)\n        requireAuthorizedCaller\n        returns (CustomerInfo[] memory)\n    {\n        return (customers[_customer]);\n    }\n\n    /**\n     *  @dev Credits payouts to insurees\n     */\n    function creditInsurees() external pure {}\n\n    /**\n     *  @dev Transfers eligible payout funds to insuree\n     *\n     */\n    function pay() external pure {}\n\n    /**\n     * @dev Initial funding for the insurance. Unless there are too many delayed flights\n     *      resulting in insurance payouts, the contract should be self-sustaining\n     *\n     */\n    function fund(address _address)\n        external\n        payable\n        requireIsOperational\n        requireValidAddress(_address)\n        requireAuthorizedCaller\n    {\n        require(msg.value >= airlineFund, \"Airline funds not enough\");\n        require(\n            airlines[_address].status == AirlineStatus.Registered,\n            \"Airline should be in registered status in order to receive funds\"\n        );\n\n        airlines[_address].funds = msg.value;\n        airlines[_address].status = AirlineStatus.Funded;\n    }\n\n    function getFlightKey(\n        address airline,\n        string memory flight,\n        uint256 timestamp\n    ) internal pure returns (bytes32) {\n        return keccak256(abi.encodePacked(airline, flight, timestamp));\n    }\n\n    /**\n     * @dev Receive function for funding smart contract.\n     *\n     */\n    // receive() external payable {\n    //     fund();\n    // }\n}\n",
  "sourcePath": "/home/rafamessias/Documents/udacity/Ethereum/flight-surety/truffle/contracts/FlightSuretyData.sol",
  "compiler": {
    "name": "solc",
    "version": "0.8.14+commit.80d49f37.Emscripten.clang"
  },
  "schemaVersion": "3.4.8",
  "updatedAt": "2022-09-14T19:56:44.590Z",
  "networkType": "ethereum",
  "devdoc": {
    "kind": "dev",
    "methods": {
      "authorizeCaller(address)": {
        "details": "sets the authorized callers to this contract Calling this function to add authorized callers"
      },
      "buy(bytes32,address)": {
        "details": "Buy insurance for a flight"
      },
      "constructor": {
        "details": "Constructor      The deploying account becomes contractOwner"
      },
      "creditInsurees()": {
        "details": "Credits payouts to insurees"
      },
      "denyCaller(address)": {
        "details": "deny access to a specific caller"
      },
      "fund(address)": {
        "details": "Initial funding for the insurance. Unless there are too many delayed flights      resulting in insurance payouts, the contract should be self-sustaining"
      },
      "getAirline(address)": {
        "details": "return airline info"
      },
      "isOperational()": {
        "details": "Get operating status of contract",
        "returns": {
          "_0": "A bool that is the current operating status"
        }
      },
      "pay()": {
        "details": "Transfers eligible payout funds to insuree"
      },
      "registerAirline(address,string)": {
        "details": "Add an airline to the registration queue      Can only be called from FlightSuretyApp contract"
      },
      "setOperatingStatus(bool)": {
        "details": "Sets contract operations on/off When operational mode is disabled, all write transactions except for this one will fail"
      }
    },
    "version": 1
  },
  "userdoc": {
    "kind": "user",
    "methods": {
      "approveAirlineRegistration(address,address,bool)": {
        "notice": "Airline approval function"
      },
      "getMultiPartyConsensusThreshold()": {
        "notice": "Change multi-party consensus parameter"
      },
      "setmultiPartyConsensusThreshold(uint8)": {
        "notice": "Change multi-party consensus parameter"
      }
    },
    "version": 1
  }
}