{
  "contractName": "FlightSuretyData",
  "abi": [
    {
      "inputs": [],
      "stateMutability": "nonpayable",
      "type": "constructor"
    },
    {
      "inputs": [],
      "name": "isOperational",
      "outputs": [
        {
          "internalType": "bool",
          "name": "",
          "type": "bool"
        }
      ],
      "stateMutability": "view",
      "type": "function",
      "constant": true
    },
    {
      "inputs": [
        {
          "internalType": "bool",
          "name": "mode",
          "type": "bool"
        }
      ],
      "name": "setOperatingStatus",
      "outputs": [],
      "stateMutability": "nonpayable",
      "type": "function"
    },
    {
      "inputs": [],
      "name": "getMultiPartyConsensusThreshold",
      "outputs": [
        {
          "internalType": "uint8",
          "name": "",
          "type": "uint8"
        }
      ],
      "stateMutability": "view",
      "type": "function",
      "constant": true
    },
    {
      "inputs": [
        {
          "internalType": "uint8",
          "name": "_consensusCount",
          "type": "uint8"
        }
      ],
      "name": "setmultiPartyConsensusThreshold",
      "outputs": [],
      "stateMutability": "nonpayable",
      "type": "function"
    },
    {
      "inputs": [
        {
          "internalType": "address",
          "name": "_address",
          "type": "address"
        }
      ],
      "name": "authorizeCaller",
      "outputs": [],
      "stateMutability": "nonpayable",
      "type": "function"
    },
    {
      "inputs": [
        {
          "internalType": "address",
          "name": "_address",
          "type": "address"
        }
      ],
      "name": "denyCaller",
      "outputs": [],
      "stateMutability": "nonpayable",
      "type": "function"
    },
    {
      "inputs": [],
      "name": "getTotalAirlines",
      "outputs": [
        {
          "internalType": "uint8",
          "name": "",
          "type": "uint8"
        }
      ],
      "stateMutability": "view",
      "type": "function",
      "constant": true
    },
    {
      "inputs": [
        {
          "internalType": "address",
          "name": "_address",
          "type": "address"
        },
        {
          "internalType": "string",
          "name": "name",
          "type": "string"
        }
      ],
      "name": "registerAirline",
      "outputs": [
        {
          "internalType": "bool",
          "name": "success",
          "type": "bool"
        },
        {
          "internalType": "uint8",
          "name": "votes",
          "type": "uint8"
        }
      ],
      "stateMutability": "nonpayable",
      "type": "function"
    },
    {
      "inputs": [
        {
          "internalType": "address",
          "name": "_address",
          "type": "address"
        },
        {
          "internalType": "address",
          "name": "_from",
          "type": "address"
        },
        {
          "internalType": "bool",
          "name": "_approval",
          "type": "bool"
        }
      ],
      "name": "approveAirlineRegistration",
      "outputs": [
        {
          "internalType": "bool",
          "name": "success",
          "type": "bool"
        },
        {
          "internalType": "uint8",
          "name": "votes",
          "type": "uint8"
        }
      ],
      "stateMutability": "nonpayable",
      "type": "function"
    },
    {
      "inputs": [
        {
          "internalType": "address",
          "name": "_address",
          "type": "address"
        }
      ],
      "name": "getAirline",
      "outputs": [
        {
          "internalType": "string",
          "name": "name",
          "type": "string"
        },
        {
          "internalType": "uint8",
          "name": "status",
          "type": "uint8"
        },
        {
          "internalType": "uint256",
          "name": "funds",
          "type": "uint256"
        },
        {
          "internalType": "uint8",
          "name": "votes",
          "type": "uint8"
        }
      ],
      "stateMutability": "view",
      "type": "function",
      "constant": true
    },
    {
      "inputs": [
        {
          "internalType": "string",
          "name": "_flight",
          "type": "string"
        },
        {
          "internalType": "uint256",
          "name": "_updatedTimestamp",
          "type": "uint256"
        },
        {
          "internalType": "address",
          "name": "_airline",
          "type": "address"
        }
      ],
      "name": "registerFlight",
      "outputs": [
        {
          "internalType": "bytes32",
          "name": "",
          "type": "bytes32"
        }
      ],
      "stateMutability": "nonpayable",
      "type": "function"
    },
    {
      "inputs": [
        {
          "internalType": "bytes32",
          "name": "flightKey",
          "type": "bytes32"
        }
      ],
      "name": "getFlight",
      "outputs": [
        {
          "internalType": "bytes32",
          "name": "",
          "type": "bytes32"
        },
        {
          "internalType": "address",
          "name": "",
          "type": "address"
        },
        {
          "internalType": "string",
          "name": "",
          "type": "string"
        },
        {
          "internalType": "uint256",
          "name": "",
          "type": "uint256"
        },
        {
          "internalType": "bool",
          "name": "",
          "type": "bool"
        },
        {
          "internalType": "uint256",
          "name": "",
          "type": "uint256"
        }
      ],
      "stateMutability": "view",
      "type": "function",
      "constant": true
    },
    {
      "inputs": [
        {
          "internalType": "bytes32",
          "name": "_flight",
          "type": "bytes32"
        },
        {
          "internalType": "address",
          "name": "_customer",
          "type": "address"
        }
      ],
      "name": "buy",
      "outputs": [
        {
          "internalType": "bool",
          "name": "",
          "type": "bool"
        }
      ],
      "stateMutability": "payable",
      "type": "function",
      "payable": true
    },
    {
      "inputs": [
        {
          "internalType": "address",
          "name": "_customer",
          "type": "address"
        }
      ],
      "name": "getCustomerInsurances",
      "outputs": [
        {
          "components": [
            {
              "internalType": "uint256",
              "name": "fund",
              "type": "uint256"
            },
            {
              "internalType": "bytes32",
              "name": "flight",
              "type": "bytes32"
            }
          ],
          "internalType": "struct FlightSuretyData.CustomerInfo[]",
          "name": "",
          "type": "tuple[]"
        }
      ],
      "stateMutability": "view",
      "type": "function",
      "constant": true
    },
    {
      "inputs": [
        {
          "internalType": "address",
          "name": "airline",
          "type": "address"
        },
        {
          "internalType": "string",
          "name": "flight",
          "type": "string"
        },
        {
          "internalType": "uint256",
          "name": "timestamp",
          "type": "uint256"
        },
        {
          "internalType": "uint8",
          "name": "statusCode",
          "type": "uint8"
        }
      ],
      "name": "processFlightStatus",
      "outputs": [],
      "stateMutability": "nonpayable",
      "type": "function"
    },
    {
      "inputs": [
        {
          "internalType": "bytes32",
          "name": "_flight",
          "type": "bytes32"
        },
        {
          "internalType": "address",
          "name": "_customer",
          "type": "address"
        }
      ],
      "name": "pay",
      "outputs": [],
      "stateMutability": "payable",
      "type": "function",
      "payable": true
    },
    {
      "inputs": [
        {
          "internalType": "address",
          "name": "_address",
          "type": "address"
        }
      ],
      "name": "fund",
      "outputs": [],
      "stateMutability": "payable",
      "type": "function",
      "payable": true
    }
  ],
  "bytecode": "0x60806040526001600060146101000a81548160ff02191690831515021790555064e8d4a510006001556000600460006101000a81548160ff021916908360ff16021790555060048060016101000a81548160ff021916908360ff16021790555034801561006b57600080fd5b50336000806101000a81548173ffffffffffffffffffffffffffffffffffffffff021916908373ffffffffffffffffffffffffffffffffffffffff160217905550614196806100bb6000396000f3fe6080604052600436106100fe5760003560e01c8063aad451b211610095578063d53a57b511610064578063d53a57b514610336578063dcf8405514610361578063e1de04891461038a578063e7bdde3b146103ca578063ee38a749146103f3576100fe565b8063aad451b21461026e578063c049604a14610299578063cac8f292146102c9578063cd905dff1461030b576100fe565b806339a32061116100d157806339a32061146101ae5780633e2e4117146101d757806362ee873b1461021557806365c152f714610231576100fe565b8063071a71a114610103578063110466ed1461014057806323024408146101695780632c388d5d14610185575b600080fd5b34801561010f57600080fd5b5061012a600480360381019061012591906131ec565b610431565b6040516101379190613329565b60405180910390f35b34801561014c57600080fd5b5061016760048036038101906101629190613383565b6105e7565b005b610183600480360381019061017e91906131ec565b610692565b005b34801561019157600080fd5b506101ac60048036038101906101a791906131ec565b610995565b005b3480156101ba57600080fd5b506101d560048036038101906101d091906133e9565b610b3e565b005b3480156101e357600080fd5b506101fe60048036038101906101f99190613416565b610c3f565b60405161020c929190613487565b60405180910390f35b61022f600480360381019061022a91906134dc565b611681565b005b34801561023d57600080fd5b50610258600480360381019061025391906135ad565b611ba2565b6040516102659190613630565b60405180910390f35b34801561027a57600080fd5b50610283611f0a565b604051610290919061364b565b60405180910390f35b6102b360048036038101906102ae91906134dc565b611fb0565b6040516102c09190613666565b60405180910390f35b3480156102d557600080fd5b506102f060048036038101906102eb9190613681565b612210565b60405161030296959493929190613765565b60405180910390f35b34801561031757600080fd5b50610320612401565b60405161032d9190613666565b60405180910390f35b34801561034257600080fd5b5061034b612417565b604051610358919061364b565b60405180910390f35b34801561036d57600080fd5b50610388600480360381019061038391906131ec565b6124c1565b005b34801561039657600080fd5b506103b160048036038101906103ac91906131ec565b61266a565b6040516103c194939291906137cd565b60405180910390f35b3480156103d657600080fd5b506103f160048036038101906103ec9190613819565b61293d565b005b3480156103ff57600080fd5b5061041a600480360381019061041591906138a1565b612a7d565b604051610428929190613487565b60405180910390f35b606081600073ffffffffffffffffffffffffffffffffffffffff168173ffffffffffffffffffffffffffffffffffffffff16036104a3576040517f08c379a000000000000000000000000000000000000000000000000000000000815260040161049a9061394d565b60405180910390fd5b60011515600260003373ffffffffffffffffffffffffffffffffffffffff1673ffffffffffffffffffffffffffffffffffffffff16815260200190815260200160002060009054906101000a900460ff16151514610536576040517f08c379a000000000000000000000000000000000000000000000000000000000815260040161052d906139df565b60405180910390fd5b600660008473ffffffffffffffffffffffffffffffffffffffff1673ffffffffffffffffffffffffffffffffffffffff168152602001908152602001600020805480602002602001604051908101604052809291908181526020016000905b828210156105db57838290600052602060002090600202016040518060400160405290816000820154815260200160018201548152505081526020019060010190610595565b50505050915050919050565b60008054906101000a900473ffffffffffffffffffffffffffffffffffffffff1673ffffffffffffffffffffffffffffffffffffffff163373ffffffffffffffffffffffffffffffffffffffff1614610675576040517f08c379a000000000000000000000000000000000000000000000000000000000815260040161066c90613a71565b60405180910390fd5b80600060146101000a81548160ff02191690831515021790555050565b600060149054906101000a900460ff166106e1576040517f08c379a00000000000000000000000000000000000000000000000000000000081526004016106d890613b03565b60405180910390fd5b80600073ffffffffffffffffffffffffffffffffffffffff168173ffffffffffffffffffffffffffffffffffffffff1603610751576040517f08c379a00000000000000000000000000000000000000000000000000000000081526004016107489061394d565b60405180910390fd5b60011515600260003373ffffffffffffffffffffffffffffffffffffffff1673ffffffffffffffffffffffffffffffffffffffff16815260200190815260200160002060009054906101000a900460ff161515146107e4576040517f08c379a00000000000000000000000000000000000000000000000000000000081526004016107db906139df565b60405180910390fd5b600154341015610829576040517f08c379a000000000000000000000000000000000000000000000000000000000815260040161082090613b6f565b60405180910390fd5b6000600381111561083d5761083c613b8f565b5b600360008473ffffffffffffffffffffffffffffffffffffffff1673ffffffffffffffffffffffffffffffffffffffff16815260200190815260200160002060010160009054906101000a900460ff16600381111561089f5761089e613b8f565b5b146108df576040517f08c379a00000000000000000000000000000000000000000000000000000000081526004016108d690613c30565b60405180910390fd5b34600360008473ffffffffffffffffffffffffffffffffffffffff1673ffffffffffffffffffffffffffffffffffffffff168152602001908152602001600020600201819055506001600360008473ffffffffffffffffffffffffffffffffffffffff1673ffffffffffffffffffffffffffffffffffffffff16815260200190815260200160002060010160006101000a81548160ff0219169083600381111561098c5761098b613b8f565b5b02179055505050565b600060149054906101000a900460ff166109e4576040517f08c379a00000000000000000000000000000000000000000000000000000000081526004016109db90613b03565b60405180910390fd5b60008054906101000a900473ffffffffffffffffffffffffffffffffffffffff1673ffffffffffffffffffffffffffffffffffffffff163373ffffffffffffffffffffffffffffffffffffffff1614610a72576040517f08c379a0000000000000000000000000000000000000000000000000000000008152600401610a6990613a71565b60405180910390fd5b80600073ffffffffffffffffffffffffffffffffffffffff168173ffffffffffffffffffffffffffffffffffffffff1603610ae2576040517f08c379a0000000000000000000000000000000000000000000000000000000008152600401610ad99061394d565b60405180910390fd5b6001600260008473ffffffffffffffffffffffffffffffffffffffff1673ffffffffffffffffffffffffffffffffffffffff16815260200190815260200160002060006101000a81548160ff0219169083151502179055505050565b60008054906101000a900473ffffffffffffffffffffffffffffffffffffffff1673ffffffffffffffffffffffffffffffffffffffff163373ffffffffffffffffffffffffffffffffffffffff1614610bcc576040517f08c379a0000000000000000000000000000000000000000000000000000000008152600401610bc390613a71565b60405180910390fd5b60008160ff16118015610be25750600a8160ff16105b610c21576040517f08c379a0000000000000000000000000000000000000000000000000000000008152600401610c1890613cc2565b60405180910390fd5b80600460016101000a81548160ff021916908360ff16021790555050565b600080600060149054906101000a900460ff16610c91576040517f08c379a0000000000000000000000000000000000000000000000000000000008152600401610c8890613b03565b60405180910390fd5b8360026003811115610ca657610ca5613b8f565b5b600360008373ffffffffffffffffffffffffffffffffffffffff1673ffffffffffffffffffffffffffffffffffffffff16815260200190815260200160002060010160009054906101000a900460ff166003811115610d0857610d07613b8f565b5b1480610d5f575060008054906101000a900473ffffffffffffffffffffffffffffffffffffffff1673ffffffffffffffffffffffffffffffffffffffff168173ffffffffffffffffffffffffffffffffffffffff16145b610d9e576040517f08c379a0000000000000000000000000000000000000000000000000000000008152600401610d9590613d54565b60405180910390fd5b85600073ffffffffffffffffffffffffffffffffffffffff168173ffffffffffffffffffffffffffffffffffffffff1603610e0e576040517f08c379a0000000000000000000000000000000000000000000000000000000008152600401610e059061394d565b60405180910390fd5b8660016003811115610e2357610e22613b8f565b5b600360008373ffffffffffffffffffffffffffffffffffffffff1673ffffffffffffffffffffffffffffffffffffffff16815260200190815260200160002060010160009054906101000a900460ff166003811115610e8557610e84613b8f565b5b14610ec5576040517f08c379a0000000000000000000000000000000000000000000000000000000008152600401610ebc90613de6565b60405180910390fd5b60011515600260003373ffffffffffffffffffffffffffffffffffffffff1673ffffffffffffffffffffffffffffffffffffffff16815260200190815260200160002060009054906101000a900460ff16151514610f58576040517f08c379a0000000000000000000000000000000000000000000000000000000008152600401610f4f906139df565b60405180910390fd5b600460019054906101000a900460ff1660ff16600460009054906101000a900460ff1660ff161061148a576000805b600360008b73ffffffffffffffffffffffffffffffffffffffff1673ffffffffffffffffffffffffffffffffffffffff168152602001908152602001600020600301805490508160ff1610156110aa578873ffffffffffffffffffffffffffffffffffffffff16600360008c73ffffffffffffffffffffffffffffffffffffffff1673ffffffffffffffffffffffffffffffffffffffff1681526020019081526020016000206003018260ff168154811061104557611044613e06565b5b9060005260206000200160000160009054906101000a900473ffffffffffffffffffffffffffffffffffffffff1673ffffffffffffffffffffffffffffffffffffffff160361109757600191506110aa565b80806110a290613e64565b915050610f87565b5080156110ec576040517f08c379a00000000000000000000000000000000000000000000000000000000081526004016110e390613eff565b60405180910390fd5b600360008a73ffffffffffffffffffffffffffffffffffffffff1673ffffffffffffffffffffffffffffffffffffffff16815260200190815260200160002060030160405180604001604052808a73ffffffffffffffffffffffffffffffffffffffff1681526020018915158152509080600181540180825580915050600190039060005260206000200160009091909190915060008201518160000160006101000a81548173ffffffffffffffffffffffffffffffffffffffff021916908373ffffffffffffffffffffffffffffffffffffffff16021790555060208201518160000160146101000a81548160ff02191690831515021790555050506002600460009054906101000a900460ff166112059190613f4e565b60ff16600360008b73ffffffffffffffffffffffffffffffffffffffff1673ffffffffffffffffffffffffffffffffffffffff1681526020019081526020016000206003018054905010611484576000805b600360008c73ffffffffffffffffffffffffffffffffffffffff1673ffffffffffffffffffffffffffffffffffffffff168152602001908152602001600020600301805490508160ff1610156113475760011515600360008d73ffffffffffffffffffffffffffffffffffffffff1673ffffffffffffffffffffffffffffffffffffffff1681526020019081526020016000206003018260ff168154811061130257611301613e06565b5b9060005260206000200160000160149054906101000a900460ff16151503611334576001826113319190613f7f565b91505b808061133f90613e64565b915050611257565b506002600460009054906101000a900460ff166113649190613f4e565b60ff168160ff1610611417576002600360008c73ffffffffffffffffffffffffffffffffffffffff1673ffffffffffffffffffffffffffffffffffffffff16815260200190815260200160002060010160006101000a81548160ff021916908360038111156113d6576113d5613b8f565b5b02179055506001600460008282829054906101000a900460ff166113fa9190613f7f565b92506101000a81548160ff021916908360ff160217905550611482565b60038060008c73ffffffffffffffffffffffffffffffffffffffff1673ffffffffffffffffffffffffffffffffffffffff16815260200190815260200160002060010160006101000a81548160ff0219169083600381111561147c5761147b613b8f565b5b02179055505b505b5061162a565b600360008973ffffffffffffffffffffffffffffffffffffffff1673ffffffffffffffffffffffffffffffffffffffff16815260200190815260200160002060030160405180604001604052808973ffffffffffffffffffffffffffffffffffffffff1681526020018815158152509080600181540180825580915050600190039060005260206000200160009091909190915060008201518160000160006101000a81548173ffffffffffffffffffffffffffffffffffffffff021916908373ffffffffffffffffffffffffffffffffffffffff16021790555060208201518160000160146101000a81548160ff02191690831515021790555050506002600360008a73ffffffffffffffffffffffffffffffffffffffff1673ffffffffffffffffffffffffffffffffffffffff16815260200190815260200160002060010160006101000a81548160ff021916908360038111156115ed576115ec613b8f565b5b02179055506001600460008282829054906101000a900460ff166116119190613f7f565b92506101000a81548160ff021916908360ff1602179055505b6001600360008a73ffffffffffffffffffffffffffffffffffffffff1673ffffffffffffffffffffffffffffffffffffffff1681526020019081526020016000206003018054905094509450505050935093915050565b80600073ffffffffffffffffffffffffffffffffffffffff168173ffffffffffffffffffffffffffffffffffffffff16036116f1576040517f08c379a00000000000000000000000000000000000000000000000000000000081526004016116e89061394d565b60405180910390fd5b60011515600260003373ffffffffffffffffffffffffffffffffffffffff1673ffffffffffffffffffffffffffffffffffffffff16815260200190815260200160002060009054906101000a900460ff16151514611784576040517f08c379a000000000000000000000000000000000000000000000000000000000815260040161177b906139df565b60405180910390fd5b600060056000858152602001908152602001600020600401805480602002602001604051908101604052809291908181526020016000905b8282101561184e57838290600052602060002090600202016040518060400160405290816000820160009054906101000a900473ffffffffffffffffffffffffffffffffffffffff1673ffffffffffffffffffffffffffffffffffffffff1673ffffffffffffffffffffffffffffffffffffffff168152602001600182015481525050815260200190600101906117bc565b50505050905060005b81518160ff161015611b9b5760005b60066000600560008981526020019081526020016000206004018460ff168154811061189557611894613e06565b5b906000526020600020906002020160000160009054906101000a900473ffffffffffffffffffffffffffffffffffffffff1673ffffffffffffffffffffffffffffffffffffffff1673ffffffffffffffffffffffffffffffffffffffff168152602001908152602001600020805490508260ff161015611b87578560066000600560008a81526020019081526020016000206004018560ff168154811061193f5761193e613e06565b5b906000526020600020906002020160000160009054906101000a900473ffffffffffffffffffffffffffffffffffffffff1673ffffffffffffffffffffffffffffffffffffffff1673ffffffffffffffffffffffffffffffffffffffff1681526020019081526020016000208260ff16815481106119c0576119bf613e06565b5b90600052602060002090600202016001015403611b745760008590506000600560008981526020019081526020016000206004018460ff1681548110611a0957611a08613e06565b5b9060005260206000209060020201600101549050600060066000600560008c81526020019081526020016000206004018760ff1681548110611a4e57611a4d613e06565b5b906000526020600020906002020160000160009054906101000a900473ffffffffffffffffffffffffffffffffffffffff1673ffffffffffffffffffffffffffffffffffffffff1673ffffffffffffffffffffffffffffffffffffffff1681526020019081526020016000208460ff1681548110611acf57611ace613e06565b5b9060005260206000209060020201600001819055506000600560008a81526020019081526020016000206004018560ff1681548110611b1157611b10613e06565b5b9060005260206000209060020201600101819055508173ffffffffffffffffffffffffffffffffffffffff166108fc829081150290604051600060405180830381858888f19350505050158015611b6c573d6000803e3d6000fd5b505050611b87565b8080611b7f90613e64565b915050611866565b508080611b9390613e64565b915050611857565b5050505050565b600081600073ffffffffffffffffffffffffffffffffffffffff168173ffffffffffffffffffffffffffffffffffffffff1603611c14576040517f08c379a0000000000000000000000000000000000000000000000000000000008152600401611c0b9061394d565b60405180910390fd5b8260026003811115611c2957611c28613b8f565b5b600360008373ffffffffffffffffffffffffffffffffffffffff1673ffffffffffffffffffffffffffffffffffffffff16815260200190815260200160002060010160009054906101000a900460ff166003811115611c8b57611c8a613b8f565b5b1480611ce2575060008054906101000a900473ffffffffffffffffffffffffffffffffffffffff1673ffffffffffffffffffffffffffffffffffffffff168173ffffffffffffffffffffffffffffffffffffffff16145b611d21576040517f08c379a0000000000000000000000000000000000000000000000000000000008152600401611d1890613d54565b60405180910390fd5b60011515600260003373ffffffffffffffffffffffffffffffffffffffff1673ffffffffffffffffffffffffffffffffffffffff16815260200190815260200160002060009054906101000a900460ff16151514611db4576040517f08c379a0000000000000000000000000000000000000000000000000000000008152600401611dab906139df565b60405180910390fd5b6000611e058589898080601f016020809104026020016040519081016040528093929190818152602001838380828437600081840152601f19601f8201169050808301925050505050505088612c7d565b9050846005600083815260200190815260200160002060020160006101000a81548173ffffffffffffffffffffffffffffffffffffffff021916908373ffffffffffffffffffffffffffffffffffffffff1602179055508787600560008481526020019081526020016000206003019190611e819291906130e1565b5085600560008381526020019081526020016000206001018190555060016005600083815260200190815260200160002060000160006101000a81548160ff02191690831515021790555060006005600083815260200190815260200160002060000160016101000a81548160ff021916908360ff160217905550809350505050949350505050565b60008060009054906101000a900473ffffffffffffffffffffffffffffffffffffffff1673ffffffffffffffffffffffffffffffffffffffff163373ffffffffffffffffffffffffffffffffffffffff1614611f9b576040517f08c379a0000000000000000000000000000000000000000000000000000000008152600401611f9290613a71565b60405180910390fd5b600460019054906101000a900460ff16905090565b600081600073ffffffffffffffffffffffffffffffffffffffff168173ffffffffffffffffffffffffffffffffffffffff1603612022576040517f08c379a00000000000000000000000000000000000000000000000000000000081526004016120199061394d565b60405180910390fd5b60011515600260003373ffffffffffffffffffffffffffffffffffffffff1673ffffffffffffffffffffffffffffffffffffffff16815260200190815260200160002060009054906101000a900460ff161515146120b5576040517f08c379a00000000000000000000000000000000000000000000000000000000081526004016120ac906139df565b60405180910390fd5b6005600085815260200190815260200160002060040160405180604001604052808573ffffffffffffffffffffffffffffffffffffffff16815260200134815250908060018154018082558091505060019003906000526020600020906002020160009091909190915060008201518160000160006101000a81548173ffffffffffffffffffffffffffffffffffffffff021916908373ffffffffffffffffffffffffffffffffffffffff160217905550602082015181600101555050600660008473ffffffffffffffffffffffffffffffffffffffff1673ffffffffffffffffffffffffffffffffffffffff168152602001908152602001600020604051806040016040528034815260200186815250908060018154018082558091505060019003906000526020600020906002020160009091909190915060008201518160000155602082015181600101555050600191505092915050565b6000806060600080600060011515600260003373ffffffffffffffffffffffffffffffffffffffff1673ffffffffffffffffffffffffffffffffffffffff16815260200190815260200160002060009054906101000a900460ff161515146122ad576040517f08c379a00000000000000000000000000000000000000000000000000000000081526004016122a4906139df565b60405180910390fd5b866005600089815260200190815260200160002060020160009054906101000a900473ffffffffffffffffffffffffffffffffffffffff16600560008a8152602001908152602001600020600301600560008b815260200190815260200160002060010154600560008c815260200190815260200160002060000160009054906101000a900460ff16600560008d815260200190815260200160002060000160019054906101000a900460ff1683805461236690613fe5565b80601f016020809104026020016040519081016040528092919081815260200182805461239290613fe5565b80156123df5780601f106123b4576101008083540402835291602001916123df565b820191906000526020600020905b8154815290600101906020018083116123c257829003601f168201915b505050505093508060ff16905095509550955095509550955091939550919395565b60008060149054906101000a900460ff16905090565b600060011515600260003373ffffffffffffffffffffffffffffffffffffffff1673ffffffffffffffffffffffffffffffffffffffff16815260200190815260200160002060009054906101000a900460ff161515146124ac576040517f08c379a00000000000000000000000000000000000000000000000000000000081526004016124a3906139df565b60405180910390fd5b600460009054906101000a900460ff16905090565b600060149054906101000a900460ff16612510576040517f08c379a000000000000000000000000000000000000000000000000000000000815260040161250790613b03565b60405180910390fd5b60008054906101000a900473ffffffffffffffffffffffffffffffffffffffff1673ffffffffffffffffffffffffffffffffffffffff163373ffffffffffffffffffffffffffffffffffffffff161461259e576040517f08c379a000000000000000000000000000000000000000000000000000000000815260040161259590613a71565b60405180910390fd5b80600073ffffffffffffffffffffffffffffffffffffffff168173ffffffffffffffffffffffffffffffffffffffff160361260e576040517f08c379a00000000000000000000000000000000000000000000000000000000081526004016126059061394d565b60405180910390fd5b6000600260008473ffffffffffffffffffffffffffffffffffffffff1673ffffffffffffffffffffffffffffffffffffffff16815260200190815260200160002060006101000a81548160ff0219169083151502179055505050565b6060600080600084600073ffffffffffffffffffffffffffffffffffffffff168173ffffffffffffffffffffffffffffffffffffffff16036126e1576040517f08c379a00000000000000000000000000000000000000000000000000000000081526004016126d89061394d565b60405180910390fd5b60011515600260003373ffffffffffffffffffffffffffffffffffffffff1673ffffffffffffffffffffffffffffffffffffffff16815260200190815260200160002060009054906101000a900460ff16151514612774576040517f08c379a000000000000000000000000000000000000000000000000000000000815260040161276b906139df565b60405180910390fd5b600360008773ffffffffffffffffffffffffffffffffffffffff1673ffffffffffffffffffffffffffffffffffffffff168152602001908152602001600020600001600360008873ffffffffffffffffffffffffffffffffffffffff1673ffffffffffffffffffffffffffffffffffffffff16815260200190815260200160002060010160009054906101000a900460ff16600381111561281857612817613b8f565b5b600360008973ffffffffffffffffffffffffffffffffffffffff1673ffffffffffffffffffffffffffffffffffffffff16815260200190815260200160002060020154600360008a73ffffffffffffffffffffffffffffffffffffffff1673ffffffffffffffffffffffffffffffffffffffff168152602001908152602001600020600301805490508380546128ad90613fe5565b80601f01602080910402602001604051908101604052809291908181526020018280546128d990613fe5565b80156129265780601f106128fb57610100808354040283529160200191612926565b820191906000526020600020905b81548152906001019060200180831161290957829003601f168201915b505050505093509450945094509450509193509193565b80600060ff168160ff1614806129595750600a60ff168160ff16145b8061296a5750601460ff168160ff16145b8061297b5750601e60ff168160ff16145b8061298c5750602860ff168160ff16145b8061299d5750603260ff168160ff16145b6129dc576040517f08c379a00000000000000000000000000000000000000000000000000000000081526004016129d390614062565b60405180910390fd5b6000612a2d8787878080601f016020809104026020016040519081016040528093929190818152602001838380828437600081840152601f19601f8201169050808301925050505050505086612c7d565b9050826005600083815260200190815260200160002060000160016101000a81548160ff021916908360ff160217905550600a8360ff161115612a7457612a7381612cb3565b5b50505050505050565b600080600060149054906101000a900460ff16612acf576040517f08c379a0000000000000000000000000000000000000000000000000000000008152600401612ac690613b03565b60405180910390fd5b84600073ffffffffffffffffffffffffffffffffffffffff168173ffffffffffffffffffffffffffffffffffffffff1603612b3f576040517f08c379a0000000000000000000000000000000000000000000000000000000008152600401612b369061394d565b60405180910390fd5b60011515600260003373ffffffffffffffffffffffffffffffffffffffff1673ffffffffffffffffffffffffffffffffffffffff16815260200190815260200160002060009054906101000a900460ff16151514612bd2576040517f08c379a0000000000000000000000000000000000000000000000000000000008152600401612bc9906139df565b60405180910390fd5b8484600360008973ffffffffffffffffffffffffffffffffffffffff1673ffffffffffffffffffffffffffffffffffffffff1681526020019081526020016000206000019190612c239291906130e1565b506000600360008873ffffffffffffffffffffffffffffffffffffffff1673ffffffffffffffffffffffffffffffffffffffff16815260200190815260200160002060020181905550600160009250925050935093915050565b6000838383604051602001612c9493929190614127565b6040516020818303038152906040528051906020012090509392505050565b60011515600260003373ffffffffffffffffffffffffffffffffffffffff1673ffffffffffffffffffffffffffffffffffffffff16815260200190815260200160002060009054906101000a900460ff16151514612d46576040517f08c379a0000000000000000000000000000000000000000000000000000000008152600401612d3d906139df565b60405180910390fd5b600060056000838152602001908152602001600020600401805480602002602001604051908101604052809291908181526020016000905b82821015612e1057838290600052602060002090600202016040518060400160405290816000820160009054906101000a900473ffffffffffffffffffffffffffffffffffffffff1673ffffffffffffffffffffffffffffffffffffffff1673ffffffffffffffffffffffffffffffffffffffff16815260200160018201548152505081526020019060010190612d7e565b50505050905060005b81518160ff1610156130dc576714d1120d7b160000600560008581526020019081526020016000206004018260ff1681548110612e5957612e58613e06565b5b90600052602060002090600202016001018190555060005b60066000600560008781526020019081526020016000206004018460ff1681548110612ea057612e9f613e06565b5b906000526020600020906002020160000160009054906101000a900473ffffffffffffffffffffffffffffffffffffffff1673ffffffffffffffffffffffffffffffffffffffff1673ffffffffffffffffffffffffffffffffffffffff168152602001908152602001600020805490508260ff1610156130c8578360066000600560008881526020019081526020016000206004018560ff1681548110612f4a57612f49613e06565b5b906000526020600020906002020160000160009054906101000a900473ffffffffffffffffffffffffffffffffffffffff1673ffffffffffffffffffffffffffffffffffffffff1673ffffffffffffffffffffffffffffffffffffffff1681526020019081526020016000208260ff1681548110612fcb57612fca613e06565b5b906000526020600020906002020160010154036130b5576714d1120d7b16000060066000600560008881526020019081526020016000206004018560ff168154811061301a57613019613e06565b5b906000526020600020906002020160000160009054906101000a900473ffffffffffffffffffffffffffffffffffffffff1673ffffffffffffffffffffffffffffffffffffffff1673ffffffffffffffffffffffffffffffffffffffff1681526020019081526020016000208260ff168154811061309b5761309a613e06565b5b9060005260206000209060020201600001819055506130c8565b80806130c090613e64565b915050612e71565b5080806130d490613e64565b915050612e19565b505050565b8280546130ed90613fe5565b90600052602060002090601f01602090048101928261310f5760008555613156565b82601f1061312857803560ff1916838001178555613156565b82800160010185558215613156579182015b8281111561315557823582559160200191906001019061313a565b5b5090506131639190613167565b5090565b5b80821115613180576000816000905550600101613168565b5090565b600080fd5b600080fd5b600073ffffffffffffffffffffffffffffffffffffffff82169050919050565b60006131b98261318e565b9050919050565b6131c9816131ae565b81146131d457600080fd5b50565b6000813590506131e6816131c0565b92915050565b60006020828403121561320257613201613184565b5b6000613210848285016131d7565b91505092915050565b600081519050919050565b600082825260208201905092915050565b6000819050602082019050919050565b6000819050919050565b61325881613245565b82525050565b6000819050919050565b6132718161325e565b82525050565b60408201600082015161328d600085018261324f565b5060208201516132a06020850182613268565b50505050565b60006132b28383613277565b60408301905092915050565b6000602082019050919050565b60006132d682613219565b6132e08185613224565b93506132eb83613235565b8060005b8381101561331c57815161330388826132a6565b975061330e836132be565b9250506001810190506132ef565b5085935050505092915050565b6000602082019050818103600083015261334381846132cb565b905092915050565b60008115159050919050565b6133608161334b565b811461336b57600080fd5b50565b60008135905061337d81613357565b92915050565b60006020828403121561339957613398613184565b5b60006133a78482850161336e565b91505092915050565b600060ff82169050919050565b6133c6816133b0565b81146133d157600080fd5b50565b6000813590506133e3816133bd565b92915050565b6000602082840312156133ff576133fe613184565b5b600061340d848285016133d4565b91505092915050565b60008060006060848603121561342f5761342e613184565b5b600061343d868287016131d7565b935050602061344e868287016131d7565b925050604061345f8682870161336e565b9150509250925092565b6134728161334b565b82525050565b613481816133b0565b82525050565b600060408201905061349c6000830185613469565b6134a96020830184613478565b9392505050565b6134b98161325e565b81146134c457600080fd5b50565b6000813590506134d6816134b0565b92915050565b600080604083850312156134f3576134f2613184565b5b6000613501858286016134c7565b9250506020613512858286016131d7565b9150509250929050565b600080fd5b600080fd5b600080fd5b60008083601f8401126135415761354061351c565b5b8235905067ffffffffffffffff81111561355e5761355d613521565b5b60208301915083600182028301111561357a57613579613526565b5b9250929050565b61358a81613245565b811461359557600080fd5b50565b6000813590506135a781613581565b92915050565b600080600080606085870312156135c7576135c6613184565b5b600085013567ffffffffffffffff8111156135e5576135e4613189565b5b6135f18782880161352b565b9450945050602061360487828801613598565b9250506040613615878288016131d7565b91505092959194509250565b61362a8161325e565b82525050565b60006020820190506136456000830184613621565b92915050565b60006020820190506136606000830184613478565b92915050565b600060208201905061367b6000830184613469565b92915050565b60006020828403121561369757613696613184565b5b60006136a5848285016134c7565b91505092915050565b6136b7816131ae565b82525050565b600081519050919050565b600082825260208201905092915050565b60005b838110156136f75780820151818401526020810190506136dc565b83811115613706576000848401525b50505050565b6000601f19601f8301169050919050565b6000613728826136bd565b61373281856136c8565b93506137428185602086016136d9565b61374b8161370c565b840191505092915050565b61375f81613245565b82525050565b600060c08201905061377a6000830189613621565b61378760208301886136ae565b8181036040830152613799818761371d565b90506137a86060830186613756565b6137b56080830185613469565b6137c260a0830184613756565b979650505050505050565b600060808201905081810360008301526137e7818761371d565b90506137f66020830186613478565b6138036040830185613756565b6138106060830184613478565b95945050505050565b60008060008060006080868803121561383557613834613184565b5b6000613843888289016131d7565b955050602086013567ffffffffffffffff81111561386457613863613189565b5b6138708882890161352b565b9450945050604061388388828901613598565b9250506060613894888289016133d4565b9150509295509295909350565b6000806000604084860312156138ba576138b9613184565b5b60006138c8868287016131d7565b935050602084013567ffffffffffffffff8111156138e9576138e8613189565b5b6138f58682870161352b565b92509250509250925092565b7f416464726573732073686f756c6420626520612076616c6964206f6e65000000600082015250565b6000613937601d836136c8565b915061394282613901565b602082019050919050565b600060208201905081810360008301526139668161392a565b9050919050565b7f4f6e6c7920417574686f72697a65642063616c6c6572732063616e20646f207460008201527f68697320616374696f6e00000000000000000000000000000000000000000000602082015250565b60006139c9602a836136c8565b91506139d48261396d565b604082019050919050565b600060208201905081810360008301526139f8816139bc565b9050919050565b7f43616c6c6572206973206e6f7420636f6e7472616374206f776e6572202d204460008201527f4154410000000000000000000000000000000000000000000000000000000000602082015250565b6000613a5b6023836136c8565b9150613a66826139ff565b604082019050919050565b60006020820190508181036000830152613a8a81613a4e565b9050919050565b7f436f6e74726163742069732063757272656e746c79206e6f74206f706572617460008201527f696f6e616c000000000000000000000000000000000000000000000000000000602082015250565b6000613aed6025836136c8565b9150613af882613a91565b604082019050919050565b60006020820190508181036000830152613b1c81613ae0565b9050919050565b7f4169726c696e652066756e6473206e6f7420656e6f7567680000000000000000600082015250565b6000613b596018836136c8565b9150613b6482613b23565b602082019050919050565b60006020820190508181036000830152613b8881613b4c565b9050919050565b7f4e487b7100000000000000000000000000000000000000000000000000000000600052602160045260246000fd5b7f4169726c696e652073686f756c6420626520696e20726567697374657265642060008201527f73746174757320696e206f7264657220746f20726563656976652066756e6473602082015250565b6000613c1a6040836136c8565b9150613c2582613bbe565b604082019050919050565b60006020820190508181036000830152613c4981613c0d565b9050919050565b7f41766f696420746f6f206c61726765206e756d626572206f6620636f6e73656e60008201527f7375730000000000000000000000000000000000000000000000000000000000602082015250565b6000613cac6023836136c8565b9150613cb782613c50565b604082019050919050565b60006020820190508181036000830152613cdb81613c9f565b9050919050565b7f4f6e6c7920617574686f72697a6564206169726c696e652063616e207065726660008201527f6f726d207468697320616374696f6e0000000000000000000000000000000000602082015250565b6000613d3e602f836136c8565b9150613d4982613ce2565b604082019050919050565b60006020820190508181036000830152613d6d81613d31565b9050919050565b7f4169726c696e652073686f756c6420626520696e2066756e646564207374617460008201527f7573000000000000000000000000000000000000000000000000000000000000602082015250565b6000613dd06022836136c8565b9150613ddb82613d74565b604082019050919050565b60006020820190508181036000830152613dff81613dc3565b9050919050565b7f4e487b7100000000000000000000000000000000000000000000000000000000600052603260045260246000fd5b7f4e487b7100000000000000000000000000000000000000000000000000000000600052601160045260246000fd5b6000613e6f826133b0565b915060ff8203613e8257613e81613e35565b5b600182019050919050565b7f43616c6c657220616c726561647920766f746520666f7220746869732041697260008201527f6c696e6500000000000000000000000000000000000000000000000000000000602082015250565b6000613ee96024836136c8565b9150613ef482613e8d565b604082019050919050565b60006020820190508181036000830152613f1881613edc565b9050919050565b7f4e487b7100000000000000000000000000000000000000000000000000000000600052601260045260246000fd5b6000613f59826133b0565b9150613f64836133b0565b925082613f7457613f73613f1f565b5b828204905092915050565b6000613f8a826133b0565b9150613f95836133b0565b92508260ff03821115613fab57613faa613e35565b5b828201905092915050565b7f4e487b7100000000000000000000000000000000000000000000000000000000600052602260045260246000fd5b60006002820490506001821680613ffd57607f821691505b6020821081036140105761400f613fb6565b5b50919050565b7f53746174757320636f646520756e6b6e6f776e00000000000000000000000000600082015250565b600061404c6013836136c8565b915061405782614016565b602082019050919050565b6000602082019050818103600083015261407b8161403f565b9050919050565b60008160601b9050919050565b600061409a82614082565b9050919050565b60006140ac8261408f565b9050919050565b6140c46140bf826131ae565b6140a1565b82525050565b600081905092915050565b60006140e0826136bd565b6140ea81856140ca565b93506140fa8185602086016136d9565b80840191505092915050565b6000819050919050565b61412161411c82613245565b614106565b82525050565b600061413382866140b3565b60148201915061414382856140d5565b915061414f8284614110565b60208201915081905094935050505056fea264697066735822122075f286932905498d7d12e37527ec370ef5e5179a4fee32d1e6e1763f6993258264736f6c634300080e0033",
  "immutableReferences": {},
  "source": "// SPDX-License-Identifier: MIT\npragma solidity ^0.8.14;\n\ncontract FlightSuretyData {\n    /********************************************************************************************/\n    /*                                       DATA VARIABLES                                     */\n    /********************************************************************************************/\n\n    address private contractOwner; // Account used to deploy contract\n    bool private operational = true; // Blocks all state changes throughout the contract if false\n\n    uint256 airlineFund = 0.000001 ether;\n\n    mapping(address => bool) private authorizedCallers; //who can call this contract\n\n    enum AirlineStatus {\n        Registered,\n        Funded,\n        Approved,\n        Rejected\n    }\n    AirlineStatus constant defaultChoice = AirlineStatus.Registered;\n\n    struct AirlineApproval {\n        address airline;\n        bool approval;\n    }\n\n    //airline struct\n    struct Airline {\n        string name;\n        AirlineStatus status;\n        uint256 funds;\n        AirlineApproval[] votes;\n    }\n\n    mapping(address => Airline) private airlines;\n    uint8 private airlineCount = 0;\n    uint8 private multiPartyConsensusThreshold = 4;\n\n    // Flights\n\n    struct Flight {\n        bool isRegistered;\n        uint8 statusCode;\n        uint256 updatedTimestamp;\n        address airline;\n        string flight;\n        Customer[] customers;\n    }\n    mapping(bytes32 => Flight) private flights;\n\n    // Flight status codees\n    uint8 private constant STATUS_CODE_UNKNOWN = 0;\n    uint8 private constant STATUS_CODE_ON_TIME = 10;\n    uint8 private constant STATUS_CODE_LATE_AIRLINE = 20;\n    uint8 private constant STATUS_CODE_LATE_WEATHER = 30;\n    uint8 private constant STATUS_CODE_LATE_TECHNICAL = 40;\n    uint8 private constant STATUS_CODE_LATE_OTHER = 50;\n\n    // customers\n    struct Customer {\n        address customer;\n        uint256 fund;\n    }\n\n    struct CustomerInfo {\n        uint256 fund;\n        bytes32 flight;\n    }\n\n    //customers\n    mapping(address => CustomerInfo[]) customers;\n\n    /********************************************************************************************/\n    /*                                       EVENT DEFINITIONS                                  */\n    /********************************************************************************************/\n\n    /**\n     * @dev Constructor\n     *      The deploying account becomes contractOwner\n     */\n    constructor() {\n        contractOwner = msg.sender;\n    }\n\n    /********************************************************************************************/\n    /*                                       FUNCTION MODIFIERS                                 */\n    /********************************************************************************************/\n\n    /**\n     * @dev Modifier that requires the \"operational\" boolean variable to be \"true\"\n     *      This is used on all state changing functions to pause the contract in\n     *      the event there is an issue that needs to be fixed\n     */\n    modifier requireIsOperational() {\n        require(operational, \"Contract is currently not operational\");\n        _;\n    }\n\n    /**\n     * @dev Modifier that requires the \"ContractOwner\" account to be the function caller\n     */\n    modifier requireContractOwner() {\n        require(\n            msg.sender == contractOwner,\n            \"Caller is not contract owner - DATA\"\n        );\n        _;\n    }\n\n    /**\n     * @dev Requires a valid address\n     */\n    modifier requireValidAddress(address _address) {\n        require(_address != address(0), \"Address should be a valid one\");\n        _;\n    }\n\n    /**\n     * @dev require to be an authirized caller\n     */\n    modifier requireAuthorizedCaller() {\n        require(\n            authorizedCallers[msg.sender] == true,\n            \"Only Authorized callers can do this action\"\n        );\n        _;\n    }\n\n    modifier requireAuthorizedAirline(address _airline) {\n        require(\n            airlines[_airline].status == AirlineStatus.Approved ||\n                _airline == contractOwner,\n            \"Only authorized airline can perform this action\"\n        );\n        _;\n    }\n\n    /**\n    @dev verify if the airline is in funded status\n     */\n    modifier requireAirlineFundedStatus(address _address) {\n        require(\n            airlines[_address].status == AirlineStatus.Funded,\n            \"Airline should be in funded status\"\n        );\n        _;\n    }\n\n    /**\n    @dev require status code be one of the following\n    */\n    modifier requireValidateStatus(uint8 _status) {\n        require(\n            _status == STATUS_CODE_UNKNOWN ||\n                _status == STATUS_CODE_ON_TIME ||\n                _status == STATUS_CODE_LATE_AIRLINE ||\n                _status == STATUS_CODE_LATE_WEATHER ||\n                _status == STATUS_CODE_LATE_TECHNICAL ||\n                _status == STATUS_CODE_LATE_OTHER,\n            \"Status code unknown\"\n        );\n        _;\n    }\n\n    /********************************************************************************************/\n    /*                                       UTILITY FUNCTIONS                                  */\n    /********************************************************************************************/\n\n    /**\n     * @dev Get operating status of contract\n     *\n     * @return A bool that is the current operating status\n     */\n    function isOperational() public view returns (bool) {\n        return operational;\n    }\n\n    /**\n     * @dev Sets contract operations on/off\n     *\n     * When operational mode is disabled, all write transactions except for this one will fail\n     */\n    function setOperatingStatus(bool mode) external requireContractOwner {\n        operational = mode;\n    }\n\n    /**\n    Change multi-party consensus parameter\n     */\n    function getMultiPartyConsensusThreshold()\n        public\n        view\n        requireContractOwner\n        returns (uint8)\n    {\n        return multiPartyConsensusThreshold;\n    }\n\n    /**\n    Change multi-party consensus parameter\n     */\n    function setmultiPartyConsensusThreshold(uint8 _consensusCount)\n        external\n        requireContractOwner\n    {\n        require(\n            _consensusCount > 0 && _consensusCount < 10,\n            \"Avoid too large number of consensus\"\n        );\n        multiPartyConsensusThreshold = _consensusCount;\n    }\n\n    /**\n     * @dev sets the authorized callers to this contract\n     *\n     * Calling this function to add authorized callers\n     */\n\n    function authorizeCaller(address _address)\n        external\n        requireIsOperational\n        requireContractOwner\n        requireValidAddress(_address)\n    {\n        authorizedCallers[_address] = true;\n    }\n\n    /**\n     * @dev deny access to a specific caller\n     */\n    function denyCaller(address _address)\n        external\n        requireIsOperational\n        requireContractOwner\n        requireValidAddress(_address)\n    {\n        authorizedCallers[_address] = false;\n    }\n\n    function isAirline(address _address)\n        private\n        view\n        requireContractOwner\n        requireValidAddress(_address)\n        returns (bool)\n    {\n        bytes memory _name = bytes(airlines[_address].name);\n        return _name.length != 0;\n    }\n\n    function getTotalAirlines()\n        external\n        view\n        requireAuthorizedCaller\n        returns (uint8)\n    {\n        return airlineCount;\n    }\n\n    /********************************************************************************************/\n    /*                                     SMART CONTRACT FUNCTIONS                             */\n    /********************************************************************************************/\n\n    /**\n     * @dev Add an airline to the registration queue\n     *      Can only be called from FlightSuretyApp contract\n     *\n     */\n    function registerAirline(address _address, string calldata name)\n        external\n        requireIsOperational\n        requireValidAddress(_address)\n        requireAuthorizedCaller\n        returns (bool success, uint8 votes)\n    {\n        airlines[_address].name = name;\n        airlines[_address].funds = 0;\n\n        return (true, 0);\n    }\n\n    /**\n    @notice Airline approval function\n     */\n\n    function approveAirlineRegistration(\n        address _address,\n        address _from,\n        bool _approval\n    )\n        external\n        requireIsOperational\n        requireAuthorizedAirline(_from)\n        requireValidAddress(_address)\n        requireAirlineFundedStatus(_address)\n        requireAuthorizedCaller\n        returns (bool success, uint8 votes)\n    {\n        //if we have more airlines than the threshold, apply multi-party consensus\n        if (airlineCount >= multiPartyConsensusThreshold) {\n            bool isDuplicatedVote = false;\n\n            for (\n                uint8 vote = 0;\n                vote < airlines[_address].votes.length;\n                vote++\n            ) {\n                if (airlines[_address].votes[vote].airline == _from) {\n                    isDuplicatedVote = true;\n                    break;\n                }\n            }\n\n            require(!isDuplicatedVote, \"Caller already vote for this Airline\");\n\n            airlines[_address].votes.push(\n                AirlineApproval({airline: _from, approval: _approval})\n            );\n\n            // if votes are more than 50% of the airlines, define if it is approved or not\n            if (airlines[_address].votes.length >= (airlineCount / 2)) {\n                uint8 approvedVotes = 0;\n                for (\n                    uint8 vote = 0;\n                    vote < airlines[_address].votes.length;\n                    vote++\n                ) {\n                    if (airlines[_address].votes[vote].approval == true)\n                        approvedVotes += 1;\n                }\n\n                if (approvedVotes >= (airlineCount / 2)) {\n                    airlines[_address].status = AirlineStatus.Approved;\n                    airlineCount += 1;\n                } else {\n                    airlines[_address].status = AirlineStatus.Rejected;\n                }\n            }\n        } else {\n            airlines[_address].votes.push(\n                AirlineApproval({airline: _from, approval: _approval})\n            );\n            airlines[_address].status = AirlineStatus.Approved;\n            airlineCount += 1;\n        }\n\n        return (true, uint8(airlines[_address].votes.length));\n    }\n\n    /**\n    @dev return airline info\n     */\n    function getAirline(address _address)\n        external\n        view\n        requireValidAddress(_address)\n        requireAuthorizedCaller\n        returns (\n            string memory name,\n            uint8 status,\n            uint256 funds,\n            uint8 votes\n        )\n    {\n        return (\n            airlines[_address].name,\n            uint8(airlines[_address].status),\n            airlines[_address].funds,\n            uint8(airlines[_address].votes.length)\n        );\n    }\n\n    function registerFlight(\n        string calldata _flight,\n        uint256 _updatedTimestamp,\n        address _airline\n    )\n        external\n        requireValidAddress(_airline)\n        requireAuthorizedAirline(_airline)\n        requireAuthorizedCaller\n        returns (bytes32)\n    {\n        bytes32 flightKey = getFlightKey(_airline, _flight, _updatedTimestamp);\n\n        flights[flightKey].airline = _airline;\n        flights[flightKey].flight = _flight;\n        flights[flightKey].updatedTimestamp = _updatedTimestamp;\n        flights[flightKey].isRegistered = true;\n        flights[flightKey].statusCode = 0;\n\n        return flightKey;\n    }\n\n    function getFlight(bytes32 flightKey)\n        external\n        view\n        requireAuthorizedCaller\n        returns (\n            bytes32,\n            address,\n            string memory,\n            uint256,\n            bool,\n            uint256\n        )\n    {\n        return (\n            flightKey,\n            flights[flightKey].airline,\n            flights[flightKey].flight,\n            flights[flightKey].updatedTimestamp,\n            flights[flightKey].isRegistered,\n            flights[flightKey].statusCode\n        );\n    }\n\n    /**\n     * @dev Buy insurance for a flight\n     *\n     */\n    function buy(bytes32 _flight, address _customer)\n        external\n        payable\n        requireValidAddress(_customer)\n        requireAuthorizedCaller\n        returns (bool)\n    {\n        flights[_flight].customers.push(\n            Customer({customer: _customer, fund: msg.value})\n        );\n\n        customers[_customer].push(\n            CustomerInfo({flight: _flight, fund: msg.value})\n        );\n\n        return (true);\n    }\n\n    function getCustomerInsurances(address _customer)\n        external\n        view\n        requireValidAddress(_customer)\n        requireAuthorizedCaller\n        returns (CustomerInfo[] memory)\n    {\n        return (customers[_customer]);\n    }\n\n    // Process flight status from Oracle to update it\n\n    function processFlightStatus(\n        address airline,\n        string calldata flight,\n        uint256 timestamp,\n        uint8 statusCode\n    ) external requireValidateStatus(statusCode) {\n        bytes32 flightKey = getFlightKey(airline, flight, timestamp);\n\n        flights[flightKey].statusCode = statusCode;\n\n        if (statusCode > 10) {\n            creditInsurees(flightKey);\n        }\n    }\n\n    /**\n     *  @dev Credits payouts to insurees\n     */\n    function creditInsurees(bytes32 _flight) internal requireAuthorizedCaller {\n        Customer[] memory flightCustomers = flights[_flight].customers;\n\n        for (uint8 x = 0; x < flightCustomers.length; x++) {\n            flights[_flight].customers[x].fund = 1.5 ether;\n            //add loop to add fund\n            for (\n                uint8 y = 0;\n                x < customers[flights[_flight].customers[x].customer].length;\n                y++\n            ) {\n                if (\n                    customers[flights[_flight].customers[x].customer][y]\n                        .flight == _flight\n                ) {\n                    customers[flights[_flight].customers[x].customer][y]\n                        .fund = 1.5 ether;\n                    break;\n                }\n            }\n        }\n    }\n\n    /**\n     *  @dev Transfers eligible payout funds to insuree\n     *\n     */\n    function pay(bytes32 _flight, address _customer)\n        external\n        payable\n        requireValidAddress(_customer)\n        requireAuthorizedCaller\n    {\n        Customer[] memory flightCustomers = flights[_flight].customers;\n\n        for (uint8 x = 0; x < flightCustomers.length; x++) {\n            //add loop to add fund\n            for (\n                uint8 y = 0;\n                x < customers[flights[_flight].customers[x].customer].length;\n                y++\n            ) {\n                if (\n                    customers[flights[_flight].customers[x].customer][y]\n                        .flight == _flight\n                ) {\n                    address payable customer = payable(_customer);\n                    uint256 customerFund = flights[_flight].customers[x].fund;\n                    customers[flights[_flight].customers[x].customer][y]\n                        .fund = 0;\n                    flights[_flight].customers[x].fund = 0;\n\n                    customer.transfer(customerFund);\n\n                    break;\n                }\n            }\n        }\n    }\n\n    /**\n     * @dev Initial funding for the insurance. Unless there are too many delayed flights\n     *      resulting in insurance payouts, the contract should be self-sustaining\n     *\n     */\n    function fund(address _address)\n        external\n        payable\n        requireIsOperational\n        requireValidAddress(_address)\n        requireAuthorizedCaller\n    {\n        require(msg.value >= airlineFund, \"Airline funds not enough\");\n        require(\n            airlines[_address].status == AirlineStatus.Registered,\n            \"Airline should be in registered status in order to receive funds\"\n        );\n\n        airlines[_address].funds = msg.value;\n        airlines[_address].status = AirlineStatus.Funded;\n    }\n\n    function getFlightKey(\n        address airline,\n        string memory flight,\n        uint256 timestamp\n    ) internal pure returns (bytes32) {\n        return keccak256(abi.encodePacked(airline, flight, timestamp));\n    }\n\n    /**\n     * @dev Receive function for funding smart contract.\n     *\n     */\n    // receive() external payable {\n    //     fund();\n    // }\n}\n",
  "sourcePath": "/home/rafamessias/Documents/udacity/Ethereum/flight-surety/truffle/contracts/FlightSuretyData.sol",
  "compiler": {
    "name": "solc",
    "version": "0.8.14+commit.80d49f37.Emscripten.clang"
  },
  "schemaVersion": "3.4.8",
  "updatedAt": "2022-09-16T00:38:25.165Z",
  "networkType": "ethereum",
  "devdoc": {
    "kind": "dev",
    "methods": {
      "authorizeCaller(address)": {
        "details": "sets the authorized callers to this contract Calling this function to add authorized callers"
      },
      "buy(bytes32,address)": {
        "details": "Buy insurance for a flight"
      },
      "constructor": {
        "details": "Constructor      The deploying account becomes contractOwner"
      },
      "denyCaller(address)": {
        "details": "deny access to a specific caller"
      },
      "fund(address)": {
        "details": "Initial funding for the insurance. Unless there are too many delayed flights      resulting in insurance payouts, the contract should be self-sustaining"
      },
      "getAirline(address)": {
        "details": "return airline info"
      },
      "isOperational()": {
        "details": "Get operating status of contract",
        "returns": {
          "_0": "A bool that is the current operating status"
        }
      },
      "pay(bytes32,address)": {
        "details": "Transfers eligible payout funds to insuree"
      },
      "registerAirline(address,string)": {
        "details": "Add an airline to the registration queue      Can only be called from FlightSuretyApp contract"
      },
      "setOperatingStatus(bool)": {
        "details": "Sets contract operations on/off When operational mode is disabled, all write transactions except for this one will fail"
      }
    },
    "version": 1
  },
  "userdoc": {
    "kind": "user",
    "methods": {
      "approveAirlineRegistration(address,address,bool)": {
        "notice": "Airline approval function"
      },
      "getMultiPartyConsensusThreshold()": {
        "notice": "Change multi-party consensus parameter"
      },
      "setmultiPartyConsensusThreshold(uint8)": {
        "notice": "Change multi-party consensus parameter"
      }
    },
    "version": 1
  }
}