{
  "contractName": "FlightSuretyData",
  "abi": [
    {
      "inputs": [],
      "stateMutability": "nonpayable",
      "type": "constructor"
    },
    {
      "inputs": [],
      "name": "isOperational",
      "outputs": [
        {
          "internalType": "bool",
          "name": "",
          "type": "bool"
        }
      ],
      "stateMutability": "view",
      "type": "function",
      "constant": true
    },
    {
      "inputs": [
        {
          "internalType": "bool",
          "name": "mode",
          "type": "bool"
        }
      ],
      "name": "setOperatingStatus",
      "outputs": [],
      "stateMutability": "nonpayable",
      "type": "function"
    },
    {
      "inputs": [],
      "name": "getMultiPartyConsensusThreshold",
      "outputs": [
        {
          "internalType": "uint8",
          "name": "",
          "type": "uint8"
        }
      ],
      "stateMutability": "view",
      "type": "function",
      "constant": true
    },
    {
      "inputs": [
        {
          "internalType": "uint8",
          "name": "_consensusCount",
          "type": "uint8"
        }
      ],
      "name": "setmultiPartyConsensusThreshold",
      "outputs": [],
      "stateMutability": "nonpayable",
      "type": "function"
    },
    {
      "inputs": [
        {
          "internalType": "address",
          "name": "_address",
          "type": "address"
        }
      ],
      "name": "authorizeCaller",
      "outputs": [],
      "stateMutability": "nonpayable",
      "type": "function"
    },
    {
      "inputs": [
        {
          "internalType": "address",
          "name": "_address",
          "type": "address"
        }
      ],
      "name": "denyCaller",
      "outputs": [],
      "stateMutability": "nonpayable",
      "type": "function"
    },
    {
      "inputs": [],
      "name": "getTotalAirlines",
      "outputs": [
        {
          "internalType": "uint8",
          "name": "",
          "type": "uint8"
        }
      ],
      "stateMutability": "view",
      "type": "function",
      "constant": true
    },
    {
      "inputs": [
        {
          "internalType": "address",
          "name": "_address",
          "type": "address"
        },
        {
          "internalType": "string",
          "name": "name",
          "type": "string"
        }
      ],
      "name": "registerAirline",
      "outputs": [
        {
          "internalType": "bool",
          "name": "success",
          "type": "bool"
        },
        {
          "internalType": "uint8",
          "name": "votes",
          "type": "uint8"
        }
      ],
      "stateMutability": "payable",
      "type": "function",
      "payable": true
    },
    {
      "inputs": [
        {
          "internalType": "address",
          "name": "_address",
          "type": "address"
        },
        {
          "internalType": "address",
          "name": "_from",
          "type": "address"
        },
        {
          "internalType": "bool",
          "name": "_approval",
          "type": "bool"
        }
      ],
      "name": "approveAirlineRegistration",
      "outputs": [
        {
          "internalType": "bool",
          "name": "success",
          "type": "bool"
        },
        {
          "internalType": "uint8",
          "name": "votes",
          "type": "uint8"
        }
      ],
      "stateMutability": "nonpayable",
      "type": "function"
    },
    {
      "inputs": [
        {
          "internalType": "address",
          "name": "_address",
          "type": "address"
        }
      ],
      "name": "getAirline",
      "outputs": [
        {
          "internalType": "string",
          "name": "name",
          "type": "string"
        },
        {
          "internalType": "uint8",
          "name": "status",
          "type": "uint8"
        },
        {
          "internalType": "uint256",
          "name": "funds",
          "type": "uint256"
        },
        {
          "internalType": "uint8",
          "name": "votes",
          "type": "uint8"
        }
      ],
      "stateMutability": "view",
      "type": "function",
      "constant": true
    },
    {
      "inputs": [
        {
          "internalType": "string",
          "name": "_flight",
          "type": "string"
        },
        {
          "internalType": "uint256",
          "name": "_updatedTimestamp",
          "type": "uint256"
        },
        {
          "internalType": "address",
          "name": "_airline",
          "type": "address"
        }
      ],
      "name": "registerFlight",
      "outputs": [
        {
          "internalType": "bytes32",
          "name": "",
          "type": "bytes32"
        }
      ],
      "stateMutability": "nonpayable",
      "type": "function"
    },
    {
      "inputs": [
        {
          "internalType": "bytes32",
          "name": "flightKey",
          "type": "bytes32"
        }
      ],
      "name": "getFlight",
      "outputs": [
        {
          "internalType": "bytes32",
          "name": "",
          "type": "bytes32"
        },
        {
          "internalType": "address",
          "name": "",
          "type": "address"
        },
        {
          "internalType": "string",
          "name": "",
          "type": "string"
        },
        {
          "internalType": "uint256",
          "name": "",
          "type": "uint256"
        },
        {
          "internalType": "bool",
          "name": "",
          "type": "bool"
        },
        {
          "internalType": "uint256",
          "name": "",
          "type": "uint256"
        }
      ],
      "stateMutability": "view",
      "type": "function",
      "constant": true
    },
    {
      "inputs": [
        {
          "internalType": "bytes32",
          "name": "_flight",
          "type": "bytes32"
        },
        {
          "internalType": "address",
          "name": "_customer",
          "type": "address"
        }
      ],
      "name": "buy",
      "outputs": [
        {
          "internalType": "bool",
          "name": "",
          "type": "bool"
        }
      ],
      "stateMutability": "payable",
      "type": "function",
      "payable": true
    },
    {
      "inputs": [
        {
          "internalType": "address",
          "name": "_customer",
          "type": "address"
        }
      ],
      "name": "getCustomerInsurances",
      "outputs": [
        {
          "components": [
            {
              "internalType": "uint256",
              "name": "fund",
              "type": "uint256"
            },
            {
              "internalType": "bytes32",
              "name": "flight",
              "type": "bytes32"
            }
          ],
          "internalType": "struct FlightSuretyData.CustomerInfo[]",
          "name": "",
          "type": "tuple[]"
        }
      ],
      "stateMutability": "view",
      "type": "function",
      "constant": true
    },
    {
      "inputs": [],
      "name": "creditInsurees",
      "outputs": [],
      "stateMutability": "pure",
      "type": "function",
      "constant": true
    },
    {
      "inputs": [],
      "name": "pay",
      "outputs": [],
      "stateMutability": "pure",
      "type": "function",
      "constant": true
    },
    {
      "inputs": [
        {
          "internalType": "address",
          "name": "_address",
          "type": "address"
        }
      ],
      "name": "fund",
      "outputs": [],
      "stateMutability": "payable",
      "type": "function",
      "payable": true
    }
  ],
  "bytecode": "0x60806040526001600060146101000a81548160ff02191690831515021790555064e8d4a510006001556000600460006101000a81548160ff021916908360ff16021790555060048060016101000a81548160ff021916908360ff16021790555034801561006b57600080fd5b50336000806101000a81548173ffffffffffffffffffffffffffffffffffffffff021916908373ffffffffffffffffffffffffffffffffffffffff1602179055506135cd806100bb6000396000f3fe6080604052600436106100fe5760003560e01c806365c152f711610095578063cd905dff11610064578063cd905dff1461031d578063d53a57b514610348578063dcf8405514610373578063e1de04891461039c578063ee38a749146103dc576100fe565b806365c152f714610243578063aad451b214610280578063c049604a146102ab578063cac8f292146102db576100fe565b80632c388d5d116100d15780632c388d5d1461019c57806336cee484146101c557806339a32061146101dc5780633e2e411714610205576100fe565b8063071a71a114610103578063110466ed146101405780631b9265b8146101695780632302440814610180575b600080fd5b34801561010f57600080fd5b5061012a6004803603810190610125919061273d565b61040d565b604051610137919061287a565b60405180910390f35b34801561014c57600080fd5b50610167600480360381019061016291906128d4565b6105c3565b005b34801561017557600080fd5b5061017e61066e565b005b61019a6004803603810190610195919061273d565b610670565b005b3480156101a857600080fd5b506101c360048036038101906101be919061273d565b610973565b005b3480156101d157600080fd5b506101da610b1c565b005b3480156101e857600080fd5b5061020360048036038101906101fe919061293a565b610b1e565b005b34801561021157600080fd5b5061022c60048036038101906102279190612967565b610c1f565b60405161023a9291906129d8565b60405180910390f35b34801561024f57600080fd5b5061026a60048036038101906102659190612a92565b611661565b6040516102779190612b15565b60405180910390f35b34801561028c57600080fd5b506102956119c9565b6040516102a29190612b30565b60405180910390f35b6102c560048036038101906102c09190612b77565b611a6f565b6040516102d29190612bb7565b60405180910390f35b3480156102e757600080fd5b5061030260048036038101906102fd9190612bd2565b611ccf565b60405161031496959493929190612cb6565b60405180910390f35b34801561032957600080fd5b50610332611ec0565b60405161033f9190612bb7565b60405180910390f35b34801561035457600080fd5b5061035d611ed6565b60405161036a9190612b30565b60405180910390f35b34801561037f57600080fd5b5061039a6004803603810190610395919061273d565b611f80565b005b3480156103a857600080fd5b506103c360048036038101906103be919061273d565b612129565b6040516103d39493929190612d1e565b60405180910390f35b6103f660048036038101906103f19190612d6a565b6123fc565b6040516104049291906129d8565b60405180910390f35b606081600073ffffffffffffffffffffffffffffffffffffffff168173ffffffffffffffffffffffffffffffffffffffff160361047f576040517f08c379a000000000000000000000000000000000000000000000000000000000815260040161047690612e16565b60405180910390fd5b60011515600260003373ffffffffffffffffffffffffffffffffffffffff1673ffffffffffffffffffffffffffffffffffffffff16815260200190815260200160002060009054906101000a900460ff16151514610512576040517f08c379a000000000000000000000000000000000000000000000000000000000815260040161050990612ea8565b60405180910390fd5b600660008473ffffffffffffffffffffffffffffffffffffffff1673ffffffffffffffffffffffffffffffffffffffff168152602001908152602001600020805480602002602001604051908101604052809291908181526020016000905b828210156105b757838290600052602060002090600202016040518060400160405290816000820154815260200160018201548152505081526020019060010190610571565b50505050915050919050565b60008054906101000a900473ffffffffffffffffffffffffffffffffffffffff1673ffffffffffffffffffffffffffffffffffffffff163373ffffffffffffffffffffffffffffffffffffffff1614610651576040517f08c379a000000000000000000000000000000000000000000000000000000000815260040161064890612f14565b60405180910390fd5b80600060146101000a81548160ff02191690831515021790555050565b565b600060149054906101000a900460ff166106bf576040517f08c379a00000000000000000000000000000000000000000000000000000000081526004016106b690612fa6565b60405180910390fd5b80600073ffffffffffffffffffffffffffffffffffffffff168173ffffffffffffffffffffffffffffffffffffffff160361072f576040517f08c379a000000000000000000000000000000000000000000000000000000000815260040161072690612e16565b60405180910390fd5b60011515600260003373ffffffffffffffffffffffffffffffffffffffff1673ffffffffffffffffffffffffffffffffffffffff16815260200190815260200160002060009054906101000a900460ff161515146107c2576040517f08c379a00000000000000000000000000000000000000000000000000000000081526004016107b990612ea8565b60405180910390fd5b600154341015610807576040517f08c379a00000000000000000000000000000000000000000000000000000000081526004016107fe90613012565b60405180910390fd5b6000600381111561081b5761081a613032565b5b600360008473ffffffffffffffffffffffffffffffffffffffff1673ffffffffffffffffffffffffffffffffffffffff16815260200190815260200160002060010160009054906101000a900460ff16600381111561087d5761087c613032565b5b146108bd576040517f08c379a00000000000000000000000000000000000000000000000000000000081526004016108b4906130d3565b60405180910390fd5b34600360008473ffffffffffffffffffffffffffffffffffffffff1673ffffffffffffffffffffffffffffffffffffffff168152602001908152602001600020600201819055506001600360008473ffffffffffffffffffffffffffffffffffffffff1673ffffffffffffffffffffffffffffffffffffffff16815260200190815260200160002060010160006101000a81548160ff0219169083600381111561096a57610969613032565b5b02179055505050565b600060149054906101000a900460ff166109c2576040517f08c379a00000000000000000000000000000000000000000000000000000000081526004016109b990612fa6565b60405180910390fd5b60008054906101000a900473ffffffffffffffffffffffffffffffffffffffff1673ffffffffffffffffffffffffffffffffffffffff163373ffffffffffffffffffffffffffffffffffffffff1614610a50576040517f08c379a0000000000000000000000000000000000000000000000000000000008152600401610a4790612f14565b60405180910390fd5b80600073ffffffffffffffffffffffffffffffffffffffff168173ffffffffffffffffffffffffffffffffffffffff1603610ac0576040517f08c379a0000000000000000000000000000000000000000000000000000000008152600401610ab790612e16565b60405180910390fd5b6001600260008473ffffffffffffffffffffffffffffffffffffffff1673ffffffffffffffffffffffffffffffffffffffff16815260200190815260200160002060006101000a81548160ff0219169083151502179055505050565b565b60008054906101000a900473ffffffffffffffffffffffffffffffffffffffff1673ffffffffffffffffffffffffffffffffffffffff163373ffffffffffffffffffffffffffffffffffffffff1614610bac576040517f08c379a0000000000000000000000000000000000000000000000000000000008152600401610ba390612f14565b60405180910390fd5b60008160ff16118015610bc25750600a8160ff16105b610c01576040517f08c379a0000000000000000000000000000000000000000000000000000000008152600401610bf890613165565b60405180910390fd5b80600460016101000a81548160ff021916908360ff16021790555050565b600080600060149054906101000a900460ff16610c71576040517f08c379a0000000000000000000000000000000000000000000000000000000008152600401610c6890612fa6565b60405180910390fd5b8360026003811115610c8657610c85613032565b5b600360008373ffffffffffffffffffffffffffffffffffffffff1673ffffffffffffffffffffffffffffffffffffffff16815260200190815260200160002060010160009054906101000a900460ff166003811115610ce857610ce7613032565b5b1480610d3f575060008054906101000a900473ffffffffffffffffffffffffffffffffffffffff1673ffffffffffffffffffffffffffffffffffffffff168173ffffffffffffffffffffffffffffffffffffffff16145b610d7e576040517f08c379a0000000000000000000000000000000000000000000000000000000008152600401610d75906131f7565b60405180910390fd5b85600073ffffffffffffffffffffffffffffffffffffffff168173ffffffffffffffffffffffffffffffffffffffff1603610dee576040517f08c379a0000000000000000000000000000000000000000000000000000000008152600401610de590612e16565b60405180910390fd5b8660016003811115610e0357610e02613032565b5b600360008373ffffffffffffffffffffffffffffffffffffffff1673ffffffffffffffffffffffffffffffffffffffff16815260200190815260200160002060010160009054906101000a900460ff166003811115610e6557610e64613032565b5b14610ea5576040517f08c379a0000000000000000000000000000000000000000000000000000000008152600401610e9c90613289565b60405180910390fd5b60011515600260003373ffffffffffffffffffffffffffffffffffffffff1673ffffffffffffffffffffffffffffffffffffffff16815260200190815260200160002060009054906101000a900460ff16151514610f38576040517f08c379a0000000000000000000000000000000000000000000000000000000008152600401610f2f90612ea8565b60405180910390fd5b600460019054906101000a900460ff1660ff16600460009054906101000a900460ff1660ff161061146a576000805b600360008b73ffffffffffffffffffffffffffffffffffffffff1673ffffffffffffffffffffffffffffffffffffffff168152602001908152602001600020600301805490508160ff16101561108a578873ffffffffffffffffffffffffffffffffffffffff16600360008c73ffffffffffffffffffffffffffffffffffffffff1673ffffffffffffffffffffffffffffffffffffffff1681526020019081526020016000206003018260ff1681548110611025576110246132a9565b5b9060005260206000200160000160009054906101000a900473ffffffffffffffffffffffffffffffffffffffff1673ffffffffffffffffffffffffffffffffffffffff1603611077576001915061108a565b808061108290613307565b915050610f67565b5080156110cc576040517f08c379a00000000000000000000000000000000000000000000000000000000081526004016110c3906133a2565b60405180910390fd5b600360008a73ffffffffffffffffffffffffffffffffffffffff1673ffffffffffffffffffffffffffffffffffffffff16815260200190815260200160002060030160405180604001604052808a73ffffffffffffffffffffffffffffffffffffffff1681526020018915158152509080600181540180825580915050600190039060005260206000200160009091909190915060008201518160000160006101000a81548173ffffffffffffffffffffffffffffffffffffffff021916908373ffffffffffffffffffffffffffffffffffffffff16021790555060208201518160000160146101000a81548160ff02191690831515021790555050506002600460009054906101000a900460ff166111e591906133f1565b60ff16600360008b73ffffffffffffffffffffffffffffffffffffffff1673ffffffffffffffffffffffffffffffffffffffff1681526020019081526020016000206003018054905010611464576000805b600360008c73ffffffffffffffffffffffffffffffffffffffff1673ffffffffffffffffffffffffffffffffffffffff168152602001908152602001600020600301805490508160ff1610156113275760011515600360008d73ffffffffffffffffffffffffffffffffffffffff1673ffffffffffffffffffffffffffffffffffffffff1681526020019081526020016000206003018260ff16815481106112e2576112e16132a9565b5b9060005260206000200160000160149054906101000a900460ff16151503611314576001826113119190613422565b91505b808061131f90613307565b915050611237565b506002600460009054906101000a900460ff1661134491906133f1565b60ff168160ff16106113f7576002600360008c73ffffffffffffffffffffffffffffffffffffffff1673ffffffffffffffffffffffffffffffffffffffff16815260200190815260200160002060010160006101000a81548160ff021916908360038111156113b6576113b5613032565b5b02179055506001600460008282829054906101000a900460ff166113da9190613422565b92506101000a81548160ff021916908360ff160217905550611462565b60038060008c73ffffffffffffffffffffffffffffffffffffffff1673ffffffffffffffffffffffffffffffffffffffff16815260200190815260200160002060010160006101000a81548160ff0219169083600381111561145c5761145b613032565b5b02179055505b505b5061160a565b600360008973ffffffffffffffffffffffffffffffffffffffff1673ffffffffffffffffffffffffffffffffffffffff16815260200190815260200160002060030160405180604001604052808973ffffffffffffffffffffffffffffffffffffffff1681526020018815158152509080600181540180825580915050600190039060005260206000200160009091909190915060008201518160000160006101000a81548173ffffffffffffffffffffffffffffffffffffffff021916908373ffffffffffffffffffffffffffffffffffffffff16021790555060208201518160000160146101000a81548160ff02191690831515021790555050506002600360008a73ffffffffffffffffffffffffffffffffffffffff1673ffffffffffffffffffffffffffffffffffffffff16815260200190815260200160002060010160006101000a81548160ff021916908360038111156115cd576115cc613032565b5b02179055506001600460008282829054906101000a900460ff166115f19190613422565b92506101000a81548160ff021916908360ff1602179055505b6001600360008a73ffffffffffffffffffffffffffffffffffffffff1673ffffffffffffffffffffffffffffffffffffffff1681526020019081526020016000206003018054905094509450505050935093915050565b600081600073ffffffffffffffffffffffffffffffffffffffff168173ffffffffffffffffffffffffffffffffffffffff16036116d3576040517f08c379a00000000000000000000000000000000000000000000000000000000081526004016116ca90612e16565b60405180910390fd5b82600260038111156116e8576116e7613032565b5b600360008373ffffffffffffffffffffffffffffffffffffffff1673ffffffffffffffffffffffffffffffffffffffff16815260200190815260200160002060010160009054906101000a900460ff16600381111561174a57611749613032565b5b14806117a1575060008054906101000a900473ffffffffffffffffffffffffffffffffffffffff1673ffffffffffffffffffffffffffffffffffffffff168173ffffffffffffffffffffffffffffffffffffffff16145b6117e0576040517f08c379a00000000000000000000000000000000000000000000000000000000081526004016117d7906131f7565b60405180910390fd5b60011515600260003373ffffffffffffffffffffffffffffffffffffffff1673ffffffffffffffffffffffffffffffffffffffff16815260200190815260200160002060009054906101000a900460ff16151514611873576040517f08c379a000000000000000000000000000000000000000000000000000000000815260040161186a90612ea8565b60405180910390fd5b60006118c48589898080601f016020809104026020016040519081016040528093929190818152602001838380828437600081840152601f19601f82011690508083019250505050505050886125fc565b9050846005600083815260200190815260200160002060020160006101000a81548173ffffffffffffffffffffffffffffffffffffffff021916908373ffffffffffffffffffffffffffffffffffffffff1602179055508787600560008481526020019081526020016000206003019190611940929190612632565b5085600560008381526020019081526020016000206001018190555060016005600083815260200190815260200160002060000160006101000a81548160ff02191690831515021790555060006005600083815260200190815260200160002060000160016101000a81548160ff021916908360ff160217905550809350505050949350505050565b60008060009054906101000a900473ffffffffffffffffffffffffffffffffffffffff1673ffffffffffffffffffffffffffffffffffffffff163373ffffffffffffffffffffffffffffffffffffffff1614611a5a576040517f08c379a0000000000000000000000000000000000000000000000000000000008152600401611a5190612f14565b60405180910390fd5b600460019054906101000a900460ff16905090565b600081600073ffffffffffffffffffffffffffffffffffffffff168173ffffffffffffffffffffffffffffffffffffffff1603611ae1576040517f08c379a0000000000000000000000000000000000000000000000000000000008152600401611ad890612e16565b60405180910390fd5b60011515600260003373ffffffffffffffffffffffffffffffffffffffff1673ffffffffffffffffffffffffffffffffffffffff16815260200190815260200160002060009054906101000a900460ff16151514611b74576040517f08c379a0000000000000000000000000000000000000000000000000000000008152600401611b6b90612ea8565b60405180910390fd5b6005600085815260200190815260200160002060040160405180604001604052808573ffffffffffffffffffffffffffffffffffffffff16815260200134815250908060018154018082558091505060019003906000526020600020906002020160009091909190915060008201518160000160006101000a81548173ffffffffffffffffffffffffffffffffffffffff021916908373ffffffffffffffffffffffffffffffffffffffff160217905550602082015181600101555050600660008473ffffffffffffffffffffffffffffffffffffffff1673ffffffffffffffffffffffffffffffffffffffff168152602001908152602001600020604051806040016040528034815260200186815250908060018154018082558091505060019003906000526020600020906002020160009091909190915060008201518160000155602082015181600101555050600191505092915050565b6000806060600080600060011515600260003373ffffffffffffffffffffffffffffffffffffffff1673ffffffffffffffffffffffffffffffffffffffff16815260200190815260200160002060009054906101000a900460ff16151514611d6c576040517f08c379a0000000000000000000000000000000000000000000000000000000008152600401611d6390612ea8565b60405180910390fd5b866005600089815260200190815260200160002060020160009054906101000a900473ffffffffffffffffffffffffffffffffffffffff16600560008a8152602001908152602001600020600301600560008b815260200190815260200160002060010154600560008c815260200190815260200160002060000160009054906101000a900460ff16600560008d815260200190815260200160002060000160019054906101000a900460ff16838054611e2590613488565b80601f0160208091040260200160405190810160405280929190818152602001828054611e5190613488565b8015611e9e5780601f10611e7357610100808354040283529160200191611e9e565b820191906000526020600020905b815481529060010190602001808311611e8157829003601f168201915b505050505093508060ff16905095509550955095509550955091939550919395565b60008060149054906101000a900460ff16905090565b600060011515600260003373ffffffffffffffffffffffffffffffffffffffff1673ffffffffffffffffffffffffffffffffffffffff16815260200190815260200160002060009054906101000a900460ff16151514611f6b576040517f08c379a0000000000000000000000000000000000000000000000000000000008152600401611f6290612ea8565b60405180910390fd5b600460009054906101000a900460ff16905090565b600060149054906101000a900460ff16611fcf576040517f08c379a0000000000000000000000000000000000000000000000000000000008152600401611fc690612fa6565b60405180910390fd5b60008054906101000a900473ffffffffffffffffffffffffffffffffffffffff1673ffffffffffffffffffffffffffffffffffffffff163373ffffffffffffffffffffffffffffffffffffffff161461205d576040517f08c379a000000000000000000000000000000000000000000000000000000000815260040161205490612f14565b60405180910390fd5b80600073ffffffffffffffffffffffffffffffffffffffff168173ffffffffffffffffffffffffffffffffffffffff16036120cd576040517f08c379a00000000000000000000000000000000000000000000000000000000081526004016120c490612e16565b60405180910390fd5b6000600260008473ffffffffffffffffffffffffffffffffffffffff1673ffffffffffffffffffffffffffffffffffffffff16815260200190815260200160002060006101000a81548160ff0219169083151502179055505050565b6060600080600084600073ffffffffffffffffffffffffffffffffffffffff168173ffffffffffffffffffffffffffffffffffffffff16036121a0576040517f08c379a000000000000000000000000000000000000000000000000000000000815260040161219790612e16565b60405180910390fd5b60011515600260003373ffffffffffffffffffffffffffffffffffffffff1673ffffffffffffffffffffffffffffffffffffffff16815260200190815260200160002060009054906101000a900460ff16151514612233576040517f08c379a000000000000000000000000000000000000000000000000000000000815260040161222a90612ea8565b60405180910390fd5b600360008773ffffffffffffffffffffffffffffffffffffffff1673ffffffffffffffffffffffffffffffffffffffff168152602001908152602001600020600001600360008873ffffffffffffffffffffffffffffffffffffffff1673ffffffffffffffffffffffffffffffffffffffff16815260200190815260200160002060010160009054906101000a900460ff1660038111156122d7576122d6613032565b5b600360008973ffffffffffffffffffffffffffffffffffffffff1673ffffffffffffffffffffffffffffffffffffffff16815260200190815260200160002060020154600360008a73ffffffffffffffffffffffffffffffffffffffff1673ffffffffffffffffffffffffffffffffffffffff1681526020019081526020016000206003018054905083805461236c90613488565b80601f016020809104026020016040519081016040528092919081815260200182805461239890613488565b80156123e55780601f106123ba576101008083540402835291602001916123e5565b820191906000526020600020905b8154815290600101906020018083116123c857829003601f168201915b505050505093509450945094509450509193509193565b600080600060149054906101000a900460ff1661244e576040517f08c379a000000000000000000000000000000000000000000000000000000000815260040161244590612fa6565b60405180910390fd5b84600073ffffffffffffffffffffffffffffffffffffffff168173ffffffffffffffffffffffffffffffffffffffff16036124be576040517f08c379a00000000000000000000000000000000000000000000000000000000081526004016124b590612e16565b60405180910390fd5b60011515600260003373ffffffffffffffffffffffffffffffffffffffff1673ffffffffffffffffffffffffffffffffffffffff16815260200190815260200160002060009054906101000a900460ff16151514612551576040517f08c379a000000000000000000000000000000000000000000000000000000000815260040161254890612ea8565b60405180910390fd5b8484600360008973ffffffffffffffffffffffffffffffffffffffff1673ffffffffffffffffffffffffffffffffffffffff16815260200190815260200160002060000191906125a2929190612632565b506000600360008873ffffffffffffffffffffffffffffffffffffffff1673ffffffffffffffffffffffffffffffffffffffff16815260200190815260200160002060020181905550600160009250925050935093915050565b60008383836040516020016126139392919061355e565b6040516020818303038152906040528051906020012090509392505050565b82805461263e90613488565b90600052602060002090601f01602090048101928261266057600085556126a7565b82601f1061267957803560ff19168380011785556126a7565b828001600101855582156126a7579182015b828111156126a657823582559160200191906001019061268b565b5b5090506126b491906126b8565b5090565b5b808211156126d15760008160009055506001016126b9565b5090565b600080fd5b600080fd5b600073ffffffffffffffffffffffffffffffffffffffff82169050919050565b600061270a826126df565b9050919050565b61271a816126ff565b811461272557600080fd5b50565b60008135905061273781612711565b92915050565b600060208284031215612753576127526126d5565b5b600061276184828501612728565b91505092915050565b600081519050919050565b600082825260208201905092915050565b6000819050602082019050919050565b6000819050919050565b6127a981612796565b82525050565b6000819050919050565b6127c2816127af565b82525050565b6040820160008201516127de60008501826127a0565b5060208201516127f160208501826127b9565b50505050565b600061280383836127c8565b60408301905092915050565b6000602082019050919050565b60006128278261276a565b6128318185612775565b935061283c83612786565b8060005b8381101561286d57815161285488826127f7565b975061285f8361280f565b925050600181019050612840565b5085935050505092915050565b60006020820190508181036000830152612894818461281c565b905092915050565b60008115159050919050565b6128b18161289c565b81146128bc57600080fd5b50565b6000813590506128ce816128a8565b92915050565b6000602082840312156128ea576128e96126d5565b5b60006128f8848285016128bf565b91505092915050565b600060ff82169050919050565b61291781612901565b811461292257600080fd5b50565b6000813590506129348161290e565b92915050565b6000602082840312156129505761294f6126d5565b5b600061295e84828501612925565b91505092915050565b6000806000606084860312156129805761297f6126d5565b5b600061298e86828701612728565b935050602061299f86828701612728565b92505060406129b0868287016128bf565b9150509250925092565b6129c38161289c565b82525050565b6129d281612901565b82525050565b60006040820190506129ed60008301856129ba565b6129fa60208301846129c9565b9392505050565b600080fd5b600080fd5b600080fd5b60008083601f840112612a2657612a25612a01565b5b8235905067ffffffffffffffff811115612a4357612a42612a06565b5b602083019150836001820283011115612a5f57612a5e612a0b565b5b9250929050565b612a6f81612796565b8114612a7a57600080fd5b50565b600081359050612a8c81612a66565b92915050565b60008060008060608587031215612aac57612aab6126d5565b5b600085013567ffffffffffffffff811115612aca57612ac96126da565b5b612ad687828801612a10565b94509450506020612ae987828801612a7d565b9250506040612afa87828801612728565b91505092959194509250565b612b0f816127af565b82525050565b6000602082019050612b2a6000830184612b06565b92915050565b6000602082019050612b4560008301846129c9565b92915050565b612b54816127af565b8114612b5f57600080fd5b50565b600081359050612b7181612b4b565b92915050565b60008060408385031215612b8e57612b8d6126d5565b5b6000612b9c85828601612b62565b9250506020612bad85828601612728565b9150509250929050565b6000602082019050612bcc60008301846129ba565b92915050565b600060208284031215612be857612be76126d5565b5b6000612bf684828501612b62565b91505092915050565b612c08816126ff565b82525050565b600081519050919050565b600082825260208201905092915050565b60005b83811015612c48578082015181840152602081019050612c2d565b83811115612c57576000848401525b50505050565b6000601f19601f8301169050919050565b6000612c7982612c0e565b612c838185612c19565b9350612c93818560208601612c2a565b612c9c81612c5d565b840191505092915050565b612cb081612796565b82525050565b600060c082019050612ccb6000830189612b06565b612cd86020830188612bff565b8181036040830152612cea8187612c6e565b9050612cf96060830186612ca7565b612d0660808301856129ba565b612d1360a0830184612ca7565b979650505050505050565b60006080820190508181036000830152612d388187612c6e565b9050612d4760208301866129c9565b612d546040830185612ca7565b612d6160608301846129c9565b95945050505050565b600080600060408486031215612d8357612d826126d5565b5b6000612d9186828701612728565b935050602084013567ffffffffffffffff811115612db257612db16126da565b5b612dbe86828701612a10565b92509250509250925092565b7f416464726573732073686f756c6420626520612076616c6964206f6e65000000600082015250565b6000612e00601d83612c19565b9150612e0b82612dca565b602082019050919050565b60006020820190508181036000830152612e2f81612df3565b9050919050565b7f4f6e6c7920417574686f72697a65642063616c6c6572732063616e20646f207460008201527f68697320616374696f6e00000000000000000000000000000000000000000000602082015250565b6000612e92602a83612c19565b9150612e9d82612e36565b604082019050919050565b60006020820190508181036000830152612ec181612e85565b9050919050565b7f43616c6c6572206973206e6f7420636f6e7472616374206f776e657200000000600082015250565b6000612efe601c83612c19565b9150612f0982612ec8565b602082019050919050565b60006020820190508181036000830152612f2d81612ef1565b9050919050565b7f436f6e74726163742069732063757272656e746c79206e6f74206f706572617460008201527f696f6e616c000000000000000000000000000000000000000000000000000000602082015250565b6000612f90602583612c19565b9150612f9b82612f34565b604082019050919050565b60006020820190508181036000830152612fbf81612f83565b9050919050565b7f4169726c696e652066756e6473206e6f7420656e6f7567680000000000000000600082015250565b6000612ffc601883612c19565b915061300782612fc6565b602082019050919050565b6000602082019050818103600083015261302b81612fef565b9050919050565b7f4e487b7100000000000000000000000000000000000000000000000000000000600052602160045260246000fd5b7f4169726c696e652073686f756c6420626520696e20726567697374657265642060008201527f73746174757320696e206f7264657220746f20726563656976652066756e6473602082015250565b60006130bd604083612c19565b91506130c882613061565b604082019050919050565b600060208201905081810360008301526130ec816130b0565b9050919050565b7f41766f696420746f6f206c61726765206e756d626572206f6620636f6e73656e60008201527f7375730000000000000000000000000000000000000000000000000000000000602082015250565b600061314f602383612c19565b915061315a826130f3565b604082019050919050565b6000602082019050818103600083015261317e81613142565b9050919050565b7f4f6e6c7920617574686f72697a6564206169726c696e652063616e207065726660008201527f6f726d207468697320616374696f6e0000000000000000000000000000000000602082015250565b60006131e1602f83612c19565b91506131ec82613185565b604082019050919050565b60006020820190508181036000830152613210816131d4565b9050919050565b7f4169726c696e652073686f756c6420626520696e2066756e646564207374617460008201527f7573000000000000000000000000000000000000000000000000000000000000602082015250565b6000613273602283612c19565b915061327e82613217565b604082019050919050565b600060208201905081810360008301526132a281613266565b9050919050565b7f4e487b7100000000000000000000000000000000000000000000000000000000600052603260045260246000fd5b7f4e487b7100000000000000000000000000000000000000000000000000000000600052601160045260246000fd5b600061331282612901565b915060ff8203613325576133246132d8565b5b600182019050919050565b7f43616c6c657220616c726561647920766f746520666f7220746869732041697260008201527f6c696e6500000000000000000000000000000000000000000000000000000000602082015250565b600061338c602483612c19565b915061339782613330565b604082019050919050565b600060208201905081810360008301526133bb8161337f565b9050919050565b7f4e487b7100000000000000000000000000000000000000000000000000000000600052601260045260246000fd5b60006133fc82612901565b915061340783612901565b925082613417576134166133c2565b5b828204905092915050565b600061342d82612901565b915061343883612901565b92508260ff0382111561344e5761344d6132d8565b5b828201905092915050565b7f4e487b7100000000000000000000000000000000000000000000000000000000600052602260045260246000fd5b600060028204905060018216806134a057607f821691505b6020821081036134b3576134b2613459565b5b50919050565b60008160601b9050919050565b60006134d1826134b9565b9050919050565b60006134e3826134c6565b9050919050565b6134fb6134f6826126ff565b6134d8565b82525050565b600081905092915050565b600061351782612c0e565b6135218185613501565b9350613531818560208601612c2a565b80840191505092915050565b6000819050919050565b61355861355382612796565b61353d565b82525050565b600061356a82866134ea565b60148201915061357a828561350c565b91506135868284613547565b60208201915081905094935050505056fea26469706673582212202a5784de8dbb24f0cdfb16e8cb15b02d06ed226546737aa505dcbb1d70db3cd664736f6c634300080e0033",
  "immutableReferences": {},
  "source": "// SPDX-License-Identifier: MIT\npragma solidity ^0.8.14;\n\ncontract FlightSuretyData {\n    /********************************************************************************************/\n    /*                                       DATA VARIABLES                                     */\n    /********************************************************************************************/\n\n    address private contractOwner; // Account used to deploy contract\n    bool private operational = true; // Blocks all state changes throughout the contract if false\n\n    uint256 airlineFund = 0.000001 ether;\n\n    mapping(address => bool) private authorizedCallers; //who can call this contract\n\n    enum AirlineStatus {\n        Registered,\n        Funded,\n        Approved,\n        Rejected\n    }\n    AirlineStatus constant defaultChoice = AirlineStatus.Registered;\n\n    struct AirlineApproval {\n        address airline;\n        bool approval;\n    }\n\n    //airline struct\n    struct Airline {\n        string name;\n        AirlineStatus status;\n        uint256 funds;\n        AirlineApproval[] votes;\n    }\n\n    mapping(address => Airline) private airlines;\n    uint8 private airlineCount = 0;\n    uint8 private multiPartyConsensusThreshold = 4;\n\n    // Flights\n\n    struct Flight {\n        bool isRegistered;\n        uint8 statusCode;\n        uint256 updatedTimestamp;\n        address airline;\n        string flight;\n        Customer[] customers;\n    }\n    mapping(bytes32 => Flight) private flights;\n\n    // Flight status codees\n    uint8 private constant STATUS_CODE_UNKNOWN = 0;\n    uint8 private constant STATUS_CODE_ON_TIME = 10;\n    uint8 private constant STATUS_CODE_LATE_AIRLINE = 20;\n    uint8 private constant STATUS_CODE_LATE_WEATHER = 30;\n    uint8 private constant STATUS_CODE_LATE_TECHNICAL = 40;\n    uint8 private constant STATUS_CODE_LATE_OTHER = 50;\n\n    // customers\n    struct Customer {\n        address customer;\n        uint256 fund;\n    }\n\n    struct CustomerInfo {\n        uint256 fund;\n        bytes32 flight;\n    }\n\n    //customers\n    mapping(address => CustomerInfo[]) customers;\n\n    /********************************************************************************************/\n    /*                                       EVENT DEFINITIONS                                  */\n    /********************************************************************************************/\n\n    /**\n     * @dev Constructor\n     *      The deploying account becomes contractOwner\n     */\n    constructor() {\n        contractOwner = msg.sender;\n    }\n\n    /********************************************************************************************/\n    /*                                       FUNCTION MODIFIERS                                 */\n    /********************************************************************************************/\n\n    /**\n     * @dev Modifier that requires the \"operational\" boolean variable to be \"true\"\n     *      This is used on all state changing functions to pause the contract in\n     *      the event there is an issue that needs to be fixed\n     */\n    modifier requireIsOperational() {\n        require(operational, \"Contract is currently not operational\");\n        _;\n    }\n\n    /**\n     * @dev Modifier that requires the \"ContractOwner\" account to be the function caller\n     */\n    modifier requireContractOwner() {\n        require(msg.sender == contractOwner, \"Caller is not contract owner\");\n        _;\n    }\n\n    /**\n     * @dev Requires a valid address\n     */\n    modifier requireValidAddress(address _address) {\n        require(_address != address(0), \"Address should be a valid one\");\n        _;\n    }\n\n    /**\n     * @dev require to be an authirized caller\n     */\n    modifier requireAuthorizedCaller() {\n        require(\n            authorizedCallers[msg.sender] == true,\n            \"Only Authorized callers can do this action\"\n        );\n        _;\n    }\n\n    modifier requireAuthorizedAirline(address _airline) {\n        require(\n            airlines[_airline].status == AirlineStatus.Approved ||\n                _airline == contractOwner,\n            \"Only authorized airline can perform this action\"\n        );\n        _;\n    }\n\n    /**\n    @dev verify if the airline is in funded status\n     */\n    modifier requireAirlineFundedStatus(address _address) {\n        require(\n            airlines[_address].status == AirlineStatus.Funded,\n            \"Airline should be in funded status\"\n        );\n        _;\n    }\n\n    /********************************************************************************************/\n    /*                                       UTILITY FUNCTIONS                                  */\n    /********************************************************************************************/\n\n    /**\n     * @dev Get operating status of contract\n     *\n     * @return A bool that is the current operating status\n     */\n    function isOperational() public view returns (bool) {\n        return operational;\n    }\n\n    /**\n     * @dev Sets contract operations on/off\n     *\n     * When operational mode is disabled, all write transactions except for this one will fail\n     */\n    function setOperatingStatus(bool mode) external requireContractOwner {\n        operational = mode;\n    }\n\n    /**\n    Change multi-party consensus parameter\n     */\n    function getMultiPartyConsensusThreshold()\n        public\n        view\n        requireContractOwner\n        returns (uint8)\n    {\n        return multiPartyConsensusThreshold;\n    }\n\n    /**\n    Change multi-party consensus parameter\n     */\n    function setmultiPartyConsensusThreshold(uint8 _consensusCount)\n        external\n        requireContractOwner\n    {\n        require(\n            _consensusCount > 0 && _consensusCount < 10,\n            \"Avoid too large number of consensus\"\n        );\n        multiPartyConsensusThreshold = _consensusCount;\n    }\n\n    /**\n     * @dev sets the authorized callers to this contract\n     *\n     * Calling this function to add authorized callers\n     */\n\n    function authorizeCaller(address _address)\n        external\n        requireIsOperational\n        requireContractOwner\n        requireValidAddress(_address)\n    {\n        authorizedCallers[_address] = true;\n    }\n\n    /**\n     * @dev deny access to a specific caller\n     */\n    function denyCaller(address _address)\n        external\n        requireIsOperational\n        requireContractOwner\n        requireValidAddress(_address)\n    {\n        authorizedCallers[_address] = false;\n    }\n\n    function isAirline(address _address)\n        private\n        view\n        requireContractOwner\n        requireValidAddress(_address)\n        returns (bool)\n    {\n        bytes memory _name = bytes(airlines[_address].name);\n        return _name.length != 0;\n    }\n\n    function getTotalAirlines()\n        external\n        view\n        requireAuthorizedCaller\n        returns (uint8)\n    {\n        return airlineCount;\n    }\n\n    /********************************************************************************************/\n    /*                                     SMART CONTRACT FUNCTIONS                             */\n    /********************************************************************************************/\n\n    /**\n     * @dev Add an airline to the registration queue\n     *      Can only be called from FlightSuretyApp contract\n     *\n     */\n    function registerAirline(address _address, string calldata name)\n        external\n        payable\n        requireIsOperational\n        requireValidAddress(_address)\n        requireAuthorizedCaller\n        returns (bool success, uint8 votes)\n    {\n        airlines[_address].name = name;\n        airlines[_address].funds = 0;\n\n        return (true, 0);\n    }\n\n    /**\n    @notice Airline approval function\n     */\n\n    function approveAirlineRegistration(\n        address _address,\n        address _from,\n        bool _approval\n    )\n        external\n        requireIsOperational\n        requireAuthorizedAirline(_from)\n        requireValidAddress(_address)\n        requireAirlineFundedStatus(_address)\n        requireAuthorizedCaller\n        returns (bool success, uint8 votes)\n    {\n        //if we have more airlines than the threshold, apply multi-party consensus\n        if (airlineCount >= multiPartyConsensusThreshold) {\n            bool isDuplicatedVote = false;\n\n            for (\n                uint8 vote = 0;\n                vote < airlines[_address].votes.length;\n                vote++\n            ) {\n                if (airlines[_address].votes[vote].airline == _from) {\n                    isDuplicatedVote = true;\n                    break;\n                }\n            }\n\n            require(!isDuplicatedVote, \"Caller already vote for this Airline\");\n\n            airlines[_address].votes.push(\n                AirlineApproval({airline: _from, approval: _approval})\n            );\n\n            // if votes are more than 50% of the airlines, define if it is approved or not\n            if (airlines[_address].votes.length >= (airlineCount / 2)) {\n                uint8 approvedVotes = 0;\n                for (\n                    uint8 vote = 0;\n                    vote < airlines[_address].votes.length;\n                    vote++\n                ) {\n                    if (airlines[_address].votes[vote].approval == true)\n                        approvedVotes += 1;\n                }\n\n                if (approvedVotes >= (airlineCount / 2)) {\n                    airlines[_address].status = AirlineStatus.Approved;\n                    airlineCount += 1;\n                } else {\n                    airlines[_address].status = AirlineStatus.Rejected;\n                }\n            }\n        } else {\n            airlines[_address].votes.push(\n                AirlineApproval({airline: _from, approval: _approval})\n            );\n            airlines[_address].status = AirlineStatus.Approved;\n            airlineCount += 1;\n        }\n\n        return (true, uint8(airlines[_address].votes.length));\n    }\n\n    /**\n    @dev return airline info\n     */\n    function getAirline(address _address)\n        external\n        view\n        requireValidAddress(_address)\n        requireAuthorizedCaller\n        returns (\n            string memory name,\n            uint8 status,\n            uint256 funds,\n            uint8 votes\n        )\n    {\n        return (\n            airlines[_address].name,\n            uint8(airlines[_address].status),\n            airlines[_address].funds,\n            uint8(airlines[_address].votes.length)\n        );\n    }\n\n    function registerFlight(\n        string calldata _flight,\n        uint256 _updatedTimestamp,\n        address _airline\n    )\n        external\n        requireValidAddress(_airline)\n        requireAuthorizedAirline(_airline)\n        requireAuthorizedCaller\n        returns (bytes32)\n    {\n        bytes32 flightKey = getFlightKey(_airline, _flight, _updatedTimestamp);\n\n        flights[flightKey].airline = _airline;\n        flights[flightKey].flight = _flight;\n        flights[flightKey].updatedTimestamp = _updatedTimestamp;\n        flights[flightKey].isRegistered = true;\n        flights[flightKey].statusCode = 0;\n\n        return flightKey;\n    }\n\n    function getFlight(bytes32 flightKey)\n        external\n        view\n        requireAuthorizedCaller\n        returns (\n            bytes32,\n            address,\n            string memory,\n            uint256,\n            bool,\n            uint256\n        )\n    {\n        return (\n            flightKey,\n            flights[flightKey].airline,\n            flights[flightKey].flight,\n            flights[flightKey].updatedTimestamp,\n            flights[flightKey].isRegistered,\n            flights[flightKey].statusCode\n        );\n    }\n\n    /**\n     * @dev Buy insurance for a flight\n     *\n     */\n    function buy(bytes32 _flight, address _customer)\n        external\n        payable\n        requireValidAddress(_customer)\n        requireAuthorizedCaller\n        returns (bool)\n    {\n        flights[_flight].customers.push(\n            Customer({customer: _customer, fund: msg.value})\n        );\n\n        customers[_customer].push(\n            CustomerInfo({flight: _flight, fund: msg.value})\n        );\n\n        return (true);\n    }\n\n    function getCustomerInsurances(address _customer)\n        external\n        view\n        requireValidAddress(_customer)\n        requireAuthorizedCaller\n        returns (CustomerInfo[] memory)\n    {\n        return (customers[_customer]);\n    }\n\n    /**\n     *  @dev Credits payouts to insurees\n     */\n    function creditInsurees() external pure {}\n\n    /**\n     *  @dev Transfers eligible payout funds to insuree\n     *\n     */\n    function pay() external pure {}\n\n    /**\n     * @dev Initial funding for the insurance. Unless there are too many delayed flights\n     *      resulting in insurance payouts, the contract should be self-sustaining\n     *\n     */\n    function fund(address _address)\n        external\n        payable\n        requireIsOperational\n        requireValidAddress(_address)\n        requireAuthorizedCaller\n    {\n        require(msg.value >= airlineFund, \"Airline funds not enough\");\n        require(\n            airlines[_address].status == AirlineStatus.Registered,\n            \"Airline should be in registered status in order to receive funds\"\n        );\n\n        airlines[_address].funds = msg.value;\n        airlines[_address].status = AirlineStatus.Funded;\n    }\n\n    function getFlightKey(\n        address airline,\n        string memory flight,\n        uint256 timestamp\n    ) internal pure returns (bytes32) {\n        return keccak256(abi.encodePacked(airline, flight, timestamp));\n    }\n\n    /**\n     * @dev Receive function for funding smart contract.\n     *\n     */\n    // receive() external payable {\n    //     fund();\n    // }\n}\n",
  "sourcePath": "/home/rafamessias/Documents/udacity/Ethereum/flight-surety/truffle/contracts/FlightSuretyData.sol",
  "compiler": {
    "name": "solc",
    "version": "0.8.14+commit.80d49f37.Emscripten.clang"
  },
  "schemaVersion": "3.4.8",
  "updatedAt": "2022-09-12T01:11:54.443Z",
  "networkType": "ethereum",
  "devdoc": {
    "kind": "dev",
    "methods": {
      "authorizeCaller(address)": {
        "details": "sets the authorized callers to this contract Calling this function to add authorized callers"
      },
      "buy(bytes32,address)": {
        "details": "Buy insurance for a flight"
      },
      "constructor": {
        "details": "Constructor      The deploying account becomes contractOwner"
      },
      "creditInsurees()": {
        "details": "Credits payouts to insurees"
      },
      "denyCaller(address)": {
        "details": "deny access to a specific caller"
      },
      "fund(address)": {
        "details": "Initial funding for the insurance. Unless there are too many delayed flights      resulting in insurance payouts, the contract should be self-sustaining"
      },
      "getAirline(address)": {
        "details": "return airline info"
      },
      "isOperational()": {
        "details": "Get operating status of contract",
        "returns": {
          "_0": "A bool that is the current operating status"
        }
      },
      "pay()": {
        "details": "Transfers eligible payout funds to insuree"
      },
      "registerAirline(address,string)": {
        "details": "Add an airline to the registration queue      Can only be called from FlightSuretyApp contract"
      },
      "setOperatingStatus(bool)": {
        "details": "Sets contract operations on/off When operational mode is disabled, all write transactions except for this one will fail"
      }
    },
    "version": 1
  },
  "userdoc": {
    "kind": "user",
    "methods": {
      "approveAirlineRegistration(address,address,bool)": {
        "notice": "Airline approval function"
      },
      "getMultiPartyConsensusThreshold()": {
        "notice": "Change multi-party consensus parameter"
      },
      "setmultiPartyConsensusThreshold(uint8)": {
        "notice": "Change multi-party consensus parameter"
      }
    },
    "version": 1
  }
}