{
  "contractName": "FlightSuretyData",
  "abi": [
    {
      "inputs": [],
      "stateMutability": "nonpayable",
      "type": "constructor"
    },
    {
      "inputs": [],
      "name": "isOperational",
      "outputs": [
        {
          "internalType": "bool",
          "name": "",
          "type": "bool"
        }
      ],
      "stateMutability": "view",
      "type": "function"
    },
    {
      "inputs": [
        {
          "internalType": "bool",
          "name": "mode",
          "type": "bool"
        }
      ],
      "name": "setOperatingStatus",
      "outputs": [],
      "stateMutability": "nonpayable",
      "type": "function"
    },
    {
      "inputs": [],
      "name": "getMultiPartyConsensusThreshold",
      "outputs": [
        {
          "internalType": "uint8",
          "name": "",
          "type": "uint8"
        }
      ],
      "stateMutability": "view",
      "type": "function"
    },
    {
      "inputs": [
        {
          "internalType": "uint8",
          "name": "_consensusCount",
          "type": "uint8"
        }
      ],
      "name": "setmultiPartyConsensusThreshold",
      "outputs": [],
      "stateMutability": "nonpayable",
      "type": "function"
    },
    {
      "inputs": [
        {
          "internalType": "address",
          "name": "_address",
          "type": "address"
        }
      ],
      "name": "authorizeCaller",
      "outputs": [],
      "stateMutability": "nonpayable",
      "type": "function"
    },
    {
      "inputs": [
        {
          "internalType": "address",
          "name": "_address",
          "type": "address"
        }
      ],
      "name": "denyCaller",
      "outputs": [],
      "stateMutability": "nonpayable",
      "type": "function"
    },
    {
      "inputs": [],
      "name": "getTotalAirlines",
      "outputs": [
        {
          "internalType": "uint8",
          "name": "",
          "type": "uint8"
        }
      ],
      "stateMutability": "view",
      "type": "function"
    },
    {
      "inputs": [
        {
          "internalType": "address",
          "name": "_address",
          "type": "address"
        },
        {
          "internalType": "string",
          "name": "name",
          "type": "string"
        }
      ],
      "name": "registerAirline",
      "outputs": [
        {
          "internalType": "bool",
          "name": "success",
          "type": "bool"
        },
        {
          "internalType": "uint8",
          "name": "votes",
          "type": "uint8"
        }
      ],
      "stateMutability": "nonpayable",
      "type": "function"
    },
    {
      "inputs": [
        {
          "internalType": "address",
          "name": "_address",
          "type": "address"
        },
        {
          "internalType": "address",
          "name": "_from",
          "type": "address"
        },
        {
          "internalType": "bool",
          "name": "_approval",
          "type": "bool"
        }
      ],
      "name": "approveAirlineRegistration",
      "outputs": [
        {
          "internalType": "bool",
          "name": "success",
          "type": "bool"
        },
        {
          "internalType": "uint8",
          "name": "votes",
          "type": "uint8"
        }
      ],
      "stateMutability": "nonpayable",
      "type": "function"
    },
    {
      "inputs": [
        {
          "internalType": "address",
          "name": "_address",
          "type": "address"
        }
      ],
      "name": "getAirline",
      "outputs": [
        {
          "internalType": "string",
          "name": "name",
          "type": "string"
        },
        {
          "internalType": "uint8",
          "name": "status",
          "type": "uint8"
        },
        {
          "internalType": "uint256",
          "name": "funds",
          "type": "uint256"
        },
        {
          "internalType": "uint8",
          "name": "votes",
          "type": "uint8"
        }
      ],
      "stateMutability": "view",
      "type": "function"
    },
    {
      "inputs": [
        {
          "internalType": "string",
          "name": "_flight",
          "type": "string"
        },
        {
          "internalType": "uint256",
          "name": "_updatedTimestamp",
          "type": "uint256"
        },
        {
          "internalType": "address",
          "name": "_airline",
          "type": "address"
        }
      ],
      "name": "registerFlight",
      "outputs": [
        {
          "internalType": "bytes32",
          "name": "",
          "type": "bytes32"
        }
      ],
      "stateMutability": "nonpayable",
      "type": "function"
    },
    {
      "inputs": [
        {
          "internalType": "bytes32",
          "name": "flightKey",
          "type": "bytes32"
        }
      ],
      "name": "getFlight",
      "outputs": [
        {
          "internalType": "bytes32",
          "name": "",
          "type": "bytes32"
        },
        {
          "internalType": "address",
          "name": "",
          "type": "address"
        },
        {
          "internalType": "string",
          "name": "",
          "type": "string"
        },
        {
          "internalType": "uint256",
          "name": "",
          "type": "uint256"
        },
        {
          "internalType": "bool",
          "name": "",
          "type": "bool"
        },
        {
          "internalType": "uint256",
          "name": "",
          "type": "uint256"
        }
      ],
      "stateMutability": "view",
      "type": "function"
    },
    {
      "inputs": [
        {
          "internalType": "bytes32",
          "name": "_flight",
          "type": "bytes32"
        },
        {
          "internalType": "address",
          "name": "_customer",
          "type": "address"
        }
      ],
      "name": "buy",
      "outputs": [
        {
          "internalType": "bool",
          "name": "",
          "type": "bool"
        }
      ],
      "stateMutability": "payable",
      "type": "function"
    },
    {
      "inputs": [
        {
          "internalType": "address",
          "name": "_customer",
          "type": "address"
        }
      ],
      "name": "getCustomerInsurances",
      "outputs": [
        {
          "components": [
            {
              "internalType": "uint256",
              "name": "fund",
              "type": "uint256"
            },
            {
              "internalType": "bytes32",
              "name": "flight",
              "type": "bytes32"
            }
          ],
          "internalType": "struct FlightSuretyData.CustomerInfo[]",
          "name": "",
          "type": "tuple[]"
        }
      ],
      "stateMutability": "view",
      "type": "function"
    },
    {
      "inputs": [
        {
          "internalType": "address",
          "name": "airline",
          "type": "address"
        },
        {
          "internalType": "string",
          "name": "flight",
          "type": "string"
        },
        {
          "internalType": "uint256",
          "name": "timestamp",
          "type": "uint256"
        },
        {
          "internalType": "uint8",
          "name": "statusCode",
          "type": "uint8"
        }
      ],
      "name": "processFlightStatus",
      "outputs": [],
      "stateMutability": "nonpayable",
      "type": "function"
    },
    {
      "inputs": [],
      "name": "creditInsurees",
      "outputs": [],
      "stateMutability": "pure",
      "type": "function"
    },
    {
      "inputs": [],
      "name": "pay",
      "outputs": [],
      "stateMutability": "pure",
      "type": "function"
    },
    {
      "inputs": [
        {
          "internalType": "address",
          "name": "_address",
          "type": "address"
        }
      ],
      "name": "fund",
      "outputs": [],
      "stateMutability": "payable",
      "type": "function"
    }
  ],
  "bytecode": "0x60806040526001600060146101000a81548160ff02191690831515021790555064e8d4a510006001556000600460006101000a81548160ff021916908360ff16021790555060048060016101000a81548160ff021916908360ff16021790555034801561006b57600080fd5b50336000806101000a81548173ffffffffffffffffffffffffffffffffffffffff021916908373ffffffffffffffffffffffffffffffffffffffff160217905550613852806100bb6000396000f3fe6080604052600436106101095760003560e01c8063aad451b211610095578063d53a57b511610064578063d53a57b514610353578063dcf840551461037e578063e1de0489146103a7578063e7bdde3b146103e7578063ee38a7491461041057610109565b8063aad451b21461028b578063c049604a146102b6578063cac8f292146102e6578063cd905dff1461032857610109565b80632c388d5d116100dc5780632c388d5d146101a757806336cee484146101d057806339a32061146101e75780633e2e41171461021057806365c152f71461024e57610109565b8063071a71a11461010e578063110466ed1461014b5780631b9265b814610174578063230244081461018b575b600080fd5b34801561011a57600080fd5b50610135600480360381019061013091906128a8565b61044e565b60405161014291906129e5565b60405180910390f35b34801561015757600080fd5b50610172600480360381019061016d9190612a3f565b610604565b005b34801561018057600080fd5b506101896106af565b005b6101a560048036038101906101a091906128a8565b6106b1565b005b3480156101b357600080fd5b506101ce60048036038101906101c991906128a8565b6109b4565b005b3480156101dc57600080fd5b506101e5610b5d565b005b3480156101f357600080fd5b5061020e60048036038101906102099190612aa5565b610b5f565b005b34801561021c57600080fd5b5061023760048036038101906102329190612ad2565b610c60565b604051610245929190612b43565b60405180910390f35b34801561025a57600080fd5b5061027560048036038101906102709190612bfd565b6116a2565b6040516102829190612c80565b60405180910390f35b34801561029757600080fd5b506102a0611a0a565b6040516102ad9190612c9b565b60405180910390f35b6102d060048036038101906102cb9190612ce2565b611ab0565b6040516102dd9190612d22565b60405180910390f35b3480156102f257600080fd5b5061030d60048036038101906103089190612d3d565b611d10565b60405161031f96959493929190612e21565b60405180910390f35b34801561033457600080fd5b5061033d611f01565b60405161034a9190612d22565b60405180910390f35b34801561035f57600080fd5b50610368611f17565b6040516103759190612c9b565b60405180910390f35b34801561038a57600080fd5b506103a560048036038101906103a091906128a8565b611fc1565b005b3480156103b357600080fd5b506103ce60048036038101906103c991906128a8565b61216a565b6040516103de9493929190612e89565b60405180910390f35b3480156103f357600080fd5b5061040e60048036038101906104099190612ed5565b61243d565b005b34801561041c57600080fd5b5061043760048036038101906104329190612f5d565b612567565b604051610445929190612b43565b60405180910390f35b606081600073ffffffffffffffffffffffffffffffffffffffff168173ffffffffffffffffffffffffffffffffffffffff16036104c0576040517f08c379a00000000000000000000000000000000000000000000000000000000081526004016104b790613009565b60405180910390fd5b60011515600260003373ffffffffffffffffffffffffffffffffffffffff1673ffffffffffffffffffffffffffffffffffffffff16815260200190815260200160002060009054906101000a900460ff16151514610553576040517f08c379a000000000000000000000000000000000000000000000000000000000815260040161054a9061309b565b60405180910390fd5b600660008473ffffffffffffffffffffffffffffffffffffffff1673ffffffffffffffffffffffffffffffffffffffff168152602001908152602001600020805480602002602001604051908101604052809291908181526020016000905b828210156105f8578382906000526020600020906002020160405180604001604052908160008201548152602001600182015481525050815260200190600101906105b2565b50505050915050919050565b60008054906101000a900473ffffffffffffffffffffffffffffffffffffffff1673ffffffffffffffffffffffffffffffffffffffff163373ffffffffffffffffffffffffffffffffffffffff1614610692576040517f08c379a00000000000000000000000000000000000000000000000000000000081526004016106899061312d565b60405180910390fd5b80600060146101000a81548160ff02191690831515021790555050565b565b600060149054906101000a900460ff16610700576040517f08c379a00000000000000000000000000000000000000000000000000000000081526004016106f7906131bf565b60405180910390fd5b80600073ffffffffffffffffffffffffffffffffffffffff168173ffffffffffffffffffffffffffffffffffffffff1603610770576040517f08c379a000000000000000000000000000000000000000000000000000000000815260040161076790613009565b60405180910390fd5b60011515600260003373ffffffffffffffffffffffffffffffffffffffff1673ffffffffffffffffffffffffffffffffffffffff16815260200190815260200160002060009054906101000a900460ff16151514610803576040517f08c379a00000000000000000000000000000000000000000000000000000000081526004016107fa9061309b565b60405180910390fd5b600154341015610848576040517f08c379a000000000000000000000000000000000000000000000000000000000815260040161083f9061322b565b60405180910390fd5b6000600381111561085c5761085b61324b565b5b600360008473ffffffffffffffffffffffffffffffffffffffff1673ffffffffffffffffffffffffffffffffffffffff16815260200190815260200160002060010160009054906101000a900460ff1660038111156108be576108bd61324b565b5b146108fe576040517f08c379a00000000000000000000000000000000000000000000000000000000081526004016108f5906132ec565b60405180910390fd5b34600360008473ffffffffffffffffffffffffffffffffffffffff1673ffffffffffffffffffffffffffffffffffffffff168152602001908152602001600020600201819055506001600360008473ffffffffffffffffffffffffffffffffffffffff1673ffffffffffffffffffffffffffffffffffffffff16815260200190815260200160002060010160006101000a81548160ff021916908360038111156109ab576109aa61324b565b5b02179055505050565b600060149054906101000a900460ff16610a03576040517f08c379a00000000000000000000000000000000000000000000000000000000081526004016109fa906131bf565b60405180910390fd5b60008054906101000a900473ffffffffffffffffffffffffffffffffffffffff1673ffffffffffffffffffffffffffffffffffffffff163373ffffffffffffffffffffffffffffffffffffffff1614610a91576040517f08c379a0000000000000000000000000000000000000000000000000000000008152600401610a889061312d565b60405180910390fd5b80600073ffffffffffffffffffffffffffffffffffffffff168173ffffffffffffffffffffffffffffffffffffffff1603610b01576040517f08c379a0000000000000000000000000000000000000000000000000000000008152600401610af890613009565b60405180910390fd5b6001600260008473ffffffffffffffffffffffffffffffffffffffff1673ffffffffffffffffffffffffffffffffffffffff16815260200190815260200160002060006101000a81548160ff0219169083151502179055505050565b565b60008054906101000a900473ffffffffffffffffffffffffffffffffffffffff1673ffffffffffffffffffffffffffffffffffffffff163373ffffffffffffffffffffffffffffffffffffffff1614610bed576040517f08c379a0000000000000000000000000000000000000000000000000000000008152600401610be49061312d565b60405180910390fd5b60008160ff16118015610c035750600a8160ff16105b610c42576040517f08c379a0000000000000000000000000000000000000000000000000000000008152600401610c399061337e565b60405180910390fd5b80600460016101000a81548160ff021916908360ff16021790555050565b600080600060149054906101000a900460ff16610cb2576040517f08c379a0000000000000000000000000000000000000000000000000000000008152600401610ca9906131bf565b60405180910390fd5b8360026003811115610cc757610cc661324b565b5b600360008373ffffffffffffffffffffffffffffffffffffffff1673ffffffffffffffffffffffffffffffffffffffff16815260200190815260200160002060010160009054906101000a900460ff166003811115610d2957610d2861324b565b5b1480610d80575060008054906101000a900473ffffffffffffffffffffffffffffffffffffffff1673ffffffffffffffffffffffffffffffffffffffff168173ffffffffffffffffffffffffffffffffffffffff16145b610dbf576040517f08c379a0000000000000000000000000000000000000000000000000000000008152600401610db690613410565b60405180910390fd5b85600073ffffffffffffffffffffffffffffffffffffffff168173ffffffffffffffffffffffffffffffffffffffff1603610e2f576040517f08c379a0000000000000000000000000000000000000000000000000000000008152600401610e2690613009565b60405180910390fd5b8660016003811115610e4457610e4361324b565b5b600360008373ffffffffffffffffffffffffffffffffffffffff1673ffffffffffffffffffffffffffffffffffffffff16815260200190815260200160002060010160009054906101000a900460ff166003811115610ea657610ea561324b565b5b14610ee6576040517f08c379a0000000000000000000000000000000000000000000000000000000008152600401610edd906134a2565b60405180910390fd5b60011515600260003373ffffffffffffffffffffffffffffffffffffffff1673ffffffffffffffffffffffffffffffffffffffff16815260200190815260200160002060009054906101000a900460ff16151514610f79576040517f08c379a0000000000000000000000000000000000000000000000000000000008152600401610f709061309b565b60405180910390fd5b600460019054906101000a900460ff1660ff16600460009054906101000a900460ff1660ff16106114ab576000805b600360008b73ffffffffffffffffffffffffffffffffffffffff1673ffffffffffffffffffffffffffffffffffffffff168152602001908152602001600020600301805490508160ff1610156110cb578873ffffffffffffffffffffffffffffffffffffffff16600360008c73ffffffffffffffffffffffffffffffffffffffff1673ffffffffffffffffffffffffffffffffffffffff1681526020019081526020016000206003018260ff1681548110611066576110656134c2565b5b9060005260206000200160000160009054906101000a900473ffffffffffffffffffffffffffffffffffffffff1673ffffffffffffffffffffffffffffffffffffffff16036110b857600191506110cb565b80806110c390613520565b915050610fa8565b50801561110d576040517f08c379a0000000000000000000000000000000000000000000000000000000008152600401611104906135bb565b60405180910390fd5b600360008a73ffffffffffffffffffffffffffffffffffffffff1673ffffffffffffffffffffffffffffffffffffffff16815260200190815260200160002060030160405180604001604052808a73ffffffffffffffffffffffffffffffffffffffff1681526020018915158152509080600181540180825580915050600190039060005260206000200160009091909190915060008201518160000160006101000a81548173ffffffffffffffffffffffffffffffffffffffff021916908373ffffffffffffffffffffffffffffffffffffffff16021790555060208201518160000160146101000a81548160ff02191690831515021790555050506002600460009054906101000a900460ff16611226919061360a565b60ff16600360008b73ffffffffffffffffffffffffffffffffffffffff1673ffffffffffffffffffffffffffffffffffffffff16815260200190815260200160002060030180549050106114a5576000805b600360008c73ffffffffffffffffffffffffffffffffffffffff1673ffffffffffffffffffffffffffffffffffffffff168152602001908152602001600020600301805490508160ff1610156113685760011515600360008d73ffffffffffffffffffffffffffffffffffffffff1673ffffffffffffffffffffffffffffffffffffffff1681526020019081526020016000206003018260ff1681548110611323576113226134c2565b5b9060005260206000200160000160149054906101000a900460ff1615150361135557600182611352919061363b565b91505b808061136090613520565b915050611278565b506002600460009054906101000a900460ff16611385919061360a565b60ff168160ff1610611438576002600360008c73ffffffffffffffffffffffffffffffffffffffff1673ffffffffffffffffffffffffffffffffffffffff16815260200190815260200160002060010160006101000a81548160ff021916908360038111156113f7576113f661324b565b5b02179055506001600460008282829054906101000a900460ff1661141b919061363b565b92506101000a81548160ff021916908360ff1602179055506114a3565b60038060008c73ffffffffffffffffffffffffffffffffffffffff1673ffffffffffffffffffffffffffffffffffffffff16815260200190815260200160002060010160006101000a81548160ff0219169083600381111561149d5761149c61324b565b5b02179055505b505b5061164b565b600360008973ffffffffffffffffffffffffffffffffffffffff1673ffffffffffffffffffffffffffffffffffffffff16815260200190815260200160002060030160405180604001604052808973ffffffffffffffffffffffffffffffffffffffff1681526020018815158152509080600181540180825580915050600190039060005260206000200160009091909190915060008201518160000160006101000a81548173ffffffffffffffffffffffffffffffffffffffff021916908373ffffffffffffffffffffffffffffffffffffffff16021790555060208201518160000160146101000a81548160ff02191690831515021790555050506002600360008a73ffffffffffffffffffffffffffffffffffffffff1673ffffffffffffffffffffffffffffffffffffffff16815260200190815260200160002060010160006101000a81548160ff0219169083600381111561160e5761160d61324b565b5b02179055506001600460008282829054906101000a900460ff16611632919061363b565b92506101000a81548160ff021916908360ff1602179055505b6001600360008a73ffffffffffffffffffffffffffffffffffffffff1673ffffffffffffffffffffffffffffffffffffffff1681526020019081526020016000206003018054905094509450505050935093915050565b600081600073ffffffffffffffffffffffffffffffffffffffff168173ffffffffffffffffffffffffffffffffffffffff1603611714576040517f08c379a000000000000000000000000000000000000000000000000000000000815260040161170b90613009565b60405180910390fd5b82600260038111156117295761172861324b565b5b600360008373ffffffffffffffffffffffffffffffffffffffff1673ffffffffffffffffffffffffffffffffffffffff16815260200190815260200160002060010160009054906101000a900460ff16600381111561178b5761178a61324b565b5b14806117e2575060008054906101000a900473ffffffffffffffffffffffffffffffffffffffff1673ffffffffffffffffffffffffffffffffffffffff168173ffffffffffffffffffffffffffffffffffffffff16145b611821576040517f08c379a000000000000000000000000000000000000000000000000000000000815260040161181890613410565b60405180910390fd5b60011515600260003373ffffffffffffffffffffffffffffffffffffffff1673ffffffffffffffffffffffffffffffffffffffff16815260200190815260200160002060009054906101000a900460ff161515146118b4576040517f08c379a00000000000000000000000000000000000000000000000000000000081526004016118ab9061309b565b60405180910390fd5b60006119058589898080601f016020809104026020016040519081016040528093929190818152602001838380828437600081840152601f19601f8201169050808301925050505050505088612767565b9050846005600083815260200190815260200160002060020160006101000a81548173ffffffffffffffffffffffffffffffffffffffff021916908373ffffffffffffffffffffffffffffffffffffffff160217905550878760056000848152602001908152602001600020600301919061198192919061279d565b5085600560008381526020019081526020016000206001018190555060016005600083815260200190815260200160002060000160006101000a81548160ff02191690831515021790555060006005600083815260200190815260200160002060000160016101000a81548160ff021916908360ff160217905550809350505050949350505050565b60008060009054906101000a900473ffffffffffffffffffffffffffffffffffffffff1673ffffffffffffffffffffffffffffffffffffffff163373ffffffffffffffffffffffffffffffffffffffff1614611a9b576040517f08c379a0000000000000000000000000000000000000000000000000000000008152600401611a929061312d565b60405180910390fd5b600460019054906101000a900460ff16905090565b600081600073ffffffffffffffffffffffffffffffffffffffff168173ffffffffffffffffffffffffffffffffffffffff1603611b22576040517f08c379a0000000000000000000000000000000000000000000000000000000008152600401611b1990613009565b60405180910390fd5b60011515600260003373ffffffffffffffffffffffffffffffffffffffff1673ffffffffffffffffffffffffffffffffffffffff16815260200190815260200160002060009054906101000a900460ff16151514611bb5576040517f08c379a0000000000000000000000000000000000000000000000000000000008152600401611bac9061309b565b60405180910390fd5b6005600085815260200190815260200160002060040160405180604001604052808573ffffffffffffffffffffffffffffffffffffffff16815260200134815250908060018154018082558091505060019003906000526020600020906002020160009091909190915060008201518160000160006101000a81548173ffffffffffffffffffffffffffffffffffffffff021916908373ffffffffffffffffffffffffffffffffffffffff160217905550602082015181600101555050600660008473ffffffffffffffffffffffffffffffffffffffff1673ffffffffffffffffffffffffffffffffffffffff168152602001908152602001600020604051806040016040528034815260200186815250908060018154018082558091505060019003906000526020600020906002020160009091909190915060008201518160000155602082015181600101555050600191505092915050565b6000806060600080600060011515600260003373ffffffffffffffffffffffffffffffffffffffff1673ffffffffffffffffffffffffffffffffffffffff16815260200190815260200160002060009054906101000a900460ff16151514611dad576040517f08c379a0000000000000000000000000000000000000000000000000000000008152600401611da49061309b565b60405180910390fd5b866005600089815260200190815260200160002060020160009054906101000a900473ffffffffffffffffffffffffffffffffffffffff16600560008a8152602001908152602001600020600301600560008b815260200190815260200160002060010154600560008c815260200190815260200160002060000160009054906101000a900460ff16600560008d815260200190815260200160002060000160019054906101000a900460ff16838054611e66906136a1565b80601f0160208091040260200160405190810160405280929190818152602001828054611e92906136a1565b8015611edf5780601f10611eb457610100808354040283529160200191611edf565b820191906000526020600020905b815481529060010190602001808311611ec257829003601f168201915b505050505093508060ff16905095509550955095509550955091939550919395565b60008060149054906101000a900460ff16905090565b600060011515600260003373ffffffffffffffffffffffffffffffffffffffff1673ffffffffffffffffffffffffffffffffffffffff16815260200190815260200160002060009054906101000a900460ff16151514611fac576040517f08c379a0000000000000000000000000000000000000000000000000000000008152600401611fa39061309b565b60405180910390fd5b600460009054906101000a900460ff16905090565b600060149054906101000a900460ff16612010576040517f08c379a0000000000000000000000000000000000000000000000000000000008152600401612007906131bf565b60405180910390fd5b60008054906101000a900473ffffffffffffffffffffffffffffffffffffffff1673ffffffffffffffffffffffffffffffffffffffff163373ffffffffffffffffffffffffffffffffffffffff161461209e576040517f08c379a00000000000000000000000000000000000000000000000000000000081526004016120959061312d565b60405180910390fd5b80600073ffffffffffffffffffffffffffffffffffffffff168173ffffffffffffffffffffffffffffffffffffffff160361210e576040517f08c379a000000000000000000000000000000000000000000000000000000000815260040161210590613009565b60405180910390fd5b6000600260008473ffffffffffffffffffffffffffffffffffffffff1673ffffffffffffffffffffffffffffffffffffffff16815260200190815260200160002060006101000a81548160ff0219169083151502179055505050565b6060600080600084600073ffffffffffffffffffffffffffffffffffffffff168173ffffffffffffffffffffffffffffffffffffffff16036121e1576040517f08c379a00000000000000000000000000000000000000000000000000000000081526004016121d890613009565b60405180910390fd5b60011515600260003373ffffffffffffffffffffffffffffffffffffffff1673ffffffffffffffffffffffffffffffffffffffff16815260200190815260200160002060009054906101000a900460ff16151514612274576040517f08c379a000000000000000000000000000000000000000000000000000000000815260040161226b9061309b565b60405180910390fd5b600360008773ffffffffffffffffffffffffffffffffffffffff1673ffffffffffffffffffffffffffffffffffffffff168152602001908152602001600020600001600360008873ffffffffffffffffffffffffffffffffffffffff1673ffffffffffffffffffffffffffffffffffffffff16815260200190815260200160002060010160009054906101000a900460ff1660038111156123185761231761324b565b5b600360008973ffffffffffffffffffffffffffffffffffffffff1673ffffffffffffffffffffffffffffffffffffffff16815260200190815260200160002060020154600360008a73ffffffffffffffffffffffffffffffffffffffff1673ffffffffffffffffffffffffffffffffffffffff168152602001908152602001600020600301805490508380546123ad906136a1565b80601f01602080910402602001604051908101604052809291908181526020018280546123d9906136a1565b80156124265780601f106123fb57610100808354040283529160200191612426565b820191906000526020600020905b81548152906001019060200180831161240957829003601f168201915b505050505093509450945094509450509193509193565b80600060ff168160ff1614806124595750600a60ff168160ff16145b8061246a5750601460ff168160ff16145b8061247b5750601e60ff168160ff16145b8061248c5750602860ff168160ff16145b8061249d5750603260ff168160ff16145b6124dc576040517f08c379a00000000000000000000000000000000000000000000000000000000081526004016124d39061371e565b60405180910390fd5b600061252d8787878080601f016020809104026020016040519081016040528093929190818152602001838380828437600081840152601f19601f8201169050808301925050505050505086612767565b9050826005600083815260200190815260200160002060000160016101000a81548160ff021916908360ff16021790555050505050505050565b600080600060149054906101000a900460ff166125b9576040517f08c379a00000000000000000000000000000000000000000000000000000000081526004016125b0906131bf565b60405180910390fd5b84600073ffffffffffffffffffffffffffffffffffffffff168173ffffffffffffffffffffffffffffffffffffffff1603612629576040517f08c379a000000000000000000000000000000000000000000000000000000000815260040161262090613009565b60405180910390fd5b60011515600260003373ffffffffffffffffffffffffffffffffffffffff1673ffffffffffffffffffffffffffffffffffffffff16815260200190815260200160002060009054906101000a900460ff161515146126bc576040517f08c379a00000000000000000000000000000000000000000000000000000000081526004016126b39061309b565b60405180910390fd5b8484600360008973ffffffffffffffffffffffffffffffffffffffff1673ffffffffffffffffffffffffffffffffffffffff168152602001908152602001600020600001919061270d92919061279d565b506000600360008873ffffffffffffffffffffffffffffffffffffffff1673ffffffffffffffffffffffffffffffffffffffff16815260200190815260200160002060020181905550600160009250925050935093915050565b600083838360405160200161277e939291906137e3565b6040516020818303038152906040528051906020012090509392505050565b8280546127a9906136a1565b90600052602060002090601f0160209004810192826127cb5760008555612812565b82601f106127e457803560ff1916838001178555612812565b82800160010185558215612812579182015b828111156128115782358255916020019190600101906127f6565b5b50905061281f9190612823565b5090565b5b8082111561283c576000816000905550600101612824565b5090565b600080fd5b600080fd5b600073ffffffffffffffffffffffffffffffffffffffff82169050919050565b60006128758261284a565b9050919050565b6128858161286a565b811461289057600080fd5b50565b6000813590506128a28161287c565b92915050565b6000602082840312156128be576128bd612840565b5b60006128cc84828501612893565b91505092915050565b600081519050919050565b600082825260208201905092915050565b6000819050602082019050919050565b6000819050919050565b61291481612901565b82525050565b6000819050919050565b61292d8161291a565b82525050565b604082016000820151612949600085018261290b565b50602082015161295c6020850182612924565b50505050565b600061296e8383612933565b60408301905092915050565b6000602082019050919050565b6000612992826128d5565b61299c81856128e0565b93506129a7836128f1565b8060005b838110156129d85781516129bf8882612962565b97506129ca8361297a565b9250506001810190506129ab565b5085935050505092915050565b600060208201905081810360008301526129ff8184612987565b905092915050565b60008115159050919050565b612a1c81612a07565b8114612a2757600080fd5b50565b600081359050612a3981612a13565b92915050565b600060208284031215612a5557612a54612840565b5b6000612a6384828501612a2a565b91505092915050565b600060ff82169050919050565b612a8281612a6c565b8114612a8d57600080fd5b50565b600081359050612a9f81612a79565b92915050565b600060208284031215612abb57612aba612840565b5b6000612ac984828501612a90565b91505092915050565b600080600060608486031215612aeb57612aea612840565b5b6000612af986828701612893565b9350506020612b0a86828701612893565b9250506040612b1b86828701612a2a565b9150509250925092565b612b2e81612a07565b82525050565b612b3d81612a6c565b82525050565b6000604082019050612b586000830185612b25565b612b656020830184612b34565b9392505050565b600080fd5b600080fd5b600080fd5b60008083601f840112612b9157612b90612b6c565b5b8235905067ffffffffffffffff811115612bae57612bad612b71565b5b602083019150836001820283011115612bca57612bc9612b76565b5b9250929050565b612bda81612901565b8114612be557600080fd5b50565b600081359050612bf781612bd1565b92915050565b60008060008060608587031215612c1757612c16612840565b5b600085013567ffffffffffffffff811115612c3557612c34612845565b5b612c4187828801612b7b565b94509450506020612c5487828801612be8565b9250506040612c6587828801612893565b91505092959194509250565b612c7a8161291a565b82525050565b6000602082019050612c956000830184612c71565b92915050565b6000602082019050612cb06000830184612b34565b92915050565b612cbf8161291a565b8114612cca57600080fd5b50565b600081359050612cdc81612cb6565b92915050565b60008060408385031215612cf957612cf8612840565b5b6000612d0785828601612ccd565b9250506020612d1885828601612893565b9150509250929050565b6000602082019050612d376000830184612b25565b92915050565b600060208284031215612d5357612d52612840565b5b6000612d6184828501612ccd565b91505092915050565b612d738161286a565b82525050565b600081519050919050565b600082825260208201905092915050565b60005b83811015612db3578082015181840152602081019050612d98565b83811115612dc2576000848401525b50505050565b6000601f19601f8301169050919050565b6000612de482612d79565b612dee8185612d84565b9350612dfe818560208601612d95565b612e0781612dc8565b840191505092915050565b612e1b81612901565b82525050565b600060c082019050612e366000830189612c71565b612e436020830188612d6a565b8181036040830152612e558187612dd9565b9050612e646060830186612e12565b612e716080830185612b25565b612e7e60a0830184612e12565b979650505050505050565b60006080820190508181036000830152612ea38187612dd9565b9050612eb26020830186612b34565b612ebf6040830185612e12565b612ecc6060830184612b34565b95945050505050565b600080600080600060808688031215612ef157612ef0612840565b5b6000612eff88828901612893565b955050602086013567ffffffffffffffff811115612f2057612f1f612845565b5b612f2c88828901612b7b565b94509450506040612f3f88828901612be8565b9250506060612f5088828901612a90565b9150509295509295909350565b600080600060408486031215612f7657612f75612840565b5b6000612f8486828701612893565b935050602084013567ffffffffffffffff811115612fa557612fa4612845565b5b612fb186828701612b7b565b92509250509250925092565b7f416464726573732073686f756c6420626520612076616c6964206f6e65000000600082015250565b6000612ff3601d83612d84565b9150612ffe82612fbd565b602082019050919050565b6000602082019050818103600083015261302281612fe6565b9050919050565b7f4f6e6c7920417574686f72697a65642063616c6c6572732063616e20646f207460008201527f68697320616374696f6e00000000000000000000000000000000000000000000602082015250565b6000613085602a83612d84565b915061309082613029565b604082019050919050565b600060208201905081810360008301526130b481613078565b9050919050565b7f43616c6c6572206973206e6f7420636f6e7472616374206f776e6572202d204460008201527f4154410000000000000000000000000000000000000000000000000000000000602082015250565b6000613117602383612d84565b9150613122826130bb565b604082019050919050565b600060208201905081810360008301526131468161310a565b9050919050565b7f436f6e74726163742069732063757272656e746c79206e6f74206f706572617460008201527f696f6e616c000000000000000000000000000000000000000000000000000000602082015250565b60006131a9602583612d84565b91506131b48261314d565b604082019050919050565b600060208201905081810360008301526131d88161319c565b9050919050565b7f4169726c696e652066756e6473206e6f7420656e6f7567680000000000000000600082015250565b6000613215601883612d84565b9150613220826131df565b602082019050919050565b6000602082019050818103600083015261324481613208565b9050919050565b7f4e487b7100000000000000000000000000000000000000000000000000000000600052602160045260246000fd5b7f4169726c696e652073686f756c6420626520696e20726567697374657265642060008201527f73746174757320696e206f7264657220746f20726563656976652066756e6473602082015250565b60006132d6604083612d84565b91506132e18261327a565b604082019050919050565b60006020820190508181036000830152613305816132c9565b9050919050565b7f41766f696420746f6f206c61726765206e756d626572206f6620636f6e73656e60008201527f7375730000000000000000000000000000000000000000000000000000000000602082015250565b6000613368602383612d84565b91506133738261330c565b604082019050919050565b600060208201905081810360008301526133978161335b565b9050919050565b7f4f6e6c7920617574686f72697a6564206169726c696e652063616e207065726660008201527f6f726d207468697320616374696f6e0000000000000000000000000000000000602082015250565b60006133fa602f83612d84565b91506134058261339e565b604082019050919050565b60006020820190508181036000830152613429816133ed565b9050919050565b7f4169726c696e652073686f756c6420626520696e2066756e646564207374617460008201527f7573000000000000000000000000000000000000000000000000000000000000602082015250565b600061348c602283612d84565b915061349782613430565b604082019050919050565b600060208201905081810360008301526134bb8161347f565b9050919050565b7f4e487b7100000000000000000000000000000000000000000000000000000000600052603260045260246000fd5b7f4e487b7100000000000000000000000000000000000000000000000000000000600052601160045260246000fd5b600061352b82612a6c565b915060ff820361353e5761353d6134f1565b5b600182019050919050565b7f43616c6c657220616c726561647920766f746520666f7220746869732041697260008201527f6c696e6500000000000000000000000000000000000000000000000000000000602082015250565b60006135a5602483612d84565b91506135b082613549565b604082019050919050565b600060208201905081810360008301526135d481613598565b9050919050565b7f4e487b7100000000000000000000000000000000000000000000000000000000600052601260045260246000fd5b600061361582612a6c565b915061362083612a6c565b9250826136305761362f6135db565b5b828204905092915050565b600061364682612a6c565b915061365183612a6c565b92508260ff03821115613667576136666134f1565b5b828201905092915050565b7f4e487b7100000000000000000000000000000000000000000000000000000000600052602260045260246000fd5b600060028204905060018216806136b957607f821691505b6020821081036136cc576136cb613672565b5b50919050565b7f53746174757320636f646520756e6b6e6f776e00000000000000000000000000600082015250565b6000613708601383612d84565b9150613713826136d2565b602082019050919050565b60006020820190508181036000830152613737816136fb565b9050919050565b60008160601b9050919050565b60006137568261373e565b9050919050565b60006137688261374b565b9050919050565b61378061377b8261286a565b61375d565b82525050565b600081905092915050565b600061379c82612d79565b6137a68185613786565b93506137b6818560208601612d95565b80840191505092915050565b6000819050919050565b6137dd6137d882612901565b6137c2565b82525050565b60006137ef828661376f565b6014820191506137ff8285613791565b915061380b82846137cc565b60208201915081905094935050505056fea2646970667358221220dbfb35700e1bbf36e8421b906a5641ffe9a95df3fd6711f450dd2869f85fecbe64736f6c634300080e0033",
  "immutableReferences": {},
  "source": "// SPDX-License-Identifier: MIT\npragma solidity ^0.8.14;\n\ncontract FlightSuretyData {\n    /********************************************************************************************/\n    /*                                       DATA VARIABLES                                     */\n    /********************************************************************************************/\n\n    address private contractOwner; // Account used to deploy contract\n    bool private operational = true; // Blocks all state changes throughout the contract if false\n\n    uint256 airlineFund = 0.000001 ether;\n\n    mapping(address => bool) private authorizedCallers; //who can call this contract\n\n    enum AirlineStatus {\n        Registered,\n        Funded,\n        Approved,\n        Rejected\n    }\n    AirlineStatus constant defaultChoice = AirlineStatus.Registered;\n\n    struct AirlineApproval {\n        address airline;\n        bool approval;\n    }\n\n    //airline struct\n    struct Airline {\n        string name;\n        AirlineStatus status;\n        uint256 funds;\n        AirlineApproval[] votes;\n    }\n\n    mapping(address => Airline) private airlines;\n    uint8 private airlineCount = 0;\n    uint8 private multiPartyConsensusThreshold = 4;\n\n    // Flights\n\n    struct Flight {\n        bool isRegistered;\n        uint8 statusCode;\n        uint256 updatedTimestamp;\n        address airline;\n        string flight;\n        Customer[] customers;\n    }\n    mapping(bytes32 => Flight) private flights;\n\n    // Flight status codees\n    uint8 private constant STATUS_CODE_UNKNOWN = 0;\n    uint8 private constant STATUS_CODE_ON_TIME = 10;\n    uint8 private constant STATUS_CODE_LATE_AIRLINE = 20;\n    uint8 private constant STATUS_CODE_LATE_WEATHER = 30;\n    uint8 private constant STATUS_CODE_LATE_TECHNICAL = 40;\n    uint8 private constant STATUS_CODE_LATE_OTHER = 50;\n\n    // customers\n    struct Customer {\n        address customer;\n        uint256 fund;\n    }\n\n    struct CustomerInfo {\n        uint256 fund;\n        bytes32 flight;\n    }\n\n    //customers\n    mapping(address => CustomerInfo[]) customers;\n\n    /********************************************************************************************/\n    /*                                       EVENT DEFINITIONS                                  */\n    /********************************************************************************************/\n\n    /**\n     * @dev Constructor\n     *      The deploying account becomes contractOwner\n     */\n    constructor() {\n        contractOwner = msg.sender;\n    }\n\n    /********************************************************************************************/\n    /*                                       FUNCTION MODIFIERS                                 */\n    /********************************************************************************************/\n\n    /**\n     * @dev Modifier that requires the \"operational\" boolean variable to be \"true\"\n     *      This is used on all state changing functions to pause the contract in\n     *      the event there is an issue that needs to be fixed\n     */\n    modifier requireIsOperational() {\n        require(operational, \"Contract is currently not operational\");\n        _;\n    }\n\n    /**\n     * @dev Modifier that requires the \"ContractOwner\" account to be the function caller\n     */\n    modifier requireContractOwner() {\n        require(\n            msg.sender == contractOwner,\n            \"Caller is not contract owner - DATA\"\n        );\n        _;\n    }\n\n    /**\n     * @dev Requires a valid address\n     */\n    modifier requireValidAddress(address _address) {\n        require(_address != address(0), \"Address should be a valid one\");\n        _;\n    }\n\n    /**\n     * @dev require to be an authirized caller\n     */\n    modifier requireAuthorizedCaller() {\n        require(\n            authorizedCallers[msg.sender] == true,\n            \"Only Authorized callers can do this action\"\n        );\n        _;\n    }\n\n    modifier requireAuthorizedAirline(address _airline) {\n        require(\n            airlines[_airline].status == AirlineStatus.Approved ||\n                _airline == contractOwner,\n            \"Only authorized airline can perform this action\"\n        );\n        _;\n    }\n\n    /**\n    @dev verify if the airline is in funded status\n     */\n    modifier requireAirlineFundedStatus(address _address) {\n        require(\n            airlines[_address].status == AirlineStatus.Funded,\n            \"Airline should be in funded status\"\n        );\n        _;\n    }\n\n    /**\n    @dev require status code be one of the following\n    */\n    modifier requireValidateStatus(uint8 _status) {\n        require(\n            _status == STATUS_CODE_UNKNOWN ||\n                _status == STATUS_CODE_ON_TIME ||\n                _status == STATUS_CODE_LATE_AIRLINE ||\n                _status == STATUS_CODE_LATE_WEATHER ||\n                _status == STATUS_CODE_LATE_TECHNICAL ||\n                _status == STATUS_CODE_LATE_OTHER,\n            \"Status code unknown\"\n        );\n        _;\n    }\n\n    /********************************************************************************************/\n    /*                                       UTILITY FUNCTIONS                                  */\n    /********************************************************************************************/\n\n    /**\n     * @dev Get operating status of contract\n     *\n     * @return A bool that is the current operating status\n     */\n    function isOperational() public view returns (bool) {\n        return operational;\n    }\n\n    /**\n     * @dev Sets contract operations on/off\n     *\n     * When operational mode is disabled, all write transactions except for this one will fail\n     */\n    function setOperatingStatus(bool mode) external requireContractOwner {\n        operational = mode;\n    }\n\n    /**\n    Change multi-party consensus parameter\n     */\n    function getMultiPartyConsensusThreshold()\n        public\n        view\n        requireContractOwner\n        returns (uint8)\n    {\n        return multiPartyConsensusThreshold;\n    }\n\n    /**\n    Change multi-party consensus parameter\n     */\n    function setmultiPartyConsensusThreshold(uint8 _consensusCount)\n        external\n        requireContractOwner\n    {\n        require(\n            _consensusCount > 0 && _consensusCount < 10,\n            \"Avoid too large number of consensus\"\n        );\n        multiPartyConsensusThreshold = _consensusCount;\n    }\n\n    /**\n     * @dev sets the authorized callers to this contract\n     *\n     * Calling this function to add authorized callers\n     */\n\n    function authorizeCaller(address _address)\n        external\n        requireIsOperational\n        requireContractOwner\n        requireValidAddress(_address)\n    {\n        authorizedCallers[_address] = true;\n    }\n\n    /**\n     * @dev deny access to a specific caller\n     */\n    function denyCaller(address _address)\n        external\n        requireIsOperational\n        requireContractOwner\n        requireValidAddress(_address)\n    {\n        authorizedCallers[_address] = false;\n    }\n\n    function isAirline(address _address)\n        private\n        view\n        requireContractOwner\n        requireValidAddress(_address)\n        returns (bool)\n    {\n        bytes memory _name = bytes(airlines[_address].name);\n        return _name.length != 0;\n    }\n\n    function getTotalAirlines()\n        external\n        view\n        requireAuthorizedCaller\n        returns (uint8)\n    {\n        return airlineCount;\n    }\n\n    /********************************************************************************************/\n    /*                                     SMART CONTRACT FUNCTIONS                             */\n    /********************************************************************************************/\n\n    /**\n     * @dev Add an airline to the registration queue\n     *      Can only be called from FlightSuretyApp contract\n     *\n     */\n    function registerAirline(address _address, string calldata name)\n        external\n        requireIsOperational\n        requireValidAddress(_address)\n        requireAuthorizedCaller\n        returns (bool success, uint8 votes)\n    {\n        airlines[_address].name = name;\n        airlines[_address].funds = 0;\n\n        return (true, 0);\n    }\n\n    /**\n    @notice Airline approval function\n     */\n\n    function approveAirlineRegistration(\n        address _address,\n        address _from,\n        bool _approval\n    )\n        external\n        requireIsOperational\n        requireAuthorizedAirline(_from)\n        requireValidAddress(_address)\n        requireAirlineFundedStatus(_address)\n        requireAuthorizedCaller\n        returns (bool success, uint8 votes)\n    {\n        //if we have more airlines than the threshold, apply multi-party consensus\n        if (airlineCount >= multiPartyConsensusThreshold) {\n            bool isDuplicatedVote = false;\n\n            for (\n                uint8 vote = 0;\n                vote < airlines[_address].votes.length;\n                vote++\n            ) {\n                if (airlines[_address].votes[vote].airline == _from) {\n                    isDuplicatedVote = true;\n                    break;\n                }\n            }\n\n            require(!isDuplicatedVote, \"Caller already vote for this Airline\");\n\n            airlines[_address].votes.push(\n                AirlineApproval({airline: _from, approval: _approval})\n            );\n\n            // if votes are more than 50% of the airlines, define if it is approved or not\n            if (airlines[_address].votes.length >= (airlineCount / 2)) {\n                uint8 approvedVotes = 0;\n                for (\n                    uint8 vote = 0;\n                    vote < airlines[_address].votes.length;\n                    vote++\n                ) {\n                    if (airlines[_address].votes[vote].approval == true)\n                        approvedVotes += 1;\n                }\n\n                if (approvedVotes >= (airlineCount / 2)) {\n                    airlines[_address].status = AirlineStatus.Approved;\n                    airlineCount += 1;\n                } else {\n                    airlines[_address].status = AirlineStatus.Rejected;\n                }\n            }\n        } else {\n            airlines[_address].votes.push(\n                AirlineApproval({airline: _from, approval: _approval})\n            );\n            airlines[_address].status = AirlineStatus.Approved;\n            airlineCount += 1;\n        }\n\n        return (true, uint8(airlines[_address].votes.length));\n    }\n\n    /**\n    @dev return airline info\n     */\n    function getAirline(address _address)\n        external\n        view\n        requireValidAddress(_address)\n        requireAuthorizedCaller\n        returns (\n            string memory name,\n            uint8 status,\n            uint256 funds,\n            uint8 votes\n        )\n    {\n        return (\n            airlines[_address].name,\n            uint8(airlines[_address].status),\n            airlines[_address].funds,\n            uint8(airlines[_address].votes.length)\n        );\n    }\n\n    function registerFlight(\n        string calldata _flight,\n        uint256 _updatedTimestamp,\n        address _airline\n    )\n        external\n        requireValidAddress(_airline)\n        requireAuthorizedAirline(_airline)\n        requireAuthorizedCaller\n        returns (bytes32)\n    {\n        bytes32 flightKey = getFlightKey(_airline, _flight, _updatedTimestamp);\n\n        flights[flightKey].airline = _airline;\n        flights[flightKey].flight = _flight;\n        flights[flightKey].updatedTimestamp = _updatedTimestamp;\n        flights[flightKey].isRegistered = true;\n        flights[flightKey].statusCode = 0;\n\n        return flightKey;\n    }\n\n    function getFlight(bytes32 flightKey)\n        external\n        view\n        requireAuthorizedCaller\n        returns (\n            bytes32,\n            address,\n            string memory,\n            uint256,\n            bool,\n            uint256\n        )\n    {\n        return (\n            flightKey,\n            flights[flightKey].airline,\n            flights[flightKey].flight,\n            flights[flightKey].updatedTimestamp,\n            flights[flightKey].isRegistered,\n            flights[flightKey].statusCode\n        );\n    }\n\n    /**\n     * @dev Buy insurance for a flight\n     *\n     */\n    function buy(bytes32 _flight, address _customer)\n        external\n        payable\n        requireValidAddress(_customer)\n        requireAuthorizedCaller\n        returns (bool)\n    {\n        flights[_flight].customers.push(\n            Customer({customer: _customer, fund: msg.value})\n        );\n\n        customers[_customer].push(\n            CustomerInfo({flight: _flight, fund: msg.value})\n        );\n\n        return (true);\n    }\n\n    function getCustomerInsurances(address _customer)\n        external\n        view\n        requireValidAddress(_customer)\n        requireAuthorizedCaller\n        returns (CustomerInfo[] memory)\n    {\n        return (customers[_customer]);\n    }\n\n    // Process flight status from Oracle to update it\n\n    function processFlightStatus(\n        address airline,\n        string calldata flight,\n        uint256 timestamp,\n        uint8 statusCode\n    ) external requireValidateStatus(statusCode) {\n        bytes32 flightKey = getFlightKey(airline, flight, timestamp);\n\n        flights[flightKey].statusCode = statusCode;\n    }\n\n    /**\n     *  @dev Credits payouts to insurees\n     */\n    function creditInsurees() external pure {}\n\n    /**\n     *  @dev Transfers eligible payout funds to insuree\n     *\n     */\n    function pay() external pure {}\n\n    /**\n     * @dev Initial funding for the insurance. Unless there are too many delayed flights\n     *      resulting in insurance payouts, the contract should be self-sustaining\n     *\n     */\n    function fund(address _address)\n        external\n        payable\n        requireIsOperational\n        requireValidAddress(_address)\n        requireAuthorizedCaller\n    {\n        require(msg.value >= airlineFund, \"Airline funds not enough\");\n        require(\n            airlines[_address].status == AirlineStatus.Registered,\n            \"Airline should be in registered status in order to receive funds\"\n        );\n\n        airlines[_address].funds = msg.value;\n        airlines[_address].status = AirlineStatus.Funded;\n    }\n\n    function getFlightKey(\n        address airline,\n        string memory flight,\n        uint256 timestamp\n    ) internal pure returns (bytes32) {\n        return keccak256(abi.encodePacked(airline, flight, timestamp));\n    }\n\n    /**\n     * @dev Receive function for funding smart contract.\n     *\n     */\n    // receive() external payable {\n    //     fund();\n    // }\n}\n",
  "sourcePath": "/home/rafamessias/Documents/udacity/Ethereum/flight-surety/truffle/contracts/FlightSuretyData.sol",
  "compiler": {
    "name": "solc",
    "version": "0.8.14+commit.80d49f37.Emscripten.clang"
  },
  "schemaVersion": "3.4.8",
  "updatedAt": "2022-09-15T01:00:53.251Z",
  "devdoc": {
    "kind": "dev",
    "methods": {
      "authorizeCaller(address)": {
        "details": "sets the authorized callers to this contract Calling this function to add authorized callers"
      },
      "buy(bytes32,address)": {
        "details": "Buy insurance for a flight"
      },
      "constructor": {
        "details": "Constructor      The deploying account becomes contractOwner"
      },
      "creditInsurees()": {
        "details": "Credits payouts to insurees"
      },
      "denyCaller(address)": {
        "details": "deny access to a specific caller"
      },
      "fund(address)": {
        "details": "Initial funding for the insurance. Unless there are too many delayed flights      resulting in insurance payouts, the contract should be self-sustaining"
      },
      "getAirline(address)": {
        "details": "return airline info"
      },
      "isOperational()": {
        "details": "Get operating status of contract",
        "returns": {
          "_0": "A bool that is the current operating status"
        }
      },
      "pay()": {
        "details": "Transfers eligible payout funds to insuree"
      },
      "registerAirline(address,string)": {
        "details": "Add an airline to the registration queue      Can only be called from FlightSuretyApp contract"
      },
      "setOperatingStatus(bool)": {
        "details": "Sets contract operations on/off When operational mode is disabled, all write transactions except for this one will fail"
      }
    },
    "version": 1
  },
  "userdoc": {
    "kind": "user",
    "methods": {
      "approveAirlineRegistration(address,address,bool)": {
        "notice": "Airline approval function"
      },
      "getMultiPartyConsensusThreshold()": {
        "notice": "Change multi-party consensus parameter"
      },
      "setmultiPartyConsensusThreshold(uint8)": {
        "notice": "Change multi-party consensus parameter"
      }
    },
    "version": 1
  }
}