{
  "contractName": "FlightSuretyData",
  "abi": [
    {
      "inputs": [],
      "stateMutability": "nonpayable",
      "type": "constructor"
    },
    {
      "inputs": [],
      "name": "isOperational",
      "outputs": [
        {
          "internalType": "bool",
          "name": "",
          "type": "bool"
        }
      ],
      "stateMutability": "view",
      "type": "function",
      "constant": true
    },
    {
      "inputs": [
        {
          "internalType": "bool",
          "name": "mode",
          "type": "bool"
        }
      ],
      "name": "setOperatingStatus",
      "outputs": [],
      "stateMutability": "nonpayable",
      "type": "function"
    },
    {
      "inputs": [],
      "name": "getMultiPartyConsensusThreshold",
      "outputs": [
        {
          "internalType": "uint8",
          "name": "",
          "type": "uint8"
        }
      ],
      "stateMutability": "view",
      "type": "function",
      "constant": true
    },
    {
      "inputs": [
        {
          "internalType": "uint8",
          "name": "_consensusCount",
          "type": "uint8"
        }
      ],
      "name": "setmultiPartyConsensusThreshold",
      "outputs": [],
      "stateMutability": "nonpayable",
      "type": "function"
    },
    {
      "inputs": [
        {
          "internalType": "address",
          "name": "_address",
          "type": "address"
        }
      ],
      "name": "authorizeCaller",
      "outputs": [],
      "stateMutability": "nonpayable",
      "type": "function"
    },
    {
      "inputs": [
        {
          "internalType": "address",
          "name": "_address",
          "type": "address"
        }
      ],
      "name": "denyCaller",
      "outputs": [],
      "stateMutability": "nonpayable",
      "type": "function"
    },
    {
      "inputs": [],
      "name": "getTotalAirlines",
      "outputs": [
        {
          "internalType": "uint8",
          "name": "",
          "type": "uint8"
        }
      ],
      "stateMutability": "view",
      "type": "function",
      "constant": true
    },
    {
      "inputs": [
        {
          "internalType": "address",
          "name": "_address",
          "type": "address"
        },
        {
          "internalType": "string",
          "name": "name",
          "type": "string"
        }
      ],
      "name": "registerAirline",
      "outputs": [
        {
          "internalType": "bool",
          "name": "success",
          "type": "bool"
        },
        {
          "internalType": "uint8",
          "name": "votes",
          "type": "uint8"
        }
      ],
      "stateMutability": "nonpayable",
      "type": "function"
    },
    {
      "inputs": [
        {
          "internalType": "address",
          "name": "_address",
          "type": "address"
        },
        {
          "internalType": "address",
          "name": "_from",
          "type": "address"
        },
        {
          "internalType": "bool",
          "name": "_approval",
          "type": "bool"
        }
      ],
      "name": "approveAirlineRegistration",
      "outputs": [
        {
          "internalType": "bool",
          "name": "success",
          "type": "bool"
        },
        {
          "internalType": "uint8",
          "name": "votes",
          "type": "uint8"
        }
      ],
      "stateMutability": "nonpayable",
      "type": "function"
    },
    {
      "inputs": [
        {
          "internalType": "address",
          "name": "_address",
          "type": "address"
        }
      ],
      "name": "getAirline",
      "outputs": [
        {
          "internalType": "string",
          "name": "name",
          "type": "string"
        },
        {
          "internalType": "uint8",
          "name": "status",
          "type": "uint8"
        },
        {
          "internalType": "uint256",
          "name": "funds",
          "type": "uint256"
        },
        {
          "internalType": "uint8",
          "name": "votes",
          "type": "uint8"
        }
      ],
      "stateMutability": "view",
      "type": "function",
      "constant": true
    },
    {
      "inputs": [
        {
          "internalType": "string",
          "name": "_flight",
          "type": "string"
        },
        {
          "internalType": "uint256",
          "name": "_updatedTimestamp",
          "type": "uint256"
        },
        {
          "internalType": "address",
          "name": "_airline",
          "type": "address"
        }
      ],
      "name": "registerFlight",
      "outputs": [
        {
          "internalType": "bytes32",
          "name": "",
          "type": "bytes32"
        }
      ],
      "stateMutability": "nonpayable",
      "type": "function"
    },
    {
      "inputs": [
        {
          "internalType": "bytes32",
          "name": "flightKey",
          "type": "bytes32"
        }
      ],
      "name": "getFlight",
      "outputs": [
        {
          "internalType": "bytes32",
          "name": "",
          "type": "bytes32"
        },
        {
          "internalType": "address",
          "name": "",
          "type": "address"
        },
        {
          "internalType": "string",
          "name": "",
          "type": "string"
        },
        {
          "internalType": "uint256",
          "name": "",
          "type": "uint256"
        },
        {
          "internalType": "bool",
          "name": "",
          "type": "bool"
        },
        {
          "internalType": "uint256",
          "name": "",
          "type": "uint256"
        }
      ],
      "stateMutability": "view",
      "type": "function",
      "constant": true
    },
    {
      "inputs": [
        {
          "internalType": "bytes32",
          "name": "_flight",
          "type": "bytes32"
        },
        {
          "internalType": "address",
          "name": "_customer",
          "type": "address"
        }
      ],
      "name": "buy",
      "outputs": [
        {
          "internalType": "bool",
          "name": "",
          "type": "bool"
        }
      ],
      "stateMutability": "payable",
      "type": "function",
      "payable": true
    },
    {
      "inputs": [
        {
          "internalType": "address",
          "name": "_customer",
          "type": "address"
        }
      ],
      "name": "getCustomerInsurances",
      "outputs": [
        {
          "components": [
            {
              "internalType": "uint256",
              "name": "fund",
              "type": "uint256"
            },
            {
              "internalType": "bytes32",
              "name": "flight",
              "type": "bytes32"
            }
          ],
          "internalType": "struct FlightSuretyData.CustomerInfo[]",
          "name": "",
          "type": "tuple[]"
        }
      ],
      "stateMutability": "view",
      "type": "function",
      "constant": true
    },
    {
      "inputs": [
        {
          "internalType": "address",
          "name": "airline",
          "type": "address"
        },
        {
          "internalType": "string",
          "name": "flight",
          "type": "string"
        },
        {
          "internalType": "uint256",
          "name": "timestamp",
          "type": "uint256"
        },
        {
          "internalType": "uint8",
          "name": "statusCode",
          "type": "uint8"
        }
      ],
      "name": "processFlightStatus",
      "outputs": [],
      "stateMutability": "nonpayable",
      "type": "function"
    },
    {
      "inputs": [
        {
          "internalType": "bytes32",
          "name": "_flight",
          "type": "bytes32"
        },
        {
          "internalType": "address",
          "name": "_customer",
          "type": "address"
        }
      ],
      "name": "pay",
      "outputs": [],
      "stateMutability": "nonpayable",
      "type": "function"
    },
    {
      "inputs": [
        {
          "internalType": "address",
          "name": "_address",
          "type": "address"
        }
      ],
      "name": "fund",
      "outputs": [],
      "stateMutability": "payable",
      "type": "function",
      "payable": true
    }
  ],
  "bytecode": "0x60806040526001600060146101000a81548160ff02191690831515021790555064e8d4a510006001556000600460006101000a81548160ff021916908360ff16021790555060048060016101000a81548160ff021916908360ff16021790555034801561006b57600080fd5b50336000806101000a81548173ffffffffffffffffffffffffffffffffffffffff021916908373ffffffffffffffffffffffffffffffffffffffff160217905550614222806100bb6000396000f3fe6080604052600436106100fe5760003560e01c8063aad451b211610095578063d53a57b511610064578063d53a57b514610343578063dcf840551461036e578063e1de048914610397578063e7bdde3b146103d7578063ee38a74914610400576100fe565b8063aad451b21461027b578063c049604a146102a6578063cac8f292146102d6578063cd905dff14610318576100fe565b806339a32061116100d157806339a32061146101ae5780633e2e4117146101d757806362ee873b1461021557806365c152f71461023e576100fe565b8063071a71a114610103578063110466ed1461014057806323024408146101695780632c388d5d14610185575b600080fd5b34801561010f57600080fd5b5061012a60048036038101906101259190613278565b61043e565b60405161013791906133b5565b60405180910390f35b34801561014c57600080fd5b506101676004803603810190610162919061340f565b6105f4565b005b610183600480360381019061017e9190613278565b61069f565b005b34801561019157600080fd5b506101ac60048036038101906101a79190613278565b6109a2565b005b3480156101ba57600080fd5b506101d560048036038101906101d09190613475565b610b4b565b005b3480156101e357600080fd5b506101fe60048036038101906101f991906134a2565b610c4c565b60405161020c929190613513565b60405180910390f35b34801561022157600080fd5b5061023c60048036038101906102379190613568565b61168e565b005b34801561024a57600080fd5b5061026560048036038101906102609190613639565b611c2e565b60405161027291906136bc565b60405180910390f35b34801561028757600080fd5b50610290611f96565b60405161029d91906136d7565b60405180910390f35b6102c060048036038101906102bb9190613568565b61203c565b6040516102cd91906136f2565b60405180910390f35b3480156102e257600080fd5b506102fd60048036038101906102f8919061370d565b61229c565b60405161030f969594939291906137f1565b60405180910390f35b34801561032457600080fd5b5061032d61248d565b60405161033a91906136f2565b60405180910390f35b34801561034f57600080fd5b506103586124a3565b60405161036591906136d7565b60405180910390f35b34801561037a57600080fd5b5061039560048036038101906103909190613278565b61254d565b005b3480156103a357600080fd5b506103be60048036038101906103b99190613278565b6126f6565b6040516103ce9493929190613859565b60405180910390f35b3480156103e357600080fd5b506103fe60048036038101906103f991906138a5565b6129c9565b005b34801561040c57600080fd5b506104276004803603810190610422919061392d565b612b09565b604051610435929190613513565b60405180910390f35b606081600073ffffffffffffffffffffffffffffffffffffffff168173ffffffffffffffffffffffffffffffffffffffff16036104b0576040517f08c379a00000000000000000000000000000000000000000000000000000000081526004016104a7906139d9565b60405180910390fd5b60011515600260003373ffffffffffffffffffffffffffffffffffffffff1673ffffffffffffffffffffffffffffffffffffffff16815260200190815260200160002060009054906101000a900460ff16151514610543576040517f08c379a000000000000000000000000000000000000000000000000000000000815260040161053a90613a6b565b60405180910390fd5b600660008473ffffffffffffffffffffffffffffffffffffffff1673ffffffffffffffffffffffffffffffffffffffff168152602001908152602001600020805480602002602001604051908101604052809291908181526020016000905b828210156105e8578382906000526020600020906002020160405180604001604052908160008201548152602001600182015481525050815260200190600101906105a2565b50505050915050919050565b60008054906101000a900473ffffffffffffffffffffffffffffffffffffffff1673ffffffffffffffffffffffffffffffffffffffff163373ffffffffffffffffffffffffffffffffffffffff1614610682576040517f08c379a000000000000000000000000000000000000000000000000000000000815260040161067990613afd565b60405180910390fd5b80600060146101000a81548160ff02191690831515021790555050565b600060149054906101000a900460ff166106ee576040517f08c379a00000000000000000000000000000000000000000000000000000000081526004016106e590613b8f565b60405180910390fd5b80600073ffffffffffffffffffffffffffffffffffffffff168173ffffffffffffffffffffffffffffffffffffffff160361075e576040517f08c379a0000000000000000000000000000000000000000000000000000000008152600401610755906139d9565b60405180910390fd5b60011515600260003373ffffffffffffffffffffffffffffffffffffffff1673ffffffffffffffffffffffffffffffffffffffff16815260200190815260200160002060009054906101000a900460ff161515146107f1576040517f08c379a00000000000000000000000000000000000000000000000000000000081526004016107e890613a6b565b60405180910390fd5b600154341015610836576040517f08c379a000000000000000000000000000000000000000000000000000000000815260040161082d90613bfb565b60405180910390fd5b6000600381111561084a57610849613c1b565b5b600360008473ffffffffffffffffffffffffffffffffffffffff1673ffffffffffffffffffffffffffffffffffffffff16815260200190815260200160002060010160009054906101000a900460ff1660038111156108ac576108ab613c1b565b5b146108ec576040517f08c379a00000000000000000000000000000000000000000000000000000000081526004016108e390613cbc565b60405180910390fd5b34600360008473ffffffffffffffffffffffffffffffffffffffff1673ffffffffffffffffffffffffffffffffffffffff168152602001908152602001600020600201819055506001600360008473ffffffffffffffffffffffffffffffffffffffff1673ffffffffffffffffffffffffffffffffffffffff16815260200190815260200160002060010160006101000a81548160ff0219169083600381111561099957610998613c1b565b5b02179055505050565b600060149054906101000a900460ff166109f1576040517f08c379a00000000000000000000000000000000000000000000000000000000081526004016109e890613b8f565b60405180910390fd5b60008054906101000a900473ffffffffffffffffffffffffffffffffffffffff1673ffffffffffffffffffffffffffffffffffffffff163373ffffffffffffffffffffffffffffffffffffffff1614610a7f576040517f08c379a0000000000000000000000000000000000000000000000000000000008152600401610a7690613afd565b60405180910390fd5b80600073ffffffffffffffffffffffffffffffffffffffff168173ffffffffffffffffffffffffffffffffffffffff1603610aef576040517f08c379a0000000000000000000000000000000000000000000000000000000008152600401610ae6906139d9565b60405180910390fd5b6001600260008473ffffffffffffffffffffffffffffffffffffffff1673ffffffffffffffffffffffffffffffffffffffff16815260200190815260200160002060006101000a81548160ff0219169083151502179055505050565b60008054906101000a900473ffffffffffffffffffffffffffffffffffffffff1673ffffffffffffffffffffffffffffffffffffffff163373ffffffffffffffffffffffffffffffffffffffff1614610bd9576040517f08c379a0000000000000000000000000000000000000000000000000000000008152600401610bd090613afd565b60405180910390fd5b60008160ff16118015610bef5750600a8160ff16105b610c2e576040517f08c379a0000000000000000000000000000000000000000000000000000000008152600401610c2590613d4e565b60405180910390fd5b80600460016101000a81548160ff021916908360ff16021790555050565b600080600060149054906101000a900460ff16610c9e576040517f08c379a0000000000000000000000000000000000000000000000000000000008152600401610c9590613b8f565b60405180910390fd5b8360026003811115610cb357610cb2613c1b565b5b600360008373ffffffffffffffffffffffffffffffffffffffff1673ffffffffffffffffffffffffffffffffffffffff16815260200190815260200160002060010160009054906101000a900460ff166003811115610d1557610d14613c1b565b5b1480610d6c575060008054906101000a900473ffffffffffffffffffffffffffffffffffffffff1673ffffffffffffffffffffffffffffffffffffffff168173ffffffffffffffffffffffffffffffffffffffff16145b610dab576040517f08c379a0000000000000000000000000000000000000000000000000000000008152600401610da290613de0565b60405180910390fd5b85600073ffffffffffffffffffffffffffffffffffffffff168173ffffffffffffffffffffffffffffffffffffffff1603610e1b576040517f08c379a0000000000000000000000000000000000000000000000000000000008152600401610e12906139d9565b60405180910390fd5b8660016003811115610e3057610e2f613c1b565b5b600360008373ffffffffffffffffffffffffffffffffffffffff1673ffffffffffffffffffffffffffffffffffffffff16815260200190815260200160002060010160009054906101000a900460ff166003811115610e9257610e91613c1b565b5b14610ed2576040517f08c379a0000000000000000000000000000000000000000000000000000000008152600401610ec990613e72565b60405180910390fd5b60011515600260003373ffffffffffffffffffffffffffffffffffffffff1673ffffffffffffffffffffffffffffffffffffffff16815260200190815260200160002060009054906101000a900460ff16151514610f65576040517f08c379a0000000000000000000000000000000000000000000000000000000008152600401610f5c90613a6b565b60405180910390fd5b600460019054906101000a900460ff1660ff16600460009054906101000a900460ff1660ff1610611497576000805b600360008b73ffffffffffffffffffffffffffffffffffffffff1673ffffffffffffffffffffffffffffffffffffffff168152602001908152602001600020600301805490508160ff1610156110b7578873ffffffffffffffffffffffffffffffffffffffff16600360008c73ffffffffffffffffffffffffffffffffffffffff1673ffffffffffffffffffffffffffffffffffffffff1681526020019081526020016000206003018260ff168154811061105257611051613e92565b5b9060005260206000200160000160009054906101000a900473ffffffffffffffffffffffffffffffffffffffff1673ffffffffffffffffffffffffffffffffffffffff16036110a457600191506110b7565b80806110af90613ef0565b915050610f94565b5080156110f9576040517f08c379a00000000000000000000000000000000000000000000000000000000081526004016110f090613f8b565b60405180910390fd5b600360008a73ffffffffffffffffffffffffffffffffffffffff1673ffffffffffffffffffffffffffffffffffffffff16815260200190815260200160002060030160405180604001604052808a73ffffffffffffffffffffffffffffffffffffffff1681526020018915158152509080600181540180825580915050600190039060005260206000200160009091909190915060008201518160000160006101000a81548173ffffffffffffffffffffffffffffffffffffffff021916908373ffffffffffffffffffffffffffffffffffffffff16021790555060208201518160000160146101000a81548160ff02191690831515021790555050506002600460009054906101000a900460ff166112129190613fda565b60ff16600360008b73ffffffffffffffffffffffffffffffffffffffff1673ffffffffffffffffffffffffffffffffffffffff1681526020019081526020016000206003018054905010611491576000805b600360008c73ffffffffffffffffffffffffffffffffffffffff1673ffffffffffffffffffffffffffffffffffffffff168152602001908152602001600020600301805490508160ff1610156113545760011515600360008d73ffffffffffffffffffffffffffffffffffffffff1673ffffffffffffffffffffffffffffffffffffffff1681526020019081526020016000206003018260ff168154811061130f5761130e613e92565b5b9060005260206000200160000160149054906101000a900460ff161515036113415760018261133e919061400b565b91505b808061134c90613ef0565b915050611264565b506002600460009054906101000a900460ff166113719190613fda565b60ff168160ff1610611424576002600360008c73ffffffffffffffffffffffffffffffffffffffff1673ffffffffffffffffffffffffffffffffffffffff16815260200190815260200160002060010160006101000a81548160ff021916908360038111156113e3576113e2613c1b565b5b02179055506001600460008282829054906101000a900460ff16611407919061400b565b92506101000a81548160ff021916908360ff16021790555061148f565b60038060008c73ffffffffffffffffffffffffffffffffffffffff1673ffffffffffffffffffffffffffffffffffffffff16815260200190815260200160002060010160006101000a81548160ff0219169083600381111561148957611488613c1b565b5b02179055505b505b50611637565b600360008973ffffffffffffffffffffffffffffffffffffffff1673ffffffffffffffffffffffffffffffffffffffff16815260200190815260200160002060030160405180604001604052808973ffffffffffffffffffffffffffffffffffffffff1681526020018815158152509080600181540180825580915050600190039060005260206000200160009091909190915060008201518160000160006101000a81548173ffffffffffffffffffffffffffffffffffffffff021916908373ffffffffffffffffffffffffffffffffffffffff16021790555060208201518160000160146101000a81548160ff02191690831515021790555050506002600360008a73ffffffffffffffffffffffffffffffffffffffff1673ffffffffffffffffffffffffffffffffffffffff16815260200190815260200160002060010160006101000a81548160ff021916908360038111156115fa576115f9613c1b565b5b02179055506001600460008282829054906101000a900460ff1661161e919061400b565b92506101000a81548160ff021916908360ff1602179055505b6001600360008a73ffffffffffffffffffffffffffffffffffffffff1673ffffffffffffffffffffffffffffffffffffffff1681526020019081526020016000206003018054905094509450505050935093915050565b80600073ffffffffffffffffffffffffffffffffffffffff168173ffffffffffffffffffffffffffffffffffffffff16036116fe576040517f08c379a00000000000000000000000000000000000000000000000000000000081526004016116f5906139d9565b60405180910390fd5b60011515600260003373ffffffffffffffffffffffffffffffffffffffff1673ffffffffffffffffffffffffffffffffffffffff16815260200190815260200160002060009054906101000a900460ff16151514611791576040517f08c379a000000000000000000000000000000000000000000000000000000000815260040161178890613a6b565b60405180910390fd5b600060056000858152602001908152602001600020600401805480602002602001604051908101604052809291908181526020016000905b8282101561185b57838290600052602060002090600202016040518060400160405290816000820160009054906101000a900473ffffffffffffffffffffffffffffffffffffffff1673ffffffffffffffffffffffffffffffffffffffff1673ffffffffffffffffffffffffffffffffffffffff168152602001600182015481525050815260200190600101906117c9565b50505050905060005b81518160ff161015611c275760005b60066000600560008981526020019081526020016000206004018460ff16815481106118a2576118a1613e92565b5b906000526020600020906002020160000160009054906101000a900473ffffffffffffffffffffffffffffffffffffffff1673ffffffffffffffffffffffffffffffffffffffff1673ffffffffffffffffffffffffffffffffffffffff168152602001908152602001600020805490508260ff161015611c13578560066000600560008a81526020019081526020016000206004018560ff168154811061194c5761194b613e92565b5b906000526020600020906002020160000160009054906101000a900473ffffffffffffffffffffffffffffffffffffffff1673ffffffffffffffffffffffffffffffffffffffff1673ffffffffffffffffffffffffffffffffffffffff1681526020019081526020016000208260ff16815481106119cd576119cc613e92565b5b90600052602060002090600202016001015403611c00576000859050600060066000600560008b81526020019081526020016000206004018660ff1681548110611a1a57611a19613e92565b5b906000526020600020906002020160000160009054906101000a900473ffffffffffffffffffffffffffffffffffffffff1673ffffffffffffffffffffffffffffffffffffffff1673ffffffffffffffffffffffffffffffffffffffff1681526020019081526020016000208360ff1681548110611a9b57611a9a613e92565b5b9060005260206000209060020201600001819055506000600560008981526020019081526020016000206004018460ff1681548110611add57611adc613e92565b5b9060005260206000209060020201600101819055508073ffffffffffffffffffffffffffffffffffffffff166108fc60066000600560008c81526020019081526020016000206004018760ff1681548110611b3b57611b3a613e92565b5b906000526020600020906002020160000160009054906101000a900473ffffffffffffffffffffffffffffffffffffffff1673ffffffffffffffffffffffffffffffffffffffff1673ffffffffffffffffffffffffffffffffffffffff1681526020019081526020016000208460ff1681548110611bbc57611bbb613e92565b5b9060005260206000209060020201600001549081150290604051600060405180830381858888f19350505050158015611bf9573d6000803e3d6000fd5b5050611c13565b8080611c0b90613ef0565b915050611873565b508080611c1f90613ef0565b915050611864565b5050505050565b600081600073ffffffffffffffffffffffffffffffffffffffff168173ffffffffffffffffffffffffffffffffffffffff1603611ca0576040517f08c379a0000000000000000000000000000000000000000000000000000000008152600401611c97906139d9565b60405180910390fd5b8260026003811115611cb557611cb4613c1b565b5b600360008373ffffffffffffffffffffffffffffffffffffffff1673ffffffffffffffffffffffffffffffffffffffff16815260200190815260200160002060010160009054906101000a900460ff166003811115611d1757611d16613c1b565b5b1480611d6e575060008054906101000a900473ffffffffffffffffffffffffffffffffffffffff1673ffffffffffffffffffffffffffffffffffffffff168173ffffffffffffffffffffffffffffffffffffffff16145b611dad576040517f08c379a0000000000000000000000000000000000000000000000000000000008152600401611da490613de0565b60405180910390fd5b60011515600260003373ffffffffffffffffffffffffffffffffffffffff1673ffffffffffffffffffffffffffffffffffffffff16815260200190815260200160002060009054906101000a900460ff16151514611e40576040517f08c379a0000000000000000000000000000000000000000000000000000000008152600401611e3790613a6b565b60405180910390fd5b6000611e918589898080601f016020809104026020016040519081016040528093929190818152602001838380828437600081840152601f19601f8201169050808301925050505050505088612d09565b9050846005600083815260200190815260200160002060020160006101000a81548173ffffffffffffffffffffffffffffffffffffffff021916908373ffffffffffffffffffffffffffffffffffffffff1602179055508787600560008481526020019081526020016000206003019190611f0d92919061316d565b5085600560008381526020019081526020016000206001018190555060016005600083815260200190815260200160002060000160006101000a81548160ff02191690831515021790555060006005600083815260200190815260200160002060000160016101000a81548160ff021916908360ff160217905550809350505050949350505050565b60008060009054906101000a900473ffffffffffffffffffffffffffffffffffffffff1673ffffffffffffffffffffffffffffffffffffffff163373ffffffffffffffffffffffffffffffffffffffff1614612027576040517f08c379a000000000000000000000000000000000000000000000000000000000815260040161201e90613afd565b60405180910390fd5b600460019054906101000a900460ff16905090565b600081600073ffffffffffffffffffffffffffffffffffffffff168173ffffffffffffffffffffffffffffffffffffffff16036120ae576040517f08c379a00000000000000000000000000000000000000000000000000000000081526004016120a5906139d9565b60405180910390fd5b60011515600260003373ffffffffffffffffffffffffffffffffffffffff1673ffffffffffffffffffffffffffffffffffffffff16815260200190815260200160002060009054906101000a900460ff16151514612141576040517f08c379a000000000000000000000000000000000000000000000000000000000815260040161213890613a6b565b60405180910390fd5b6005600085815260200190815260200160002060040160405180604001604052808573ffffffffffffffffffffffffffffffffffffffff16815260200134815250908060018154018082558091505060019003906000526020600020906002020160009091909190915060008201518160000160006101000a81548173ffffffffffffffffffffffffffffffffffffffff021916908373ffffffffffffffffffffffffffffffffffffffff160217905550602082015181600101555050600660008473ffffffffffffffffffffffffffffffffffffffff1673ffffffffffffffffffffffffffffffffffffffff168152602001908152602001600020604051806040016040528034815260200186815250908060018154018082558091505060019003906000526020600020906002020160009091909190915060008201518160000155602082015181600101555050600191505092915050565b6000806060600080600060011515600260003373ffffffffffffffffffffffffffffffffffffffff1673ffffffffffffffffffffffffffffffffffffffff16815260200190815260200160002060009054906101000a900460ff16151514612339576040517f08c379a000000000000000000000000000000000000000000000000000000000815260040161233090613a6b565b60405180910390fd5b866005600089815260200190815260200160002060020160009054906101000a900473ffffffffffffffffffffffffffffffffffffffff16600560008a8152602001908152602001600020600301600560008b815260200190815260200160002060010154600560008c815260200190815260200160002060000160009054906101000a900460ff16600560008d815260200190815260200160002060000160019054906101000a900460ff168380546123f290614071565b80601f016020809104026020016040519081016040528092919081815260200182805461241e90614071565b801561246b5780601f106124405761010080835404028352916020019161246b565b820191906000526020600020905b81548152906001019060200180831161244e57829003601f168201915b505050505093508060ff16905095509550955095509550955091939550919395565b60008060149054906101000a900460ff16905090565b600060011515600260003373ffffffffffffffffffffffffffffffffffffffff1673ffffffffffffffffffffffffffffffffffffffff16815260200190815260200160002060009054906101000a900460ff16151514612538576040517f08c379a000000000000000000000000000000000000000000000000000000000815260040161252f90613a6b565b60405180910390fd5b600460009054906101000a900460ff16905090565b600060149054906101000a900460ff1661259c576040517f08c379a000000000000000000000000000000000000000000000000000000000815260040161259390613b8f565b60405180910390fd5b60008054906101000a900473ffffffffffffffffffffffffffffffffffffffff1673ffffffffffffffffffffffffffffffffffffffff163373ffffffffffffffffffffffffffffffffffffffff161461262a576040517f08c379a000000000000000000000000000000000000000000000000000000000815260040161262190613afd565b60405180910390fd5b80600073ffffffffffffffffffffffffffffffffffffffff168173ffffffffffffffffffffffffffffffffffffffff160361269a576040517f08c379a0000000000000000000000000000000000000000000000000000000008152600401612691906139d9565b60405180910390fd5b6000600260008473ffffffffffffffffffffffffffffffffffffffff1673ffffffffffffffffffffffffffffffffffffffff16815260200190815260200160002060006101000a81548160ff0219169083151502179055505050565b6060600080600084600073ffffffffffffffffffffffffffffffffffffffff168173ffffffffffffffffffffffffffffffffffffffff160361276d576040517f08c379a0000000000000000000000000000000000000000000000000000000008152600401612764906139d9565b60405180910390fd5b60011515600260003373ffffffffffffffffffffffffffffffffffffffff1673ffffffffffffffffffffffffffffffffffffffff16815260200190815260200160002060009054906101000a900460ff16151514612800576040517f08c379a00000000000000000000000000000000000000000000000000000000081526004016127f790613a6b565b60405180910390fd5b600360008773ffffffffffffffffffffffffffffffffffffffff1673ffffffffffffffffffffffffffffffffffffffff168152602001908152602001600020600001600360008873ffffffffffffffffffffffffffffffffffffffff1673ffffffffffffffffffffffffffffffffffffffff16815260200190815260200160002060010160009054906101000a900460ff1660038111156128a4576128a3613c1b565b5b600360008973ffffffffffffffffffffffffffffffffffffffff1673ffffffffffffffffffffffffffffffffffffffff16815260200190815260200160002060020154600360008a73ffffffffffffffffffffffffffffffffffffffff1673ffffffffffffffffffffffffffffffffffffffff1681526020019081526020016000206003018054905083805461293990614071565b80601f016020809104026020016040519081016040528092919081815260200182805461296590614071565b80156129b25780601f10612987576101008083540402835291602001916129b2565b820191906000526020600020905b81548152906001019060200180831161299557829003601f168201915b505050505093509450945094509450509193509193565b80600060ff168160ff1614806129e55750600a60ff168160ff16145b806129f65750601460ff168160ff16145b80612a075750601e60ff168160ff16145b80612a185750602860ff168160ff16145b80612a295750603260ff168160ff16145b612a68576040517f08c379a0000000000000000000000000000000000000000000000000000000008152600401612a5f906140ee565b60405180910390fd5b6000612ab98787878080601f016020809104026020016040519081016040528093929190818152602001838380828437600081840152601f19601f8201169050808301925050505050505086612d09565b9050826005600083815260200190815260200160002060000160016101000a81548160ff021916908360ff160217905550600a8360ff161115612b0057612aff81612d3f565b5b50505050505050565b600080600060149054906101000a900460ff16612b5b576040517f08c379a0000000000000000000000000000000000000000000000000000000008152600401612b5290613b8f565b60405180910390fd5b84600073ffffffffffffffffffffffffffffffffffffffff168173ffffffffffffffffffffffffffffffffffffffff1603612bcb576040517f08c379a0000000000000000000000000000000000000000000000000000000008152600401612bc2906139d9565b60405180910390fd5b60011515600260003373ffffffffffffffffffffffffffffffffffffffff1673ffffffffffffffffffffffffffffffffffffffff16815260200190815260200160002060009054906101000a900460ff16151514612c5e576040517f08c379a0000000000000000000000000000000000000000000000000000000008152600401612c5590613a6b565b60405180910390fd5b8484600360008973ffffffffffffffffffffffffffffffffffffffff1673ffffffffffffffffffffffffffffffffffffffff1681526020019081526020016000206000019190612caf92919061316d565b506000600360008873ffffffffffffffffffffffffffffffffffffffff1673ffffffffffffffffffffffffffffffffffffffff16815260200190815260200160002060020181905550600160009250925050935093915050565b6000838383604051602001612d20939291906141b3565b6040516020818303038152906040528051906020012090509392505050565b60011515600260003373ffffffffffffffffffffffffffffffffffffffff1673ffffffffffffffffffffffffffffffffffffffff16815260200190815260200160002060009054906101000a900460ff16151514612dd2576040517f08c379a0000000000000000000000000000000000000000000000000000000008152600401612dc990613a6b565b60405180910390fd5b600060056000838152602001908152602001600020600401805480602002602001604051908101604052809291908181526020016000905b82821015612e9c57838290600052602060002090600202016040518060400160405290816000820160009054906101000a900473ffffffffffffffffffffffffffffffffffffffff1673ffffffffffffffffffffffffffffffffffffffff1673ffffffffffffffffffffffffffffffffffffffff16815260200160018201548152505081526020019060010190612e0a565b50505050905060005b81518160ff161015613168576714d1120d7b160000600560008581526020019081526020016000206004018260ff1681548110612ee557612ee4613e92565b5b90600052602060002090600202016001018190555060005b60066000600560008781526020019081526020016000206004018460ff1681548110612f2c57612f2b613e92565b5b906000526020600020906002020160000160009054906101000a900473ffffffffffffffffffffffffffffffffffffffff1673ffffffffffffffffffffffffffffffffffffffff1673ffffffffffffffffffffffffffffffffffffffff168152602001908152602001600020805490508260ff161015613154578360066000600560008881526020019081526020016000206004018560ff1681548110612fd657612fd5613e92565b5b906000526020600020906002020160000160009054906101000a900473ffffffffffffffffffffffffffffffffffffffff1673ffffffffffffffffffffffffffffffffffffffff1673ffffffffffffffffffffffffffffffffffffffff1681526020019081526020016000208260ff168154811061305757613056613e92565b5b90600052602060002090600202016001015403613141576714d1120d7b16000060066000600560008881526020019081526020016000206004018560ff16815481106130a6576130a5613e92565b5b906000526020600020906002020160000160009054906101000a900473ffffffffffffffffffffffffffffffffffffffff1673ffffffffffffffffffffffffffffffffffffffff1673ffffffffffffffffffffffffffffffffffffffff1681526020019081526020016000208260ff168154811061312757613126613e92565b5b906000526020600020906002020160000181905550613154565b808061314c90613ef0565b915050612efd565b50808061316090613ef0565b915050612ea5565b505050565b82805461317990614071565b90600052602060002090601f01602090048101928261319b57600085556131e2565b82601f106131b457803560ff19168380011785556131e2565b828001600101855582156131e2579182015b828111156131e15782358255916020019190600101906131c6565b5b5090506131ef91906131f3565b5090565b5b8082111561320c5760008160009055506001016131f4565b5090565b600080fd5b600080fd5b600073ffffffffffffffffffffffffffffffffffffffff82169050919050565b60006132458261321a565b9050919050565b6132558161323a565b811461326057600080fd5b50565b6000813590506132728161324c565b92915050565b60006020828403121561328e5761328d613210565b5b600061329c84828501613263565b91505092915050565b600081519050919050565b600082825260208201905092915050565b6000819050602082019050919050565b6000819050919050565b6132e4816132d1565b82525050565b6000819050919050565b6132fd816132ea565b82525050565b60408201600082015161331960008501826132db565b50602082015161332c60208501826132f4565b50505050565b600061333e8383613303565b60408301905092915050565b6000602082019050919050565b6000613362826132a5565b61336c81856132b0565b9350613377836132c1565b8060005b838110156133a857815161338f8882613332565b975061339a8361334a565b92505060018101905061337b565b5085935050505092915050565b600060208201905081810360008301526133cf8184613357565b905092915050565b60008115159050919050565b6133ec816133d7565b81146133f757600080fd5b50565b600081359050613409816133e3565b92915050565b60006020828403121561342557613424613210565b5b6000613433848285016133fa565b91505092915050565b600060ff82169050919050565b6134528161343c565b811461345d57600080fd5b50565b60008135905061346f81613449565b92915050565b60006020828403121561348b5761348a613210565b5b600061349984828501613460565b91505092915050565b6000806000606084860312156134bb576134ba613210565b5b60006134c986828701613263565b93505060206134da86828701613263565b92505060406134eb868287016133fa565b9150509250925092565b6134fe816133d7565b82525050565b61350d8161343c565b82525050565b600060408201905061352860008301856134f5565b6135356020830184613504565b9392505050565b613545816132ea565b811461355057600080fd5b50565b6000813590506135628161353c565b92915050565b6000806040838503121561357f5761357e613210565b5b600061358d85828601613553565b925050602061359e85828601613263565b9150509250929050565b600080fd5b600080fd5b600080fd5b60008083601f8401126135cd576135cc6135a8565b5b8235905067ffffffffffffffff8111156135ea576135e96135ad565b5b602083019150836001820283011115613606576136056135b2565b5b9250929050565b613616816132d1565b811461362157600080fd5b50565b6000813590506136338161360d565b92915050565b6000806000806060858703121561365357613652613210565b5b600085013567ffffffffffffffff81111561367157613670613215565b5b61367d878288016135b7565b9450945050602061369087828801613624565b92505060406136a187828801613263565b91505092959194509250565b6136b6816132ea565b82525050565b60006020820190506136d160008301846136ad565b92915050565b60006020820190506136ec6000830184613504565b92915050565b600060208201905061370760008301846134f5565b92915050565b60006020828403121561372357613722613210565b5b600061373184828501613553565b91505092915050565b6137438161323a565b82525050565b600081519050919050565b600082825260208201905092915050565b60005b83811015613783578082015181840152602081019050613768565b83811115613792576000848401525b50505050565b6000601f19601f8301169050919050565b60006137b482613749565b6137be8185613754565b93506137ce818560208601613765565b6137d781613798565b840191505092915050565b6137eb816132d1565b82525050565b600060c08201905061380660008301896136ad565b613813602083018861373a565b818103604083015261382581876137a9565b905061383460608301866137e2565b61384160808301856134f5565b61384e60a08301846137e2565b979650505050505050565b6000608082019050818103600083015261387381876137a9565b90506138826020830186613504565b61388f60408301856137e2565b61389c6060830184613504565b95945050505050565b6000806000806000608086880312156138c1576138c0613210565b5b60006138cf88828901613263565b955050602086013567ffffffffffffffff8111156138f0576138ef613215565b5b6138fc888289016135b7565b9450945050604061390f88828901613624565b925050606061392088828901613460565b9150509295509295909350565b60008060006040848603121561394657613945613210565b5b600061395486828701613263565b935050602084013567ffffffffffffffff81111561397557613974613215565b5b613981868287016135b7565b92509250509250925092565b7f416464726573732073686f756c6420626520612076616c6964206f6e65000000600082015250565b60006139c3601d83613754565b91506139ce8261398d565b602082019050919050565b600060208201905081810360008301526139f2816139b6565b9050919050565b7f4f6e6c7920417574686f72697a65642063616c6c6572732063616e20646f207460008201527f68697320616374696f6e00000000000000000000000000000000000000000000602082015250565b6000613a55602a83613754565b9150613a60826139f9565b604082019050919050565b60006020820190508181036000830152613a8481613a48565b9050919050565b7f43616c6c6572206973206e6f7420636f6e7472616374206f776e6572202d204460008201527f4154410000000000000000000000000000000000000000000000000000000000602082015250565b6000613ae7602383613754565b9150613af282613a8b565b604082019050919050565b60006020820190508181036000830152613b1681613ada565b9050919050565b7f436f6e74726163742069732063757272656e746c79206e6f74206f706572617460008201527f696f6e616c000000000000000000000000000000000000000000000000000000602082015250565b6000613b79602583613754565b9150613b8482613b1d565b604082019050919050565b60006020820190508181036000830152613ba881613b6c565b9050919050565b7f4169726c696e652066756e6473206e6f7420656e6f7567680000000000000000600082015250565b6000613be5601883613754565b9150613bf082613baf565b602082019050919050565b60006020820190508181036000830152613c1481613bd8565b9050919050565b7f4e487b7100000000000000000000000000000000000000000000000000000000600052602160045260246000fd5b7f4169726c696e652073686f756c6420626520696e20726567697374657265642060008201527f73746174757320696e206f7264657220746f20726563656976652066756e6473602082015250565b6000613ca6604083613754565b9150613cb182613c4a565b604082019050919050565b60006020820190508181036000830152613cd581613c99565b9050919050565b7f41766f696420746f6f206c61726765206e756d626572206f6620636f6e73656e60008201527f7375730000000000000000000000000000000000000000000000000000000000602082015250565b6000613d38602383613754565b9150613d4382613cdc565b604082019050919050565b60006020820190508181036000830152613d6781613d2b565b9050919050565b7f4f6e6c7920617574686f72697a6564206169726c696e652063616e207065726660008201527f6f726d207468697320616374696f6e0000000000000000000000000000000000602082015250565b6000613dca602f83613754565b9150613dd582613d6e565b604082019050919050565b60006020820190508181036000830152613df981613dbd565b9050919050565b7f4169726c696e652073686f756c6420626520696e2066756e646564207374617460008201527f7573000000000000000000000000000000000000000000000000000000000000602082015250565b6000613e5c602283613754565b9150613e6782613e00565b604082019050919050565b60006020820190508181036000830152613e8b81613e4f565b9050919050565b7f4e487b7100000000000000000000000000000000000000000000000000000000600052603260045260246000fd5b7f4e487b7100000000000000000000000000000000000000000000000000000000600052601160045260246000fd5b6000613efb8261343c565b915060ff8203613f0e57613f0d613ec1565b5b600182019050919050565b7f43616c6c657220616c726561647920766f746520666f7220746869732041697260008201527f6c696e6500000000000000000000000000000000000000000000000000000000602082015250565b6000613f75602483613754565b9150613f8082613f19565b604082019050919050565b60006020820190508181036000830152613fa481613f68565b9050919050565b7f4e487b7100000000000000000000000000000000000000000000000000000000600052601260045260246000fd5b6000613fe58261343c565b9150613ff08361343c565b92508261400057613fff613fab565b5b828204905092915050565b60006140168261343c565b91506140218361343c565b92508260ff0382111561403757614036613ec1565b5b828201905092915050565b7f4e487b7100000000000000000000000000000000000000000000000000000000600052602260045260246000fd5b6000600282049050600182168061408957607f821691505b60208210810361409c5761409b614042565b5b50919050565b7f53746174757320636f646520756e6b6e6f776e00000000000000000000000000600082015250565b60006140d8601383613754565b91506140e3826140a2565b602082019050919050565b60006020820190508181036000830152614107816140cb565b9050919050565b60008160601b9050919050565b60006141268261410e565b9050919050565b60006141388261411b565b9050919050565b61415061414b8261323a565b61412d565b82525050565b600081905092915050565b600061416c82613749565b6141768185614156565b9350614186818560208601613765565b80840191505092915050565b6000819050919050565b6141ad6141a8826132d1565b614192565b82525050565b60006141bf828661413f565b6014820191506141cf8285614161565b91506141db828461419c565b60208201915081905094935050505056fea26469706673582212206bcc1e49bcd46f3ccf1fc6668e7488e709981fd983daaccc53b27bc3908979f464736f6c634300080e0033",
  "immutableReferences": {},
  "source": "// SPDX-License-Identifier: MIT\npragma solidity ^0.8.14;\n\ncontract FlightSuretyData {\n    /********************************************************************************************/\n    /*                                       DATA VARIABLES                                     */\n    /********************************************************************************************/\n\n    address private contractOwner; // Account used to deploy contract\n    bool private operational = true; // Blocks all state changes throughout the contract if false\n\n    uint256 airlineFund = 0.000001 ether;\n\n    mapping(address => bool) private authorizedCallers; //who can call this contract\n\n    enum AirlineStatus {\n        Registered,\n        Funded,\n        Approved,\n        Rejected\n    }\n    AirlineStatus constant defaultChoice = AirlineStatus.Registered;\n\n    struct AirlineApproval {\n        address airline;\n        bool approval;\n    }\n\n    //airline struct\n    struct Airline {\n        string name;\n        AirlineStatus status;\n        uint256 funds;\n        AirlineApproval[] votes;\n    }\n\n    mapping(address => Airline) private airlines;\n    uint8 private airlineCount = 0;\n    uint8 private multiPartyConsensusThreshold = 4;\n\n    // Flights\n\n    struct Flight {\n        bool isRegistered;\n        uint8 statusCode;\n        uint256 updatedTimestamp;\n        address airline;\n        string flight;\n        Customer[] customers;\n    }\n    mapping(bytes32 => Flight) private flights;\n\n    // Flight status codees\n    uint8 private constant STATUS_CODE_UNKNOWN = 0;\n    uint8 private constant STATUS_CODE_ON_TIME = 10;\n    uint8 private constant STATUS_CODE_LATE_AIRLINE = 20;\n    uint8 private constant STATUS_CODE_LATE_WEATHER = 30;\n    uint8 private constant STATUS_CODE_LATE_TECHNICAL = 40;\n    uint8 private constant STATUS_CODE_LATE_OTHER = 50;\n\n    // customers\n    struct Customer {\n        address customer;\n        uint256 fund;\n    }\n\n    struct CustomerInfo {\n        uint256 fund;\n        bytes32 flight;\n    }\n\n    //customers\n    mapping(address => CustomerInfo[]) customers;\n\n    /********************************************************************************************/\n    /*                                       EVENT DEFINITIONS                                  */\n    /********************************************************************************************/\n\n    /**\n     * @dev Constructor\n     *      The deploying account becomes contractOwner\n     */\n    constructor() {\n        contractOwner = msg.sender;\n    }\n\n    /********************************************************************************************/\n    /*                                       FUNCTION MODIFIERS                                 */\n    /********************************************************************************************/\n\n    /**\n     * @dev Modifier that requires the \"operational\" boolean variable to be \"true\"\n     *      This is used on all state changing functions to pause the contract in\n     *      the event there is an issue that needs to be fixed\n     */\n    modifier requireIsOperational() {\n        require(operational, \"Contract is currently not operational\");\n        _;\n    }\n\n    /**\n     * @dev Modifier that requires the \"ContractOwner\" account to be the function caller\n     */\n    modifier requireContractOwner() {\n        require(\n            msg.sender == contractOwner,\n            \"Caller is not contract owner - DATA\"\n        );\n        _;\n    }\n\n    /**\n     * @dev Requires a valid address\n     */\n    modifier requireValidAddress(address _address) {\n        require(_address != address(0), \"Address should be a valid one\");\n        _;\n    }\n\n    /**\n     * @dev require to be an authirized caller\n     */\n    modifier requireAuthorizedCaller() {\n        require(\n            authorizedCallers[msg.sender] == true,\n            \"Only Authorized callers can do this action\"\n        );\n        _;\n    }\n\n    modifier requireAuthorizedAirline(address _airline) {\n        require(\n            airlines[_airline].status == AirlineStatus.Approved ||\n                _airline == contractOwner,\n            \"Only authorized airline can perform this action\"\n        );\n        _;\n    }\n\n    /**\n    @dev verify if the airline is in funded status\n     */\n    modifier requireAirlineFundedStatus(address _address) {\n        require(\n            airlines[_address].status == AirlineStatus.Funded,\n            \"Airline should be in funded status\"\n        );\n        _;\n    }\n\n    /**\n    @dev require status code be one of the following\n    */\n    modifier requireValidateStatus(uint8 _status) {\n        require(\n            _status == STATUS_CODE_UNKNOWN ||\n                _status == STATUS_CODE_ON_TIME ||\n                _status == STATUS_CODE_LATE_AIRLINE ||\n                _status == STATUS_CODE_LATE_WEATHER ||\n                _status == STATUS_CODE_LATE_TECHNICAL ||\n                _status == STATUS_CODE_LATE_OTHER,\n            \"Status code unknown\"\n        );\n        _;\n    }\n\n    /********************************************************************************************/\n    /*                                       UTILITY FUNCTIONS                                  */\n    /********************************************************************************************/\n\n    /**\n     * @dev Get operating status of contract\n     *\n     * @return A bool that is the current operating status\n     */\n    function isOperational() public view returns (bool) {\n        return operational;\n    }\n\n    /**\n     * @dev Sets contract operations on/off\n     *\n     * When operational mode is disabled, all write transactions except for this one will fail\n     */\n    function setOperatingStatus(bool mode) external requireContractOwner {\n        operational = mode;\n    }\n\n    /**\n    Change multi-party consensus parameter\n     */\n    function getMultiPartyConsensusThreshold()\n        public\n        view\n        requireContractOwner\n        returns (uint8)\n    {\n        return multiPartyConsensusThreshold;\n    }\n\n    /**\n    Change multi-party consensus parameter\n     */\n    function setmultiPartyConsensusThreshold(uint8 _consensusCount)\n        external\n        requireContractOwner\n    {\n        require(\n            _consensusCount > 0 && _consensusCount < 10,\n            \"Avoid too large number of consensus\"\n        );\n        multiPartyConsensusThreshold = _consensusCount;\n    }\n\n    /**\n     * @dev sets the authorized callers to this contract\n     *\n     * Calling this function to add authorized callers\n     */\n\n    function authorizeCaller(address _address)\n        external\n        requireIsOperational\n        requireContractOwner\n        requireValidAddress(_address)\n    {\n        authorizedCallers[_address] = true;\n    }\n\n    /**\n     * @dev deny access to a specific caller\n     */\n    function denyCaller(address _address)\n        external\n        requireIsOperational\n        requireContractOwner\n        requireValidAddress(_address)\n    {\n        authorizedCallers[_address] = false;\n    }\n\n    function isAirline(address _address)\n        private\n        view\n        requireContractOwner\n        requireValidAddress(_address)\n        returns (bool)\n    {\n        bytes memory _name = bytes(airlines[_address].name);\n        return _name.length != 0;\n    }\n\n    function getTotalAirlines()\n        external\n        view\n        requireAuthorizedCaller\n        returns (uint8)\n    {\n        return airlineCount;\n    }\n\n    /********************************************************************************************/\n    /*                                     SMART CONTRACT FUNCTIONS                             */\n    /********************************************************************************************/\n\n    /**\n     * @dev Add an airline to the registration queue\n     *      Can only be called from FlightSuretyApp contract\n     *\n     */\n    function registerAirline(address _address, string calldata name)\n        external\n        requireIsOperational\n        requireValidAddress(_address)\n        requireAuthorizedCaller\n        returns (bool success, uint8 votes)\n    {\n        airlines[_address].name = name;\n        airlines[_address].funds = 0;\n\n        return (true, 0);\n    }\n\n    /**\n    @notice Airline approval function\n     */\n\n    function approveAirlineRegistration(\n        address _address,\n        address _from,\n        bool _approval\n    )\n        external\n        requireIsOperational\n        requireAuthorizedAirline(_from)\n        requireValidAddress(_address)\n        requireAirlineFundedStatus(_address)\n        requireAuthorizedCaller\n        returns (bool success, uint8 votes)\n    {\n        //if we have more airlines than the threshold, apply multi-party consensus\n        if (airlineCount >= multiPartyConsensusThreshold) {\n            bool isDuplicatedVote = false;\n\n            for (\n                uint8 vote = 0;\n                vote < airlines[_address].votes.length;\n                vote++\n            ) {\n                if (airlines[_address].votes[vote].airline == _from) {\n                    isDuplicatedVote = true;\n                    break;\n                }\n            }\n\n            require(!isDuplicatedVote, \"Caller already vote for this Airline\");\n\n            airlines[_address].votes.push(\n                AirlineApproval({airline: _from, approval: _approval})\n            );\n\n            // if votes are more than 50% of the airlines, define if it is approved or not\n            if (airlines[_address].votes.length >= (airlineCount / 2)) {\n                uint8 approvedVotes = 0;\n                for (\n                    uint8 vote = 0;\n                    vote < airlines[_address].votes.length;\n                    vote++\n                ) {\n                    if (airlines[_address].votes[vote].approval == true)\n                        approvedVotes += 1;\n                }\n\n                if (approvedVotes >= (airlineCount / 2)) {\n                    airlines[_address].status = AirlineStatus.Approved;\n                    airlineCount += 1;\n                } else {\n                    airlines[_address].status = AirlineStatus.Rejected;\n                }\n            }\n        } else {\n            airlines[_address].votes.push(\n                AirlineApproval({airline: _from, approval: _approval})\n            );\n            airlines[_address].status = AirlineStatus.Approved;\n            airlineCount += 1;\n        }\n\n        return (true, uint8(airlines[_address].votes.length));\n    }\n\n    /**\n    @dev return airline info\n     */\n    function getAirline(address _address)\n        external\n        view\n        requireValidAddress(_address)\n        requireAuthorizedCaller\n        returns (\n            string memory name,\n            uint8 status,\n            uint256 funds,\n            uint8 votes\n        )\n    {\n        return (\n            airlines[_address].name,\n            uint8(airlines[_address].status),\n            airlines[_address].funds,\n            uint8(airlines[_address].votes.length)\n        );\n    }\n\n    function registerFlight(\n        string calldata _flight,\n        uint256 _updatedTimestamp,\n        address _airline\n    )\n        external\n        requireValidAddress(_airline)\n        requireAuthorizedAirline(_airline)\n        requireAuthorizedCaller\n        returns (bytes32)\n    {\n        bytes32 flightKey = getFlightKey(_airline, _flight, _updatedTimestamp);\n\n        flights[flightKey].airline = _airline;\n        flights[flightKey].flight = _flight;\n        flights[flightKey].updatedTimestamp = _updatedTimestamp;\n        flights[flightKey].isRegistered = true;\n        flights[flightKey].statusCode = 0;\n\n        return flightKey;\n    }\n\n    function getFlight(bytes32 flightKey)\n        external\n        view\n        requireAuthorizedCaller\n        returns (\n            bytes32,\n            address,\n            string memory,\n            uint256,\n            bool,\n            uint256\n        )\n    {\n        return (\n            flightKey,\n            flights[flightKey].airline,\n            flights[flightKey].flight,\n            flights[flightKey].updatedTimestamp,\n            flights[flightKey].isRegistered,\n            flights[flightKey].statusCode\n        );\n    }\n\n    /**\n     * @dev Buy insurance for a flight\n     *\n     */\n    function buy(bytes32 _flight, address _customer)\n        external\n        payable\n        requireValidAddress(_customer)\n        requireAuthorizedCaller\n        returns (bool)\n    {\n        flights[_flight].customers.push(\n            Customer({customer: _customer, fund: msg.value})\n        );\n\n        customers[_customer].push(\n            CustomerInfo({flight: _flight, fund: msg.value})\n        );\n\n        return (true);\n    }\n\n    function getCustomerInsurances(address _customer)\n        external\n        view\n        requireValidAddress(_customer)\n        requireAuthorizedCaller\n        returns (CustomerInfo[] memory)\n    {\n        return (customers[_customer]);\n    }\n\n    // Process flight status from Oracle to update it\n\n    function processFlightStatus(\n        address airline,\n        string calldata flight,\n        uint256 timestamp,\n        uint8 statusCode\n    ) external requireValidateStatus(statusCode) {\n        bytes32 flightKey = getFlightKey(airline, flight, timestamp);\n\n        flights[flightKey].statusCode = statusCode;\n\n        if (statusCode > 10) {\n            creditInsurees(flightKey);\n        }\n    }\n\n    /**\n     *  @dev Credits payouts to insurees\n     */\n    function creditInsurees(bytes32 _flight) internal requireAuthorizedCaller {\n        Customer[] memory flightCustomers = flights[_flight].customers;\n\n        for (uint8 x = 0; x < flightCustomers.length; x++) {\n            flights[_flight].customers[x].fund = 1.5 ether;\n            //add loop to add fund\n            for (\n                uint8 y = 0;\n                x < customers[flights[_flight].customers[x].customer].length;\n                y++\n            ) {\n                if (\n                    customers[flights[_flight].customers[x].customer][y]\n                        .flight == _flight\n                ) {\n                    customers[flights[_flight].customers[x].customer][y]\n                        .fund = 1.5 ether;\n                    break;\n                }\n            }\n        }\n    }\n\n    /**\n     *  @dev Transfers eligible payout funds to insuree\n     *\n     */\n    function pay(bytes32 _flight, address _customer)\n        external\n        requireValidAddress(_customer)\n        requireAuthorizedCaller\n    {\n        Customer[] memory flightCustomers = flights[_flight].customers;\n\n        for (uint8 x = 0; x < flightCustomers.length; x++) {\n            //add loop to add fund\n            for (\n                uint8 y = 0;\n                x < customers[flights[_flight].customers[x].customer].length;\n                y++\n            ) {\n                if (\n                    customers[flights[_flight].customers[x].customer][y]\n                        .flight == _flight\n                ) {\n                    address payable customer = payable(_customer);\n                    customers[flights[_flight].customers[x].customer][y]\n                        .fund = 0;\n                    flights[_flight].customers[x].fund = 0;\n\n                    customer.transfer(\n                        customers[flights[_flight].customers[x].customer][y]\n                            .fund\n                    );\n\n                    break;\n                }\n            }\n        }\n    }\n\n    /**\n     * @dev Initial funding for the insurance. Unless there are too many delayed flights\n     *      resulting in insurance payouts, the contract should be self-sustaining\n     *\n     */\n    function fund(address _address)\n        external\n        payable\n        requireIsOperational\n        requireValidAddress(_address)\n        requireAuthorizedCaller\n    {\n        require(msg.value >= airlineFund, \"Airline funds not enough\");\n        require(\n            airlines[_address].status == AirlineStatus.Registered,\n            \"Airline should be in registered status in order to receive funds\"\n        );\n\n        airlines[_address].funds = msg.value;\n        airlines[_address].status = AirlineStatus.Funded;\n    }\n\n    function getFlightKey(\n        address airline,\n        string memory flight,\n        uint256 timestamp\n    ) internal pure returns (bytes32) {\n        return keccak256(abi.encodePacked(airline, flight, timestamp));\n    }\n\n    /**\n     * @dev Receive function for funding smart contract.\n     *\n     */\n    // receive() external payable {\n    //     fund();\n    // }\n}\n",
  "sourcePath": "/home/rafamessias/Documents/udacity/Ethereum/flight-surety/truffle/contracts/FlightSuretyData.sol",
  "compiler": {
    "name": "solc",
    "version": "0.8.14+commit.80d49f37.Emscripten.clang"
  },
  "schemaVersion": "3.4.8",
  "updatedAt": "2022-09-15T20:05:13.097Z",
  "networkType": "ethereum",
  "devdoc": {
    "kind": "dev",
    "methods": {
      "authorizeCaller(address)": {
        "details": "sets the authorized callers to this contract Calling this function to add authorized callers"
      },
      "buy(bytes32,address)": {
        "details": "Buy insurance for a flight"
      },
      "constructor": {
        "details": "Constructor      The deploying account becomes contractOwner"
      },
      "denyCaller(address)": {
        "details": "deny access to a specific caller"
      },
      "fund(address)": {
        "details": "Initial funding for the insurance. Unless there are too many delayed flights      resulting in insurance payouts, the contract should be self-sustaining"
      },
      "getAirline(address)": {
        "details": "return airline info"
      },
      "isOperational()": {
        "details": "Get operating status of contract",
        "returns": {
          "_0": "A bool that is the current operating status"
        }
      },
      "pay(bytes32,address)": {
        "details": "Transfers eligible payout funds to insuree"
      },
      "registerAirline(address,string)": {
        "details": "Add an airline to the registration queue      Can only be called from FlightSuretyApp contract"
      },
      "setOperatingStatus(bool)": {
        "details": "Sets contract operations on/off When operational mode is disabled, all write transactions except for this one will fail"
      }
    },
    "version": 1
  },
  "userdoc": {
    "kind": "user",
    "methods": {
      "approveAirlineRegistration(address,address,bool)": {
        "notice": "Airline approval function"
      },
      "getMultiPartyConsensusThreshold()": {
        "notice": "Change multi-party consensus parameter"
      },
      "setmultiPartyConsensusThreshold(uint8)": {
        "notice": "Change multi-party consensus parameter"
      }
    },
    "version": 1
  }
}