{
  "contractName": "FlightSuretyApp",
  "abi": [
    {
      "inputs": [
        {
          "internalType": "address",
          "name": "_flightSuretyData",
          "type": "address"
        }
      ],
      "stateMutability": "nonpayable",
      "type": "constructor"
    },
    {
      "anonymous": false,
      "inputs": [
        {
          "indexed": false,
          "internalType": "address",
          "name": "airline",
          "type": "address"
        },
        {
          "indexed": false,
          "internalType": "string",
          "name": "flight",
          "type": "string"
        },
        {
          "indexed": false,
          "internalType": "uint256",
          "name": "timestamp",
          "type": "uint256"
        },
        {
          "indexed": false,
          "internalType": "uint8",
          "name": "status",
          "type": "uint8"
        }
      ],
      "name": "FlightStatusInfo",
      "type": "event"
    },
    {
      "anonymous": false,
      "inputs": [
        {
          "indexed": false,
          "internalType": "address",
          "name": "airline",
          "type": "address"
        },
        {
          "indexed": false,
          "internalType": "string",
          "name": "flight",
          "type": "string"
        },
        {
          "indexed": false,
          "internalType": "uint256",
          "name": "timestamp",
          "type": "uint256"
        },
        {
          "indexed": false,
          "internalType": "uint8",
          "name": "status",
          "type": "uint8"
        }
      ],
      "name": "OracleReport",
      "type": "event"
    },
    {
      "anonymous": false,
      "inputs": [
        {
          "indexed": false,
          "internalType": "uint8",
          "name": "index",
          "type": "uint8"
        },
        {
          "indexed": false,
          "internalType": "address",
          "name": "airline",
          "type": "address"
        },
        {
          "indexed": false,
          "internalType": "string",
          "name": "flight",
          "type": "string"
        },
        {
          "indexed": false,
          "internalType": "uint256",
          "name": "timestamp",
          "type": "uint256"
        }
      ],
      "name": "OracleRequest",
      "type": "event"
    },
    {
      "inputs": [],
      "name": "REGISTRATION_FEE",
      "outputs": [
        {
          "internalType": "uint256",
          "name": "",
          "type": "uint256"
        }
      ],
      "stateMutability": "view",
      "type": "function",
      "constant": true
    },
    {
      "inputs": [],
      "name": "isOperational",
      "outputs": [
        {
          "internalType": "bool",
          "name": "",
          "type": "bool"
        }
      ],
      "stateMutability": "view",
      "type": "function",
      "constant": true
    },
    {
      "inputs": [
        {
          "internalType": "bool",
          "name": "mode",
          "type": "bool"
        }
      ],
      "name": "setOperatingStatus",
      "outputs": [],
      "stateMutability": "nonpayable",
      "type": "function"
    },
    {
      "inputs": [
        {
          "internalType": "address",
          "name": "_address",
          "type": "address"
        },
        {
          "internalType": "string",
          "name": "name",
          "type": "string"
        }
      ],
      "name": "registerAirline",
      "outputs": [
        {
          "internalType": "bool",
          "name": "success",
          "type": "bool"
        },
        {
          "internalType": "uint256",
          "name": "votes",
          "type": "uint256"
        }
      ],
      "stateMutability": "payable",
      "type": "function",
      "payable": true
    },
    {
      "inputs": [],
      "name": "airlineFund",
      "outputs": [],
      "stateMutability": "payable",
      "type": "function",
      "payable": true
    },
    {
      "inputs": [
        {
          "internalType": "address",
          "name": "_address",
          "type": "address"
        },
        {
          "internalType": "bool",
          "name": "_approval",
          "type": "bool"
        }
      ],
      "name": "approveAirlineRegistration",
      "outputs": [
        {
          "internalType": "bool",
          "name": "success",
          "type": "bool"
        },
        {
          "internalType": "uint8",
          "name": "votes",
          "type": "uint8"
        }
      ],
      "stateMutability": "nonpayable",
      "type": "function"
    },
    {
      "inputs": [
        {
          "internalType": "address",
          "name": "_address",
          "type": "address"
        }
      ],
      "name": "getAirline",
      "outputs": [
        {
          "internalType": "string",
          "name": "name",
          "type": "string"
        },
        {
          "internalType": "uint8",
          "name": "status",
          "type": "uint8"
        },
        {
          "internalType": "uint256",
          "name": "funds",
          "type": "uint256"
        },
        {
          "internalType": "uint8",
          "name": "votes",
          "type": "uint8"
        }
      ],
      "stateMutability": "view",
      "type": "function",
      "constant": true
    },
    {
      "inputs": [],
      "name": "getTotalAirlines",
      "outputs": [
        {
          "internalType": "uint8",
          "name": "",
          "type": "uint8"
        }
      ],
      "stateMutability": "view",
      "type": "function",
      "constant": true
    },
    {
      "inputs": [
        {
          "internalType": "string",
          "name": "_flight",
          "type": "string"
        },
        {
          "internalType": "uint256",
          "name": "_updatedTimestamp",
          "type": "uint256"
        },
        {
          "internalType": "address",
          "name": "_airline",
          "type": "address"
        }
      ],
      "name": "registerFlight",
      "outputs": [
        {
          "internalType": "bytes32",
          "name": "",
          "type": "bytes32"
        }
      ],
      "stateMutability": "nonpayable",
      "type": "function"
    },
    {
      "inputs": [
        {
          "internalType": "string",
          "name": "_flight",
          "type": "string"
        },
        {
          "internalType": "uint256",
          "name": "_updatedTimestamp",
          "type": "uint256"
        },
        {
          "internalType": "address",
          "name": "_airline",
          "type": "address"
        }
      ],
      "name": "getFlight",
      "outputs": [
        {
          "internalType": "bytes32",
          "name": "",
          "type": "bytes32"
        },
        {
          "internalType": "address",
          "name": "",
          "type": "address"
        },
        {
          "internalType": "string",
          "name": "",
          "type": "string"
        },
        {
          "internalType": "uint256",
          "name": "",
          "type": "uint256"
        },
        {
          "internalType": "bool",
          "name": "",
          "type": "bool"
        },
        {
          "internalType": "uint256",
          "name": "",
          "type": "uint256"
        }
      ],
      "stateMutability": "view",
      "type": "function",
      "constant": true
    },
    {
      "inputs": [
        {
          "internalType": "string",
          "name": "_flight",
          "type": "string"
        },
        {
          "internalType": "uint256",
          "name": "_updatedTimestamp",
          "type": "uint256"
        },
        {
          "internalType": "address",
          "name": "_airline",
          "type": "address"
        }
      ],
      "name": "buyInsurance",
      "outputs": [
        {
          "internalType": "bool",
          "name": "",
          "type": "bool"
        }
      ],
      "stateMutability": "payable",
      "type": "function",
      "payable": true
    },
    {
      "inputs": [
        {
          "internalType": "address",
          "name": "_customer",
          "type": "address"
        }
      ],
      "name": "getCustomerInsurances",
      "outputs": [
        {
          "components": [
            {
              "internalType": "uint256",
              "name": "fund",
              "type": "uint256"
            },
            {
              "internalType": "bytes32",
              "name": "flight",
              "type": "bytes32"
            }
          ],
          "internalType": "struct IFlightSuretyData.CustomerInfo[]",
          "name": "",
          "type": "tuple[]"
        }
      ],
      "stateMutability": "view",
      "type": "function",
      "constant": true
    },
    {
      "inputs": [
        {
          "internalType": "address",
          "name": "airline",
          "type": "address"
        },
        {
          "internalType": "string",
          "name": "flight",
          "type": "string"
        },
        {
          "internalType": "uint256",
          "name": "timestamp",
          "type": "uint256"
        }
      ],
      "name": "fetchFlightStatus",
      "outputs": [],
      "stateMutability": "nonpayable",
      "type": "function"
    },
    {
      "inputs": [],
      "name": "registerOracle",
      "outputs": [],
      "stateMutability": "payable",
      "type": "function",
      "payable": true
    },
    {
      "inputs": [],
      "name": "getMyIndexes",
      "outputs": [
        {
          "internalType": "uint8[3]",
          "name": "",
          "type": "uint8[3]"
        }
      ],
      "stateMutability": "view",
      "type": "function",
      "constant": true
    },
    {
      "inputs": [
        {
          "internalType": "uint8",
          "name": "index",
          "type": "uint8"
        },
        {
          "internalType": "address",
          "name": "airline",
          "type": "address"
        },
        {
          "internalType": "string",
          "name": "flight",
          "type": "string"
        },
        {
          "internalType": "uint256",
          "name": "timestamp",
          "type": "uint256"
        },
        {
          "internalType": "uint8",
          "name": "statusCode",
          "type": "uint8"
        }
      ],
      "name": "submitOracleResponse",
      "outputs": [],
      "stateMutability": "nonpayable",
      "type": "function"
    }
  ],
  "bytecode": "0x608060405264e8d4a510006002556000600360006101000a81548160ff021916908360ff1602179055503480156200003657600080fd5b5060405162002d4438038062002d4483398181016040528101906200005c91906200014e565b336000806101000a81548173ffffffffffffffffffffffffffffffffffffffff021916908373ffffffffffffffffffffffffffffffffffffffff16021790555080600160006101000a81548173ffffffffffffffffffffffffffffffffffffffff021916908373ffffffffffffffffffffffffffffffffffffffff1602179055505062000180565b600080fd5b600073ffffffffffffffffffffffffffffffffffffffff82169050919050565b60006200011682620000e9565b9050919050565b620001288162000109565b81146200013457600080fd5b50565b60008151905062000148816200011d565b92915050565b600060208284031215620001675762000166620000e4565b5b6000620001778482850162000137565b91505092915050565b612bb480620001906000396000f3fe6080604052600436106100f35760003560e01c8063c10f27001161008a578063ee38a74911610059578063ee38a74914610302578063f2cd819214610333578063f555e2d714610363578063f83f11c0146103a5576100f3565b8063c10f270014610243578063cd905dff1461026c578063d53a57b514610297578063e1de0489146102c2576100f3565b80635f746a85116100c65780635f746a851461019357806364b4f7511461019d57806365c152f7146101c857806367efbf1514610205576100f3565b8063071a71a1146100f8578063110466ed14610135578063339d25901461015e5780635f1cc0e614610168575b600080fd5b34801561010457600080fd5b5061011f600480360381019061011a9190611700565b6103ce565b60405161012c919061183d565b60405180910390f35b34801561014157600080fd5b5061015c60048036038101906101579190611897565b610478565b005b610166610596565b005b34801561017457600080fd5b5061017d610683565b60405161018a919061197c565b60405180910390f35b61019b6107c3565b005b3480156101a957600080fd5b506101b2610853565b6040516101bf91906119a6565b60405180910390f35b3480156101d457600080fd5b506101ef60048036038101906101ea9190611a52565b61085f565b6040516101fc9190611ad5565b60405180910390f35b34801561021157600080fd5b5061022c60048036038101906102279190611af0565b61090f565b60405161023a929190611b4e565b60405180910390f35b34801561024f57600080fd5b5061026a60048036038101906102659190611ba3565b6109be565b005b34801561027857600080fd5b50610281610d55565b60405161028e9190611c3d565b60405180910390f35b3480156102a357600080fd5b506102ac610ded565b6040516102b99190611c58565b60405180910390f35b3480156102ce57600080fd5b506102e960048036038101906102e49190611700565b610e85565b6040516102f99493929190611d0c565b60405180910390f35b61031c60048036038101906103179190611d58565b610f3c565b60405161032a929190611db8565b60405180910390f35b61034d60048036038101906103489190611a52565b610fec565b60405161035a9190611c3d565b60405180910390f35b34801561036f57600080fd5b5061038a60048036038101906103859190611a52565b6110e9565b60405161039c96959493929190611df0565b60405180910390f35b3480156103b157600080fd5b506103cc60048036038101906103c79190611e58565b6111b8565b005b6060600160009054906101000a900473ffffffffffffffffffffffffffffffffffffffff1673ffffffffffffffffffffffffffffffffffffffff1663071a71a1836040518263ffffffff1660e01b815260040161042b9190611ecc565b600060405180830381865afa158015610448573d6000803e3d6000fd5b505050506040513d6000823e3d601f19601f8201168201806040525081019061047191906120bb565b9050919050565b60008054906101000a900473ffffffffffffffffffffffffffffffffffffffff1673ffffffffffffffffffffffffffffffffffffffff163373ffffffffffffffffffffffffffffffffffffffff1614610506576040517f08c379a00000000000000000000000000000000000000000000000000000000081526004016104fd90612176565b60405180910390fd5b600160009054906101000a900473ffffffffffffffffffffffffffffffffffffffff1673ffffffffffffffffffffffffffffffffffffffff1663110466ed826040518263ffffffff1660e01b81526004016105619190611c3d565b600060405180830381600087803b15801561057b57600080fd5b505af115801561058f573d6000803e3d6000fd5b5050505050565b670de0b6b3a76400003410156105e1576040517f08c379a00000000000000000000000000000000000000000000000000000000081526004016105d8906121e2565b60405180910390fd5b60006105ec336112c3565b9050604051806040016040528060011515815260200182815250600460003373ffffffffffffffffffffffffffffffffffffffff1673ffffffffffffffffffffffffffffffffffffffff16815260200190815260200160002060008201518160000160006101000a81548160ff02191690831515021790555060208201518160010190600361067c9291906115b5565b5090505050565b61068b61164f565b600460003373ffffffffffffffffffffffffffffffffffffffff1673ffffffffffffffffffffffffffffffffffffffff16815260200190815260200160002060000160009054906101000a900460ff1661071a576040517f08c379a00000000000000000000000000000000000000000000000000000000081526004016107119061224e565b60405180910390fd5b600460003373ffffffffffffffffffffffffffffffffffffffff1673ffffffffffffffffffffffffffffffffffffffff1681526020019081526020016000206001016003806020026040519081016040528092919082600380156107b9576020028201916000905b82829054906101000a900460ff1660ff16815260200190600101906020826000010492830192600103820291508084116107825790505b5050505050905090565b600160009054906101000a900473ffffffffffffffffffffffffffffffffffffffff1673ffffffffffffffffffffffffffffffffffffffff16632302440834336040518363ffffffff1660e01b815260040161081f9190611ecc565b6000604051808303818588803b15801561083857600080fd5b505af115801561084c573d6000803e3d6000fd5b5050505050565b670de0b6b3a764000081565b6000600160009054906101000a900473ffffffffffffffffffffffffffffffffffffffff1673ffffffffffffffffffffffffffffffffffffffff166365c152f7868686866040518563ffffffff1660e01b81526004016108c294939291906122aa565b6020604051808303816000875af11580156108e1573d6000803e3d6000fd5b505050506040513d601f19601f8201168201806040525081019061090591906122ea565b9050949350505050565b600080600160009054906101000a900473ffffffffffffffffffffffffffffffffffffffff1673ffffffffffffffffffffffffffffffffffffffff16633e2e41178533866040518463ffffffff1660e01b815260040161097193929190612317565b60408051808303816000875af115801561098f573d6000803e3d6000fd5b505050506040513d601f19601f820116820180604052508101906109b39190612378565b915091509250929050565b8560ff16600460003373ffffffffffffffffffffffffffffffffffffffff1673ffffffffffffffffffffffffffffffffffffffff168152602001908152602001600020600101600060038110610a1757610a166123b8565b5b602091828204019190069054906101000a900460ff1660ff161480610aab57508560ff16600460003373ffffffffffffffffffffffffffffffffffffffff1673ffffffffffffffffffffffffffffffffffffffff168152602001908152602001600020600101600160038110610a9057610a8f6123b8565b5b602091828204019190069054906101000a900460ff1660ff16145b80610b2557508560ff16600460003373ffffffffffffffffffffffffffffffffffffffff1673ffffffffffffffffffffffffffffffffffffffff168152602001908152602001600020600101600260038110610b0a57610b096123b8565b5b602091828204019190069054906101000a900460ff1660ff16145b610b64576040517f08c379a0000000000000000000000000000000000000000000000000000000008152600401610b5b90612459565b60405180910390fd5b60008686868686604051602001610b7f959493929190612548565b6040516020818303038152906040528051906020012090506005600082815260200190815260200160002060000160149054906101000a900460ff16610bfa576040517f08c379a0000000000000000000000000000000000000000000000000000000008152600401610bf190612606565b60405180910390fd5b6005600082815260200190815260200160002060010160008360ff1660ff168152602001908152602001600020339080600181540180825580915050600190039060005260206000200160009091909190916101000a81548173ffffffffffffffffffffffffffffffffffffffff021916908373ffffffffffffffffffffffffffffffffffffffff1602179055507f43c853095c2752648493c88b4baac4d580d2594ffb00c6f1d4242d844514f7838686868686604051610cbf959493929190612626565b60405180910390a160036005600083815260200190815260200160002060010160008460ff1660ff1681526020019081526020016000208054905010610d4c577fe23f5229de535c091e3b7bec2665f5d698192d3b31393066e8987b7a05076b6c8686868686604051610d36959493929190612626565b60405180910390a1610d4b86868686866114a9565b5b50505050505050565b6000600160009054906101000a900473ffffffffffffffffffffffffffffffffffffffff1673ffffffffffffffffffffffffffffffffffffffff1663cd905dff6040518163ffffffff1660e01b8152600401602060405180830381865afa158015610dc4573d6000803e3d6000fd5b505050506040513d601f19601f82011682018060405250810190610de89190612674565b905090565b6000600160009054906101000a900473ffffffffffffffffffffffffffffffffffffffff1673ffffffffffffffffffffffffffffffffffffffff1663d53a57b56040518163ffffffff1660e01b8152600401602060405180830381865afa158015610e5c573d6000803e3d6000fd5b505050506040513d601f19601f82011682018060405250810190610e8091906126a1565b905090565b60606000806000600160009054906101000a900473ffffffffffffffffffffffffffffffffffffffff1673ffffffffffffffffffffffffffffffffffffffff1663e1de0489866040518263ffffffff1660e01b8152600401610ee79190611ecc565b600060405180830381865afa158015610f04573d6000803e3d6000fd5b505050506040513d6000823e3d601f19601f82011682018060405250810190610f2d9190612774565b93509350935093509193509193565b600080600160009054906101000a900473ffffffffffffffffffffffffffffffffffffffff1673ffffffffffffffffffffffffffffffffffffffff1663ee38a7498686866040518463ffffffff1660e01b8152600401610f9e939291906127f7565b60408051808303816000875af1158015610fbc573d6000803e3d6000fd5b505050506040513d601f19601f82011682018060405250810190610fe09190612829565b91509150935093915050565b6000600254341015611033576040517f08c379a000000000000000000000000000000000000000000000000000000000815260040161102a906128b5565b60405180910390fd5b600160009054906101000a900473ffffffffffffffffffffffffffffffffffffffff1673ffffffffffffffffffffffffffffffffffffffff1663c049604a3461107e858989896114b0565b336040518463ffffffff1660e01b815260040161109c9291906128d5565b60206040518083038185885af11580156110ba573d6000803e3d6000fd5b50505050506040513d601f19601f820116820180604052508101906110df9190612674565b9050949350505050565b60008060606000806000600160009054906101000a900473ffffffffffffffffffffffffffffffffffffffff1673ffffffffffffffffffffffffffffffffffffffff1663cac8f29261113d898d8d8d6114b0565b6040518263ffffffff1660e01b81526004016111599190611ad5565b600060405180830381865afa158015611176573d6000803e3d6000fd5b505050506040513d6000823e3d601f19601f8201168201806040525081019061119f9190612913565b9550955095509550955095509499939850945094509450565b60006111c3336114e9565b9050600081868686866040516020016111e0959493929190612548565b604051602081830303815290604052805190602001209050336005600083815260200190815260200160002060000160006101000a81548173ffffffffffffffffffffffffffffffffffffffff021916908373ffffffffffffffffffffffffffffffffffffffff16021790555060016005600083815260200190815260200160002060000160146101000a81548160ff0219169083151502179055507f3ed01f2c3fc24c6b329d931e35b03e390d23497d22b3f90e15b600343e93df1182878787876040516112b39594939291906129bc565b60405180910390a1505050505050565b6112cb61164f565b6112d361164f565b6112dc836114e9565b816000600381106112f0576112ef6123b8565b5b602002019060ff16908160ff168152505080600060038110611315576113146123b8565b5b60200201518160016003811061132e5761132d6123b8565b5b602002019060ff16908160ff16815250505b80600060038110611354576113536123b8565b5b602002015160ff16816001600381106113705761136f6123b8565b5b602002015160ff16036113b057611386836114e9565b8160016003811061139a576113996123b8565b5b602002019060ff16908160ff1681525050611340565b806001600381106113c4576113c36123b8565b5b6020020151816002600381106113dd576113dc6123b8565b5b602002019060ff16908160ff16815250505b80600060038110611403576114026123b8565b5b602002015160ff168160026003811061141f5761141e6123b8565b5b602002015160ff161480611468575080600160038110611442576114416123b8565b5b602002015160ff168160026003811061145e5761145d6123b8565b5b602002015160ff16145b156114a057611476836114e9565b8160026003811061148a576114896123b8565b5b602002019060ff16908160ff16815250506113ef565b80915050919050565b5050505050565b6000848484846040516020016114c99493929190612a0a565b604051602081830303815290604052805190602001209050949350505050565b600080600a905060008160ff166003600081819054906101000a900460ff168092919061151590612a74565b91906101000a81548160ff021916908360ff16021790555060ff164361153b9190612a9d565b408560405160200161154e929190612af2565b6040516020818303038152906040528051906020012060001c6115719190612b4d565b905060fa600360009054906101000a900460ff1660ff1611156115ab576000600360006101000a81548160ff021916908360ff1602179055505b8092505050919050565b826003601f0160209004810192821561163e5791602002820160005b8382111561160f57835183826101000a81548160ff021916908360ff16021790555092602001926001016020816000010492830192600103026115d1565b801561163c5782816101000a81549060ff021916905560010160208160000104928301926001030261160f565b505b50905061164b9190611671565b5090565b6040518060600160405280600390602082028036833780820191505090505090565b5b8082111561168a576000816000905550600101611672565b5090565b6000604051905090565b600080fd5b600080fd5b600073ffffffffffffffffffffffffffffffffffffffff82169050919050565b60006116cd826116a2565b9050919050565b6116dd816116c2565b81146116e857600080fd5b50565b6000813590506116fa816116d4565b92915050565b60006020828403121561171657611715611698565b5b6000611724848285016116eb565b91505092915050565b600081519050919050565b600082825260208201905092915050565b6000819050602082019050919050565b6000819050919050565b61176c81611759565b82525050565b6000819050919050565b61178581611772565b82525050565b6040820160008201516117a16000850182611763565b5060208201516117b4602085018261177c565b50505050565b60006117c6838361178b565b60408301905092915050565b6000602082019050919050565b60006117ea8261172d565b6117f48185611738565b93506117ff83611749565b8060005b8381101561183057815161181788826117ba565b9750611822836117d2565b925050600181019050611803565b5085935050505092915050565b6000602082019050818103600083015261185781846117df565b905092915050565b60008115159050919050565b6118748161185f565b811461187f57600080fd5b50565b6000813590506118918161186b565b92915050565b6000602082840312156118ad576118ac611698565b5b60006118bb84828501611882565b91505092915050565b600060039050919050565b600081905092915050565b6000819050919050565b600060ff82169050919050565b6118fa816118e4565b82525050565b600061190c83836118f1565b60208301905092915050565b6000602082019050919050565b61192e816118c4565b61193881846118cf565b9250611943826118da565b8060005b8381101561197457815161195b8782611900565b965061196683611918565b925050600181019050611947565b505050505050565b60006060820190506119916000830184611925565b92915050565b6119a081611759565b82525050565b60006020820190506119bb6000830184611997565b92915050565b600080fd5b600080fd5b600080fd5b60008083601f8401126119e6576119e56119c1565b5b8235905067ffffffffffffffff811115611a0357611a026119c6565b5b602083019150836001820283011115611a1f57611a1e6119cb565b5b9250929050565b611a2f81611759565b8114611a3a57600080fd5b50565b600081359050611a4c81611a26565b92915050565b60008060008060608587031215611a6c57611a6b611698565b5b600085013567ffffffffffffffff811115611a8a57611a8961169d565b5b611a96878288016119d0565b94509450506020611aa987828801611a3d565b9250506040611aba878288016116eb565b91505092959194509250565b611acf81611772565b82525050565b6000602082019050611aea6000830184611ac6565b92915050565b60008060408385031215611b0757611b06611698565b5b6000611b15858286016116eb565b9250506020611b2685828601611882565b9150509250929050565b611b398161185f565b82525050565b611b48816118e4565b82525050565b6000604082019050611b636000830185611b30565b611b706020830184611b3f565b9392505050565b611b80816118e4565b8114611b8b57600080fd5b50565b600081359050611b9d81611b77565b92915050565b60008060008060008060a08789031215611bc057611bbf611698565b5b6000611bce89828a01611b8e565b9650506020611bdf89828a016116eb565b955050604087013567ffffffffffffffff811115611c0057611bff61169d565b5b611c0c89828a016119d0565b94509450506060611c1f89828a01611a3d565b9250506080611c3089828a01611b8e565b9150509295509295509295565b6000602082019050611c526000830184611b30565b92915050565b6000602082019050611c6d6000830184611b3f565b92915050565b600081519050919050565b600082825260208201905092915050565b60005b83811015611cad578082015181840152602081019050611c92565b83811115611cbc576000848401525b50505050565b6000601f19601f8301169050919050565b6000611cde82611c73565b611ce88185611c7e565b9350611cf8818560208601611c8f565b611d0181611cc2565b840191505092915050565b60006080820190508181036000830152611d268187611cd3565b9050611d356020830186611b3f565b611d426040830185611997565b611d4f6060830184611b3f565b95945050505050565b600080600060408486031215611d7157611d70611698565b5b6000611d7f868287016116eb565b935050602084013567ffffffffffffffff811115611da057611d9f61169d565b5b611dac868287016119d0565b92509250509250925092565b6000604082019050611dcd6000830185611b30565b611dda6020830184611997565b9392505050565b611dea816116c2565b82525050565b600060c082019050611e056000830189611ac6565b611e126020830188611de1565b8181036040830152611e248187611cd3565b9050611e336060830186611997565b611e406080830185611b30565b611e4d60a0830184611997565b979650505050505050565b60008060008060608587031215611e7257611e71611698565b5b6000611e80878288016116eb565b945050602085013567ffffffffffffffff811115611ea157611ea061169d565b5b611ead878288016119d0565b93509350506040611ec087828801611a3d565b91505092959194509250565b6000602082019050611ee16000830184611de1565b92915050565b7f4e487b7100000000000000000000000000000000000000000000000000000000600052604160045260246000fd5b611f1f82611cc2565b810181811067ffffffffffffffff82111715611f3e57611f3d611ee7565b5b80604052505050565b6000611f5161168e565b9050611f5d8282611f16565b919050565b600067ffffffffffffffff821115611f7d57611f7c611ee7565b5b602082029050602081019050919050565b600080fd5b600081519050611fa281611a26565b92915050565b611fb181611772565b8114611fbc57600080fd5b50565b600081519050611fce81611fa8565b92915050565b600060408284031215611fea57611fe9611f8e565b5b611ff46040611f47565b9050600061200484828501611f93565b600083015250602061201884828501611fbf565b60208301525092915050565b600061203761203284611f62565b611f47565b9050808382526020820190506040840283018581111561205a576120596119cb565b5b835b81811015612083578061206f8882611fd4565b84526020840193505060408101905061205c565b5050509392505050565b600082601f8301126120a2576120a16119c1565b5b81516120b2848260208601612024565b91505092915050565b6000602082840312156120d1576120d0611698565b5b600082015167ffffffffffffffff8111156120ef576120ee61169d565b5b6120fb8482850161208d565b91505092915050565b7f43616c6c6572206973206e6f7420636f6e7472616374206f776e6572202d204160008201527f5050000000000000000000000000000000000000000000000000000000000000602082015250565b6000612160602283611c7e565b915061216b82612104565b604082019050919050565b6000602082019050818103600083015261218f81612153565b9050919050565b7f526567697374726174696f6e2066656520697320726571756972656400000000600082015250565b60006121cc601c83611c7e565b91506121d782612196565b602082019050919050565b600060208201905081810360008301526121fb816121bf565b9050919050565b7f4e6f74207265676973746572656420617320616e206f7261636c650000000000600082015250565b6000612238601b83611c7e565b915061224382612202565b602082019050919050565b600060208201905081810360008301526122678161222b565b9050919050565b82818337600083830152505050565b60006122898385611c7e565b935061229683858461226e565b61229f83611cc2565b840190509392505050565b600060608201905081810360008301526122c581868861227d565b90506122d46020830185611997565b6122e16040830184611de1565b95945050505050565b600060208284031215612300576122ff611698565b5b600061230e84828501611fbf565b91505092915050565b600060608201905061232c6000830186611de1565b6123396020830185611de1565b6123466040830184611b30565b949350505050565b60008151905061235d8161186b565b92915050565b60008151905061237281611b77565b92915050565b6000806040838503121561238f5761238e611698565b5b600061239d8582860161234e565b92505060206123ae85828601612363565b9150509250929050565b7f4e487b7100000000000000000000000000000000000000000000000000000000600052603260045260246000fd5b7f496e64657820646f6573206e6f74206d61746368206f7261636c65207265717560008201527f6573740000000000000000000000000000000000000000000000000000000000602082015250565b6000612443602383611c7e565b915061244e826123e7565b604082019050919050565b6000602082019050818103600083015261247281612436565b9050919050565b60008160f81b9050919050565b600061249182612479565b9050919050565b6124a96124a4826118e4565b612486565b82525050565b60008160601b9050919050565b60006124c7826124af565b9050919050565b60006124d9826124bc565b9050919050565b6124f16124ec826116c2565b6124ce565b82525050565b600081905092915050565b600061250e83856124f7565b935061251b83858461226e565b82840190509392505050565b6000819050919050565b61254261253d82611759565b612527565b82525050565b60006125548288612498565b60018201915061256482876124e0565b601482019150612575828587612502565b91506125818284612531565b6020820191508190509695505050505050565b7f466c69676874206f722074696d657374616d7020646f206e6f74206d6174636860008201527f206f7261636c6520726571756573740000000000000000000000000000000000602082015250565b60006125f0602f83611c7e565b91506125fb82612594565b604082019050919050565b6000602082019050818103600083015261261f816125e3565b9050919050565b600060808201905061263b6000830188611de1565b818103602083015261264e81868861227d565b905061265d6040830185611997565b61266a6060830184611b3f565b9695505050505050565b60006020828403121561268a57612689611698565b5b60006126988482850161234e565b91505092915050565b6000602082840312156126b7576126b6611698565b5b60006126c584828501612363565b91505092915050565b600080fd5b600067ffffffffffffffff8211156126ee576126ed611ee7565b5b6126f782611cc2565b9050602081019050919050565b6000612717612712846126d3565b611f47565b905082815260208101848484011115612733576127326126ce565b5b61273e848285611c8f565b509392505050565b600082601f83011261275b5761275a6119c1565b5b815161276b848260208601612704565b91505092915050565b6000806000806080858703121561278e5761278d611698565b5b600085015167ffffffffffffffff8111156127ac576127ab61169d565b5b6127b887828801612746565b94505060206127c987828801612363565b93505060406127da87828801611f93565b92505060606127eb87828801612363565b91505092959194509250565b600060408201905061280c6000830186611de1565b818103602083015261281f81848661227d565b9050949350505050565b600080604083850312156128405761283f611698565b5b600061284e8582860161234e565b925050602061285f85828601611f93565b9150509250929050565b7f4d696e696d756d2066756e64206e6f742070726f766964656400000000000000600082015250565b600061289f601983611c7e565b91506128aa82612869565b602082019050919050565b600060208201905081810360008301526128ce81612892565b9050919050565b60006040820190506128ea6000830185611ac6565b6128f76020830184611de1565b9392505050565b60008151905061290d816116d4565b92915050565b60008060008060008060c087890312156129305761292f611698565b5b600061293e89828a01611fbf565b965050602061294f89828a016128fe565b955050604087015167ffffffffffffffff8111156129705761296f61169d565b5b61297c89828a01612746565b945050606061298d89828a01611f93565b935050608061299e89828a0161234e565b92505060a06129af89828a01611f93565b9150509295509295509295565b60006080820190506129d16000830188611b3f565b6129de6020830187611de1565b81810360408301526129f181858761227d565b9050612a006060830184611997565b9695505050505050565b6000612a1682876124e0565b601482019150612a27828587612502565b9150612a338284612531565b60208201915081905095945050505050565b7f4e487b7100000000000000000000000000000000000000000000000000000000600052601160045260246000fd5b6000612a7f826118e4565b915060ff8203612a9257612a91612a45565b5b600182019050919050565b6000612aa882611759565b9150612ab383611759565b925082821015612ac657612ac5612a45565b5b828203905092915050565b6000819050919050565b612aec612ae782611772565b612ad1565b82525050565b6000612afe8285612adb565b602082019150612b0e82846124e0565b6014820191508190509392505050565b7f4e487b7100000000000000000000000000000000000000000000000000000000600052601260045260246000fd5b6000612b5882611759565b9150612b6383611759565b925082612b7357612b72612b1e565b5b82820690509291505056fea26469706673582212201321d85484587d95a0fa1dd6c9446ba16f38f8ac8f9afefa7ac38a608e6fb7c964736f6c634300080e0033",
  "immutableReferences": {},
  "source": "// SPDX-License-Identifier: MIT\npragma solidity ^0.8.14;\n\n//Define Contract Data Interface\n\ninterface IFlightSuretyData {\n    struct CustomerInfo {\n        uint256 fund;\n        bytes32 flight;\n    }\n\n    function isOperational() external view returns (bool);\n\n    function setOperatingStatus(bool mode) external;\n\n    function registerAirline(address _address, string calldata name)\n        external\n        payable\n        returns (bool success, uint256 votes);\n\n    function getAirline(address _address)\n        external\n        view\n        returns (\n            string memory name,\n            uint8 status,\n            uint256 funds,\n            uint8 votes\n        );\n\n    function fund(address _address) external payable;\n\n    function approveAirlineRegistration(\n        address _address,\n        address _from,\n        bool _approval\n    ) external returns (bool success, uint8 votes);\n\n    function getTotalAirlines() external view returns (uint8);\n\n    function registerFlight(\n        string memory _flight,\n        uint256 _updatedTimestamp,\n        address _airline\n    ) external returns (bytes32);\n\n    function getFlight(bytes32)\n        external\n        view\n        returns (\n            bytes32,\n            address,\n            string memory,\n            uint256,\n            bool,\n            uint256\n        );\n\n    function buy(bytes32 _flight, address _customer)\n        external\n        payable\n        returns (bool);\n\n    function getCustomerInsurances(address _customer)\n        external\n        view\n        returns (CustomerInfo[] memory);\n}\n\n/************************************************** */\n/* FlightSurety Smart Contract                      */\n/************************************************** */\ncontract FlightSuretyApp {\n    /********************************************************************************************/\n    /*                                       DATA VARIABLES                                     */\n    /********************************************************************************************/\n\n    address private contractOwner; // Account used to deploy contract\n    IFlightSuretyData private flightSuretyData;\n\n    uint256 minInsuranceFund = 0.000001 ether;\n\n    struct CustomerInfo {\n        uint256 fund;\n        bytes32 flight;\n    }\n\n    /********************************************************************************************/\n    /*                                       FUNCTION MODIFIERS                                 */\n    /********************************************************************************************/\n\n    /**\n     * @dev Modifier that requires the \"operational\" boolean variable to be \"true\"\n     *      This is used on all state changing functions to pause the contract in\n     *      the event there is an issue that needs to be fixed\n     */\n    modifier requireIsOperational() {\n        // Modify to call data contract's status\n        require(\n            flightSuretyData.isOperational() == true,\n            \"Contract is currently not operational\"\n        );\n        _;\n    }\n\n    /**\n     * @dev Modifier that requires the \"ContractOwner\" account to be the function caller\n     */\n    modifier requireContractOwner() {\n        require(\n            msg.sender == contractOwner,\n            \"Caller is not contract owner - APP\"\n        );\n        _;\n    }\n\n    /********************************************************************************************/\n    /*                                       CONSTRUCTOR                                        */\n    /********************************************************************************************/\n\n    /**\n     * @dev Contract constructor\n     *\n     */\n    constructor(address _flightSuretyData) {\n        contractOwner = msg.sender;\n        flightSuretyData = IFlightSuretyData(payable(_flightSuretyData));\n    }\n\n    /********************************************************************************************/\n    /*                                       UTILITY FUNCTIONS                                  */\n    /********************************************************************************************/\n\n    function isOperational() public view returns (bool) {\n        return flightSuretyData.isOperational(); // Modify to call data contract's status\n    }\n\n    function setOperatingStatus(bool mode) external requireContractOwner {\n        flightSuretyData.setOperatingStatus(mode);\n    }\n\n    /********************************************************************************************/\n    /*                                     SMART CONTRACT FUNCTIONS                             */\n    /********************************************************************************************/\n\n    /**\n     * @dev Add an airline to the registration queue\n     *\n     */\n    function registerAirline(address _address, string calldata name)\n        external\n        payable\n        returns (bool success, uint256 votes)\n    {\n        return flightSuretyData.registerAirline(_address, name);\n    }\n\n    /**\n     * @dev Airline should be able to fund it, before register is approved\n     *\n     */\n\n    function airlineFund() external payable {\n        flightSuretyData.fund{value: msg.value}(msg.sender);\n    }\n\n    /**\n     * @dev Airline Approval function\n     *\n     */\n\n    function approveAirlineRegistration(address _address, bool _approval)\n        external\n        returns (bool success, uint8 votes)\n    {\n        return\n            flightSuretyData.approveAirlineRegistration(\n                _address,\n                msg.sender,\n                _approval\n            );\n    }\n\n    function getAirline(address _address)\n        external\n        view\n        returns (\n            string memory name,\n            uint8 status,\n            uint256 funds,\n            uint8 votes\n        )\n    {\n        return flightSuretyData.getAirline(_address);\n    }\n\n    function getTotalAirlines() external view returns (uint8) {\n        return flightSuretyData.getTotalAirlines();\n    }\n\n    /**\n     * @dev Register a future flight for insuring.\n     *\n     */\n    function registerFlight(\n        string calldata _flight,\n        uint256 _updatedTimestamp,\n        address _airline\n    ) external returns (bytes32) {\n        return\n            flightSuretyData.registerFlight(\n                _flight,\n                _updatedTimestamp,\n                _airline\n            );\n    }\n\n    function getFlight(\n        string calldata _flight,\n        uint256 _updatedTimestamp,\n        address _airline\n    )\n        external\n        view\n        returns (\n            bytes32,\n            address,\n            string memory,\n            uint256,\n            bool,\n            uint256\n        )\n    {\n        return\n            flightSuretyData.getFlight(\n                getFlightKey(_airline, _flight, _updatedTimestamp)\n            );\n    }\n\n    // customer can buy insurance\n    function buyInsurance(\n        string calldata _flight,\n        uint256 _updatedTimestamp,\n        address _airline\n    ) external payable returns (bool) {\n        require(msg.value >= minInsuranceFund, \"Minimum fund not provided\");\n\n        return\n            flightSuretyData.buy{value: msg.value}(\n                getFlightKey(_airline, _flight, _updatedTimestamp),\n                msg.sender\n            );\n    }\n\n    //get customers insurance\n    function getCustomerInsurances(address _customer)\n        external\n        view\n        returns (IFlightSuretyData.CustomerInfo[] memory)\n    {\n        return flightSuretyData.getCustomerInsurances(_customer);\n    }\n\n    /**\n     * @dev Called after oracle has updated flight status\n     *\n     */\n    function processFlightStatus(\n        address airline,\n        string calldata flight,\n        uint256 timestamp,\n        uint8 statusCode\n    ) internal pure {}\n\n    // Generate a request for oracles to fetch flight information\n    function fetchFlightStatus(\n        address airline,\n        string calldata flight,\n        uint256 timestamp\n    ) external {\n        uint8 index = getRandomIndex(msg.sender);\n\n        // Generate a unique key for storing the request\n        bytes32 key = keccak256(\n            abi.encodePacked(index, airline, flight, timestamp)\n        );\n\n        oracleResponses[key].requester = msg.sender;\n        oracleResponses[key].isOpen = true;\n\n        emit OracleRequest(index, airline, flight, timestamp);\n    }\n\n    /********************************************************************************************/\n    /*                               region ORACLE MANAGEMENT\n    /********************************************************************************************/\n\n    // Incremented to add pseudo-randomness at various points\n    uint8 private nonce = 0;\n\n    // Fee to be paid when registering oracle\n    uint256 public constant REGISTRATION_FEE = 1 ether;\n\n    // Number of oracles that must respond for valid status\n    uint256 private constant MIN_RESPONSES = 3;\n\n    struct Oracle {\n        bool isRegistered;\n        uint8[3] indexes;\n    }\n\n    // Track all registered oracles\n    mapping(address => Oracle) private oracles;\n\n    // Model for responses from oracles\n    struct ResponseInfo {\n        address requester; // Account that requested status\n        bool isOpen; // If open, oracle responses are accepted\n        mapping(uint8 => address[]) responses; // Mapping key is the status code reported\n        // This lets us group responses and identify\n        // the response that majority of the oracles\n    }\n\n    // Track all oracle responses\n    // Key = hash(index, flight, timestamp)\n    mapping(bytes32 => ResponseInfo) private oracleResponses;\n\n    // Event fired each time an oracle submits a response\n    event FlightStatusInfo(\n        address airline,\n        string flight,\n        uint256 timestamp,\n        uint8 status\n    );\n\n    event OracleReport(\n        address airline,\n        string flight,\n        uint256 timestamp,\n        uint8 status\n    );\n\n    // Event fired when flight status request is submitted\n    // Oracles track this and if they have a matching index\n    // they fetch data and submit a response\n    event OracleRequest(\n        uint8 index,\n        address airline,\n        string flight,\n        uint256 timestamp\n    );\n\n    // Register an oracle with the contract\n    function registerOracle() external payable {\n        // Require registration fee\n        require(msg.value >= REGISTRATION_FEE, \"Registration fee is required\");\n\n        uint8[3] memory indexes = generateIndexes(msg.sender);\n\n        oracles[msg.sender] = Oracle({isRegistered: true, indexes: indexes});\n    }\n\n    function getMyIndexes() external view returns (uint8[3] memory) {\n        require(\n            oracles[msg.sender].isRegistered,\n            \"Not registered as an oracle\"\n        );\n\n        return oracles[msg.sender].indexes;\n    }\n\n    // Called by oracle when a response is available to an outstanding request\n    // For the response to be accepted, there must be a pending request that is open\n    // and matches one of the three Indexes randomly assigned to the oracle at the\n    // time of registration (i.e. uninvited oracles are not welcome)\n    function submitOracleResponse(\n        uint8 index,\n        address airline,\n        string calldata flight,\n        uint256 timestamp,\n        uint8 statusCode\n    ) external {\n        require(\n            (oracles[msg.sender].indexes[0] == index) ||\n                (oracles[msg.sender].indexes[1] == index) ||\n                (oracles[msg.sender].indexes[2] == index),\n            \"Index does not match oracle request\"\n        );\n\n        bytes32 key = keccak256(\n            abi.encodePacked(index, airline, flight, timestamp)\n        );\n        require(\n            oracleResponses[key].isOpen,\n            \"Flight or timestamp do not match oracle request\"\n        );\n\n        oracleResponses[key].responses[statusCode].push(msg.sender);\n\n        // Information isn't considered verified until at least MIN_RESPONSES\n        // oracles respond with the *** same *** information\n        emit OracleReport(airline, flight, timestamp, statusCode);\n        if (\n            oracleResponses[key].responses[statusCode].length >= MIN_RESPONSES\n        ) {\n            emit FlightStatusInfo(airline, flight, timestamp, statusCode);\n\n            // Handle flight status as appropriate\n            processFlightStatus(airline, flight, timestamp, statusCode);\n        }\n    }\n\n    function getFlightKey(\n        address airline,\n        string calldata flight,\n        uint256 timestamp\n    ) internal pure returns (bytes32) {\n        return keccak256(abi.encodePacked(airline, flight, timestamp));\n    }\n\n    // Returns array of three non-duplicating integers from 0-9\n    function generateIndexes(address account)\n        internal\n        returns (uint8[3] memory)\n    {\n        uint8[3] memory indexes;\n        indexes[0] = getRandomIndex(account);\n\n        indexes[1] = indexes[0];\n        while (indexes[1] == indexes[0]) {\n            indexes[1] = getRandomIndex(account);\n        }\n\n        indexes[2] = indexes[1];\n        while ((indexes[2] == indexes[0]) || (indexes[2] == indexes[1])) {\n            indexes[2] = getRandomIndex(account);\n        }\n\n        return indexes;\n    }\n\n    // Returns array of three non-duplicating integers from 0-9\n    function getRandomIndex(address account) internal returns (uint8) {\n        uint8 maxValue = 10;\n\n        // Pseudo random number...the incrementing nonce adds variation\n        uint8 random = uint8(\n            uint256(\n                keccak256(\n                    abi.encodePacked(blockhash(block.number - nonce++), account)\n                )\n            ) % maxValue\n        );\n\n        if (nonce > 250) {\n            nonce = 0; // Can only fetch blockhashes for last 256 blocks so we adapt\n        }\n\n        return random;\n    }\n\n    // endregion\n}\n",
  "sourcePath": "/home/rafamessias/Documents/udacity/Ethereum/flight-surety/truffle/contracts/FlightSuretyApp.sol",
  "compiler": {
    "name": "solc",
    "version": "0.8.14+commit.80d49f37.Emscripten.clang"
  },
  "schemaVersion": "3.4.8",
  "updatedAt": "2022-09-12T15:46:42.418Z",
  "networkType": "ethereum",
  "devdoc": {
    "kind": "dev",
    "methods": {
      "airlineFund()": {
        "details": "Airline should be able to fund it, before register is approved"
      },
      "approveAirlineRegistration(address,bool)": {
        "details": "Airline Approval function"
      },
      "constructor": {
        "details": "Contract constructor"
      },
      "registerAirline(address,string)": {
        "details": "Add an airline to the registration queue"
      },
      "registerFlight(string,uint256,address)": {
        "details": "Register a future flight for insuring."
      }
    },
    "version": 1
  },
  "userdoc": {
    "kind": "user",
    "methods": {},
    "version": 1
  }
}